{"contracts/Slash.sol":{"Slash":{"abi":[{"anonymous":false,"inputs":[{"indexed":true,"internalType":"address","name":"previousAdmin","type":"address"},{"indexed":true,"internalType":"address","name":"newAdmin","type":"address"}],"name":"AdminChanged","type":"event"},{"anonymous":false,"inputs":[],"name":"Paused","type":"event"},{"anonymous":false,"inputs":[{"indexed":false,"internalType":"uint256","name":"newThreshold","type":"uint256"},{"indexed":false,"internalType":"uint256","name":"newDecreaseRate","type":"uint256"}],"name":"SlashParametersUpdated","type":"event"},{"anonymous":false,"inputs":[{"indexed":true,"internalType":"address","name":"validator","type":"address"}],"name":"SlashRecordCleared","type":"event"},{"anonymous":false,"inputs":[],"name":"Unpaused","type":"event"},{"anonymous":false,"inputs":[{"indexed":false,"internalType":"address[]","name":"validators","type":"address[]"},{"indexed":false,"internalType":"uint256[]","name":"missedBlockCounters","type":"uint256[]"},{"indexed":false,"internalType":"uint256","name":"decreasedCount","type":"uint256"}],"name":"ValidatorDecreasedMissedBlockCounter","type":"event"},{"anonymous":false,"inputs":[{"indexed":true,"internalType":"address","name":"validator","type":"address"},{"indexed":false,"internalType":"uint256","name":"missedCount","type":"uint256"}],"name":"ValidatorMissedBlock","type":"event"},{"anonymous":false,"inputs":[{"indexed":true,"internalType":"address","name":"validator","type":"address"},{"indexed":false,"internalType":"uint256","name":"missedBlocksCounter","type":"uint256"}],"name":"ValidatorSlashed","type":"event"},{"inputs":[],"name":"BlockEpoch","outputs":[{"internalType":"uint256","name":"","type":"uint256"}],"stateMutability":"view","type":"function"},{"inputs":[],"name":"DEFAULT_DECREASE_RATE","outputs":[{"internalType":"uint256","name":"","type":"uint256"}],"stateMutability":"view","type":"function"},{"inputs":[],"name":"DEFAULT_SLASH_THRESHOLD","outputs":[{"internalType":"uint256","name":"","type":"uint256"}],"stateMutability":"view","type":"function"},{"inputs":[],"name":"SlashContractAddr","outputs":[{"internalType":"address","name":"","type":"address"}],"stateMutability":"view","type":"function"},{"inputs":[],"name":"ValidatorContractAddr","outputs":[{"internalType":"address","name":"","type":"address"}],"stateMutability":"view","type":"function"},{"inputs":[],"name":"admin","outputs":[{"internalType":"address","name":"","type":"address"}],"stateMutability":"view","type":"function"},{"inputs":[{"internalType":"address","name":"validator","type":"address"}],"name":"blocksUntilSlash","outputs":[{"internalType":"uint256","name":"","type":"uint256"}],"stateMutability":"view","type":"function"},{"inputs":[{"internalType":"address","name":"newAdmin","type":"address"}],"name":"changeAdmin","outputs":[],"stateMutability":"nonpayable","type":"function"},{"inputs":[{"internalType":"address","name":"validator","type":"address"}],"name":"clean","outputs":[{"internalType":"bool","name":"","type":"bool"}],"stateMutability":"nonpayable","type":"function"},{"inputs":[],"name":"decreaseMissedBlocksCounter","outputs":[],"stateMutability":"nonpayable","type":"function"},{"inputs":[],"name":"decreaseRate","outputs":[{"internalType":"uint256","name":"","type":"uint256"}],"stateMutability":"view","type":"function"},{"inputs":[],"name":"getAllSlashValidators","outputs":[{"internalType":"address[]","name":"","type":"address[]"}],"stateMutability":"view","type":"function"},{"inputs":[{"internalType":"address","name":"validator","type":"address"}],"name":"getSlashRecord","outputs":[{"internalType":"uint256","name":"","type":"uint256"}],"stateMutability":"view","type":"function"},{"inputs":[],"name":"getSlashValidatorsLen","outputs":[{"internalType":"uint256","name":"","type":"uint256"}],"stateMutability":"view","type":"function"},{"inputs":[],"name":"initialize","outputs":[],"stateMutability":"nonpayable","type":"function"},{"inputs":[],"name":"initialized","outputs":[{"internalType":"bool","name":"","type":"bool"}],"stateMutability":"view","type":"function"},{"inputs":[],"name":"pause","outputs":[],"stateMutability":"nonpayable","type":"function"},{"inputs":[],"name":"paused","outputs":[{"internalType":"bool","name":"","type":"bool"}],"stateMutability":"view","type":"function"},{"inputs":[{"internalType":"address","name":"validator","type":"address"}],"name":"slash","outputs":[],"stateMutability":"nonpayable","type":"function"},{"inputs":[{"internalType":"address","name":"validator","type":"address"}],"name":"slashRecordExists","outputs":[{"internalType":"bool","name":"","type":"bool"}],"stateMutability":"view","type":"function"},{"inputs":[{"internalType":"address","name":"","type":"address"}],"name":"slashRecords","outputs":[{"internalType":"uint256","name":"missedBlocksCounter","type":"uint256"},{"internalType":"uint256","name":"index","type":"uint256"},{"internalType":"uint256","name":"decreasePrevNumber","type":"uint256"},{"internalType":"bool","name":"exist","type":"bool"}],"stateMutability":"view","type":"function"},{"inputs":[],"name":"slashThreshold","outputs":[{"internalType":"uint256","name":"","type":"uint256"}],"stateMutability":"view","type":"function"},{"inputs":[{"internalType":"uint256","name":"","type":"uint256"}],"name":"slashValidators","outputs":[{"internalType":"address","name":"","type":"address"}],"stateMutability":"view","type":"function"},{"inputs":[],"name":"unpause","outputs":[],"stateMutability":"nonpayable","type":"function"},{"inputs":[{"internalType":"uint256","name":"newThreshold","type":"uint256"},{"internalType":"uint256","name":"newDecreaseRate","type":"uint256"}],"name":"updateSlashParameters","outputs":[],"stateMutability":"nonpayable","type":"function"},{"inputs":[],"name":"validatorContract","outputs":[{"internalType":"contract IValidators","name":"","type":"address"}],"stateMutability":"view","type":"function"}],"evm":{"bytecode":{"linkReferences":{},"object":"608060405234801561001057600080fd5b50611702806100206000396000f3fe608060405234801561001057600080fd5b506004361061018e5760003560e01c80638456cb59116100de578063d112194711610097578063ee29063211610071578063ee2906321461031c578063f186b49e14610345578063f851a44014610374578063fc99d7a51461038d57600080fd5b8063d1121947146102f7578063e8a3298b1461030c578063ea29ba5f1461031457600080fd5b80638456cb59146102965780638f2839701461029e57806399439089146102b1578063b11b7e28146101bc578063c96be4cb146102d1578063cda2db1b146102e457600080fd5b80633f4ba83a1161014b5780635df415d9116101255780635df415d9146102745780635e81f1f81461027d57806367239a04146102855780638129fc1c1461028e57600080fd5b80633f4ba83a146102105780635b691dc61461021a5780635c975abb1461026257600080fd5b8063014667ba14610193578063123bb007146101bc578063158ef93e146101c4578063169b2623146101de5780632897183d146101f15780633a061bd3146101fa575b600080fd5b6101a66101a1366004610fa6565b6103a0565b6040516101b39190610fd7565b60405180910390f35b6101a6603081565b6000546101d19060ff1681565b6040516101b39190610fed565b6101d16101ec366004610fa6565b6103e0565b6101a660025481565b61020361100081565b6040516101b39190611004565b6102186105f3565b005b610252610228366004610fa6565b60046020526000908152604090208054600182015460028301546003909301549192909160ff1684565b6040516101b39493929190611012565b6000546101d190610100900460ff1681565b6101a660015481565b61021861067e565b61020361100181565b610218610746565b6102186107ad565b6102186102ac366004610fa6565b61083d565b6003546102c4906001600160a01b031681565b6040516101b39190611080565b6102186102df366004610fa6565b6108fc565b6102036102f236600461109f565b610a34565b6102ff610a5e565b6040516101b3919061111e565b6101a660c881565b6005546101a6565b6101a661032a366004610fa6565b6001600160a01b031660009081526004602052604090205490565b6101d1610353366004610fa6565b6001600160a01b031660009081526004602052604090206003015460ff1690565b600054610203906201000090046001600160a01b031681565b61021861039b36600461112f565b610ac0565b6001600160a01b03811660009081526004602052604081205460015481106103cb5750600092915050565b806001546103d99190611182565b9392505050565b6000805460ff1661040c5760405162461bcd60e51b8152600401610403906111c7565b60405180910390fd5b336110001461042d5760405162461bcd60e51b815260040161040390611221565b816001600160a01b0381166104545760405162461bcd60e51b815260040161040390611255565b6001600160a01b0383166000908152600460205260409020600381015460ff1680156104805750805415155b1561048a57600081555b600381015460ff16801561049f575060055415155b156105e9576005546104b390600190611182565b8160010154146105585760058054600091906104d190600190611182565b815481106104e1576104e1611265565b9060005260206000200160009054906101000a90046001600160a01b0316905080600583600101548154811061051957610519611265565b600091825260208083209190910180546001600160a01b0319166001600160a01b03948516179055600185810154949093168252600490526040902001555b60058054806105695761056961127b565b60008281526020808220830160001990810180546001600160a01b03191690559092019092556001600160a01b038616808352600490915260408083208381556001810184905560028101849055600301805460ff191690555190917f77eb05716cd087199d0dc3aef8de0da5d7bd3dca2a076f0f57807027f919c3db91a25b5060019392505050565b6000546201000090046001600160a01b031633146106235760405162461bcd60e51b8152600401610403906112cd565b600054610100900460ff1661064a5760405162461bcd60e51b8152600401610403906112fc565b6000805461ff00191681556040517fa45f47fdea8a1efdd9029a5691c7f759c32b7c698632b563573e155625d169339190a1565b33411461069d5760405162461bcd60e51b815260040161040390611354565b60075443116106be5760405162461bcd60e51b815260040161040390611396565b60005460ff166106e05760405162461bcd60e51b8152600401610403906111c7565b6106eb60c8436113bc565b156107085760405162461bcd60e51b8152600401610403906113f5565b600054610100900460ff16156107305760405162461bcd60e51b81526004016104039061142c565b6005541561074057610740610bda565b43600755565b60005460ff16156107695760405162461bcd60e51b81526004016104039061146c565b600380546001600160a01b031916611000179055603060018181556002919091556000805460ff196201000033021661ff01600160b01b0319909116179091179055565b6000546201000090046001600160a01b031633146107dd5760405162461bcd60e51b8152600401610403906112cd565b600054610100900460ff16156108055760405162461bcd60e51b81526004016104039061149f565b6000805461ff0019166101001781556040517f9e87fac88ff661f02d44f95383c817fece4bce600a3dab7a54406878b965e7529190a1565b6000546201000090046001600160a01b0316331461086d5760405162461bcd60e51b8152600401610403906112cd565b6001600160a01b0381166108935760405162461bcd60e51b8152600401610403906114d9565b600080546040516001600160a01b03808516936201000090930416917f7e644d79422f17c01e4894b5f4f588d331ebfa28653d42ae832dc59e38c9798f91a3600080546001600160a01b03909216620100000262010000600160b01b0319909216919091179055565b33411461091b5760405162461bcd60e51b815260040161040390611354565b60005460ff1661093d5760405162461bcd60e51b8152600401610403906111c7565b600654431161095e5760405162461bcd60e51b81526004016104039061151b565b600054610100900460ff16156109865760405162461bcd60e51b81526004016104039061142c565b806001600160a01b0381166109ad5760405162461bcd60e51b815260040161040390611255565b600354604051631c8b8a3d60e01b81526001600160a01b0390911690631c8b8a3d906109dd908590600401611004565b602060405180830381865afa1580156109fa573d6000803e3d6000fd5b505050506040513d601f19601f82011682018060405250810190610a1e919061153e565b15610a2c57610a2c82610dd9565b505043600655565b60058181548110610a4457600080fd5b6000918252602090912001546001600160a01b0316905081565b60606005805480602002602001604051908101604052809291908181526020018280548015610ab657602002820191906000526020600020905b81546001600160a01b03168152600190910190602001808311610a98575b5050505050905090565b6000546201000090046001600160a01b03163314610af05760405162461bcd60e51b8152600401610403906112cd565b600054610100900460ff1615610b185760405162461bcd60e51b81526004016104039061142c565b600082118015610b29575060648211155b610b455760405162461bcd60e51b815260040161040390611585565b600081118015610b56575060648111155b610b725760405162461bcd60e51b8152600401610403906115bf565b80821015610b925760405162461bcd60e51b81526004016104039061160c565b600182905560028190556040517ff6223ecd911e56a4b0cbe2de2af36e99a4edce1b98e459ae9282aee3c222752690610bce908490849061161c565b60405180910390a15050565b60055460008167ffffffffffffffff811115610bf857610bf8611637565b604051908082528060200260200182016040528015610c21578160200160208202803683370190505b50905060008267ffffffffffffffff811115610c3f57610c3f611637565b604051908082528060200260200182016040528015610c68578160200160208202803683370190505b509050600080600254600154610c7e919061164d565b905060005b85811015610d8f57600060058281548110610ca057610ca0611265565b60009182526020808320909101546001600160a01b03168083526004909152604090912060038101549192509060ff168015610cdf5750438160020154105b15610d7a574360028201558054841015610d125783816000016000828254610d079190611182565b90915550610d179050565b600081555b81878681518110610d2a57610d2a611265565b60200260200101906001600160a01b031690816001600160a01b0316815250508060000154868681518110610d6157610d61611265565b602090810291909101015284610d7681611661565b9550505b50508080610d8790611661565b915050610c83565b508115610dd2577f3e4ebe048d2e0b45269f37ccbfa8ef90af31aea2941cbc91615c150bbe2713f7848484604051610dc9939291906116c1565b60405180910390a15b5050505050565b6001600160a01b0381166000908152600460205260409020600381015460ff16610e5f5760058054600183810182905580820183556000929092527f036b6384b5eca791c62761152d0c79bb0604c104a5fb6f4eb0703f3154bb3db00180546001600160a01b0319166001600160a01b03851617905560038201805460ff191690911790555b8054816000610e6d83611661565b9190505550816001600160a01b03167faa05ad8bd5a439383515a4c1d513394bdc65d7afd3b2ce09f405b53efc6784ae8260000154604051610eaf9190610fd7565b60405180910390a2600154815410610f6d57600354604051632388fac360e11b81526001600160a01b0390911690634711f58690610ef1908590600401611004565b600060405180830381600087803b158015610f0b57600080fd5b505af1158015610f1f573d6000803e3d6000fd5b50505050816001600160a01b03167f17bddadfd7ec8898c3b9eadd0cf5ae77ba8d5df3a50e96ab86ec2dd711aa8fbb8260000154604051610f609190610fd7565b60405180910390a2600081555b5050565b60006001600160a01b0382165b92915050565b610f8d81610f71565b8114610f9857600080fd5b50565b8035610f7e81610f84565b600060208284031215610fbb57610fbb600080fd5b6000610fc78484610f9b565b949350505050565b805b82525050565b60208101610f7e8284610fcf565b801515610fd1565b60208101610f7e8284610fe5565b610fd181610f71565b60208101610f7e8284610ffb565b608081016110208287610fcf565b61102d6020830186610fcf565b61103a6040830185610fcf565b6110476060830184610fe5565b95945050505050565b60006001600160a01b038216610f7e565b6000610f7e82611050565b6000610f7e82611061565b610fd18161106c565b60208101610f7e8284611077565b80610f8d565b8035610f7e8161108e565b6000602082840312156110b4576110b4600080fd5b6000610fc78484611094565b6110ca8282610ffb565b5060200190565b60200190565b60006110e1825190565b808452602093840193830160005b8281101561111457815161110387826110c0565b9650506020820191506001016110ef565b5093949350505050565b602080825281016103d981846110d7565b6000806040838503121561114557611145600080fd5b60006111518585611094565b925050602061116285828601611094565b9150509250929050565b634e487b7160e01b600052601160045260246000fd5b81810381811115610f7e57610f7e61116c565b60198152602081017f74686520636f6e7472616374206e6f7420696e69742079657400000000000000815290506110d1565b60208082528101610f7e81611195565b602d8152602081017f746865206d6573736167652073656e646572206d7573742062652076616c696481526c185d1bdc8818dbdb9d1c9858dd609a1b602082015290505b60400190565b60208082528101610f7e816111d7565b600f8152602081016e496e76616c6964206164647265737360881b815290506110d1565b60208082528101610f7e81611231565b634e487b7160e01b600052603260045260246000fd5b634e487b7160e01b600052603160045260246000fd5b60218152602081017f4f6e6c792061646d696e2063616e2063616c6c20746869732066756e6374696f8152603760f91b6020820152905061121b565b60208082528101610f7e81611291565b600a81526020810169139bdd081c185d5cd95960b21b815290506110d1565b60208082528101610f7e816112dd565b602d8152602081017f746865206d6573736167652073656e646572206d75737420626520746865206281526c3637b1b590383937b23ab1b2b960991b6020820152905061121b565b60208082528101610f7e8161130c565b601f8152602081017f416c72656164792064656372656173656420696e207468697320626c6f636b00815290506110d1565b60208082528101610f7e81611364565b634e487b7160e01b600052601260045260246000fd5b6000826113cb576113cb6113a6565b500690565b60108152602081016f426c6f636b2065706f6368206f6e6c7960801b815290506110d1565b60208082528101610f7e816113d0565b60128152602081017110dbdb9d1c9858dd081a5cc81c185d5cd95960721b815290506110d1565b60208082528101610f7e81611405565b60208082527f74686520636f6e747261637420616c726561647920696e697469616c697a656491019081526110d1565b60208082528101610f7e8161143c565b600e8152602081016d105b1c9958591e481c185d5cd95960921b815290506110d1565b60208082528101610f7e8161147c565b601581526020810174496e76616c69642061646d696e206164647265737360581b815290506110d1565b60208082528101610f7e816114af565b601d8152602081017f416c726561647920736c617368656420696e207468697320626c6f636b000000815290506110d1565b60208082528101610f7e816114e9565b801515610f8d565b8051610f7e8161152b565b60006020828403121561155357611553600080fd5b6000610fc78484611533565b601181526020810170125b9d985b1a59081d1a1c995cda1bdb19607a1b815290506110d1565b60208082528101610f7e8161155f565b601581526020810174496e76616c6964206465637265617365207261746560581b815290506110d1565b60208082528101610f7e81611595565b60228152602081017f5468726573686f6c64206d757374206265203e3d206465637265617365207261815261746560f01b6020820152905061121b565b60208082528101610f7e816115cf565b6040810161162a8285610fcf565b6103d96020830184610fcf565b634e487b7160e01b600052604160045260246000fd5b60008261165c5761165c6113a6565b500490565b6000600182016116735761167361116c565b5060010190565b6110ca8282610fcf565b600061168e825190565b808452602093840193830160005b828110156111145781516116b0878261167a565b96505060208201915060010161169c565b606080825281016116d281866110d7565b905081810360208301526116e68185611684565b9050610fc76040830184610fcf56fea164736f6c6343000813000a","opcodes":"PUSH1 0x80 PUSH1 0x40 MSTORE CALLVALUE DUP1 ISZERO PUSH2 0x10 JUMPI PUSH1 0x0 DUP1 REVERT JUMPDEST POP PUSH2 0x1702 DUP1 PUSH2 0x20 PUSH1 0x0 CODECOPY PUSH1 0x0 RETURN INVALID PUSH1 0x80 PUSH1 0x40 MSTORE CALLVALUE DUP1 ISZERO PUSH2 0x10 JUMPI PUSH1 0x0 DUP1 REVERT JUMPDEST POP PUSH1 0x4 CALLDATASIZE LT PUSH2 0x18E JUMPI PUSH1 0x0 CALLDATALOAD PUSH1 0xE0 SHR DUP1 PUSH4 0x8456CB59 GT PUSH2 0xDE JUMPI DUP1 PUSH4 0xD1121947 GT PUSH2 0x97 JUMPI DUP1 PUSH4 0xEE290632 GT PUSH2 0x71 JUMPI DUP1 PUSH4 0xEE290632 EQ PUSH2 0x31C JUMPI DUP1 PUSH4 0xF186B49E EQ PUSH2 0x345 JUMPI DUP1 PUSH4 0xF851A440 EQ PUSH2 0x374 JUMPI DUP1 PUSH4 0xFC99D7A5 EQ PUSH2 0x38D JUMPI PUSH1 0x0 DUP1 REVERT JUMPDEST DUP1 PUSH4 0xD1121947 EQ PUSH2 0x2F7 JUMPI DUP1 PUSH4 0xE8A3298B EQ PUSH2 0x30C JUMPI DUP1 PUSH4 0xEA29BA5F EQ PUSH2 0x314 JUMPI PUSH1 0x0 DUP1 REVERT JUMPDEST DUP1 PUSH4 0x8456CB59 EQ PUSH2 0x296 JUMPI DUP1 PUSH4 0x8F283970 EQ PUSH2 0x29E JUMPI DUP1 PUSH4 0x99439089 EQ PUSH2 0x2B1 JUMPI DUP1 PUSH4 0xB11B7E28 EQ PUSH2 0x1BC JUMPI DUP1 PUSH4 0xC96BE4CB EQ PUSH2 0x2D1 JUMPI DUP1 PUSH4 0xCDA2DB1B EQ PUSH2 0x2E4 JUMPI PUSH1 0x0 DUP1 REVERT JUMPDEST DUP1 PUSH4 0x3F4BA83A GT PUSH2 0x14B JUMPI DUP1 PUSH4 0x5DF415D9 GT PUSH2 0x125 JUMPI DUP1 PUSH4 0x5DF415D9 EQ PUSH2 0x274 JUMPI DUP1 PUSH4 0x5E81F1F8 EQ PUSH2 0x27D JUMPI DUP1 PUSH4 0x67239A04 EQ PUSH2 0x285 JUMPI DUP1 PUSH4 0x8129FC1C EQ PUSH2 0x28E JUMPI PUSH1 0x0 DUP1 REVERT JUMPDEST DUP1 PUSH4 0x3F4BA83A EQ PUSH2 0x210 JUMPI DUP1 PUSH4 0x5B691DC6 EQ PUSH2 0x21A JUMPI DUP1 PUSH4 0x5C975ABB EQ PUSH2 0x262 JUMPI PUSH1 0x0 DUP1 REVERT JUMPDEST DUP1 PUSH4 0x14667BA EQ PUSH2 0x193 JUMPI DUP1 PUSH4 0x123BB007 EQ PUSH2 0x1BC JUMPI DUP1 PUSH4 0x158EF93E EQ PUSH2 0x1C4 JUMPI DUP1 PUSH4 0x169B2623 EQ PUSH2 0x1DE JUMPI DUP1 PUSH4 0x2897183D EQ PUSH2 0x1F1 JUMPI DUP1 PUSH4 0x3A061BD3 EQ PUSH2 0x1FA JUMPI JUMPDEST PUSH1 0x0 DUP1 REVERT JUMPDEST PUSH2 0x1A6 PUSH2 0x1A1 CALLDATASIZE PUSH1 0x4 PUSH2 0xFA6 JUMP JUMPDEST PUSH2 0x3A0 JUMP JUMPDEST PUSH1 0x40 MLOAD PUSH2 0x1B3 SWAP2 SWAP1 PUSH2 0xFD7 JUMP JUMPDEST PUSH1 0x40 MLOAD DUP1 SWAP2 SUB SWAP1 RETURN JUMPDEST PUSH2 0x1A6 PUSH1 0x30 DUP2 JUMP JUMPDEST PUSH1 0x0 SLOAD PUSH2 0x1D1 SWAP1 PUSH1 0xFF AND DUP2 JUMP JUMPDEST PUSH1 0x40 MLOAD PUSH2 0x1B3 SWAP2 SWAP1 PUSH2 0xFED JUMP JUMPDEST PUSH2 0x1D1 PUSH2 0x1EC CALLDATASIZE PUSH1 0x4 PUSH2 0xFA6 JUMP JUMPDEST PUSH2 0x3E0 JUMP JUMPDEST PUSH2 0x1A6 PUSH1 0x2 SLOAD DUP2 JUMP JUMPDEST PUSH2 0x203 PUSH2 0x1000 DUP2 JUMP JUMPDEST PUSH1 0x40 MLOAD PUSH2 0x1B3 SWAP2 SWAP1 PUSH2 0x1004 JUMP JUMPDEST PUSH2 0x218 PUSH2 0x5F3 JUMP JUMPDEST STOP JUMPDEST PUSH2 0x252 PUSH2 0x228 CALLDATASIZE PUSH1 0x4 PUSH2 0xFA6 JUMP JUMPDEST PUSH1 0x4 PUSH1 0x20 MSTORE PUSH1 0x0 SWAP1 DUP2 MSTORE PUSH1 0x40 SWAP1 KECCAK256 DUP1 SLOAD PUSH1 0x1 DUP3 ADD SLOAD PUSH1 0x2 DUP4 ADD SLOAD PUSH1 0x3 SWAP1 SWAP4 ADD SLOAD SWAP2 SWAP3 SWAP1 SWAP2 PUSH1 0xFF AND DUP5 JUMP JUMPDEST PUSH1 0x40 MLOAD PUSH2 0x1B3 SWAP5 SWAP4 SWAP3 SWAP2 SWAP1 PUSH2 0x1012 JUMP JUMPDEST PUSH1 0x0 SLOAD PUSH2 0x1D1 SWAP1 PUSH2 0x100 SWAP1 DIV PUSH1 0xFF AND DUP2 JUMP JUMPDEST PUSH2 0x1A6 PUSH1 0x1 SLOAD DUP2 JUMP JUMPDEST PUSH2 0x218 PUSH2 0x67E JUMP JUMPDEST PUSH2 0x203 PUSH2 0x1001 DUP2 JUMP JUMPDEST PUSH2 0x218 PUSH2 0x746 JUMP JUMPDEST PUSH2 0x218 PUSH2 0x7AD JUMP JUMPDEST PUSH2 0x218 PUSH2 0x2AC CALLDATASIZE PUSH1 0x4 PUSH2 0xFA6 JUMP JUMPDEST PUSH2 0x83D JUMP JUMPDEST PUSH1 0x3 SLOAD PUSH2 0x2C4 SWAP1 PUSH1 0x1 PUSH1 0x1 PUSH1 0xA0 SHL SUB AND DUP2 JUMP JUMPDEST PUSH1 0x40 MLOAD PUSH2 0x1B3 SWAP2 SWAP1 PUSH2 0x1080 JUMP JUMPDEST PUSH2 0x218 PUSH2 0x2DF CALLDATASIZE PUSH1 0x4 PUSH2 0xFA6 JUMP JUMPDEST PUSH2 0x8FC JUMP JUMPDEST PUSH2 0x203 PUSH2 0x2F2 CALLDATASIZE PUSH1 0x4 PUSH2 0x109F JUMP JUMPDEST PUSH2 0xA34 JUMP JUMPDEST PUSH2 0x2FF PUSH2 0xA5E JUMP JUMPDEST PUSH1 0x40 MLOAD PUSH2 0x1B3 SWAP2 SWAP1 PUSH2 0x111E JUMP JUMPDEST PUSH2 0x1A6 PUSH1 0xC8 DUP2 JUMP JUMPDEST PUSH1 0x5 SLOAD PUSH2 0x1A6 JUMP JUMPDEST PUSH2 0x1A6 PUSH2 0x32A CALLDATASIZE PUSH1 0x4 PUSH2 0xFA6 JUMP JUMPDEST PUSH1 0x1 PUSH1 0x1 PUSH1 0xA0 SHL SUB AND PUSH1 0x0 SWAP1 DUP2 MSTORE PUSH1 0x4 PUSH1 0x20 MSTORE PUSH1 0x40 SWAP1 KECCAK256 SLOAD SWAP1 JUMP JUMPDEST PUSH2 0x1D1 PUSH2 0x353 CALLDATASIZE PUSH1 0x4 PUSH2 0xFA6 JUMP JUMPDEST PUSH1 0x1 PUSH1 0x1 PUSH1 0xA0 SHL SUB AND PUSH1 0x0 SWAP1 DUP2 MSTORE PUSH1 0x4 PUSH1 0x20 MSTORE PUSH1 0x40 SWAP1 KECCAK256 PUSH1 0x3 ADD SLOAD PUSH1 0xFF AND SWAP1 JUMP JUMPDEST PUSH1 0x0 SLOAD PUSH2 0x203 SWAP1 PUSH3 0x10000 SWAP1 DIV PUSH1 0x1 PUSH1 0x1 PUSH1 0xA0 SHL SUB AND DUP2 JUMP JUMPDEST PUSH2 0x218 PUSH2 0x39B CALLDATASIZE PUSH1 0x4 PUSH2 0x112F JUMP JUMPDEST PUSH2 0xAC0 JUMP JUMPDEST PUSH1 0x1 PUSH1 0x1 PUSH1 0xA0 SHL SUB DUP2 AND PUSH1 0x0 SWAP1 DUP2 MSTORE PUSH1 0x4 PUSH1 0x20 MSTORE PUSH1 0x40 DUP2 KECCAK256 SLOAD PUSH1 0x1 SLOAD DUP2 LT PUSH2 0x3CB JUMPI POP PUSH1 0x0 SWAP3 SWAP2 POP POP JUMP JUMPDEST DUP1 PUSH1 0x1 SLOAD PUSH2 0x3D9 SWAP2 SWAP1 PUSH2 0x1182 JUMP JUMPDEST SWAP4 SWAP3 POP POP POP JUMP JUMPDEST PUSH1 0x0 DUP1 SLOAD PUSH1 0xFF AND PUSH2 0x40C JUMPI PUSH1 0x40 MLOAD PUSH3 0x461BCD PUSH1 0xE5 SHL DUP2 MSTORE PUSH1 0x4 ADD PUSH2 0x403 SWAP1 PUSH2 0x11C7 JUMP JUMPDEST PUSH1 0x40 MLOAD DUP1 SWAP2 SUB SWAP1 REVERT JUMPDEST CALLER PUSH2 0x1000 EQ PUSH2 0x42D JUMPI PUSH1 0x40 MLOAD PUSH3 0x461BCD PUSH1 0xE5 SHL DUP2 MSTORE PUSH1 0x4 ADD PUSH2 0x403 SWAP1 PUSH2 0x1221 JUMP JUMPDEST DUP2 PUSH1 0x1 PUSH1 0x1 PUSH1 0xA0 SHL SUB DUP2 AND PUSH2 0x454 JUMPI PUSH1 0x40 MLOAD PUSH3 0x461BCD PUSH1 0xE5 SHL DUP2 MSTORE PUSH1 0x4 ADD PUSH2 0x403 SWAP1 PUSH2 0x1255 JUMP JUMPDEST PUSH1 0x1 PUSH1 0x1 PUSH1 0xA0 SHL SUB DUP4 AND PUSH1 0x0 SWAP1 DUP2 MSTORE PUSH1 0x4 PUSH1 0x20 MSTORE PUSH1 0x40 SWAP1 KECCAK256 PUSH1 0x3 DUP2 ADD SLOAD PUSH1 0xFF AND DUP1 ISZERO PUSH2 0x480 JUMPI POP DUP1 SLOAD ISZERO ISZERO JUMPDEST ISZERO PUSH2 0x48A JUMPI PUSH1 0x0 DUP2 SSTORE JUMPDEST PUSH1 0x3 DUP2 ADD SLOAD PUSH1 0xFF AND DUP1 ISZERO PUSH2 0x49F JUMPI POP PUSH1 0x5 SLOAD ISZERO ISZERO JUMPDEST ISZERO PUSH2 0x5E9 JUMPI PUSH1 0x5 SLOAD PUSH2 0x4B3 SWAP1 PUSH1 0x1 SWAP1 PUSH2 0x1182 JUMP JUMPDEST DUP2 PUSH1 0x1 ADD SLOAD EQ PUSH2 0x558 JUMPI PUSH1 0x5 DUP1 SLOAD PUSH1 0x0 SWAP2 SWAP1 PUSH2 0x4D1 SWAP1 PUSH1 0x1 SWAP1 PUSH2 0x1182 JUMP JUMPDEST DUP2 SLOAD DUP2 LT PUSH2 0x4E1 JUMPI PUSH2 0x4E1 PUSH2 0x1265 JUMP JUMPDEST SWAP1 PUSH1 0x0 MSTORE PUSH1 0x20 PUSH1 0x0 KECCAK256 ADD PUSH1 0x0 SWAP1 SLOAD SWAP1 PUSH2 0x100 EXP SWAP1 DIV PUSH1 0x1 PUSH1 0x1 PUSH1 0xA0 SHL SUB AND SWAP1 POP DUP1 PUSH1 0x5 DUP4 PUSH1 0x1 ADD SLOAD DUP2 SLOAD DUP2 LT PUSH2 0x519 JUMPI PUSH2 0x519 PUSH2 0x1265 JUMP JUMPDEST PUSH1 0x0 SWAP2 DUP3 MSTORE PUSH1 0x20 DUP1 DUP4 KECCAK256 SWAP2 SWAP1 SWAP2 ADD DUP1 SLOAD PUSH1 0x1 PUSH1 0x1 PUSH1 0xA0 SHL SUB NOT AND PUSH1 0x1 PUSH1 0x1 PUSH1 0xA0 SHL SUB SWAP5 DUP6 AND OR SWAP1 SSTORE PUSH1 0x1 DUP6 DUP2 ADD SLOAD SWAP5 SWAP1 SWAP4 AND DUP3 MSTORE PUSH1 0x4 SWAP1 MSTORE PUSH1 0x40 SWAP1 KECCAK256 ADD SSTORE JUMPDEST PUSH1 0x5 DUP1 SLOAD DUP1 PUSH2 0x569 JUMPI PUSH2 0x569 PUSH2 0x127B JUMP JUMPDEST PUSH1 0x0 DUP3 DUP2 MSTORE PUSH1 0x20 DUP1 DUP3 KECCAK256 DUP4 ADD PUSH1 0x0 NOT SWAP1 DUP2 ADD DUP1 SLOAD PUSH1 0x1 PUSH1 0x1 PUSH1 0xA0 SHL SUB NOT AND SWAP1 SSTORE SWAP1 SWAP3 ADD SWAP1 SWAP3 SSTORE PUSH1 0x1 PUSH1 0x1 PUSH1 0xA0 SHL SUB DUP7 AND DUP1 DUP4 MSTORE PUSH1 0x4 SWAP1 SWAP2 MSTORE PUSH1 0x40 DUP1 DUP4 KECCAK256 DUP4 DUP2 SSTORE PUSH1 0x1 DUP2 ADD DUP5 SWAP1 SSTORE PUSH1 0x2 DUP2 ADD DUP5 SWAP1 SSTORE PUSH1 0x3 ADD DUP1 SLOAD PUSH1 0xFF NOT AND SWAP1 SSTORE MLOAD SWAP1 SWAP2 PUSH32 0x77EB05716CD087199D0DC3AEF8DE0DA5D7BD3DCA2A076F0F57807027F919C3DB SWAP2 LOG2 JUMPDEST POP PUSH1 0x1 SWAP4 SWAP3 POP POP POP JUMP JUMPDEST PUSH1 0x0 SLOAD PUSH3 0x10000 SWAP1 DIV PUSH1 0x1 PUSH1 0x1 PUSH1 0xA0 SHL SUB AND CALLER EQ PUSH2 0x623 JUMPI PUSH1 0x40 MLOAD PUSH3 0x461BCD PUSH1 0xE5 SHL DUP2 MSTORE PUSH1 0x4 ADD PUSH2 0x403 SWAP1 PUSH2 0x12CD JUMP JUMPDEST PUSH1 0x0 SLOAD PUSH2 0x100 SWAP1 DIV PUSH1 0xFF AND PUSH2 0x64A JUMPI PUSH1 0x40 MLOAD PUSH3 0x461BCD PUSH1 0xE5 SHL DUP2 MSTORE PUSH1 0x4 ADD PUSH2 0x403 SWAP1 PUSH2 0x12FC JUMP JUMPDEST PUSH1 0x0 DUP1 SLOAD PUSH2 0xFF00 NOT AND DUP2 SSTORE PUSH1 0x40 MLOAD PUSH32 0xA45F47FDEA8A1EFDD9029A5691C7F759C32B7C698632B563573E155625D16933 SWAP2 SWAP1 LOG1 JUMP JUMPDEST CALLER COINBASE EQ PUSH2 0x69D JUMPI PUSH1 0x40 MLOAD PUSH3 0x461BCD PUSH1 0xE5 SHL DUP2 MSTORE PUSH1 0x4 ADD PUSH2 0x403 SWAP1 PUSH2 0x1354 JUMP JUMPDEST PUSH1 0x7 SLOAD NUMBER GT PUSH2 0x6BE JUMPI PUSH1 0x40 MLOAD PUSH3 0x461BCD PUSH1 0xE5 SHL DUP2 MSTORE PUSH1 0x4 ADD PUSH2 0x403 SWAP1 PUSH2 0x1396 JUMP JUMPDEST PUSH1 0x0 SLOAD PUSH1 0xFF AND PUSH2 0x6E0 JUMPI PUSH1 0x40 MLOAD PUSH3 0x461BCD PUSH1 0xE5 SHL DUP2 MSTORE PUSH1 0x4 ADD PUSH2 0x403 SWAP1 PUSH2 0x11C7 JUMP JUMPDEST PUSH2 0x6EB PUSH1 0xC8 NUMBER PUSH2 0x13BC JUMP JUMPDEST ISZERO PUSH2 0x708 JUMPI PUSH1 0x40 MLOAD PUSH3 0x461BCD PUSH1 0xE5 SHL DUP2 MSTORE PUSH1 0x4 ADD PUSH2 0x403 SWAP1 PUSH2 0x13F5 JUMP JUMPDEST PUSH1 0x0 SLOAD PUSH2 0x100 SWAP1 DIV PUSH1 0xFF AND ISZERO PUSH2 0x730 JUMPI PUSH1 0x40 MLOAD PUSH3 0x461BCD PUSH1 0xE5 SHL DUP2 MSTORE PUSH1 0x4 ADD PUSH2 0x403 SWAP1 PUSH2 0x142C JUMP JUMPDEST PUSH1 0x5 SLOAD ISZERO PUSH2 0x740 JUMPI PUSH2 0x740 PUSH2 0xBDA JUMP JUMPDEST NUMBER PUSH1 0x7 SSTORE JUMP JUMPDEST PUSH1 0x0 SLOAD PUSH1 0xFF AND ISZERO PUSH2 0x769 JUMPI PUSH1 0x40 MLOAD PUSH3 0x461BCD PUSH1 0xE5 SHL DUP2 MSTORE PUSH1 0x4 ADD PUSH2 0x403 SWAP1 PUSH2 0x146C JUMP JUMPDEST PUSH1 0x3 DUP1 SLOAD PUSH1 0x1 PUSH1 0x1 PUSH1 0xA0 SHL SUB NOT AND PUSH2 0x1000 OR SWAP1 SSTORE PUSH1 0x30 PUSH1 0x1 DUP2 DUP2 SSTORE PUSH1 0x2 SWAP2 SWAP1 SWAP2 SSTORE PUSH1 0x0 DUP1 SLOAD PUSH1 0xFF NOT PUSH3 0x10000 CALLER MUL AND PUSH2 0xFF01 PUSH1 0x1 PUSH1 0xB0 SHL SUB NOT SWAP1 SWAP2 AND OR SWAP1 SWAP2 OR SWAP1 SSTORE JUMP JUMPDEST PUSH1 0x0 SLOAD PUSH3 0x10000 SWAP1 DIV PUSH1 0x1 PUSH1 0x1 PUSH1 0xA0 SHL SUB AND CALLER EQ PUSH2 0x7DD JUMPI PUSH1 0x40 MLOAD PUSH3 0x461BCD PUSH1 0xE5 SHL DUP2 MSTORE PUSH1 0x4 ADD PUSH2 0x403 SWAP1 PUSH2 0x12CD JUMP JUMPDEST PUSH1 0x0 SLOAD PUSH2 0x100 SWAP1 DIV PUSH1 0xFF AND ISZERO PUSH2 0x805 JUMPI PUSH1 0x40 MLOAD PUSH3 0x461BCD PUSH1 0xE5 SHL DUP2 MSTORE PUSH1 0x4 ADD PUSH2 0x403 SWAP1 PUSH2 0x149F JUMP JUMPDEST PUSH1 0x0 DUP1 SLOAD PUSH2 0xFF00 NOT AND PUSH2 0x100 OR DUP2 SSTORE PUSH1 0x40 MLOAD PUSH32 0x9E87FAC88FF661F02D44F95383C817FECE4BCE600A3DAB7A54406878B965E752 SWAP2 SWAP1 LOG1 JUMP JUMPDEST PUSH1 0x0 SLOAD PUSH3 0x10000 SWAP1 DIV PUSH1 0x1 PUSH1 0x1 PUSH1 0xA0 SHL SUB AND CALLER EQ PUSH2 0x86D JUMPI PUSH1 0x40 MLOAD PUSH3 0x461BCD PUSH1 0xE5 SHL DUP2 MSTORE PUSH1 0x4 ADD PUSH2 0x403 SWAP1 PUSH2 0x12CD JUMP JUMPDEST PUSH1 0x1 PUSH1 0x1 PUSH1 0xA0 SHL SUB DUP2 AND PUSH2 0x893 JUMPI PUSH1 0x40 MLOAD PUSH3 0x461BCD PUSH1 0xE5 SHL DUP2 MSTORE PUSH1 0x4 ADD PUSH2 0x403 SWAP1 PUSH2 0x14D9 JUMP JUMPDEST PUSH1 0x0 DUP1 SLOAD PUSH1 0x40 MLOAD PUSH1 0x1 PUSH1 0x1 PUSH1 0xA0 SHL SUB DUP1 DUP6 AND SWAP4 PUSH3 0x10000 SWAP1 SWAP4 DIV AND SWAP2 PUSH32 0x7E644D79422F17C01E4894B5F4F588D331EBFA28653D42AE832DC59E38C9798F SWAP2 LOG3 PUSH1 0x0 DUP1 SLOAD PUSH1 0x1 PUSH1 0x1 PUSH1 0xA0 SHL SUB SWAP1 SWAP3 AND PUSH3 0x10000 MUL PUSH3 0x10000 PUSH1 0x1 PUSH1 0xB0 SHL SUB NOT SWAP1 SWAP3 AND SWAP2 SWAP1 SWAP2 OR SWAP1 SSTORE JUMP JUMPDEST CALLER COINBASE EQ PUSH2 0x91B JUMPI PUSH1 0x40 MLOAD PUSH3 0x461BCD PUSH1 0xE5 SHL DUP2 MSTORE PUSH1 0x4 ADD PUSH2 0x403 SWAP1 PUSH2 0x1354 JUMP JUMPDEST PUSH1 0x0 SLOAD PUSH1 0xFF AND PUSH2 0x93D JUMPI PUSH1 0x40 MLOAD PUSH3 0x461BCD PUSH1 0xE5 SHL DUP2 MSTORE PUSH1 0x4 ADD PUSH2 0x403 SWAP1 PUSH2 0x11C7 JUMP JUMPDEST PUSH1 0x6 SLOAD NUMBER GT PUSH2 0x95E JUMPI PUSH1 0x40 MLOAD PUSH3 0x461BCD PUSH1 0xE5 SHL DUP2 MSTORE PUSH1 0x4 ADD PUSH2 0x403 SWAP1 PUSH2 0x151B JUMP JUMPDEST PUSH1 0x0 SLOAD PUSH2 0x100 SWAP1 DIV PUSH1 0xFF AND ISZERO PUSH2 0x986 JUMPI PUSH1 0x40 MLOAD PUSH3 0x461BCD PUSH1 0xE5 SHL DUP2 MSTORE PUSH1 0x4 ADD PUSH2 0x403 SWAP1 PUSH2 0x142C JUMP JUMPDEST DUP1 PUSH1 0x1 PUSH1 0x1 PUSH1 0xA0 SHL SUB DUP2 AND PUSH2 0x9AD JUMPI PUSH1 0x40 MLOAD PUSH3 0x461BCD PUSH1 0xE5 SHL DUP2 MSTORE PUSH1 0x4 ADD PUSH2 0x403 SWAP1 PUSH2 0x1255 JUMP JUMPDEST PUSH1 0x3 SLOAD PUSH1 0x40 MLOAD PUSH4 0x1C8B8A3D PUSH1 0xE0 SHL DUP2 MSTORE PUSH1 0x1 PUSH1 0x1 PUSH1 0xA0 SHL SUB SWAP1 SWAP2 AND SWAP1 PUSH4 0x1C8B8A3D SWAP1 PUSH2 0x9DD SWAP1 DUP6 SWAP1 PUSH1 0x4 ADD PUSH2 0x1004 JUMP JUMPDEST PUSH1 0x20 PUSH1 0x40 MLOAD DUP1 DUP4 SUB DUP2 DUP7 GAS STATICCALL ISZERO DUP1 ISZERO PUSH2 0x9FA JUMPI RETURNDATASIZE PUSH1 0x0 DUP1 RETURNDATACOPY RETURNDATASIZE PUSH1 0x0 REVERT JUMPDEST POP POP POP POP PUSH1 0x40 MLOAD RETURNDATASIZE PUSH1 0x1F NOT PUSH1 0x1F DUP3 ADD AND DUP3 ADD DUP1 PUSH1 0x40 MSTORE POP DUP2 ADD SWAP1 PUSH2 0xA1E SWAP2 SWAP1 PUSH2 0x153E JUMP JUMPDEST ISZERO PUSH2 0xA2C JUMPI PUSH2 0xA2C DUP3 PUSH2 0xDD9 JUMP JUMPDEST POP POP NUMBER PUSH1 0x6 SSTORE JUMP JUMPDEST PUSH1 0x5 DUP2 DUP2 SLOAD DUP2 LT PUSH2 0xA44 JUMPI PUSH1 0x0 DUP1 REVERT JUMPDEST PUSH1 0x0 SWAP2 DUP3 MSTORE PUSH1 0x20 SWAP1 SWAP2 KECCAK256 ADD SLOAD PUSH1 0x1 PUSH1 0x1 PUSH1 0xA0 SHL SUB AND SWAP1 POP DUP2 JUMP JUMPDEST PUSH1 0x60 PUSH1 0x5 DUP1 SLOAD DUP1 PUSH1 0x20 MUL PUSH1 0x20 ADD PUSH1 0x40 MLOAD SWAP1 DUP2 ADD PUSH1 0x40 MSTORE DUP1 SWAP3 SWAP2 SWAP1 DUP2 DUP2 MSTORE PUSH1 0x20 ADD DUP3 DUP1 SLOAD DUP1 ISZERO PUSH2 0xAB6 JUMPI PUSH1 0x20 MUL DUP3 ADD SWAP2 SWAP1 PUSH1 0x0 MSTORE PUSH1 0x20 PUSH1 0x0 KECCAK256 SWAP1 JUMPDEST DUP2 SLOAD PUSH1 0x1 PUSH1 0x1 PUSH1 0xA0 SHL SUB AND DUP2 MSTORE PUSH1 0x1 SWAP1 SWAP2 ADD SWAP1 PUSH1 0x20 ADD DUP1 DUP4 GT PUSH2 0xA98 JUMPI JUMPDEST POP POP POP POP POP SWAP1 POP SWAP1 JUMP JUMPDEST PUSH1 0x0 SLOAD PUSH3 0x10000 SWAP1 DIV PUSH1 0x1 PUSH1 0x1 PUSH1 0xA0 SHL SUB AND CALLER EQ PUSH2 0xAF0 JUMPI PUSH1 0x40 MLOAD PUSH3 0x461BCD PUSH1 0xE5 SHL DUP2 MSTORE PUSH1 0x4 ADD PUSH2 0x403 SWAP1 PUSH2 0x12CD JUMP JUMPDEST PUSH1 0x0 SLOAD PUSH2 0x100 SWAP1 DIV PUSH1 0xFF AND ISZERO PUSH2 0xB18 JUMPI PUSH1 0x40 MLOAD PUSH3 0x461BCD PUSH1 0xE5 SHL DUP2 MSTORE PUSH1 0x4 ADD PUSH2 0x403 SWAP1 PUSH2 0x142C JUMP JUMPDEST PUSH1 0x0 DUP3 GT DUP1 ISZERO PUSH2 0xB29 JUMPI POP PUSH1 0x64 DUP3 GT ISZERO JUMPDEST PUSH2 0xB45 JUMPI PUSH1 0x40 MLOAD PUSH3 0x461BCD PUSH1 0xE5 SHL DUP2 MSTORE PUSH1 0x4 ADD PUSH2 0x403 SWAP1 PUSH2 0x1585 JUMP JUMPDEST PUSH1 0x0 DUP2 GT DUP1 ISZERO PUSH2 0xB56 JUMPI POP PUSH1 0x64 DUP2 GT ISZERO JUMPDEST PUSH2 0xB72 JUMPI PUSH1 0x40 MLOAD PUSH3 0x461BCD PUSH1 0xE5 SHL DUP2 MSTORE PUSH1 0x4 ADD PUSH2 0x403 SWAP1 PUSH2 0x15BF JUMP JUMPDEST DUP1 DUP3 LT ISZERO PUSH2 0xB92 JUMPI PUSH1 0x40 MLOAD PUSH3 0x461BCD PUSH1 0xE5 SHL DUP2 MSTORE PUSH1 0x4 ADD PUSH2 0x403 SWAP1 PUSH2 0x160C JUMP JUMPDEST PUSH1 0x1 DUP3 SWAP1 SSTORE PUSH1 0x2 DUP2 SWAP1 SSTORE PUSH1 0x40 MLOAD PUSH32 0xF6223ECD911E56A4B0CBE2DE2AF36E99A4EDCE1B98E459AE9282AEE3C2227526 SWAP1 PUSH2 0xBCE SWAP1 DUP5 SWAP1 DUP5 SWAP1 PUSH2 0x161C JUMP JUMPDEST PUSH1 0x40 MLOAD DUP1 SWAP2 SUB SWAP1 LOG1 POP POP JUMP JUMPDEST PUSH1 0x5 SLOAD PUSH1 0x0 DUP2 PUSH8 0xFFFFFFFFFFFFFFFF DUP2 GT ISZERO PUSH2 0xBF8 JUMPI PUSH2 0xBF8 PUSH2 0x1637 JUMP JUMPDEST PUSH1 0x40 MLOAD SWAP1 DUP1 DUP3 MSTORE DUP1 PUSH1 0x20 MUL PUSH1 0x20 ADD DUP3 ADD PUSH1 0x40 MSTORE DUP1 ISZERO PUSH2 0xC21 JUMPI DUP2 PUSH1 0x20 ADD PUSH1 0x20 DUP3 MUL DUP1 CALLDATASIZE DUP4 CALLDATACOPY ADD SWAP1 POP JUMPDEST POP SWAP1 POP PUSH1 0x0 DUP3 PUSH8 0xFFFFFFFFFFFFFFFF DUP2 GT ISZERO PUSH2 0xC3F JUMPI PUSH2 0xC3F PUSH2 0x1637 JUMP JUMPDEST PUSH1 0x40 MLOAD SWAP1 DUP1 DUP3 MSTORE DUP1 PUSH1 0x20 MUL PUSH1 0x20 ADD DUP3 ADD PUSH1 0x40 MSTORE DUP1 ISZERO PUSH2 0xC68 JUMPI DUP2 PUSH1 0x20 ADD PUSH1 0x20 DUP3 MUL DUP1 CALLDATASIZE DUP4 CALLDATACOPY ADD SWAP1 POP JUMPDEST POP SWAP1 POP PUSH1 0x0 DUP1 PUSH1 0x2 SLOAD PUSH1 0x1 SLOAD PUSH2 0xC7E SWAP2 SWAP1 PUSH2 0x164D JUMP JUMPDEST SWAP1 POP PUSH1 0x0 JUMPDEST DUP6 DUP2 LT ISZERO PUSH2 0xD8F JUMPI PUSH1 0x0 PUSH1 0x5 DUP3 DUP2 SLOAD DUP2 LT PUSH2 0xCA0 JUMPI PUSH2 0xCA0 PUSH2 0x1265 JUMP JUMPDEST PUSH1 0x0 SWAP2 DUP3 MSTORE PUSH1 0x20 DUP1 DUP4 KECCAK256 SWAP1 SWAP2 ADD SLOAD PUSH1 0x1 PUSH1 0x1 PUSH1 0xA0 SHL SUB AND DUP1 DUP4 MSTORE PUSH1 0x4 SWAP1 SWAP2 MSTORE PUSH1 0x40 SWAP1 SWAP2 KECCAK256 PUSH1 0x3 DUP2 ADD SLOAD SWAP2 SWAP3 POP SWAP1 PUSH1 0xFF AND DUP1 ISZERO PUSH2 0xCDF JUMPI POP NUMBER DUP2 PUSH1 0x2 ADD SLOAD LT JUMPDEST ISZERO PUSH2 0xD7A JUMPI NUMBER PUSH1 0x2 DUP3 ADD SSTORE DUP1 SLOAD DUP5 LT ISZERO PUSH2 0xD12 JUMPI DUP4 DUP2 PUSH1 0x0 ADD PUSH1 0x0 DUP3 DUP3 SLOAD PUSH2 0xD07 SWAP2 SWAP1 PUSH2 0x1182 JUMP JUMPDEST SWAP1 SWAP2 SSTORE POP PUSH2 0xD17 SWAP1 POP JUMP JUMPDEST PUSH1 0x0 DUP2 SSTORE JUMPDEST DUP2 DUP8 DUP7 DUP2 MLOAD DUP2 LT PUSH2 0xD2A JUMPI PUSH2 0xD2A PUSH2 0x1265 JUMP JUMPDEST PUSH1 0x20 MUL PUSH1 0x20 ADD ADD SWAP1 PUSH1 0x1 PUSH1 0x1 PUSH1 0xA0 SHL SUB AND SWAP1 DUP2 PUSH1 0x1 PUSH1 0x1 PUSH1 0xA0 SHL SUB AND DUP2 MSTORE POP POP DUP1 PUSH1 0x0 ADD SLOAD DUP7 DUP7 DUP2 MLOAD DUP2 LT PUSH2 0xD61 JUMPI PUSH2 0xD61 PUSH2 0x1265 JUMP JUMPDEST PUSH1 0x20 SWAP1 DUP2 MUL SWAP2 SWAP1 SWAP2 ADD ADD MSTORE DUP5 PUSH2 0xD76 DUP2 PUSH2 0x1661 JUMP JUMPDEST SWAP6 POP POP JUMPDEST POP POP DUP1 DUP1 PUSH2 0xD87 SWAP1 PUSH2 0x1661 JUMP JUMPDEST SWAP2 POP POP PUSH2 0xC83 JUMP JUMPDEST POP DUP2 ISZERO PUSH2 0xDD2 JUMPI PUSH32 0x3E4EBE048D2E0B45269F37CCBFA8EF90AF31AEA2941CBC91615C150BBE2713F7 DUP5 DUP5 DUP5 PUSH1 0x40 MLOAD PUSH2 0xDC9 SWAP4 SWAP3 SWAP2 SWAP1 PUSH2 0x16C1 JUMP JUMPDEST PUSH1 0x40 MLOAD DUP1 SWAP2 SUB SWAP1 LOG1 JUMPDEST POP POP POP POP POP JUMP JUMPDEST PUSH1 0x1 PUSH1 0x1 PUSH1 0xA0 SHL SUB DUP2 AND PUSH1 0x0 SWAP1 DUP2 MSTORE PUSH1 0x4 PUSH1 0x20 MSTORE PUSH1 0x40 SWAP1 KECCAK256 PUSH1 0x3 DUP2 ADD SLOAD PUSH1 0xFF AND PUSH2 0xE5F JUMPI PUSH1 0x5 DUP1 SLOAD PUSH1 0x1 DUP4 DUP2 ADD DUP3 SWAP1 SSTORE DUP1 DUP3 ADD DUP4 SSTORE PUSH1 0x0 SWAP3 SWAP1 SWAP3 MSTORE PUSH32 0x36B6384B5ECA791C62761152D0C79BB0604C104A5FB6F4EB0703F3154BB3DB0 ADD DUP1 SLOAD PUSH1 0x1 PUSH1 0x1 PUSH1 0xA0 SHL SUB NOT AND PUSH1 0x1 PUSH1 0x1 PUSH1 0xA0 SHL SUB DUP6 AND OR SWAP1 SSTORE PUSH1 0x3 DUP3 ADD DUP1 SLOAD PUSH1 0xFF NOT AND SWAP1 SWAP2 OR SWAP1 SSTORE JUMPDEST DUP1 SLOAD DUP2 PUSH1 0x0 PUSH2 0xE6D DUP4 PUSH2 0x1661 JUMP JUMPDEST SWAP2 SWAP1 POP SSTORE POP DUP2 PUSH1 0x1 PUSH1 0x1 PUSH1 0xA0 SHL SUB AND PUSH32 0xAA05AD8BD5A439383515A4C1D513394BDC65D7AFD3B2CE09F405B53EFC6784AE DUP3 PUSH1 0x0 ADD SLOAD PUSH1 0x40 MLOAD PUSH2 0xEAF SWAP2 SWAP1 PUSH2 0xFD7 JUMP JUMPDEST PUSH1 0x40 MLOAD DUP1 SWAP2 SUB SWAP1 LOG2 PUSH1 0x1 SLOAD DUP2 SLOAD LT PUSH2 0xF6D JUMPI PUSH1 0x3 SLOAD PUSH1 0x40 MLOAD PUSH4 0x2388FAC3 PUSH1 0xE1 SHL DUP2 MSTORE PUSH1 0x1 PUSH1 0x1 PUSH1 0xA0 SHL SUB SWAP1 SWAP2 AND SWAP1 PUSH4 0x4711F586 SWAP1 PUSH2 0xEF1 SWAP1 DUP6 SWAP1 PUSH1 0x4 ADD PUSH2 0x1004 JUMP JUMPDEST PUSH1 0x0 PUSH1 0x40 MLOAD DUP1 DUP4 SUB DUP2 PUSH1 0x0 DUP8 DUP1 EXTCODESIZE ISZERO DUP1 ISZERO PUSH2 0xF0B JUMPI PUSH1 0x0 DUP1 REVERT JUMPDEST POP GAS CALL ISZERO DUP1 ISZERO PUSH2 0xF1F JUMPI RETURNDATASIZE PUSH1 0x0 DUP1 RETURNDATACOPY RETURNDATASIZE PUSH1 0x0 REVERT JUMPDEST POP POP POP POP DUP2 PUSH1 0x1 PUSH1 0x1 PUSH1 0xA0 SHL SUB AND PUSH32 0x17BDDADFD7EC8898C3B9EADD0CF5AE77BA8D5DF3A50E96AB86EC2DD711AA8FBB DUP3 PUSH1 0x0 ADD SLOAD PUSH1 0x40 MLOAD PUSH2 0xF60 SWAP2 SWAP1 PUSH2 0xFD7 JUMP JUMPDEST PUSH1 0x40 MLOAD DUP1 SWAP2 SUB SWAP1 LOG2 PUSH1 0x0 DUP2 SSTORE JUMPDEST POP POP JUMP JUMPDEST PUSH1 0x0 PUSH1 0x1 PUSH1 0x1 PUSH1 0xA0 SHL SUB DUP3 AND JUMPDEST SWAP3 SWAP2 POP POP JUMP JUMPDEST PUSH2 0xF8D DUP2 PUSH2 0xF71 JUMP JUMPDEST DUP2 EQ PUSH2 0xF98 JUMPI PUSH1 0x0 DUP1 REVERT JUMPDEST POP JUMP JUMPDEST DUP1 CALLDATALOAD PUSH2 0xF7E DUP2 PUSH2 0xF84 JUMP JUMPDEST PUSH1 0x0 PUSH1 0x20 DUP3 DUP5 SUB SLT ISZERO PUSH2 0xFBB JUMPI PUSH2 0xFBB PUSH1 0x0 DUP1 REVERT JUMPDEST PUSH1 0x0 PUSH2 0xFC7 DUP5 DUP5 PUSH2 0xF9B JUMP JUMPDEST SWAP5 SWAP4 POP POP POP POP JUMP JUMPDEST DUP1 JUMPDEST DUP3 MSTORE POP POP JUMP JUMPDEST PUSH1 0x20 DUP2 ADD PUSH2 0xF7E DUP3 DUP5 PUSH2 0xFCF JUMP JUMPDEST DUP1 ISZERO ISZERO PUSH2 0xFD1 JUMP JUMPDEST PUSH1 0x20 DUP2 ADD PUSH2 0xF7E DUP3 DUP5 PUSH2 0xFE5 JUMP JUMPDEST PUSH2 0xFD1 DUP2 PUSH2 0xF71 JUMP JUMPDEST PUSH1 0x20 DUP2 ADD PUSH2 0xF7E DUP3 DUP5 PUSH2 0xFFB JUMP JUMPDEST PUSH1 0x80 DUP2 ADD PUSH2 0x1020 DUP3 DUP8 PUSH2 0xFCF JUMP JUMPDEST PUSH2 0x102D PUSH1 0x20 DUP4 ADD DUP7 PUSH2 0xFCF JUMP JUMPDEST PUSH2 0x103A PUSH1 0x40 DUP4 ADD DUP6 PUSH2 0xFCF JUMP JUMPDEST PUSH2 0x1047 PUSH1 0x60 DUP4 ADD DUP5 PUSH2 0xFE5 JUMP JUMPDEST SWAP6 SWAP5 POP POP POP POP POP JUMP JUMPDEST PUSH1 0x0 PUSH1 0x1 PUSH1 0x1 PUSH1 0xA0 SHL SUB DUP3 AND PUSH2 0xF7E JUMP JUMPDEST PUSH1 0x0 PUSH2 0xF7E DUP3 PUSH2 0x1050 JUMP JUMPDEST PUSH1 0x0 PUSH2 0xF7E DUP3 PUSH2 0x1061 JUMP JUMPDEST PUSH2 0xFD1 DUP2 PUSH2 0x106C JUMP JUMPDEST PUSH1 0x20 DUP2 ADD PUSH2 0xF7E DUP3 DUP5 PUSH2 0x1077 JUMP JUMPDEST DUP1 PUSH2 0xF8D JUMP JUMPDEST DUP1 CALLDATALOAD PUSH2 0xF7E DUP2 PUSH2 0x108E JUMP JUMPDEST PUSH1 0x0 PUSH1 0x20 DUP3 DUP5 SUB SLT ISZERO PUSH2 0x10B4 JUMPI PUSH2 0x10B4 PUSH1 0x0 DUP1 REVERT JUMPDEST PUSH1 0x0 PUSH2 0xFC7 DUP5 DUP5 PUSH2 0x1094 JUMP JUMPDEST PUSH2 0x10CA DUP3 DUP3 PUSH2 0xFFB JUMP JUMPDEST POP PUSH1 0x20 ADD SWAP1 JUMP JUMPDEST PUSH1 0x20 ADD SWAP1 JUMP JUMPDEST PUSH1 0x0 PUSH2 0x10E1 DUP3 MLOAD SWAP1 JUMP JUMPDEST DUP1 DUP5 MSTORE PUSH1 0x20 SWAP4 DUP5 ADD SWAP4 DUP4 ADD PUSH1 0x0 JUMPDEST DUP3 DUP2 LT ISZERO PUSH2 0x1114 JUMPI DUP2 MLOAD PUSH2 0x1103 DUP8 DUP3 PUSH2 0x10C0 JUMP JUMPDEST SWAP7 POP POP PUSH1 0x20 DUP3 ADD SWAP2 POP PUSH1 0x1 ADD PUSH2 0x10EF JUMP JUMPDEST POP SWAP4 SWAP5 SWAP4 POP POP POP POP JUMP JUMPDEST PUSH1 0x20 DUP1 DUP3 MSTORE DUP2 ADD PUSH2 0x3D9 DUP2 DUP5 PUSH2 0x10D7 JUMP JUMPDEST PUSH1 0x0 DUP1 PUSH1 0x40 DUP4 DUP6 SUB SLT ISZERO PUSH2 0x1145 JUMPI PUSH2 0x1145 PUSH1 0x0 DUP1 REVERT JUMPDEST PUSH1 0x0 PUSH2 0x1151 DUP6 DUP6 PUSH2 0x1094 JUMP JUMPDEST SWAP3 POP POP PUSH1 0x20 PUSH2 0x1162 DUP6 DUP3 DUP7 ADD PUSH2 0x1094 JUMP JUMPDEST SWAP2 POP POP SWAP3 POP SWAP3 SWAP1 POP JUMP JUMPDEST PUSH4 0x4E487B71 PUSH1 0xE0 SHL PUSH1 0x0 MSTORE PUSH1 0x11 PUSH1 0x4 MSTORE PUSH1 0x24 PUSH1 0x0 REVERT JUMPDEST DUP2 DUP2 SUB DUP2 DUP2 GT ISZERO PUSH2 0xF7E JUMPI PUSH2 0xF7E PUSH2 0x116C JUMP JUMPDEST PUSH1 0x19 DUP2 MSTORE PUSH1 0x20 DUP2 ADD PUSH32 0x74686520636F6E7472616374206E6F7420696E69742079657400000000000000 DUP2 MSTORE SWAP1 POP PUSH2 0x10D1 JUMP JUMPDEST PUSH1 0x20 DUP1 DUP3 MSTORE DUP2 ADD PUSH2 0xF7E DUP2 PUSH2 0x1195 JUMP JUMPDEST PUSH1 0x2D DUP2 MSTORE PUSH1 0x20 DUP2 ADD PUSH32 0x746865206D6573736167652073656E646572206D7573742062652076616C6964 DUP2 MSTORE PUSH13 0x185D1BDC8818DBDB9D1C9858DD PUSH1 0x9A SHL PUSH1 0x20 DUP3 ADD MSTORE SWAP1 POP JUMPDEST PUSH1 0x40 ADD SWAP1 JUMP JUMPDEST PUSH1 0x20 DUP1 DUP3 MSTORE DUP2 ADD PUSH2 0xF7E DUP2 PUSH2 0x11D7 JUMP JUMPDEST PUSH1 0xF DUP2 MSTORE PUSH1 0x20 DUP2 ADD PUSH15 0x496E76616C69642061646472657373 PUSH1 0x88 SHL DUP2 MSTORE SWAP1 POP PUSH2 0x10D1 JUMP JUMPDEST PUSH1 0x20 DUP1 DUP3 MSTORE DUP2 ADD PUSH2 0xF7E DUP2 PUSH2 0x1231 JUMP JUMPDEST PUSH4 0x4E487B71 PUSH1 0xE0 SHL PUSH1 0x0 MSTORE PUSH1 0x32 PUSH1 0x4 MSTORE PUSH1 0x24 PUSH1 0x0 REVERT JUMPDEST PUSH4 0x4E487B71 PUSH1 0xE0 SHL PUSH1 0x0 MSTORE PUSH1 0x31 PUSH1 0x4 MSTORE PUSH1 0x24 PUSH1 0x0 REVERT JUMPDEST PUSH1 0x21 DUP2 MSTORE PUSH1 0x20 DUP2 ADD PUSH32 0x4F6E6C792061646D696E2063616E2063616C6C20746869732066756E6374696F DUP2 MSTORE PUSH1 0x37 PUSH1 0xF9 SHL PUSH1 0x20 DUP3 ADD MSTORE SWAP1 POP PUSH2 0x121B JUMP JUMPDEST PUSH1 0x20 DUP1 DUP3 MSTORE DUP2 ADD PUSH2 0xF7E DUP2 PUSH2 0x1291 JUMP JUMPDEST PUSH1 0xA DUP2 MSTORE PUSH1 0x20 DUP2 ADD PUSH10 0x139BDD081C185D5CD959 PUSH1 0xB2 SHL DUP2 MSTORE SWAP1 POP PUSH2 0x10D1 JUMP JUMPDEST PUSH1 0x20 DUP1 DUP3 MSTORE DUP2 ADD PUSH2 0xF7E DUP2 PUSH2 0x12DD JUMP JUMPDEST PUSH1 0x2D DUP2 MSTORE PUSH1 0x20 DUP2 ADD PUSH32 0x746865206D6573736167652073656E646572206D757374206265207468652062 DUP2 MSTORE PUSH13 0x3637B1B590383937B23AB1B2B9 PUSH1 0x99 SHL PUSH1 0x20 DUP3 ADD MSTORE SWAP1 POP PUSH2 0x121B JUMP JUMPDEST PUSH1 0x20 DUP1 DUP3 MSTORE DUP2 ADD PUSH2 0xF7E DUP2 PUSH2 0x130C JUMP JUMPDEST PUSH1 0x1F DUP2 MSTORE PUSH1 0x20 DUP2 ADD PUSH32 0x416C72656164792064656372656173656420696E207468697320626C6F636B00 DUP2 MSTORE SWAP1 POP PUSH2 0x10D1 JUMP JUMPDEST PUSH1 0x20 DUP1 DUP3 MSTORE DUP2 ADD PUSH2 0xF7E DUP2 PUSH2 0x1364 JUMP JUMPDEST PUSH4 0x4E487B71 PUSH1 0xE0 SHL PUSH1 0x0 MSTORE PUSH1 0x12 PUSH1 0x4 MSTORE PUSH1 0x24 PUSH1 0x0 REVERT JUMPDEST PUSH1 0x0 DUP3 PUSH2 0x13CB JUMPI PUSH2 0x13CB PUSH2 0x13A6 JUMP JUMPDEST POP MOD SWAP1 JUMP JUMPDEST PUSH1 0x10 DUP2 MSTORE PUSH1 0x20 DUP2 ADD PUSH16 0x426C6F636B2065706F6368206F6E6C79 PUSH1 0x80 SHL DUP2 MSTORE SWAP1 POP PUSH2 0x10D1 JUMP JUMPDEST PUSH1 0x20 DUP1 DUP3 MSTORE DUP2 ADD PUSH2 0xF7E DUP2 PUSH2 0x13D0 JUMP JUMPDEST PUSH1 0x12 DUP2 MSTORE PUSH1 0x20 DUP2 ADD PUSH18 0x10DBDB9D1C9858DD081A5CC81C185D5CD959 PUSH1 0x72 SHL DUP2 MSTORE SWAP1 POP PUSH2 0x10D1 JUMP JUMPDEST PUSH1 0x20 DUP1 DUP3 MSTORE DUP2 ADD PUSH2 0xF7E DUP2 PUSH2 0x1405 JUMP JUMPDEST PUSH1 0x20 DUP1 DUP3 MSTORE PUSH32 0x74686520636F6E747261637420616C726561647920696E697469616C697A6564 SWAP2 ADD SWAP1 DUP2 MSTORE PUSH2 0x10D1 JUMP JUMPDEST PUSH1 0x20 DUP1 DUP3 MSTORE DUP2 ADD PUSH2 0xF7E DUP2 PUSH2 0x143C JUMP JUMPDEST PUSH1 0xE DUP2 MSTORE PUSH1 0x20 DUP2 ADD PUSH14 0x105B1C9958591E481C185D5CD959 PUSH1 0x92 SHL DUP2 MSTORE SWAP1 POP PUSH2 0x10D1 JUMP JUMPDEST PUSH1 0x20 DUP1 DUP3 MSTORE DUP2 ADD PUSH2 0xF7E DUP2 PUSH2 0x147C JUMP JUMPDEST PUSH1 0x15 DUP2 MSTORE PUSH1 0x20 DUP2 ADD PUSH21 0x496E76616C69642061646D696E2061646472657373 PUSH1 0x58 SHL DUP2 MSTORE SWAP1 POP PUSH2 0x10D1 JUMP JUMPDEST PUSH1 0x20 DUP1 DUP3 MSTORE DUP2 ADD PUSH2 0xF7E DUP2 PUSH2 0x14AF JUMP JUMPDEST PUSH1 0x1D DUP2 MSTORE PUSH1 0x20 DUP2 ADD PUSH32 0x416C726561647920736C617368656420696E207468697320626C6F636B000000 DUP2 MSTORE SWAP1 POP PUSH2 0x10D1 JUMP JUMPDEST PUSH1 0x20 DUP1 DUP3 MSTORE DUP2 ADD PUSH2 0xF7E DUP2 PUSH2 0x14E9 JUMP JUMPDEST DUP1 ISZERO ISZERO PUSH2 0xF8D JUMP JUMPDEST DUP1 MLOAD PUSH2 0xF7E DUP2 PUSH2 0x152B JUMP JUMPDEST PUSH1 0x0 PUSH1 0x20 DUP3 DUP5 SUB SLT ISZERO PUSH2 0x1553 JUMPI PUSH2 0x1553 PUSH1 0x0 DUP1 REVERT JUMPDEST PUSH1 0x0 PUSH2 0xFC7 DUP5 DUP5 PUSH2 0x1533 JUMP JUMPDEST PUSH1 0x11 DUP2 MSTORE PUSH1 0x20 DUP2 ADD PUSH17 0x125B9D985B1A59081D1A1C995CDA1BDB19 PUSH1 0x7A SHL DUP2 MSTORE SWAP1 POP PUSH2 0x10D1 JUMP JUMPDEST PUSH1 0x20 DUP1 DUP3 MSTORE DUP2 ADD PUSH2 0xF7E DUP2 PUSH2 0x155F JUMP JUMPDEST PUSH1 0x15 DUP2 MSTORE PUSH1 0x20 DUP2 ADD PUSH21 0x496E76616C69642064656372656173652072617465 PUSH1 0x58 SHL DUP2 MSTORE SWAP1 POP PUSH2 0x10D1 JUMP JUMPDEST PUSH1 0x20 DUP1 DUP3 MSTORE DUP2 ADD PUSH2 0xF7E DUP2 PUSH2 0x1595 JUMP JUMPDEST PUSH1 0x22 DUP2 MSTORE PUSH1 0x20 DUP2 ADD PUSH32 0x5468726573686F6C64206D757374206265203E3D206465637265617365207261 DUP2 MSTORE PUSH2 0x7465 PUSH1 0xF0 SHL PUSH1 0x20 DUP3 ADD MSTORE SWAP1 POP PUSH2 0x121B JUMP JUMPDEST PUSH1 0x20 DUP1 DUP3 MSTORE DUP2 ADD PUSH2 0xF7E DUP2 PUSH2 0x15CF JUMP JUMPDEST PUSH1 0x40 DUP2 ADD PUSH2 0x162A DUP3 DUP6 PUSH2 0xFCF JUMP JUMPDEST PUSH2 0x3D9 PUSH1 0x20 DUP4 ADD DUP5 PUSH2 0xFCF JUMP JUMPDEST PUSH4 0x4E487B71 PUSH1 0xE0 SHL PUSH1 0x0 MSTORE PUSH1 0x41 PUSH1 0x4 MSTORE PUSH1 0x24 PUSH1 0x0 REVERT JUMPDEST PUSH1 0x0 DUP3 PUSH2 0x165C JUMPI PUSH2 0x165C PUSH2 0x13A6 JUMP JUMPDEST POP DIV SWAP1 JUMP JUMPDEST PUSH1 0x0 PUSH1 0x1 DUP3 ADD PUSH2 0x1673 JUMPI PUSH2 0x1673 PUSH2 0x116C JUMP JUMPDEST POP PUSH1 0x1 ADD SWAP1 JUMP JUMPDEST PUSH2 0x10CA DUP3 DUP3 PUSH2 0xFCF JUMP JUMPDEST PUSH1 0x0 PUSH2 0x168E DUP3 MLOAD SWAP1 JUMP JUMPDEST DUP1 DUP5 MSTORE PUSH1 0x20 SWAP4 DUP5 ADD SWAP4 DUP4 ADD PUSH1 0x0 JUMPDEST DUP3 DUP2 LT ISZERO PUSH2 0x1114 JUMPI DUP2 MLOAD PUSH2 0x16B0 DUP8 DUP3 PUSH2 0x167A JUMP JUMPDEST SWAP7 POP POP PUSH1 0x20 DUP3 ADD SWAP2 POP PUSH1 0x1 ADD PUSH2 0x169C JUMP JUMPDEST PUSH1 0x60 DUP1 DUP3 MSTORE DUP2 ADD PUSH2 0x16D2 DUP2 DUP7 PUSH2 0x10D7 JUMP JUMPDEST SWAP1 POP DUP2 DUP2 SUB PUSH1 0x20 DUP4 ADD MSTORE PUSH2 0x16E6 DUP2 DUP6 PUSH2 0x1684 JUMP JUMPDEST SWAP1 POP PUSH2 0xFC7 PUSH1 0x40 DUP4 ADD DUP5 PUSH2 0xFCF JUMP INVALID LOG1 PUSH5 0x736F6C6343 STOP ADDMOD SGT STOP EXP "},"methodIdentifiers":{"BlockEpoch()":"e8a3298b","DEFAULT_DECREASE_RATE()":"123bb007","DEFAULT_SLASH_THRESHOLD()":"b11b7e28","SlashContractAddr()":"67239a04","ValidatorContractAddr()":"3a061bd3","admin()":"f851a440","blocksUntilSlash(address)":"014667ba","changeAdmin(address)":"8f283970","clean(address)":"169b2623","decreaseMissedBlocksCounter()":"5e81f1f8","decreaseRate()":"2897183d","getAllSlashValidators()":"d1121947","getSlashRecord(address)":"ee290632","getSlashValidatorsLen()":"ea29ba5f","initialize()":"8129fc1c","initialized()":"158ef93e","pause()":"8456cb59","paused()":"5c975abb","slash(address)":"c96be4cb","slashRecordExists(address)":"f186b49e","slashRecords(address)":"5b691dc6","slashThreshold()":"5df415d9","slashValidators(uint256)":"cda2db1b","unpause()":"3f4ba83a","updateSlashParameters(uint256,uint256)":"fc99d7a5","validatorContract()":"99439089"}}}}}