{"contracts/Validators.sol":{"Validators":{"abi":[{"anonymous":false,"inputs":[{"indexed":true,"internalType":"address","name":"validator","type":"address"},{"indexed":false,"internalType":"uint256","name":"totalStake","type":"uint256"}],"name":"AddToValidatorCandidate","type":"event"},{"anonymous":false,"inputs":[{"indexed":true,"internalType":"address","name":"previousAdmin","type":"address"},{"indexed":true,"internalType":"address","name":"newAdmin","type":"address"}],"name":"AdminChanged","type":"event"},{"anonymous":false,"inputs":[{"indexed":true,"internalType":"address","name":"delegator","type":"address"},{"indexed":true,"internalType":"address","name":"validator","type":"address"},{"indexed":false,"internalType":"uint256","name":"amount","type":"uint256"}],"name":"ClaimDelegatorRewards","type":"event"},{"anonymous":false,"inputs":[{"indexed":true,"internalType":"address","name":"validator","type":"address"},{"indexed":false,"internalType":"uint256","name":"oldRate","type":"uint256"},{"indexed":false,"internalType":"uint256","name":"newRate","type":"uint256"}],"name":"CommissionRateUpdated","type":"event"},{"anonymous":false,"inputs":[{"indexed":false,"internalType":"bool","name":"paused","type":"bool"},{"indexed":false,"internalType":"address","name":"admin","type":"address"}],"name":"EmergencyPauseToggled","type":"event"},{"anonymous":false,"inputs":[],"name":"Paused","type":"event"},{"anonymous":false,"inputs":[{"indexed":true,"internalType":"address","name":"validator","type":"address"}],"name":"RemoveFromValidatorCandidate","type":"event"},{"anonymous":false,"inputs":[{"indexed":false,"internalType":"address[]","name":"validators","type":"address[]"},{"indexed":false,"internalType":"uint256[]","name":"rewards","type":"uint256[]"},{"indexed":false,"internalType":"uint256","name":"totalAmount","type":"uint256"},{"indexed":false,"internalType":"uint256","name":"remainder","type":"uint256"}],"name":"RewardDistributed","type":"event"},{"anonymous":false,"inputs":[{"indexed":true,"internalType":"address","name":"staker","type":"address"},{"indexed":true,"internalType":"address","name":"validator","type":"address"},{"indexed":false,"internalType":"uint256","name":"amount","type":"uint256"}],"name":"Staking","type":"event"},{"anonymous":false,"inputs":[],"name":"Unpaused","type":"event"},{"anonymous":false,"inputs":[{"indexed":true,"internalType":"address","name":"staker","type":"address"},{"indexed":true,"internalType":"address","name":"validator","type":"address"},{"indexed":false,"internalType":"uint256","name":"amount","type":"uint256"},{"indexed":false,"internalType":"uint256","name":"unlockTimestamp","type":"uint256"}],"name":"Unstake","type":"event"},{"anonymous":false,"inputs":[{"indexed":true,"internalType":"address","name":"validator","type":"address"},{"indexed":true,"internalType":"address","name":"rewardAddr","type":"address"},{"indexed":false,"internalType":"uint256","name":"commissionRate","type":"uint256"}],"name":"ValidatorCreated","type":"event"},{"anonymous":false,"inputs":[{"indexed":false,"internalType":"address[]","name":"validators","type":"address[]"},{"indexed":false,"internalType":"uint256","name":"blockNumber","type":"uint256"}],"name":"ValidatorSetUpdated","type":"event"},{"anonymous":false,"inputs":[{"indexed":true,"internalType":"address","name":"validator","type":"address"},{"indexed":false,"internalType":"uint256","name":"amount","type":"uint256"},{"indexed":false,"internalType":"uint256","name":"newTotalStake","type":"uint256"}],"name":"ValidatorSlash","type":"event"},{"anonymous":false,"inputs":[{"indexed":true,"internalType":"address","name":"validator","type":"address"}],"name":"ValidatorUnjailed","type":"event"},{"anonymous":false,"inputs":[{"indexed":true,"internalType":"address","name":"validator","type":"address"},{"indexed":true,"internalType":"address","name":"rewardAddr","type":"address"}],"name":"ValidatorUpdated","type":"event"},{"anonymous":false,"inputs":[{"indexed":true,"internalType":"address","name":"validator","type":"address"},{"indexed":true,"internalType":"address","name":"rewardAddress","type":"address"},{"indexed":false,"internalType":"uint256","name":"amount","type":"uint256"},{"indexed":false,"internalType":"uint256","name":"nextWithdrawTimestamp","type":"uint256"}],"name":"WithdrawRewards","type":"event"},{"anonymous":false,"inputs":[{"indexed":true,"internalType":"address","name":"staker","type":"address"},{"indexed":true,"internalType":"address","name":"validator","type":"address"},{"indexed":false,"internalType":"uint256","name":"amount","type":"uint256"}],"name":"WithdrawStaking","type":"event"},{"inputs":[],"name":"BlockEpoch","outputs":[{"internalType":"uint256","name":"","type":"uint256"}],"stateMutability":"view","type":"function"},{"inputs":[],"name":"DEFAULT_COMMISSION_RATE","outputs":[{"internalType":"uint256","name":"","type":"uint256"}],"stateMutability":"view","type":"function"},{"inputs":[],"name":"MAX_COMMISSION_RATE","outputs":[{"internalType":"uint256","name":"","type":"uint256"}],"stateMutability":"view","type":"function"},{"inputs":[],"name":"MAX_VALIDATOR_NUM","outputs":[{"internalType":"uint16","name":"","type":"uint16"}],"stateMutability":"view","type":"function"},{"inputs":[],"name":"MIN_DELEGATOR_STAKE","outputs":[{"internalType":"uint256","name":"","type":"uint256"}],"stateMutability":"view","type":"function"},{"inputs":[],"name":"MIN_VALIDATOR_TOTAL_STAKE","outputs":[{"internalType":"uint256","name":"","type":"uint256"}],"stateMutability":"view","type":"function"},{"inputs":[],"name":"STAKING_LOCK_PERIOD","outputs":[{"internalType":"uint256","name":"","type":"uint256"}],"stateMutability":"view","type":"function"},{"inputs":[],"name":"SlashContractAddr","outputs":[{"internalType":"address","name":"","type":"address"}],"stateMutability":"view","type":"function"},{"inputs":[],"name":"VALIDATOR_SLASH_PENALTY","outputs":[{"internalType":"uint256","name":"","type":"uint256"}],"stateMutability":"view","type":"function"},{"inputs":[],"name":"ValidatorContractAddr","outputs":[{"internalType":"address","name":"","type":"address"}],"stateMutability":"view","type":"function"},{"inputs":[],"name":"WITHDRAW_REWARD_PERIOD","outputs":[{"internalType":"uint256","name":"","type":"uint256"}],"stateMutability":"view","type":"function"},{"inputs":[],"name":"admin","outputs":[{"internalType":"address","name":"","type":"address"}],"stateMutability":"view","type":"function"},{"inputs":[{"internalType":"address","name":"newAdmin","type":"address"}],"name":"changeAdmin","outputs":[],"stateMutability":"nonpayable","type":"function"},{"inputs":[{"internalType":"address","name":"validator","type":"address"}],"name":"claimDelegatorRewards","outputs":[{"internalType":"bool","name":"","type":"bool"}],"stateMutability":"nonpayable","type":"function"},{"inputs":[{"internalType":"address payable","name":"rewardAddr","type":"address"},{"internalType":"string","name":"moniker","type":"string"},{"internalType":"string","name":"website","type":"string"},{"internalType":"string","name":"email","type":"string"},{"internalType":"string","name":"details","type":"string"}],"name":"create","outputs":[{"internalType":"bool","name":"","type":"bool"}],"stateMutability":"payable","type":"function"},{"inputs":[{"internalType":"address payable","name":"rewardAddr","type":"address"},{"internalType":"string","name":"moniker","type":"string"},{"internalType":"string","name":"website","type":"string"},{"internalType":"string","name":"email","type":"string"},{"internalType":"string","name":"details","type":"string"},{"internalType":"uint256","name":"commissionRate","type":"uint256"}],"name":"createWithCommission","outputs":[{"internalType":"bool","name":"","type":"bool"}],"stateMutability":"payable","type":"function"},{"inputs":[],"name":"distributeBlockReward","outputs":[],"stateMutability":"payable","type":"function"},{"inputs":[{"internalType":"address payable","name":"rewardAddr","type":"address"},{"internalType":"string","name":"moniker","type":"string"},{"internalType":"string","name":"website","type":"string"},{"internalType":"string","name":"email","type":"string"},{"internalType":"string","name":"details","type":"string"}],"name":"edit","outputs":[{"internalType":"bool","name":"","type":"bool"}],"stateMutability":"nonpayable","type":"function"},{"inputs":[],"name":"emergencyAdmin","outputs":[{"internalType":"address","name":"","type":"address"}],"stateMutability":"view","type":"function"},{"inputs":[],"name":"emergencyPaused","outputs":[{"internalType":"bool","name":"","type":"bool"}],"stateMutability":"view","type":"function"},{"inputs":[],"name":"getActivatedValidators","outputs":[{"internalType":"address[]","name":"","type":"address[]"}],"stateMutability":"view","type":"function"},{"inputs":[{"internalType":"address","name":"staker","type":"address"},{"internalType":"address","name":"validator","type":"address"}],"name":"getPendingRewards","outputs":[{"internalType":"uint256","name":"","type":"uint256"}],"stateMutability":"view","type":"function"},{"inputs":[],"name":"getTotalNetworkStaked","outputs":[{"internalType":"uint256","name":"","type":"uint256"}],"stateMutability":"view","type":"function"},{"inputs":[{"internalType":"address","name":"validator","type":"address"}],"name":"getValidatorInfo","outputs":[{"internalType":"address","name":"rewardAddr","type":"address"},{"internalType":"string","name":"status","type":"string"},{"internalType":"uint256","name":"totalStaked","type":"uint256"},{"internalType":"uint256","name":"rewardAmount","type":"uint256"},{"internalType":"uint256","name":"slashAmount","type":"uint256"},{"internalType":"uint256","name":"commissionRate","type":"uint256"}],"stateMutability":"view","type":"function"},{"inputs":[{"internalType":"address[]","name":"validators","type":"address[]"}],"name":"initialize","outputs":[],"stateMutability":"nonpayable","type":"function"},{"inputs":[],"name":"initialized","outputs":[{"internalType":"bool","name":"","type":"bool"}],"stateMutability":"view","type":"function"},{"inputs":[{"internalType":"address","name":"validator","type":"address"}],"name":"isJailed","outputs":[{"internalType":"bool","name":"","type":"bool"}],"stateMutability":"view","type":"function"},{"inputs":[{"internalType":"address","name":"validator","type":"address"}],"name":"isValidatorActivated","outputs":[{"internalType":"bool","name":"","type":"bool"}],"stateMutability":"view","type":"function"},{"inputs":[{"internalType":"address","name":"validator","type":"address"}],"name":"isValidatorCandidate","outputs":[{"internalType":"bool","name":"","type":"bool"}],"stateMutability":"view","type":"function"},{"inputs":[],"name":"pause","outputs":[],"stateMutability":"nonpayable","type":"function"},{"inputs":[],"name":"paused","outputs":[{"internalType":"bool","name":"","type":"bool"}],"stateMutability":"view","type":"function"},{"inputs":[{"internalType":"address","name":"validator","type":"address"}],"name":"slashValidator","outputs":[],"stateMutability":"nonpayable","type":"function"},{"inputs":[{"internalType":"address","name":"validator","type":"address"}],"name":"stake","outputs":[{"internalType":"bool","name":"","type":"bool"}],"stateMutability":"payable","type":"function"},{"inputs":[],"name":"toggleEmergencyPause","outputs":[],"stateMutability":"nonpayable","type":"function"},{"inputs":[],"name":"unjailValidator","outputs":[{"internalType":"bool","name":"","type":"bool"}],"stateMutability":"nonpayable","type":"function"},{"inputs":[],"name":"unpause","outputs":[],"stateMutability":"nonpayable","type":"function"},{"inputs":[{"internalType":"address","name":"validator","type":"address"}],"name":"unstake","outputs":[{"internalType":"bool","name":"","type":"bool"}],"stateMutability":"nonpayable","type":"function"},{"inputs":[],"name":"updateActivatedValidators","outputs":[{"internalType":"address[]","name":"","type":"address[]"}],"stateMutability":"nonpayable","type":"function"},{"inputs":[{"internalType":"uint256","name":"newRate","type":"uint256"}],"name":"updateCommissionRate","outputs":[{"internalType":"bool","name":"","type":"bool"}],"stateMutability":"nonpayable","type":"function"},{"inputs":[{"internalType":"address","name":"newAdmin","type":"address"}],"name":"updateEmergencyAdmin","outputs":[],"stateMutability":"nonpayable","type":"function"},{"inputs":[{"internalType":"string","name":"moniker","type":"string"},{"internalType":"string","name":"website","type":"string"},{"internalType":"string","name":"email","type":"string"},{"internalType":"string","name":"details","type":"string"}],"name":"validateDescription","outputs":[{"internalType":"bool","name":"","type":"bool"}],"stateMutability":"pure","type":"function"},{"inputs":[{"internalType":"address","name":"validator","type":"address"}],"name":"withdrawRewards","outputs":[{"internalType":"bool","name":"","type":"bool"}],"stateMutability":"nonpayable","type":"function"},{"inputs":[{"internalType":"address","name":"validator","type":"address"}],"name":"withdrawStaking","outputs":[{"internalType":"bool","name":"","type":"bool"}],"stateMutability":"nonpayable","type":"function"},{"stateMutability":"payable","type":"receive"}],"evm":{"bytecode":{"linkReferences":{},"object":"608060405234801561001057600080fd5b506157a780620000216000396000f3fe60806040526004361061025f5760003560e01c806367239a0411610144578063a224cee7116100b6578063d2f01a9b1161007a578063d2f01a9b146106cb578063d6c0edad146106e2578063e8a3298b146106ea578063f2888dbb146106ff578063f851a4401461071f578063fd4facde1461074557600080fd5b8063a224cee71461064b578063b7d02ce21461066b578063b7dc5c401461068b578063b8db983e146106a0578063ce5cf377146106b657600080fd5b80638af0a869116101085780638af0a869146105885780638cab587d146105aa5780638f283970146105bd5780639b7fb063146105dd578063a0774743146105fd578063a0c3f2d21461061257600080fd5b806367239a04146104e657806370905dce146104fc5780637a27db57146105215780638456cb59146105415780638a11d7c91461055657600080fd5b8063207239c0116101dd5780632b599c0d116101a15780632b599c0d146104315780633a061bd31461044f5780633f4ba83a1461047257806342d86693146104875780634711f586146104a75780635c975abb146104c757600080fd5b8063207239c0146103b157806321974455146103c7578063222d3b05146103e4578063264762041461040457806327c830a91461041757600080fd5b806314bfb5271161022457806314bfb5271461031757806314c57e9314610337578063158ef93e146103575780631a8d57bc146103715780631c8b8a3d1461039157600080fd5b8062fa3d501461026b5780630b3a2323146102a15780630f952573146102c3578063142d13c9146102ed578063147e291f1461030057600080fd5b3661026657005b600080fd5b34801561027757600080fd5b5061028b6102863660046140fa565b61075b565b604051610298919061412d565b60405180910390f35b3480156102ad57600080fd5b506102b6606581565b6040516102989190614145565b3480156102cf57600080fd5b506102e0683635c9adc5dea0000081565b6040516102989190614159565b61028b6102fb3660046141dd565b610876565b34801561030c57600080fd5b50610315610905565b005b34801561032357600080fd5b5061028b6103323660046142e2565b610985565b34801561034357600080fd5b506103156103523660046142e2565b6109c4565b34801561036357600080fd5b5060005461028b9060ff1681565b34801561037d57600080fd5b5061028b61038c3660046142e2565b610a43565b34801561039d57600080fd5b5061028b6103ac3660046142e2565b610c50565b3480156103bd57600080fd5b506102e06103e881565b3480156103d357600080fd5b506102e0681b1ae4d6e2ef50000081565b3480156103f057600080fd5b5061028b6103ff3660046142e2565b610cb9565b61028b6104123660046142e2565b610e92565b34801561042357600080fd5b50600a5461028b9060ff1681565b34801561043d57600080fd5b506102e069021e19e0c9bab240000081565b34801561045b57600080fd5b5061046561100081565b604051610298919061430c565b34801561047e57600080fd5b50610315610f13565b34801561049357600080fd5b5061028b6104a23660046142e2565b610f9e565b3480156104b357600080fd5b506103156104c23660046142e2565b611140565b3480156104d357600080fd5b5060005461028b90610100900460ff1681565b3480156104f257600080fd5b5061046561100181565b34801561050857600080fd5b50600a546104659061010090046001600160a01b031681565b34801561052d57600080fd5b506102e061053c36600461431a565b6112e3565b34801561054d57600080fd5b5061031561137f565b34801561056257600080fd5b506105766105713660046142e2565b61140f565b604051610298969594939291906143ad565b34801561059457600080fd5b5061059d61191b565b604051610298919061446c565b61028b6105b836600461447d565b611a98565b3480156105c957600080fd5b506103156105d83660046142e2565b611b28565b3480156105e957600080fd5b5061028b6105f836600461447d565b611be7565b34801561060957600080fd5b506005546102e0565b34801561061e57600080fd5b5061028b61062d3660046142e2565b6001600160a01b031660009081526009602052604090205460ff1690565b34801561065757600080fd5b506103156106663660046145b8565b611f60565b34801561067757600080fd5b5061028b6106863660046146f3565b61205e565b34801561069757600080fd5b5061059d6120f6565b3480156106ac57600080fd5b506102e06101f481565b3480156106c257600080fd5b5061028b612158565b3480156106d757600080fd5b506102e06201518081565b61031561231c565b3480156106f657600080fd5b506102e060c881565b34801561070b57600080fd5b5061028b61071a3660046142e2565b6123bd565b34801561072b57600080fd5b50600054610465906201000090046001600160a01b031681565b34801561075157600080fd5b506102e061708081565b6000805460ff166107875760405162461bcd60e51b815260040161077e906147f0565b60405180910390fd5b600a5460ff16156107aa5760405162461bcd60e51b815260040161077e90614832565b33600081815260016020526040812054600160a01b900460ff1660048111156107d5576107d5614842565b036107f25760405162461bcd60e51b815260040161077e9061488a565b6103e88311156108145760405162461bcd60e51b815260040161077e906148cc565b3360008181526001602052604090819020600a01805490869055905182907f973d9fdad653ba8759dd3d5c02c1880b8663ab2ba904f94010dc32b69c47c9a59061086190849089906148dc565b60405180910390a26001935050505b50919050565b6000805460ff166108995760405162461bcd60e51b815260040161077e906147f0565b600054610100900460ff16156108c15760405162461bcd60e51b815260040161077e9061491e565b600a5460ff16156108e45760405162461bcd60e51b815260040161077e90614832565b6108f68b8b8b8b8b8b8b8b8b8b6124ec565b9b9a5050505050505050505050565b600a5461010090046001600160a01b031633146109345760405162461bcd60e51b815260040161077e90614957565b600a805460ff19811660ff918216159081179092556040517f81fb10540499dac6157b25576349c719be885b5774e4a0dda606c2f33947d51f9261097b9216903390614967565b60405180910390a1565b600060046001600160a01b038316600090815260016020526040902054600160a01b900460ff1660048111156109bd576109bd614842565b1492915050565b600a5461010090046001600160a01b031633146109f35760405162461bcd60e51b815260040161077e90614957565b806001600160a01b038116610a1a5760405162461bcd60e51b815260040161077e906149a6565b50600a80546001600160a01b0390921661010002610100600160a81b0319909216919091179055565b600c54600090600203610a685760405162461bcd60e51b815260040161077e906149e8565b6002600c55600a5460ff1615610a905760405162461bcd60e51b815260040161077e90614832565b8160006001600160a01b038216600090815260016020526040902054600160a01b900460ff166004811115610ac757610ac7614842565b03610ae45760405162461bcd60e51b815260040161077e9061488a565b3360008181526002602090815260408083206001600160a01b038816845290915290208054610b255760405162461bcd60e51b815260040161077e90614a2a565b610b2f82866125c0565b600481015480610b515760405162461bcd60e51b815260040161077e90614a62565b60006004830181905582546001600160a01b038816825260016020526040909120600c0154670de0b6b3a764000091610b8991614a88565b610b939190614ab5565b60038301554360068301556001600160a01b0386166000908152600160205260409020600b8101548211610be0578181600b016000828254610bd59190614ac9565b90915550610be89050565b6000600b8201555b610bf28483612662565b866001600160a01b0316846001600160a01b03167fff939e4e10b7a7d5b84525f6fad2034ade34c1a43c8d4c314aff33eaed41b45984604051610c359190614159565b60405180910390a36001955050505050506001600c55919050565b6000805b600454811015610cb057826001600160a01b031660048281548110610c7b57610c7b614adc565b6000918252602090912001546001600160a01b031603610c9e5750600192915050565b80610ca881614af2565b915050610c54565b50600092915050565b600c54600090600203610cde5760405162461bcd60e51b815260040161077e906149e8565b6002600c55600054610100900460ff1615610d0b5760405162461bcd60e51b815260040161077e9061491e565b600a5460ff1615610d2e5760405162461bcd60e51b815260040161077e90614832565b8160006001600160a01b038216600090815260016020526040902054600160a01b900460ff166004811115610d6557610d65614842565b03610d825760405162461bcd60e51b815260040161077e9061488a565b3360008181526002602090815260408083206001600160a01b038816845290915281206001810154909103610dc95760405162461bcd60e51b815260040161077e90614b32565b620151808160010154610ddc9190614b42565b421015610dfb5760405162461bcd60e51b815260040161077e90614b7d565b8054610e195760405162461bcd60e51b815260040161077e90614bb7565b805460008083556001830155436006830155610e358382612662565b856001600160a01b0316836001600160a01b03167f3ca927248eb3fe77ad85f6de5853a874833484b0985cdb49c8ceaa326162456b83604051610e789190614159565b60405180910390a360019450505050506001600c55919050565b6000805460ff16610eb55760405162461bcd60e51b815260040161077e906147f0565b600054610100900460ff1615610edd5760405162461bcd60e51b815260040161077e9061491e565b600a5460ff1615610f005760405162461bcd60e51b815260040161077e90614832565b610f0b33833461272c565b90505b919050565b6000546201000090046001600160a01b03163314610f435760405162461bcd60e51b815260040161077e90614c05565b600054610100900460ff16610f6a5760405162461bcd60e51b815260040161077e90614c34565b6000805461ff00191681556040517fa45f47fdea8a1efdd9029a5691c7f759c32b7c698632b563573e155625d169339190a1565b600c54600090600203610fc35760405162461bcd60e51b815260040161077e906149e8565b6002600c55600a5460ff1615610feb5760405162461bcd60e51b815260040161077e90614832565b8160006001600160a01b038216600090815260016020526040902054600160a01b900460ff16600481111561102257611022614842565b0361103f5760405162461bcd60e51b815260040161077e9061488a565b6001600160a01b0380841660009081526001602052604090208054339216821461107b5760405162461bcd60e51b815260040161077e90614c6d565b617080816008015461108d9190614b42565b4210156110ac5760405162461bcd60e51b815260040161077e90614cad565b60008160060154116110d05760405162461bcd60e51b815260040161077e90614ce8565b60068101805460009091554260088301556110eb8382612662565b60006110f961708042614b42565b9050836001600160a01b0316876001600160a01b03167ff4e9e956ba4b65051e84982c3ade043c89890cdbc452e9e446afe09cd4db40c88484604051610c359291906148dc565b33611001146111615760405162461bcd60e51b815260040161077e90614d3c565b806001600160a01b0381166111885760405162461bcd60e51b815260040161077e906149a6565b61119182610c50565b156112df576001600160a01b0382166000908152600160205260409020805460ff60a01b1916600160a21b1781556111c88361286e565b6111d183612994565b80600101546000036111e257505050565b6001810154681b1ae4d6e2ef50000090811115611200575060018101545b600182015480611218670de0b6b3a764000084614a88565b6112229190614ab5565b83600d0160008282546112359190614b42565b92505081905550818360010160008282546112509190614ac9565b9250508190555081600560008282546112699190614ac9565b92505081905550818360070160008282546112849190614b42565b9091555061129490508286612b2b565b846001600160a01b03167fa13f594c0411bd8ff8ba5c217cb05fe18c41f44e8176479aa2b084f3a74037b78385600101546040516112d39291906148dc565b60405180910390a25050505b5050565b6001600160a01b03808316600090815260026020908152604080832093851683529281528282206001909152918120825491929183036113295750600401549050611379565b60008260030154670de0b6b3a764000083600c0154856000015461134d9190614a88565b6113579190614ab5565b6113619190614ac9565b90508083600401546113739190614b42565b93505050505b92915050565b6000546201000090046001600160a01b031633146113af5760405162461bcd60e51b815260040161077e90614c05565b600054610100900460ff16156113d75760405162461bcd60e51b815260040161077e90614d6f565b6000805461ff0019166101001781556040517f9e87fac88ff661f02d44f95383c817fece4bce600a3dab7a54406878b965e7529190a1565b6001600160a01b03818116600090815260016020908152604080832081516101a0810190925280549485168252929360609385938493849384938493909190830190600160a01b900460ff16600481111561146c5761146c614842565b600481111561147d5761147d614842565b815260200160018201548152602001600282016040518060800160405290816000820180546114ab90614d95565b80601f01602080910402602001604051908101604052809291908181526020018280546114d790614d95565b80156115245780601f106114f957610100808354040283529160200191611524565b820191906000526020600020905b81548152906001019060200180831161150757829003601f168201915b5050505050815260200160018201805461153d90614d95565b80601f016020809104026020016040519081016040528092919081815260200182805461156990614d95565b80156115b65780601f1061158b576101008083540402835291602001916115b6565b820191906000526020600020905b81548152906001019060200180831161159957829003601f168201915b505050505081526020016002820180546115cf90614d95565b80601f01602080910402602001604051908101604052809291908181526020018280546115fb90614d95565b80156116485780601f1061161d57610100808354040283529160200191611648565b820191906000526020600020905b81548152906001019060200180831161162b57829003601f168201915b5050505050815260200160038201805461166190614d95565b80601f016020809104026020016040519081016040528092919081815260200182805461168d90614d95565b80156116da5780601f106116af576101008083540402835291602001916116da565b820191906000526020600020905b8154815290600101906020018083116116bd57829003601f168201915b50505050508152505081526020016006820154815260200160078201548152602001600882015481526020016009820180548060200260200160405190810160405280929190818152602001828054801561175e57602002820191906000526020600020905b81546001600160a01b03168152600190910190602001808311611740575b50505050508152602001600a8201548152602001600b8201548152602001600c8201548152602001600d8201548152602001600e8201548152505090506060600060048111156117b0576117b0614842565b826020015160048111156117c6576117c6614842565b036117f05750604080518082019091526008815267139bdd115e1a5cdd60c21b60208201526118ee565b60018260200151600481111561180857611808614842565b03611831575060408051808201909152600781526610dc99585d195960ca1b60208201526118ee565b60028260200151600481111561184957611849614842565b03611871575060408051808201909152600681526514dd185ad95960d21b60208201526118ee565b60038260200151600481111561188957611889614842565b036118b25750604080518082019091526007815266556e7374616b6560c81b60208201526118ee565b6004826020015160048111156118ca576118ca614842565b036118ee575060408051808201909152600681526512985a5b195960d21b60208201525b81516040830151608084015160a085015161010090950151929c939b509099509750919550909350915050565b606033411461193c5760405162461bcd60e51b815260040161077e90614e03565b600854431161195d5760405162461bcd60e51b815260040161077e90614e45565b60005460ff1661197f5760405162461bcd60e51b815260040161077e906147f0565b61198a60c843614e55565b156119a75760405162461bcd60e51b815260040161077e90614e8e565b6003546119c65760405162461bcd60e51b815260040161077e90614ec6565b600354606510156119e95760405162461bcd60e51b815260040161077e90614efe565b600380546119f99160049161407a565b507f1eb323543b198ba3bfd5228d5a306101a17cd1b64db20c53d442aa8c11c8b4a3600443604051611a2c929190614f60565b60405180910390a16004805480602002602001604051908101604052809291908181526020018280548015611a8a57602002820191906000526020600020905b81546001600160a01b03168152600190910190602001808311611a6c575b505050505090504360085590565b6000805460ff16611abb5760405162461bcd60e51b815260040161077e906147f0565b600054610100900460ff1615611ae35760405162461bcd60e51b815260040161077e9061491e565b600a5460ff1615611b065760405162461bcd60e51b815260040161077e90614832565b611b1a8a8a8a8a8a8a8a8a8a6101f46124ec565b9a9950505050505050505050565b6000546201000090046001600160a01b03163314611b585760405162461bcd60e51b815260040161077e90614c05565b6001600160a01b038116611b7e5760405162461bcd60e51b815260040161077e90614faa565b600080546040516001600160a01b03808516936201000090930416917f7e644d79422f17c01e4894b5f4f588d331ebfa28653d42ae832dc59e38c9798f91a3600080546001600160a01b03909216620100000262010000600160b01b0319909216919091179055565b6000805460ff16611c0a5760405162461bcd60e51b815260040161077e906147f0565b600a5460ff1615611c2d5760405162461bcd60e51b815260040161077e90614832565b33600081815260016020526040812054600160a01b900460ff166004811115611c5857611c58614842565b03611c755760405162461bcd60e51b815260040161077e9061488a565b6000339050611d558b8b8080601f01602080910402602001604051908101604052809392919081815260200183838082843760009201919091525050604080516020601f8f018190048102820181019092528d815292508d91508c908190840183828082843760009201919091525050604080516020601f8e018190048102820181019092528c815292508c91508b908190840183828082843760009201919091525050604080516020601f8d018190048102820181019092528b815292508b91508a908190840183828082843760009201919091525061205e92505050565b611d715760405162461bcd60e51b815260040161077e90614fe2565b600060016000836001600160a01b03166001600160a01b0316815260200190815260200160002090508c8160000160006101000a8154816001600160a01b0302191690836001600160a01b0316021790555060405180608001604052808d8d8080601f016020809104026020016040519081016040528093929190818152602001838380828437600092019190915250505090825250604080516020601f8e018190048102820181019092528c815291810191908d908d9081908401838280828437600092019190915250505090825250604080516020601f8c018190048102820181019092528a815291810191908b908b9081908401838280828437600092019190915250505090825250604080516020601f8a01819004810282018101909252888152918101919089908990819084018382808284376000920191909152505050915250805160028301908190611eca9082615086565b5060208201516001820190611edf9082615086565b5060408201516002820190611ef49082615086565b5060608201516003820190611f099082615086565b509050508c6001600160a01b0316826001600160a01b03167fcfac5dc75b8d9a7e074162f59d9adcd33da59f0fe8dfb21580db298fc0fdad0d60405160405180910390a35060019c9b505050505050505050505050565b60005460ff1615611f835760405162461bcd60e51b815260040161077e90615175565b8015801590611f93575060658111155b611faf5760405162461bcd60e51b815260040161077e906151b7565b600680546110016001600160a01b03199091161790556000805462010000600160b01b03191633620100008102919091178255600a8054610100600160a81b0319166101009092029190911790556001600c555b8181101561204c5761203a83838381811061202057612020614adc565b905060200201602081019061203591906142e2565b612c1b565b8061204481614af2565b915050612003565b50506000805460ff1916600117905550565b60006080855111156120825760405162461bcd60e51b815260040161077e906151ec565b610100845111156120a55760405162461bcd60e51b815260040161077e90615221565b610100835111156120c85760405162461bcd60e51b815260040161077e90615254565b610400825111156120eb5760405162461bcd60e51b815260040161077e90615289565b506001949350505050565b6060600480548060200260200160405190810160405280929190818152602001828054801561214e57602002820191906000526020600020905b81546001600160a01b03168152600190910190602001808311612130575b5050505050905090565b6000805460ff1661217b5760405162461bcd60e51b815260040161077e906147f0565b600a5460ff161561219e5760405162461bcd60e51b815260040161077e90614832565b33600081815260016020526040902054600490600160a01b900460ff16818111156121cb576121cb614842565b146121e85760405162461bcd60e51b815260040161077e906152c2565b60065460405163169b262360e01b81526001600160a01b039091169063169b26239061221890849060040161430c565b6020604051808303816000875af1158015612237573d6000803e3d6000fd5b505050506040513d601f19601f8201168201806040525081019061225b91906152e5565b6122775760405162461bcd60e51b815260040161077e90615338565b6001600160a01b03811660009081526001602081905260409091209081015469021e19e0c9bab2400000116122cd57805460ff60a01b1916600160a11b17815560018101546122c7908390612da8565b506122df565b805460ff60a01b1916600360a01b1781555b6040516001600160a01b038316907f9390b453426557da5ebdc31f19a37753ca04addf656d32f35232211bb2af3f1990600090a260019250505090565b33411461233b5760405162461bcd60e51b815260040161077e90614e03565b600754431161235c5760405162461bcd60e51b815260040161077e90615373565b60005460ff1661237e5760405162461bcd60e51b815260040161077e906147f0565b61238960c843614e55565b156123a65760405162461bcd60e51b815260040161077e90614e8e565b34156123b7576123b7346000612b2b565b43600755565b6000805460ff166123e05760405162461bcd60e51b815260040161077e906147f0565b600054610100900460ff16156124085760405162461bcd60e51b815260040161077e9061491e565b600a5460ff161561242b5760405162461bcd60e51b815260040161077e90614832565b8160006001600160a01b038216600090815260016020526040902054600160a01b900460ff16600481111561246257612462614842565b0361247f5760405162461bcd60e51b815260040161077e9061488a565b3360008181526002602090815260408083206001600160a01b038816845290915290206001810154156124c45760405162461bcd60e51b815260040161077e906153a9565b80546124e25760405162461bcd60e51b815260040161077e906153e1565b6120eb8286613066565b60008a6001600160a01b0381166125155760405162461bcd60e51b815260040161077e906149a6565b33600081815260016020526040812054600160a01b900460ff16600481111561254057612540614842565b1461255d5760405162461bcd60e51b815260040161077e90615423565b6103e884111561257f5760405162461bcd60e51b815260040161077e906148cc565b612592818e8e8e8e8e8e8e8e8e8e61320a565b34156125ab576125a381823461272c565b9250506125b1565b60019250505b509a9950505050505050505050565b6125ca82826134de565b6001600160a01b0380831660009081526002602090815260408083209385168352928152828220600190915291902081541561265c5760008260030154670de0b6b3a764000083600c015485600001546126249190614a88565b61262e9190614ab5565b6126389190614ac9565b9050801561265a57808360040160008282546126549190614b42565b90915550505b505b50505050565b8060000361266e575050565b6001600160a01b0382166126945760405162461bcd60e51b815260040161077e90615465565b804710156126b45760405162461bcd60e51b815260040161077e9061549e565b6000826001600160a01b03168260405160006040518083038185875af1925050503d8060008114612701576040519150601f19603f3d011682016040523d82523d6000602084013e612706565b606091505b50509050806127275760405162461bcd60e51b815260040161077e906154d2565b505050565b60006001600160a01b0384161580159061274e57506001600160a01b03831615155b61276a5760405162461bcd60e51b815260040161077e906149a6565b6000821161278a5760405162461bcd60e51b815260040161077e90615514565b60006001600160a01b038416600090815260016020526040902054600160a01b900460ff1660048111156127c0576127c0614842565b036127dd5760405162461bcd60e51b815260040161077e9061488a565b6001600160a01b0380851660009081526002602090815260408083209387168352929052206001810154156128245760405162461bcd60e51b815260040161077e90615556565b805460000361285657683635c9adc5dea000008310156128565760405162461bcd60e51b815260040161077e90615598565b61286185858561365c565b60019150505b9392505050565b60005b6004548110801561288457506004546001105b156112df576004818154811061289c5761289c614adc565b6000918252602090912001546001600160a01b0390811690831603612982576004546128ca90600190614ac9565b811461294b57600480546128e090600190614ac9565b815481106128f0576128f0614adc565b600091825260209091200154600480546001600160a01b03909216918390811061291c5761291c614adc565b9060005260206000200160006101000a8154816001600160a01b0302191690836001600160a01b031602179055505b600480548061295c5761295c6155a8565b600082815260209020810160001990810180546001600160a01b03191690550190555050565b8061298c81614af2565b915050612871565b6001600160a01b03811660009081526009602052604090205460ff166129b75750565b60005b600354811080156129cd57506003546001105b156112df57816001600160a01b0316600382815481106129ef576129ef614adc565b6000918252602090912001546001600160a01b031603612b1957600354612a1890600190614ac9565b8114612a995760038054612a2e90600190614ac9565b81548110612a3e57612a3e614adc565b600091825260209091200154600380546001600160a01b039092169183908110612a6a57612a6a614adc565b9060005260206000200160006101000a8154816001600160a01b0302191690836001600160a01b031602179055505b6003805480612aaa57612aaa6155a8565b60008281526020808220830160001990810180546001600160a01b03191690559092019092556001600160a01b03841680835260099091526040808320805460ff191690555190917f4fc54cda221fafc19baae2a4c79ae99dd0916c88b67ab97d3122a5afe333fc1d91a25050565b80612b2381614af2565b9150506129ba565b81600003612b37575050565b6000805b600454811015612c025760046001600060048481548110612b5e57612b5e614adc565b60009182526020808320909101546001600160a01b0316835282019290925260400190205460ff600160a01b909104166004811115612b9f57612b9f614842565b14158015612bdd5750826001600160a01b031660048281548110612bc557612bc5614adc565b6000918252602090912001546001600160a01b031614155b15612bf05781612bec81614af2565b9250505b80612bfa81614af2565b915050612b3b565b5080600003612c1057505050565b612727838383613825565b6001600160a01b038116612c415760405162461bcd60e51b815260040161077e906155f0565b6001600160a01b03811660009081526009602052604090205460ff16612cc5576003805460018082019092557fc2575a0e9e593c00f959f8c92f12db2869c3395a3b0502d05e2516446f71f85b0180546001600160a01b0319166001600160a01b0384169081179091556000908152600960205260409020805460ff191690911790555b612cce81610c50565b612d1e57600480546001810182556000919091527f8a35acfbc15ff81a39ae7d344fd709f28e8600b4aa8c65c6b64bfe7fe36bd19b0180546001600160a01b0319166001600160a01b0383161790555b6001600160a01b0380821660009081526001602052604090208054909116612d5a5780546001600160a01b0319166001600160a01b0383161781555b60008154600160a01b900460ff166004811115612d7957612d79614842565b03612d9057805460ff60a01b1916600160a11b1781555b80600a01546000036112df576101f4600a8201555050565b6001600160a01b03821660009081526009602052604081205460ff1615612dd157506001611379565b60035460651115612e81576003805460018082019092557fc2575a0e9e593c00f959f8c92f12db2869c3395a3b0502d05e2516446f71f85b0180546001600160a01b0319166001600160a01b03861690811790915560008181526009602052604090819020805460ff191690931790925590517faa45e8a267cc523c778ebbbd8e3ecb5bf7627c28a8d043af282593529ea367ce90612e71908590614159565b60405180910390a2506001611379565b6000600160006003600081548110612e9b57612e9b614adc565b60009182526020808320909101546001600160a01b03168352820192909252604001812060019081015492505b600354811015612f375760006001600060038481548110612eeb57612eeb614adc565b60009182526020808320909101546001600160a01b03168352820192909252604001902060010154905083811015612f24578093508192505b5080612f2f81614af2565b915050612ec8565b50818411612f4a57600092505050611379565b600060038281548110612f5f57612f5f614adc565b60009182526020822001546040516001600160a01b03909116925082917f4fc54cda221fafc19baae2a4c79ae99dd0916c88b67ab97d3122a5afe333fc1d91a2856001600160a01b03167faa45e8a267cc523c778ebbbd8e3ecb5bf7627c28a8d043af282593529ea367ce86604051612fd89190614159565b60405180910390a26001600160a01b0381166000908152600960205260409020805460ff19169055600380548791908490811061301757613017614adc565b600091825260208083209190910180546001600160a01b0319166001600160a01b03948516179055979091168152600990965250506040909320805460ff191660019081179091559392505050565b6001600160a01b0380831660009081526002602090815260408083209385168352928152828220600191829052929091208254600454919290911480156130b157506130b184610c50565b80156130d5575069021e19e0c9bab24000008183600101546130d39190614ac9565b105b156130f25760405162461bcd60e51b815260040161077e90615647565b6130fc85856125c0565b61310685856134de565b6131108585613b73565b808260010160008282546131249190614ac9565b90915550504260018401554360068401556005805482919060009061314a908490614ac9565b9091555050600182015469021e19e0c9bab2400000111561317757815460ff60a01b1916600360a01b1782555b60006131866201518042614b42565b9050846001600160a01b0316866001600160a01b03167f18edd09e80386cd99df397e2e0d87d2bb259423eae08645e776321a36fe680ef84846040516131cd9291906148dc565b60405180910390a360028354600160a01b900460ff1660048111156131f4576131f4614842565b146132025761320285612994565b505050505050565b6132e589898080601f01602080910402602001604051908101604052809392919081815260200183838082843760009201919091525050604080516020601f8d018190048102820181019092528b815292508b91508a908190840183828082843760009201919091525050604080516020601f8c018190048102820181019092528a815292508a915089908190840183828082843760009201919091525050604080516020601f8b01819004810282018101909252898152925089915088908190840183828082843760009201919091525061205e92505050565b6133015760405162461bcd60e51b815260040161077e90614fe2565b6001600160a01b038b81166000908152600160209081526040918290208054938e166001600160a81b031990941693909317600160a01b178355815160a0601f8d0183900490920281018201909252608082018b815282918d908d9081908501838280828437600092019190915250505090825250604080516020601f8c018190048102820181019092528a815291810191908b908b9081908401838280828437600092019190915250505090825250604080516020601f8a0181900481028201810190925288815291810191908990899081908401838280828437600092019190915250505090825250604080516020601f88018190048102820181019092528681529181019190879087908190840183828082843760009201919091525050509152508051600283019081906134399082615086565b506020820151600182019061344e9082615086565b50604082015160028201906134639082615086565b50606082015160038201906134789082615086565b509050508181600a01819055508a6001600160a01b03168c6001600160a01b03167f91ba9e4ee44dd0a1764da83d050d0e9b503df39488e5fa49093d6e7cf8fd92ca846040516134c89190614159565b60405180910390a3505050505050505050505050565b6001600160a01b03808316600090815260026020908152604080832093851683529281528282206001909152918120825490910361352457600d01546005909101555050565b816005015481600d0154116135395750505050565b6000826005015482600d015461354f9190614ac9565b90506000670de0b6b3a764000082856000015461356c9190614a88565b6135769190614ab5565b905080600003613590575050600d01546005909101555050565b835481106135d5578354600580546000906135ac908490614ac9565b909155505083546001840180546000906135c7908490614ac9565b909155505060008455613623565b808460000160008282546135e99190614ac9565b9250508190555080600560008282546136029190614ac9565b925050819055508083600101600082825461361d9190614ac9565b90915550505b8354600c840154670de0b6b3a76400009161363d91614a88565b6136479190614ab5565b60038501555050600d01546005909101555050565b6001600160a01b0380831660008181526001602081815260408084209589168452600282528084209484529390529190209082015469021e19e0c9bab2400000906136a8908590614b42565b10156136c65760405162461bcd60e51b815260040161077e90615695565b6136d085856134de565b80546000036136e9576136e4858585613d2d565b6136f4565b6136f4858585613dc4565b828260010160008282546137089190614b42565b9091555050805483908290600090613721908490614b42565b909155505043600682015560058054849190600090613741908490614b42565b90915550600290508254600160a01b900460ff16600481111561376657613766614842565b14158015613791575060048254600160a01b900460ff16600481111561378e5761378e614842565b14155b156137a857815460ff60a01b1916600160a11b1782555b836001600160a01b0316856001600160a01b03167f795c91e2fef542f2e8bccd08552a8961ecb158d0f47be08f5c44b349993b07a9856040516137eb9190614159565b60405180910390a360028254600160a01b900460ff16600481111561381257613812614842565b0361265a57613202848360010154612da8565b6000816001600160401b0381111561383f5761383f6145ff565b604051908082528060200260200182016040528015613868578160200160208202803683370190505b5090506000826001600160401b03811115613885576138856145ff565b6040519080825280602002602001820160405280156138ae578160200160208202803683370190505b50905060008060005b600454811015613a2c57600460016000600484815481106138da576138da614adc565b60009182526020808320909101546001600160a01b0316835282019290925260400190205460ff600160a01b90910416600481111561391b5761391b614842565b141580156139595750866001600160a01b03166004828154811061394157613941614adc565b6000918252602090912001546001600160a01b031614155b15613a1a576004818154811061397157613971614adc565b9060005260206000200160009054906101000a90046001600160a01b03168583815181106139a1576139a1614adc565b60200260200101906001600160a01b031690816001600160a01b03168152505060016000600483815481106139d8576139d8614adc565b60009182526020808320909101546001600160a01b03168352820192909252604001902060010154613a0a9084614b42565b925081613a1681614af2565b9250505b80613a2481614af2565b9150506138b7565b506000805b86811015613b0e5760008415613aa0578460016000898581518110613a5857613a58614adc565b60200260200101516001600160a01b03166001600160a01b03168152602001908152602001600020600101548b613a8f9190614a88565b613a999190614ab5565b9050613aad565b613aaa888b614ab5565b90505b613ad0878381518110613ac257613ac2614adc565b602002602001015182613e8e565b80868381518110613ae357613ae3614adc565b6020908102919091010152613af88184614b42565b9250508080613b0690614af2565b915050613a31565b50613b23613b1c828a614ac9565b8686613f73565b7fd71bb710cd55fd674b86b6d8349571d9467f07c45170642bf524ba287653d83785858a613b518582614ac9565b604051613b6194939291906156ec565b60405180910390a15050505050505050565b6001600160a01b038083166000908152600260209081526040808320938516835292815282822060019091529190206009810154613bc35760405162461bcd60e51b815260040161077e90615758565b6009810154600283015410613bea5760405162461bcd60e51b815260040161077e9061578a565b6009810154613bfb90600190614ac9565b826002015414613ce757600981018054613c1790600190614ac9565b81548110613c2757613c27614adc565b9060005260206000200160009054906101000a90046001600160a01b031681600901836002015481548110613c5e57613c5e614adc565b9060005260206000200160006101000a8154816001600160a01b0302191690836001600160a01b0316021790555081600201546002600083600901856002015481548110613cae57613cae614adc565b60009182526020808320909101546001600160a01b03908116845283820194909452604092830182209388168252929092529020600201555b80600901805480613cfa57613cfa6155a8565b600082815260209020810160001990810180546001600160a01b0319169055908101909155600290920191909155505050565b6001600160a01b03808316600081815260016020818152604080842095891680855260028084528286209686529583529084206009870180549682018790559386018455928452922090920180546001600160a01b0319169091179055600c820154670de0b6b3a764000090613da4908590614a88565b613dae9190614ab5565b6003820155600d90910154600590910155505050565b6001600160a01b03808316600081815260016020818152604080842095891684526002808352818520958552949091529091209182015401613e385760098201805460028301819055600181018255600091825260209091200180546001600160a01b0319166001600160a01b0387161790555b613e4285856125c0565b670de0b6b3a76400008383600c0154613e5b9190614a88565b613e659190614ab5565b816003016000828254613e789190614b42565b9091555050600d90910154600590910155505050565b80600003613e9a575050565b6001600160a01b0382166000908152600160205260408120600a81015490919061271090613ec89085614a88565b613ed29190614ab5565b90506000613ee08285614ac9565b905081836006016000828254613ef69190614b42565b9091555050600183015415801590613f0e5750600081115b15613f66578083600b016000828254613f279190614b42565b90915550506001830154613f43670de0b6b3a764000083614a88565b613f4d9190614ab5565b83600c016000828254613f609190614b42565b90915550505b505043600e909101555050565b600083118015613f84575060008251115b156127275782600b6000828254613f9b9190614b42565b9091555050600b5466038d7ea4c68000111580613fc05750613fbe606443614e55565b155b1561272757600b80546000918290558351909190613fde9083614ab5565b90506000845182613fef9190614a88565b613ff99084614ac9565b905060005b85518110156140715782600082900361401e5761401b8382614b42565b90505b614033878381518110613ac257613ac2614adc565b8086838151811061404657614046614adc565b6020026020010181815161405a9190614b42565b90525081905061406981614af2565b915050613ffe565b50505050505050565b8280548282559060005260206000209081019282156140ba5760005260206000209182015b828111156140ba57825482559160010191906001019061409f565b506140c69291506140ca565b5090565b5b808211156140c657600081556001016140cb565b805b81146140ec57600080fd5b50565b8035611379816140df565b60006020828403121561410f5761410f600080fd5b600061411b84846140ef565b949350505050565b8015155b82525050565b602081016113798284614123565b61ffff8116614127565b60208101611379828461413b565b80614127565b602081016113798284614153565b60006001600160a01b038216610f0b565b6140e181614167565b803561137981614178565b60008083601f8401126141a1576141a1600080fd5b5081356001600160401b038111156141bb576141bb600080fd5b6020830191508360018202830111156141d6576141d6600080fd5b9250929050565b60008060008060008060008060008060c08b8d0312156141ff576141ff600080fd5b600061420b8d8d614181565b9a505060208b01356001600160401b0381111561422a5761422a600080fd5b6142368d828e0161418c565b995099505060408b01356001600160401b0381111561425757614257600080fd5b6142638d828e0161418c565b975097505060608b01356001600160401b0381111561428457614284600080fd5b6142908d828e0161418c565b955095505060808b01356001600160401b038111156142b1576142b1600080fd5b6142bd8d828e0161418c565b935093505060a06142d08d828e016140ef565b9150509295989b9194979a5092959850565b6000602082840312156142f7576142f7600080fd5b600061411b8484614181565b61412781614167565b602081016113798284614303565b6000806040838503121561433057614330600080fd5b600061433c8585614181565b925050602061434d85828601614181565b9150509250929050565b60005b8381101561437257818101518382015260200161435a565b50506000910152565b6000614385825190565b80845260208401935061439c818560208601614357565b601f01601f19169290920192915050565b60c081016143bb8289614303565b81810360208301526143cd818861437b565b90506143dc6040830187614153565b6143e96060830186614153565b6143f66080830185614153565b61440360a0830184614153565b979650505050505050565b6144188282614303565b5060200190565b60200190565b600061442f825190565b808452602093840193830160005b82811015614462578151614451878261440e565b96505060208201915060010161443d565b5093949350505050565b602080825281016128678184614425565b600080600080600080600080600060a08a8c03121561449e5761449e600080fd5b60006144aa8c8c614181565b99505060208a01356001600160401b038111156144c9576144c9600080fd5b6144d58c828d0161418c565b985098505060408a01356001600160401b038111156144f6576144f6600080fd5b6145028c828d0161418c565b965096505060608a01356001600160401b0381111561452357614523600080fd5b61452f8c828d0161418c565b945094505060808a01356001600160401b0381111561455057614550600080fd5b61455c8c828d0161418c565b92509250509295985092959850929598565b60008083601f84011261458357614583600080fd5b5081356001600160401b0381111561459d5761459d600080fd5b6020830191508360208202830111156141d6576141d6600080fd5b600080602083850312156145ce576145ce600080fd5b82356001600160401b038111156145e7576145e7600080fd5b6145f38582860161456e565b92509250509250929050565b634e487b7160e01b600052604160045260246000fd5b601f19601f83011681018181106001600160401b038211171561463a5761463a6145ff565b6040525050565b600061464c60405190565b9050610f0e8282614615565b60006001600160401b03821115614671576146716145ff565b601f19601f83011660200192915050565b82818337506000910152565b60006146a161469c84614658565b614641565b9050828152602081018484840111156146bc576146bc600080fd5b6146c7848285614682565b509392505050565b600082601f8301126146e3576146e3600080fd5b813561411b84826020860161468e565b6000806000806080858703121561470c5761470c600080fd5b84356001600160401b0381111561472557614725600080fd5b614731878288016146cf565b94505060208501356001600160401b0381111561475057614750600080fd5b61475c878288016146cf565b93505060408501356001600160401b0381111561477b5761477b600080fd5b614787878288016146cf565b92505060608501356001600160401b038111156147a6576147a6600080fd5b6147b2878288016146cf565b91505092959194509250565b60198152602081017f74686520636f6e7472616374206e6f7420696e697420796574000000000000008152905061441f565b60208082528101610f0b816147be565b60198152602081017f436f6e747261637420656d657267656e637920706175736564000000000000008152905061441f565b60208082528101610f0b81614800565b634e487b7160e01b600052602160045260246000fd5b60188152602081017f56616c696461746f7220646f6573206e6f7420657869737400000000000000008152905061441f565b60208082528101610f0b81614858565b60188152602081017f436f6d6d697373696f6e207261746520746f6f206869676800000000000000008152905061441f565b60208082528101610f0b8161489a565b604081016148ea8285614153565b6128676020830184614153565b60128152602081017110dbdb9d1c9858dd081a5cc81c185d5cd95960721b8152905061441f565b60208082528101610f0b816148f7565b60148152602081017327b7363c9032b6b2b933b2b731bc9030b236b4b760611b8152905061441f565b60208082528101610f0b8161492e565b604081016149758285614123565b6128676020830184614303565b600f8152602081016e496e76616c6964206164647265737360881b8152905061441f565b60208082528101610f0b81614982565b601f8152602081017f5265656e7472616e637947756172643a207265656e7472616e742063616c6c008152905061441f565b60208082528101610f0b816149b6565b60178152602081017f4e6f207374616b6520776974682076616c696461746f720000000000000000008152905061441f565b60208082528101610f0b816149f8565b6013815260208101724e6f207265776172647320746f20636c61696d60681b8152905061441f565b60208082528101610f0b81614a3a565b634e487b7160e01b600052601160045260246000fd5b818102811582820484141761137957611379614a72565b634e487b7160e01b600052601260045260246000fd5b600082614ac457614ac4614a9f565b500490565b8181038181111561137957611379614a72565b634e487b7160e01b600052603260045260246000fd5b600060018201614b0457614b04614a72565b5060010190565b601281526020810171135d5cdd081d5b9cdd185ad948199a5c9cdd60721b8152905061441f565b60208082528101610f0b81614b0b565b8082018082111561137957611379614a72565b601381526020810172151bdad95b9cc81cdd1a5b1b081b1bd8dad959606a1b8152905061441f565b60208082528101610f0b81614b55565b6015815260208101744e6f20746f6b656e7320746f20776974686472617760581b8152905061441f565b60208082528101610f0b81614b8d565b60218152602081017f4f6e6c792061646d696e2063616e2063616c6c20746869732066756e6374696f8152603760f91b602082015290505b60400190565b60208082528101610f0b81614bc7565b600a81526020810169139bdd081c185d5cd95960b21b8152905061441f565b60208082528101610f0b81614c15565b601481526020810173139bdd081c995dd85c99081c9958da5c1a595b9d60621b8152905061441f565b60208082528101610f0b81614c44565b60208082527f4d7573742077616974206265666f7265206e657874207769746864726177616c910190815261441f565b60208082528101610f0b81614c7d565b6016815260208101754e6f207265776172647320746f20776974686472617760501b8152905061441f565b60208082528101610f0b81614cbd565b60298152602081017f746865206d6573736167652073656e646572206d75737420626520736c6173688152680818dbdb9d1c9858dd60ba1b60208201529050614bff565b60208082528101610f0b81614cf8565b600e8152602081016d105b1c9958591e481c185d5cd95960921b8152905061441f565b60208082528101610f0b81614d4c565b634e487b7160e01b600052602260045260246000fd5b600281046001821680614da957607f821691505b60208210810361087057610870614d7f565b602d8152602081017f746865206d6573736167652073656e646572206d75737420626520746865206281526c3637b1b590383937b23ab1b2b960991b60208201529050614bff565b60208082528101610f0b81614dbb565b601a8152602081017f56616c696461746f727320616c726561647920757064617465640000000000008152905061441f565b60208082528101610f0b81614e13565b600082614e6457614e64614a9f565b500690565b60108152602081016f426c6f636b2065706f6368206f6e6c7960801b8152905061441f565b60208082528101610f0b81614e69565b601381526020810172115b5c1d1e4818d85b991a59185d19481cd95d606a1b8152905061441f565b60208082528101610f0b81614e9e565b601381526020810172546f6f206d616e792063616e6469646174657360681b8152905061441f565b60208082528101610f0b81614ed6565b6000610f0b8254614167565b6000614f24825490565b80845260008381526020808220950194905b8281101561446257614f4782614f0e565b614f51878261440e565b96505060019182019101614f36565b60408082528101614f718185614f1a565b90506128676020830184614153565b601581526020810174496e76616c69642061646d696e206164647265737360581b8152905061441f565b60208082528101610f0b81614f80565b60138152602081017224b73b30b634b2103232b9b1b934b83a34b7b760691b8152905061441f565b60208082528101610f0b81614fba565b6000610f0b614ffe8381565b90565b61500a83614ff2565b815460001960089490940293841b1916921b91909117905550565b6000612727818484615001565b818110156112df57615045600082615025565b600101615032565b601f821115612727576000818152602090206020601f850104810160208510156150745750805b61265a6020601f860104830182615032565b81516001600160401b0381111561509f5761509f6145ff565b6150a98254614d95565b6150b482828561504d565b506020601f8211600181146150e957600083156150d15750848201515b600019600885021c198116600285021785555061265a565b600084815260208120601f198516915b8281101561511957878501518255602094850194600190920191016150f9565b50848210156151365783870151600019601f87166008021c191681555b50505050600202600101905550565b60208082527f74686520636f6e747261637420616c726561647920696e697469616c697a6564910190815261441f565b60208082528101610f0b81615145565b60178152602081017f496e76616c69642076616c696461746f7220636f756e740000000000000000008152905061441f565b60208082528101610f0b81615185565b60108152602081016f4d6f6e696b657220746f6f206c6f6e6760801b8152905061441f565b60208082528101610f0b816151c7565b60108152602081016f5765627369746520746f6f206c6f6e6760801b8152905061441f565b60208082528101610f0b816151fc565b600e8152602081016d456d61696c20746f6f206c6f6e6760901b8152905061441f565b60208082528101610f0b81615231565b60108152602081016f44657461696c7320746f6f206c6f6e6760801b8152905061441f565b60208082528101610f0b81615264565b60148152602081017315985b1a59185d1bdc881b9bdd081a985a5b195960621b8152905061441f565b60208082528101610f0b81615299565b8015156140e1565b8051611379816152d2565b6000602082840312156152fa576152fa600080fd5b600061411b84846152da565b601c8152602081017f4661696c656420746f20636c65616e20736c617368207265636f7264000000008152905061441f565b60208082528101610f0b81615306565b601681526020810175109b1bd8dac8185b1c9958591e481c995dd85c99195960521b8152905061441f565b60208082528101610f0b81615348565b601181526020810170416c726561647920756e7374616b696e6760781b8152905061441f565b60208082528101610f0b81615383565b6013815260208101724e6f207374616b6520746f20756e7374616b6560681b8152905061441f565b60208082528101610f0b816153b9565b60188152602081017f56616c696461746f7220616c72656164792065786973747300000000000000008152905061441f565b60208082528101610f0b816153f1565b60188152602081017f5472616e7366657220746f207a65726f206164647265737300000000000000008152905061441f565b60208082528101610f0b81615433565b601481526020810173496e73756666696369656e742062616c616e636560601b8152905061441f565b60208082528101610f0b81615475565b600f8152602081016e151c985b9cd9995c8819985a5b1959608a1b8152905061441f565b60208082528101610f0b816154ae565b601d8152602081017f416d6f756e74206d7573742062652067726561746572207468616e20300000008152905061441f565b60208082528101610f0b816154e2565b601c8152602081017f43616e6e6f74207374616b65207768696c6520756e7374616b696e67000000008152905061441f565b60208082528101610f0b81615524565b601b8152602081017f496e697469616c207374616b652062656c6f77206d696e696d756d00000000008152905061441f565b60208082528101610f0b81615566565b634e487b7160e01b600052603160045260246000fd5b60198152602081017f496e76616c69642076616c696461746f722061646472657373000000000000008152905061441f565b60208082528101610f0b816155be565b602c8152602081017f43616e6e6f7420756e7374616b653a20776f756c642064697361626c65206c6181526b39ba103b30b634b230ba37b960a11b60208201529050614bff565b60208082528101610f0b81615600565b60238152602081017f546f74616c207374616b652062656c6f77206d696e696d756d207468726573688152621bdb1960ea1b60208201529050614bff565b60208082528101610f0b81615657565b6144188282614153565b60006156b9825190565b808452602093840193830160005b828110156144625781516156db87826156a5565b9650506020820191506001016156c7565b608080825281016156fd8187614425565b9050818103602083015261571181866156af565b90506157206040830185614153565b61572d6060830184614153565b95945050505050565b600d8152602081016c4e6f2064656c656761746f727360981b8152905061441f565b60208082528101610f0b81615736565b600d8152602081016c092dcecc2d8d2c840d2dcc8caf609b1b8152905061441f565b60208082528101610f0b8161576856fea164736f6c6343000813000a","opcodes":"PUSH1 0x80 PUSH1 0x40 MSTORE CALLVALUE DUP1 ISZERO PUSH2 0x10 JUMPI PUSH1 0x0 DUP1 REVERT JUMPDEST POP PUSH2 0x57A7 DUP1 PUSH3 0x21 PUSH1 0x0 CODECOPY PUSH1 0x0 RETURN INVALID PUSH1 0x80 PUSH1 0x40 MSTORE PUSH1 0x4 CALLDATASIZE LT PUSH2 0x25F JUMPI PUSH1 0x0 CALLDATALOAD PUSH1 0xE0 SHR DUP1 PUSH4 0x67239A04 GT PUSH2 0x144 JUMPI DUP1 PUSH4 0xA224CEE7 GT PUSH2 0xB6 JUMPI DUP1 PUSH4 0xD2F01A9B GT PUSH2 0x7A JUMPI DUP1 PUSH4 0xD2F01A9B EQ PUSH2 0x6CB JUMPI DUP1 PUSH4 0xD6C0EDAD EQ PUSH2 0x6E2 JUMPI DUP1 PUSH4 0xE8A3298B EQ PUSH2 0x6EA JUMPI DUP1 PUSH4 0xF2888DBB EQ PUSH2 0x6FF JUMPI DUP1 PUSH4 0xF851A440 EQ PUSH2 0x71F JUMPI DUP1 PUSH4 0xFD4FACDE EQ PUSH2 0x745 JUMPI PUSH1 0x0 DUP1 REVERT JUMPDEST DUP1 PUSH4 0xA224CEE7 EQ PUSH2 0x64B JUMPI DUP1 PUSH4 0xB7D02CE2 EQ PUSH2 0x66B JUMPI DUP1 PUSH4 0xB7DC5C40 EQ PUSH2 0x68B JUMPI DUP1 PUSH4 0xB8DB983E EQ PUSH2 0x6A0 JUMPI DUP1 PUSH4 0xCE5CF377 EQ PUSH2 0x6B6 JUMPI PUSH1 0x0 DUP1 REVERT JUMPDEST DUP1 PUSH4 0x8AF0A869 GT PUSH2 0x108 JUMPI DUP1 PUSH4 0x8AF0A869 EQ PUSH2 0x588 JUMPI DUP1 PUSH4 0x8CAB587D EQ PUSH2 0x5AA JUMPI DUP1 PUSH4 0x8F283970 EQ PUSH2 0x5BD JUMPI DUP1 PUSH4 0x9B7FB063 EQ PUSH2 0x5DD JUMPI DUP1 PUSH4 0xA0774743 EQ PUSH2 0x5FD JUMPI DUP1 PUSH4 0xA0C3F2D2 EQ PUSH2 0x612 JUMPI PUSH1 0x0 DUP1 REVERT JUMPDEST DUP1 PUSH4 0x67239A04 EQ PUSH2 0x4E6 JUMPI DUP1 PUSH4 0x70905DCE EQ PUSH2 0x4FC JUMPI DUP1 PUSH4 0x7A27DB57 EQ PUSH2 0x521 JUMPI DUP1 PUSH4 0x8456CB59 EQ PUSH2 0x541 JUMPI DUP1 PUSH4 0x8A11D7C9 EQ PUSH2 0x556 JUMPI PUSH1 0x0 DUP1 REVERT JUMPDEST DUP1 PUSH4 0x207239C0 GT PUSH2 0x1DD JUMPI DUP1 PUSH4 0x2B599C0D GT PUSH2 0x1A1 JUMPI DUP1 PUSH4 0x2B599C0D EQ PUSH2 0x431 JUMPI DUP1 PUSH4 0x3A061BD3 EQ PUSH2 0x44F JUMPI DUP1 PUSH4 0x3F4BA83A EQ PUSH2 0x472 JUMPI DUP1 PUSH4 0x42D86693 EQ PUSH2 0x487 JUMPI DUP1 PUSH4 0x4711F586 EQ PUSH2 0x4A7 JUMPI DUP1 PUSH4 0x5C975ABB EQ PUSH2 0x4C7 JUMPI PUSH1 0x0 DUP1 REVERT JUMPDEST DUP1 PUSH4 0x207239C0 EQ PUSH2 0x3B1 JUMPI DUP1 PUSH4 0x21974455 EQ PUSH2 0x3C7 JUMPI DUP1 PUSH4 0x222D3B05 EQ PUSH2 0x3E4 JUMPI DUP1 PUSH4 0x26476204 EQ PUSH2 0x404 JUMPI DUP1 PUSH4 0x27C830A9 EQ PUSH2 0x417 JUMPI PUSH1 0x0 DUP1 REVERT JUMPDEST DUP1 PUSH4 0x14BFB527 GT PUSH2 0x224 JUMPI DUP1 PUSH4 0x14BFB527 EQ PUSH2 0x317 JUMPI DUP1 PUSH4 0x14C57E93 EQ PUSH2 0x337 JUMPI DUP1 PUSH4 0x158EF93E EQ PUSH2 0x357 JUMPI DUP1 PUSH4 0x1A8D57BC EQ PUSH2 0x371 JUMPI DUP1 PUSH4 0x1C8B8A3D EQ PUSH2 0x391 JUMPI PUSH1 0x0 DUP1 REVERT JUMPDEST DUP1 PUSH3 0xFA3D50 EQ PUSH2 0x26B JUMPI DUP1 PUSH4 0xB3A2323 EQ PUSH2 0x2A1 JUMPI DUP1 PUSH4 0xF952573 EQ PUSH2 0x2C3 JUMPI DUP1 PUSH4 0x142D13C9 EQ PUSH2 0x2ED JUMPI DUP1 PUSH4 0x147E291F EQ PUSH2 0x300 JUMPI PUSH1 0x0 DUP1 REVERT JUMPDEST CALLDATASIZE PUSH2 0x266 JUMPI STOP JUMPDEST PUSH1 0x0 DUP1 REVERT JUMPDEST CALLVALUE DUP1 ISZERO PUSH2 0x277 JUMPI PUSH1 0x0 DUP1 REVERT JUMPDEST POP PUSH2 0x28B PUSH2 0x286 CALLDATASIZE PUSH1 0x4 PUSH2 0x40FA JUMP JUMPDEST PUSH2 0x75B JUMP JUMPDEST PUSH1 0x40 MLOAD PUSH2 0x298 SWAP2 SWAP1 PUSH2 0x412D JUMP JUMPDEST PUSH1 0x40 MLOAD DUP1 SWAP2 SUB SWAP1 RETURN JUMPDEST CALLVALUE DUP1 ISZERO PUSH2 0x2AD JUMPI PUSH1 0x0 DUP1 REVERT JUMPDEST POP PUSH2 0x2B6 PUSH1 0x65 DUP2 JUMP JUMPDEST PUSH1 0x40 MLOAD PUSH2 0x298 SWAP2 SWAP1 PUSH2 0x4145 JUMP JUMPDEST CALLVALUE DUP1 ISZERO PUSH2 0x2CF JUMPI PUSH1 0x0 DUP1 REVERT JUMPDEST POP PUSH2 0x2E0 PUSH9 0x3635C9ADC5DEA00000 DUP2 JUMP JUMPDEST PUSH1 0x40 MLOAD PUSH2 0x298 SWAP2 SWAP1 PUSH2 0x4159 JUMP JUMPDEST PUSH2 0x28B PUSH2 0x2FB CALLDATASIZE PUSH1 0x4 PUSH2 0x41DD JUMP JUMPDEST PUSH2 0x876 JUMP JUMPDEST CALLVALUE DUP1 ISZERO PUSH2 0x30C JUMPI PUSH1 0x0 DUP1 REVERT JUMPDEST POP PUSH2 0x315 PUSH2 0x905 JUMP JUMPDEST STOP JUMPDEST CALLVALUE DUP1 ISZERO PUSH2 0x323 JUMPI PUSH1 0x0 DUP1 REVERT JUMPDEST POP PUSH2 0x28B PUSH2 0x332 CALLDATASIZE PUSH1 0x4 PUSH2 0x42E2 JUMP JUMPDEST PUSH2 0x985 JUMP JUMPDEST CALLVALUE DUP1 ISZERO PUSH2 0x343 JUMPI PUSH1 0x0 DUP1 REVERT JUMPDEST POP PUSH2 0x315 PUSH2 0x352 CALLDATASIZE PUSH1 0x4 PUSH2 0x42E2 JUMP JUMPDEST PUSH2 0x9C4 JUMP JUMPDEST CALLVALUE DUP1 ISZERO PUSH2 0x363 JUMPI PUSH1 0x0 DUP1 REVERT JUMPDEST POP PUSH1 0x0 SLOAD PUSH2 0x28B SWAP1 PUSH1 0xFF AND DUP2 JUMP JUMPDEST CALLVALUE DUP1 ISZERO PUSH2 0x37D JUMPI PUSH1 0x0 DUP1 REVERT JUMPDEST POP PUSH2 0x28B PUSH2 0x38C CALLDATASIZE PUSH1 0x4 PUSH2 0x42E2 JUMP JUMPDEST PUSH2 0xA43 JUMP JUMPDEST CALLVALUE DUP1 ISZERO PUSH2 0x39D JUMPI PUSH1 0x0 DUP1 REVERT JUMPDEST POP PUSH2 0x28B PUSH2 0x3AC CALLDATASIZE PUSH1 0x4 PUSH2 0x42E2 JUMP JUMPDEST PUSH2 0xC50 JUMP JUMPDEST CALLVALUE DUP1 ISZERO PUSH2 0x3BD JUMPI PUSH1 0x0 DUP1 REVERT JUMPDEST POP PUSH2 0x2E0 PUSH2 0x3E8 DUP2 JUMP JUMPDEST CALLVALUE DUP1 ISZERO PUSH2 0x3D3 JUMPI PUSH1 0x0 DUP1 REVERT JUMPDEST POP PUSH2 0x2E0 PUSH9 0x1B1AE4D6E2EF500000 DUP2 JUMP JUMPDEST CALLVALUE DUP1 ISZERO PUSH2 0x3F0 JUMPI PUSH1 0x0 DUP1 REVERT JUMPDEST POP PUSH2 0x28B PUSH2 0x3FF CALLDATASIZE PUSH1 0x4 PUSH2 0x42E2 JUMP JUMPDEST PUSH2 0xCB9 JUMP JUMPDEST PUSH2 0x28B PUSH2 0x412 CALLDATASIZE PUSH1 0x4 PUSH2 0x42E2 JUMP JUMPDEST PUSH2 0xE92 JUMP JUMPDEST CALLVALUE DUP1 ISZERO PUSH2 0x423 JUMPI PUSH1 0x0 DUP1 REVERT JUMPDEST POP PUSH1 0xA SLOAD PUSH2 0x28B SWAP1 PUSH1 0xFF AND DUP2 JUMP JUMPDEST CALLVALUE DUP1 ISZERO PUSH2 0x43D JUMPI PUSH1 0x0 DUP1 REVERT JUMPDEST POP PUSH2 0x2E0 PUSH10 0x21E19E0C9BAB2400000 DUP2 JUMP JUMPDEST CALLVALUE DUP1 ISZERO PUSH2 0x45B JUMPI PUSH1 0x0 DUP1 REVERT JUMPDEST POP PUSH2 0x465 PUSH2 0x1000 DUP2 JUMP JUMPDEST PUSH1 0x40 MLOAD PUSH2 0x298 SWAP2 SWAP1 PUSH2 0x430C JUMP JUMPDEST CALLVALUE DUP1 ISZERO PUSH2 0x47E JUMPI PUSH1 0x0 DUP1 REVERT JUMPDEST POP PUSH2 0x315 PUSH2 0xF13 JUMP JUMPDEST CALLVALUE DUP1 ISZERO PUSH2 0x493 JUMPI PUSH1 0x0 DUP1 REVERT JUMPDEST POP PUSH2 0x28B PUSH2 0x4A2 CALLDATASIZE PUSH1 0x4 PUSH2 0x42E2 JUMP JUMPDEST PUSH2 0xF9E JUMP JUMPDEST CALLVALUE DUP1 ISZERO PUSH2 0x4B3 JUMPI PUSH1 0x0 DUP1 REVERT JUMPDEST POP PUSH2 0x315 PUSH2 0x4C2 CALLDATASIZE PUSH1 0x4 PUSH2 0x42E2 JUMP JUMPDEST PUSH2 0x1140 JUMP JUMPDEST CALLVALUE DUP1 ISZERO PUSH2 0x4D3 JUMPI PUSH1 0x0 DUP1 REVERT JUMPDEST POP PUSH1 0x0 SLOAD PUSH2 0x28B SWAP1 PUSH2 0x100 SWAP1 DIV PUSH1 0xFF AND DUP2 JUMP JUMPDEST CALLVALUE DUP1 ISZERO PUSH2 0x4F2 JUMPI PUSH1 0x0 DUP1 REVERT JUMPDEST POP PUSH2 0x465 PUSH2 0x1001 DUP2 JUMP JUMPDEST CALLVALUE DUP1 ISZERO PUSH2 0x508 JUMPI PUSH1 0x0 DUP1 REVERT JUMPDEST POP PUSH1 0xA SLOAD PUSH2 0x465 SWAP1 PUSH2 0x100 SWAP1 DIV PUSH1 0x1 PUSH1 0x1 PUSH1 0xA0 SHL SUB AND DUP2 JUMP JUMPDEST CALLVALUE DUP1 ISZERO PUSH2 0x52D JUMPI PUSH1 0x0 DUP1 REVERT JUMPDEST POP PUSH2 0x2E0 PUSH2 0x53C CALLDATASIZE PUSH1 0x4 PUSH2 0x431A JUMP JUMPDEST PUSH2 0x12E3 JUMP JUMPDEST CALLVALUE DUP1 ISZERO PUSH2 0x54D JUMPI PUSH1 0x0 DUP1 REVERT JUMPDEST POP PUSH2 0x315 PUSH2 0x137F JUMP JUMPDEST CALLVALUE DUP1 ISZERO PUSH2 0x562 JUMPI PUSH1 0x0 DUP1 REVERT JUMPDEST POP PUSH2 0x576 PUSH2 0x571 CALLDATASIZE PUSH1 0x4 PUSH2 0x42E2 JUMP JUMPDEST PUSH2 0x140F JUMP JUMPDEST PUSH1 0x40 MLOAD PUSH2 0x298 SWAP7 SWAP6 SWAP5 SWAP4 SWAP3 SWAP2 SWAP1 PUSH2 0x43AD JUMP JUMPDEST CALLVALUE DUP1 ISZERO PUSH2 0x594 JUMPI PUSH1 0x0 DUP1 REVERT JUMPDEST POP PUSH2 0x59D PUSH2 0x191B JUMP JUMPDEST PUSH1 0x40 MLOAD PUSH2 0x298 SWAP2 SWAP1 PUSH2 0x446C JUMP JUMPDEST PUSH2 0x28B PUSH2 0x5B8 CALLDATASIZE PUSH1 0x4 PUSH2 0x447D JUMP JUMPDEST PUSH2 0x1A98 JUMP JUMPDEST CALLVALUE DUP1 ISZERO PUSH2 0x5C9 JUMPI PUSH1 0x0 DUP1 REVERT JUMPDEST POP PUSH2 0x315 PUSH2 0x5D8 CALLDATASIZE PUSH1 0x4 PUSH2 0x42E2 JUMP JUMPDEST PUSH2 0x1B28 JUMP JUMPDEST CALLVALUE DUP1 ISZERO PUSH2 0x5E9 JUMPI PUSH1 0x0 DUP1 REVERT JUMPDEST POP PUSH2 0x28B PUSH2 0x5F8 CALLDATASIZE PUSH1 0x4 PUSH2 0x447D JUMP JUMPDEST PUSH2 0x1BE7 JUMP JUMPDEST CALLVALUE DUP1 ISZERO PUSH2 0x609 JUMPI PUSH1 0x0 DUP1 REVERT JUMPDEST POP PUSH1 0x5 SLOAD PUSH2 0x2E0 JUMP JUMPDEST CALLVALUE DUP1 ISZERO PUSH2 0x61E JUMPI PUSH1 0x0 DUP1 REVERT JUMPDEST POP PUSH2 0x28B PUSH2 0x62D CALLDATASIZE PUSH1 0x4 PUSH2 0x42E2 JUMP JUMPDEST PUSH1 0x1 PUSH1 0x1 PUSH1 0xA0 SHL SUB AND PUSH1 0x0 SWAP1 DUP2 MSTORE PUSH1 0x9 PUSH1 0x20 MSTORE PUSH1 0x40 SWAP1 KECCAK256 SLOAD PUSH1 0xFF AND SWAP1 JUMP JUMPDEST CALLVALUE DUP1 ISZERO PUSH2 0x657 JUMPI PUSH1 0x0 DUP1 REVERT JUMPDEST POP PUSH2 0x315 PUSH2 0x666 CALLDATASIZE PUSH1 0x4 PUSH2 0x45B8 JUMP JUMPDEST PUSH2 0x1F60 JUMP JUMPDEST CALLVALUE DUP1 ISZERO PUSH2 0x677 JUMPI PUSH1 0x0 DUP1 REVERT JUMPDEST POP PUSH2 0x28B PUSH2 0x686 CALLDATASIZE PUSH1 0x4 PUSH2 0x46F3 JUMP JUMPDEST PUSH2 0x205E JUMP JUMPDEST CALLVALUE DUP1 ISZERO PUSH2 0x697 JUMPI PUSH1 0x0 DUP1 REVERT JUMPDEST POP PUSH2 0x59D PUSH2 0x20F6 JUMP JUMPDEST CALLVALUE DUP1 ISZERO PUSH2 0x6AC JUMPI PUSH1 0x0 DUP1 REVERT JUMPDEST POP PUSH2 0x2E0 PUSH2 0x1F4 DUP2 JUMP JUMPDEST CALLVALUE DUP1 ISZERO PUSH2 0x6C2 JUMPI PUSH1 0x0 DUP1 REVERT JUMPDEST POP PUSH2 0x28B PUSH2 0x2158 JUMP JUMPDEST CALLVALUE DUP1 ISZERO PUSH2 0x6D7 JUMPI PUSH1 0x0 DUP1 REVERT JUMPDEST POP PUSH2 0x2E0 PUSH3 0x15180 DUP2 JUMP JUMPDEST PUSH2 0x315 PUSH2 0x231C JUMP JUMPDEST CALLVALUE DUP1 ISZERO PUSH2 0x6F6 JUMPI PUSH1 0x0 DUP1 REVERT JUMPDEST POP PUSH2 0x2E0 PUSH1 0xC8 DUP2 JUMP JUMPDEST CALLVALUE DUP1 ISZERO PUSH2 0x70B JUMPI PUSH1 0x0 DUP1 REVERT JUMPDEST POP PUSH2 0x28B PUSH2 0x71A CALLDATASIZE PUSH1 0x4 PUSH2 0x42E2 JUMP JUMPDEST PUSH2 0x23BD JUMP JUMPDEST CALLVALUE DUP1 ISZERO PUSH2 0x72B JUMPI PUSH1 0x0 DUP1 REVERT JUMPDEST POP PUSH1 0x0 SLOAD PUSH2 0x465 SWAP1 PUSH3 0x10000 SWAP1 DIV PUSH1 0x1 PUSH1 0x1 PUSH1 0xA0 SHL SUB AND DUP2 JUMP JUMPDEST CALLVALUE DUP1 ISZERO PUSH2 0x751 JUMPI PUSH1 0x0 DUP1 REVERT JUMPDEST POP PUSH2 0x2E0 PUSH2 0x7080 DUP2 JUMP JUMPDEST PUSH1 0x0 DUP1 SLOAD PUSH1 0xFF AND PUSH2 0x787 JUMPI PUSH1 0x40 MLOAD PUSH3 0x461BCD PUSH1 0xE5 SHL DUP2 MSTORE PUSH1 0x4 ADD PUSH2 0x77E SWAP1 PUSH2 0x47F0 JUMP JUMPDEST PUSH1 0x40 MLOAD DUP1 SWAP2 SUB SWAP1 REVERT JUMPDEST PUSH1 0xA SLOAD PUSH1 0xFF AND ISZERO PUSH2 0x7AA JUMPI PUSH1 0x40 MLOAD PUSH3 0x461BCD PUSH1 0xE5 SHL DUP2 MSTORE PUSH1 0x4 ADD PUSH2 0x77E SWAP1 PUSH2 0x4832 JUMP JUMPDEST CALLER PUSH1 0x0 DUP2 DUP2 MSTORE PUSH1 0x1 PUSH1 0x20 MSTORE PUSH1 0x40 DUP2 KECCAK256 SLOAD PUSH1 0x1 PUSH1 0xA0 SHL SWAP1 DIV PUSH1 0xFF AND PUSH1 0x4 DUP2 GT ISZERO PUSH2 0x7D5 JUMPI PUSH2 0x7D5 PUSH2 0x4842 JUMP JUMPDEST SUB PUSH2 0x7F2 JUMPI PUSH1 0x40 MLOAD PUSH3 0x461BCD PUSH1 0xE5 SHL DUP2 MSTORE PUSH1 0x4 ADD PUSH2 0x77E SWAP1 PUSH2 0x488A JUMP JUMPDEST PUSH2 0x3E8 DUP4 GT ISZERO PUSH2 0x814 JUMPI PUSH1 0x40 MLOAD PUSH3 0x461BCD PUSH1 0xE5 SHL DUP2 MSTORE PUSH1 0x4 ADD PUSH2 0x77E SWAP1 PUSH2 0x48CC JUMP JUMPDEST CALLER PUSH1 0x0 DUP2 DUP2 MSTORE PUSH1 0x1 PUSH1 0x20 MSTORE PUSH1 0x40 SWAP1 DUP2 SWAP1 KECCAK256 PUSH1 0xA ADD DUP1 SLOAD SWAP1 DUP7 SWAP1 SSTORE SWAP1 MLOAD DUP3 SWAP1 PUSH32 0x973D9FDAD653BA8759DD3D5C02C1880B8663AB2BA904F94010DC32B69C47C9A5 SWAP1 PUSH2 0x861 SWAP1 DUP5 SWAP1 DUP10 SWAP1 PUSH2 0x48DC JUMP JUMPDEST PUSH1 0x40 MLOAD DUP1 SWAP2 SUB SWAP1 LOG2 PUSH1 0x1 SWAP4 POP POP POP JUMPDEST POP SWAP2 SWAP1 POP JUMP JUMPDEST PUSH1 0x0 DUP1 SLOAD PUSH1 0xFF AND PUSH2 0x899 JUMPI PUSH1 0x40 MLOAD PUSH3 0x461BCD PUSH1 0xE5 SHL DUP2 MSTORE PUSH1 0x4 ADD PUSH2 0x77E SWAP1 PUSH2 0x47F0 JUMP JUMPDEST PUSH1 0x0 SLOAD PUSH2 0x100 SWAP1 DIV PUSH1 0xFF AND ISZERO PUSH2 0x8C1 JUMPI PUSH1 0x40 MLOAD PUSH3 0x461BCD PUSH1 0xE5 SHL DUP2 MSTORE PUSH1 0x4 ADD PUSH2 0x77E SWAP1 PUSH2 0x491E JUMP JUMPDEST PUSH1 0xA SLOAD PUSH1 0xFF AND ISZERO PUSH2 0x8E4 JUMPI PUSH1 0x40 MLOAD PUSH3 0x461BCD PUSH1 0xE5 SHL DUP2 MSTORE PUSH1 0x4 ADD PUSH2 0x77E SWAP1 PUSH2 0x4832 JUMP JUMPDEST PUSH2 0x8F6 DUP12 DUP12 DUP12 DUP12 DUP12 DUP12 DUP12 DUP12 DUP12 DUP12 PUSH2 0x24EC JUMP JUMPDEST SWAP12 SWAP11 POP POP POP POP POP POP POP POP POP POP POP JUMP JUMPDEST PUSH1 0xA SLOAD PUSH2 0x100 SWAP1 DIV PUSH1 0x1 PUSH1 0x1 PUSH1 0xA0 SHL SUB AND CALLER EQ PUSH2 0x934 JUMPI PUSH1 0x40 MLOAD PUSH3 0x461BCD PUSH1 0xE5 SHL DUP2 MSTORE PUSH1 0x4 ADD PUSH2 0x77E SWAP1 PUSH2 0x4957 JUMP JUMPDEST PUSH1 0xA DUP1 SLOAD PUSH1 0xFF NOT DUP2 AND PUSH1 0xFF SWAP2 DUP3 AND ISZERO SWAP1 DUP2 OR SWAP1 SWAP3 SSTORE PUSH1 0x40 MLOAD PUSH32 0x81FB10540499DAC6157B25576349C719BE885B5774E4A0DDA606C2F33947D51F SWAP3 PUSH2 0x97B SWAP3 AND SWAP1 CALLER SWAP1 PUSH2 0x4967 JUMP JUMPDEST PUSH1 0x40 MLOAD DUP1 SWAP2 SUB SWAP1 LOG1 JUMP JUMPDEST PUSH1 0x0 PUSH1 0x4 PUSH1 0x1 PUSH1 0x1 PUSH1 0xA0 SHL SUB DUP4 AND PUSH1 0x0 SWAP1 DUP2 MSTORE PUSH1 0x1 PUSH1 0x20 MSTORE PUSH1 0x40 SWAP1 KECCAK256 SLOAD PUSH1 0x1 PUSH1 0xA0 SHL SWAP1 DIV PUSH1 0xFF AND PUSH1 0x4 DUP2 GT ISZERO PUSH2 0x9BD JUMPI PUSH2 0x9BD PUSH2 0x4842 JUMP JUMPDEST EQ SWAP3 SWAP2 POP POP JUMP JUMPDEST PUSH1 0xA SLOAD PUSH2 0x100 SWAP1 DIV PUSH1 0x1 PUSH1 0x1 PUSH1 0xA0 SHL SUB AND CALLER EQ PUSH2 0x9F3 JUMPI PUSH1 0x40 MLOAD PUSH3 0x461BCD PUSH1 0xE5 SHL DUP2 MSTORE PUSH1 0x4 ADD PUSH2 0x77E SWAP1 PUSH2 0x4957 JUMP JUMPDEST DUP1 PUSH1 0x1 PUSH1 0x1 PUSH1 0xA0 SHL SUB DUP2 AND PUSH2 0xA1A JUMPI PUSH1 0x40 MLOAD PUSH3 0x461BCD PUSH1 0xE5 SHL DUP2 MSTORE PUSH1 0x4 ADD PUSH2 0x77E SWAP1 PUSH2 0x49A6 JUMP JUMPDEST POP PUSH1 0xA DUP1 SLOAD PUSH1 0x1 PUSH1 0x1 PUSH1 0xA0 SHL SUB SWAP1 SWAP3 AND PUSH2 0x100 MUL PUSH2 0x100 PUSH1 0x1 PUSH1 0xA8 SHL SUB NOT SWAP1 SWAP3 AND SWAP2 SWAP1 SWAP2 OR SWAP1 SSTORE JUMP JUMPDEST PUSH1 0xC SLOAD PUSH1 0x0 SWAP1 PUSH1 0x2 SUB PUSH2 0xA68 JUMPI PUSH1 0x40 MLOAD PUSH3 0x461BCD PUSH1 0xE5 SHL DUP2 MSTORE PUSH1 0x4 ADD PUSH2 0x77E SWAP1 PUSH2 0x49E8 JUMP JUMPDEST PUSH1 0x2 PUSH1 0xC SSTORE PUSH1 0xA SLOAD PUSH1 0xFF AND ISZERO PUSH2 0xA90 JUMPI PUSH1 0x40 MLOAD PUSH3 0x461BCD PUSH1 0xE5 SHL DUP2 MSTORE PUSH1 0x4 ADD PUSH2 0x77E SWAP1 PUSH2 0x4832 JUMP JUMPDEST DUP2 PUSH1 0x0 PUSH1 0x1 PUSH1 0x1 PUSH1 0xA0 SHL SUB DUP3 AND PUSH1 0x0 SWAP1 DUP2 MSTORE PUSH1 0x1 PUSH1 0x20 MSTORE PUSH1 0x40 SWAP1 KECCAK256 SLOAD PUSH1 0x1 PUSH1 0xA0 SHL SWAP1 DIV PUSH1 0xFF AND PUSH1 0x4 DUP2 GT ISZERO PUSH2 0xAC7 JUMPI PUSH2 0xAC7 PUSH2 0x4842 JUMP JUMPDEST SUB PUSH2 0xAE4 JUMPI PUSH1 0x40 MLOAD PUSH3 0x461BCD PUSH1 0xE5 SHL DUP2 MSTORE PUSH1 0x4 ADD PUSH2 0x77E SWAP1 PUSH2 0x488A JUMP JUMPDEST CALLER PUSH1 0x0 DUP2 DUP2 MSTORE PUSH1 0x2 PUSH1 0x20 SWAP1 DUP2 MSTORE PUSH1 0x40 DUP1 DUP4 KECCAK256 PUSH1 0x1 PUSH1 0x1 PUSH1 0xA0 SHL SUB DUP9 AND DUP5 MSTORE SWAP1 SWAP2 MSTORE SWAP1 KECCAK256 DUP1 SLOAD PUSH2 0xB25 JUMPI PUSH1 0x40 MLOAD PUSH3 0x461BCD PUSH1 0xE5 SHL DUP2 MSTORE PUSH1 0x4 ADD PUSH2 0x77E SWAP1 PUSH2 0x4A2A JUMP JUMPDEST PUSH2 0xB2F DUP3 DUP7 PUSH2 0x25C0 JUMP JUMPDEST PUSH1 0x4 DUP2 ADD SLOAD DUP1 PUSH2 0xB51 JUMPI PUSH1 0x40 MLOAD PUSH3 0x461BCD PUSH1 0xE5 SHL DUP2 MSTORE PUSH1 0x4 ADD PUSH2 0x77E SWAP1 PUSH2 0x4A62 JUMP JUMPDEST PUSH1 0x0 PUSH1 0x4 DUP4 ADD DUP2 SWAP1 SSTORE DUP3 SLOAD PUSH1 0x1 PUSH1 0x1 PUSH1 0xA0 SHL SUB DUP9 AND DUP3 MSTORE PUSH1 0x1 PUSH1 0x20 MSTORE PUSH1 0x40 SWAP1 SWAP2 KECCAK256 PUSH1 0xC ADD SLOAD PUSH8 0xDE0B6B3A7640000 SWAP2 PUSH2 0xB89 SWAP2 PUSH2 0x4A88 JUMP JUMPDEST PUSH2 0xB93 SWAP2 SWAP1 PUSH2 0x4AB5 JUMP JUMPDEST PUSH1 0x3 DUP4 ADD SSTORE NUMBER PUSH1 0x6 DUP4 ADD SSTORE PUSH1 0x1 PUSH1 0x1 PUSH1 0xA0 SHL SUB DUP7 AND PUSH1 0x0 SWAP1 DUP2 MSTORE PUSH1 0x1 PUSH1 0x20 MSTORE PUSH1 0x40 SWAP1 KECCAK256 PUSH1 0xB DUP2 ADD SLOAD DUP3 GT PUSH2 0xBE0 JUMPI DUP2 DUP2 PUSH1 0xB ADD PUSH1 0x0 DUP3 DUP3 SLOAD PUSH2 0xBD5 SWAP2 SWAP1 PUSH2 0x4AC9 JUMP JUMPDEST SWAP1 SWAP2 SSTORE POP PUSH2 0xBE8 SWAP1 POP JUMP JUMPDEST PUSH1 0x0 PUSH1 0xB DUP3 ADD SSTORE JUMPDEST PUSH2 0xBF2 DUP5 DUP4 PUSH2 0x2662 JUMP JUMPDEST DUP7 PUSH1 0x1 PUSH1 0x1 PUSH1 0xA0 SHL SUB AND DUP5 PUSH1 0x1 PUSH1 0x1 PUSH1 0xA0 SHL SUB AND PUSH32 0xFF939E4E10B7A7D5B84525F6FAD2034ADE34C1A43C8D4C314AFF33EAED41B459 DUP5 PUSH1 0x40 MLOAD PUSH2 0xC35 SWAP2 SWAP1 PUSH2 0x4159 JUMP JUMPDEST PUSH1 0x40 MLOAD DUP1 SWAP2 SUB SWAP1 LOG3 PUSH1 0x1 SWAP6 POP POP POP POP POP POP PUSH1 0x1 PUSH1 0xC SSTORE SWAP2 SWAP1 POP JUMP JUMPDEST PUSH1 0x0 DUP1 JUMPDEST PUSH1 0x4 SLOAD DUP2 LT ISZERO PUSH2 0xCB0 JUMPI DUP3 PUSH1 0x1 PUSH1 0x1 PUSH1 0xA0 SHL SUB AND PUSH1 0x4 DUP3 DUP2 SLOAD DUP2 LT PUSH2 0xC7B JUMPI PUSH2 0xC7B PUSH2 0x4ADC JUMP JUMPDEST PUSH1 0x0 SWAP2 DUP3 MSTORE PUSH1 0x20 SWAP1 SWAP2 KECCAK256 ADD SLOAD PUSH1 0x1 PUSH1 0x1 PUSH1 0xA0 SHL SUB AND SUB PUSH2 0xC9E JUMPI POP PUSH1 0x1 SWAP3 SWAP2 POP POP JUMP JUMPDEST DUP1 PUSH2 0xCA8 DUP2 PUSH2 0x4AF2 JUMP JUMPDEST SWAP2 POP POP PUSH2 0xC54 JUMP JUMPDEST POP PUSH1 0x0 SWAP3 SWAP2 POP POP JUMP JUMPDEST PUSH1 0xC SLOAD PUSH1 0x0 SWAP1 PUSH1 0x2 SUB PUSH2 0xCDE JUMPI PUSH1 0x40 MLOAD PUSH3 0x461BCD PUSH1 0xE5 SHL DUP2 MSTORE PUSH1 0x4 ADD PUSH2 0x77E SWAP1 PUSH2 0x49E8 JUMP JUMPDEST PUSH1 0x2 PUSH1 0xC SSTORE PUSH1 0x0 SLOAD PUSH2 0x100 SWAP1 DIV PUSH1 0xFF AND ISZERO PUSH2 0xD0B JUMPI PUSH1 0x40 MLOAD PUSH3 0x461BCD PUSH1 0xE5 SHL DUP2 MSTORE PUSH1 0x4 ADD PUSH2 0x77E SWAP1 PUSH2 0x491E JUMP JUMPDEST PUSH1 0xA SLOAD PUSH1 0xFF AND ISZERO PUSH2 0xD2E JUMPI PUSH1 0x40 MLOAD PUSH3 0x461BCD PUSH1 0xE5 SHL DUP2 MSTORE PUSH1 0x4 ADD PUSH2 0x77E SWAP1 PUSH2 0x4832 JUMP JUMPDEST DUP2 PUSH1 0x0 PUSH1 0x1 PUSH1 0x1 PUSH1 0xA0 SHL SUB DUP3 AND PUSH1 0x0 SWAP1 DUP2 MSTORE PUSH1 0x1 PUSH1 0x20 MSTORE PUSH1 0x40 SWAP1 KECCAK256 SLOAD PUSH1 0x1 PUSH1 0xA0 SHL SWAP1 DIV PUSH1 0xFF AND PUSH1 0x4 DUP2 GT ISZERO PUSH2 0xD65 JUMPI PUSH2 0xD65 PUSH2 0x4842 JUMP JUMPDEST SUB PUSH2 0xD82 JUMPI PUSH1 0x40 MLOAD PUSH3 0x461BCD PUSH1 0xE5 SHL DUP2 MSTORE PUSH1 0x4 ADD PUSH2 0x77E SWAP1 PUSH2 0x488A JUMP JUMPDEST CALLER PUSH1 0x0 DUP2 DUP2 MSTORE PUSH1 0x2 PUSH1 0x20 SWAP1 DUP2 MSTORE PUSH1 0x40 DUP1 DUP4 KECCAK256 PUSH1 0x1 PUSH1 0x1 PUSH1 0xA0 SHL SUB DUP9 AND DUP5 MSTORE SWAP1 SWAP2 MSTORE DUP2 KECCAK256 PUSH1 0x1 DUP2 ADD SLOAD SWAP1 SWAP2 SUB PUSH2 0xDC9 JUMPI PUSH1 0x40 MLOAD PUSH3 0x461BCD PUSH1 0xE5 SHL DUP2 MSTORE PUSH1 0x4 ADD PUSH2 0x77E SWAP1 PUSH2 0x4B32 JUMP JUMPDEST PUSH3 0x15180 DUP2 PUSH1 0x1 ADD SLOAD PUSH2 0xDDC SWAP2 SWAP1 PUSH2 0x4B42 JUMP JUMPDEST TIMESTAMP LT ISZERO PUSH2 0xDFB JUMPI PUSH1 0x40 MLOAD PUSH3 0x461BCD PUSH1 0xE5 SHL DUP2 MSTORE PUSH1 0x4 ADD PUSH2 0x77E SWAP1 PUSH2 0x4B7D JUMP JUMPDEST DUP1 SLOAD PUSH2 0xE19 JUMPI PUSH1 0x40 MLOAD PUSH3 0x461BCD PUSH1 0xE5 SHL DUP2 MSTORE PUSH1 0x4 ADD PUSH2 0x77E SWAP1 PUSH2 0x4BB7 JUMP JUMPDEST DUP1 SLOAD PUSH1 0x0 DUP1 DUP4 SSTORE PUSH1 0x1 DUP4 ADD SSTORE NUMBER PUSH1 0x6 DUP4 ADD SSTORE PUSH2 0xE35 DUP4 DUP3 PUSH2 0x2662 JUMP JUMPDEST DUP6 PUSH1 0x1 PUSH1 0x1 PUSH1 0xA0 SHL SUB AND DUP4 PUSH1 0x1 PUSH1 0x1 PUSH1 0xA0 SHL SUB AND PUSH32 0x3CA927248EB3FE77AD85F6DE5853A874833484B0985CDB49C8CEAA326162456B DUP4 PUSH1 0x40 MLOAD PUSH2 0xE78 SWAP2 SWAP1 PUSH2 0x4159 JUMP JUMPDEST PUSH1 0x40 MLOAD DUP1 SWAP2 SUB SWAP1 LOG3 PUSH1 0x1 SWAP5 POP POP POP POP POP PUSH1 0x1 PUSH1 0xC SSTORE SWAP2 SWAP1 POP JUMP JUMPDEST PUSH1 0x0 DUP1 SLOAD PUSH1 0xFF AND PUSH2 0xEB5 JUMPI PUSH1 0x40 MLOAD PUSH3 0x461BCD PUSH1 0xE5 SHL DUP2 MSTORE PUSH1 0x4 ADD PUSH2 0x77E SWAP1 PUSH2 0x47F0 JUMP JUMPDEST PUSH1 0x0 SLOAD PUSH2 0x100 SWAP1 DIV PUSH1 0xFF AND ISZERO PUSH2 0xEDD JUMPI PUSH1 0x40 MLOAD PUSH3 0x461BCD PUSH1 0xE5 SHL DUP2 MSTORE PUSH1 0x4 ADD PUSH2 0x77E SWAP1 PUSH2 0x491E JUMP JUMPDEST PUSH1 0xA SLOAD PUSH1 0xFF AND ISZERO PUSH2 0xF00 JUMPI PUSH1 0x40 MLOAD PUSH3 0x461BCD PUSH1 0xE5 SHL DUP2 MSTORE PUSH1 0x4 ADD PUSH2 0x77E SWAP1 PUSH2 0x4832 JUMP JUMPDEST PUSH2 0xF0B CALLER DUP4 CALLVALUE PUSH2 0x272C JUMP JUMPDEST SWAP1 POP JUMPDEST SWAP2 SWAP1 POP JUMP JUMPDEST PUSH1 0x0 SLOAD PUSH3 0x10000 SWAP1 DIV PUSH1 0x1 PUSH1 0x1 PUSH1 0xA0 SHL SUB AND CALLER EQ PUSH2 0xF43 JUMPI PUSH1 0x40 MLOAD PUSH3 0x461BCD PUSH1 0xE5 SHL DUP2 MSTORE PUSH1 0x4 ADD PUSH2 0x77E SWAP1 PUSH2 0x4C05 JUMP JUMPDEST PUSH1 0x0 SLOAD PUSH2 0x100 SWAP1 DIV PUSH1 0xFF AND PUSH2 0xF6A JUMPI PUSH1 0x40 MLOAD PUSH3 0x461BCD PUSH1 0xE5 SHL DUP2 MSTORE PUSH1 0x4 ADD PUSH2 0x77E SWAP1 PUSH2 0x4C34 JUMP JUMPDEST PUSH1 0x0 DUP1 SLOAD PUSH2 0xFF00 NOT AND DUP2 SSTORE PUSH1 0x40 MLOAD PUSH32 0xA45F47FDEA8A1EFDD9029A5691C7F759C32B7C698632B563573E155625D16933 SWAP2 SWAP1 LOG1 JUMP JUMPDEST PUSH1 0xC SLOAD PUSH1 0x0 SWAP1 PUSH1 0x2 SUB PUSH2 0xFC3 JUMPI PUSH1 0x40 MLOAD PUSH3 0x461BCD PUSH1 0xE5 SHL DUP2 MSTORE PUSH1 0x4 ADD PUSH2 0x77E SWAP1 PUSH2 0x49E8 JUMP JUMPDEST PUSH1 0x2 PUSH1 0xC SSTORE PUSH1 0xA SLOAD PUSH1 0xFF AND ISZERO PUSH2 0xFEB JUMPI PUSH1 0x40 MLOAD PUSH3 0x461BCD PUSH1 0xE5 SHL DUP2 MSTORE PUSH1 0x4 ADD PUSH2 0x77E SWAP1 PUSH2 0x4832 JUMP JUMPDEST DUP2 PUSH1 0x0 PUSH1 0x1 PUSH1 0x1 PUSH1 0xA0 SHL SUB DUP3 AND PUSH1 0x0 SWAP1 DUP2 MSTORE PUSH1 0x1 PUSH1 0x20 MSTORE PUSH1 0x40 SWAP1 KECCAK256 SLOAD PUSH1 0x1 PUSH1 0xA0 SHL SWAP1 DIV PUSH1 0xFF AND PUSH1 0x4 DUP2 GT ISZERO PUSH2 0x1022 JUMPI PUSH2 0x1022 PUSH2 0x4842 JUMP JUMPDEST SUB PUSH2 0x103F JUMPI PUSH1 0x40 MLOAD PUSH3 0x461BCD PUSH1 0xE5 SHL DUP2 MSTORE PUSH1 0x4 ADD PUSH2 0x77E SWAP1 PUSH2 0x488A JUMP JUMPDEST PUSH1 0x1 PUSH1 0x1 PUSH1 0xA0 SHL SUB DUP1 DUP5 AND PUSH1 0x0 SWAP1 DUP2 MSTORE PUSH1 0x1 PUSH1 0x20 MSTORE PUSH1 0x40 SWAP1 KECCAK256 DUP1 SLOAD CALLER SWAP3 AND DUP3 EQ PUSH2 0x107B JUMPI PUSH1 0x40 MLOAD PUSH3 0x461BCD PUSH1 0xE5 SHL DUP2 MSTORE PUSH1 0x4 ADD PUSH2 0x77E SWAP1 PUSH2 0x4C6D JUMP JUMPDEST PUSH2 0x7080 DUP2 PUSH1 0x8 ADD SLOAD PUSH2 0x108D SWAP2 SWAP1 PUSH2 0x4B42 JUMP JUMPDEST TIMESTAMP LT ISZERO PUSH2 0x10AC JUMPI PUSH1 0x40 MLOAD PUSH3 0x461BCD PUSH1 0xE5 SHL DUP2 MSTORE PUSH1 0x4 ADD PUSH2 0x77E SWAP1 PUSH2 0x4CAD JUMP JUMPDEST PUSH1 0x0 DUP2 PUSH1 0x6 ADD SLOAD GT PUSH2 0x10D0 JUMPI PUSH1 0x40 MLOAD PUSH3 0x461BCD PUSH1 0xE5 SHL DUP2 MSTORE PUSH1 0x4 ADD PUSH2 0x77E SWAP1 PUSH2 0x4CE8 JUMP JUMPDEST PUSH1 0x6 DUP2 ADD DUP1 SLOAD PUSH1 0x0 SWAP1 SWAP2 SSTORE TIMESTAMP PUSH1 0x8 DUP4 ADD SSTORE PUSH2 0x10EB DUP4 DUP3 PUSH2 0x2662 JUMP JUMPDEST PUSH1 0x0 PUSH2 0x10F9 PUSH2 0x7080 TIMESTAMP PUSH2 0x4B42 JUMP JUMPDEST SWAP1 POP DUP4 PUSH1 0x1 PUSH1 0x1 PUSH1 0xA0 SHL SUB AND DUP8 PUSH1 0x1 PUSH1 0x1 PUSH1 0xA0 SHL SUB AND PUSH32 0xF4E9E956BA4B65051E84982C3ADE043C89890CDBC452E9E446AFE09CD4DB40C8 DUP5 DUP5 PUSH1 0x40 MLOAD PUSH2 0xC35 SWAP3 SWAP2 SWAP1 PUSH2 0x48DC JUMP JUMPDEST CALLER PUSH2 0x1001 EQ PUSH2 0x1161 JUMPI PUSH1 0x40 MLOAD PUSH3 0x461BCD PUSH1 0xE5 SHL DUP2 MSTORE PUSH1 0x4 ADD PUSH2 0x77E SWAP1 PUSH2 0x4D3C JUMP JUMPDEST DUP1 PUSH1 0x1 PUSH1 0x1 PUSH1 0xA0 SHL SUB DUP2 AND PUSH2 0x1188 JUMPI PUSH1 0x40 MLOAD PUSH3 0x461BCD PUSH1 0xE5 SHL DUP2 MSTORE PUSH1 0x4 ADD PUSH2 0x77E SWAP1 PUSH2 0x49A6 JUMP JUMPDEST PUSH2 0x1191 DUP3 PUSH2 0xC50 JUMP JUMPDEST ISZERO PUSH2 0x12DF JUMPI PUSH1 0x1 PUSH1 0x1 PUSH1 0xA0 SHL SUB DUP3 AND PUSH1 0x0 SWAP1 DUP2 MSTORE PUSH1 0x1 PUSH1 0x20 MSTORE PUSH1 0x40 SWAP1 KECCAK256 DUP1 SLOAD PUSH1 0xFF PUSH1 0xA0 SHL NOT AND PUSH1 0x1 PUSH1 0xA2 SHL OR DUP2 SSTORE PUSH2 0x11C8 DUP4 PUSH2 0x286E JUMP JUMPDEST PUSH2 0x11D1 DUP4 PUSH2 0x2994 JUMP JUMPDEST DUP1 PUSH1 0x1 ADD SLOAD PUSH1 0x0 SUB PUSH2 0x11E2 JUMPI POP POP POP JUMP JUMPDEST PUSH1 0x1 DUP2 ADD SLOAD PUSH9 0x1B1AE4D6E2EF500000 SWAP1 DUP2 GT ISZERO PUSH2 0x1200 JUMPI POP PUSH1 0x1 DUP2 ADD SLOAD JUMPDEST PUSH1 0x1 DUP3 ADD SLOAD DUP1 PUSH2 0x1218 PUSH8 0xDE0B6B3A7640000 DUP5 PUSH2 0x4A88 JUMP JUMPDEST PUSH2 0x1222 SWAP2 SWAP1 PUSH2 0x4AB5 JUMP JUMPDEST DUP4 PUSH1 0xD ADD PUSH1 0x0 DUP3 DUP3 SLOAD PUSH2 0x1235 SWAP2 SWAP1 PUSH2 0x4B42 JUMP JUMPDEST SWAP3 POP POP DUP2 SWAP1 SSTORE POP DUP2 DUP4 PUSH1 0x1 ADD PUSH1 0x0 DUP3 DUP3 SLOAD PUSH2 0x1250 SWAP2 SWAP1 PUSH2 0x4AC9 JUMP JUMPDEST SWAP3 POP POP DUP2 SWAP1 SSTORE POP DUP2 PUSH1 0x5 PUSH1 0x0 DUP3 DUP3 SLOAD PUSH2 0x1269 SWAP2 SWAP1 PUSH2 0x4AC9 JUMP JUMPDEST SWAP3 POP POP DUP2 SWAP1 SSTORE POP DUP2 DUP4 PUSH1 0x7 ADD PUSH1 0x0 DUP3 DUP3 SLOAD PUSH2 0x1284 SWAP2 SWAP1 PUSH2 0x4B42 JUMP JUMPDEST SWAP1 SWAP2 SSTORE POP PUSH2 0x1294 SWAP1 POP DUP3 DUP7 PUSH2 0x2B2B JUMP JUMPDEST DUP5 PUSH1 0x1 PUSH1 0x1 PUSH1 0xA0 SHL SUB AND PUSH32 0xA13F594C0411BD8FF8BA5C217CB05FE18C41F44E8176479AA2B084F3A74037B7 DUP4 DUP6 PUSH1 0x1 ADD SLOAD PUSH1 0x40 MLOAD PUSH2 0x12D3 SWAP3 SWAP2 SWAP1 PUSH2 0x48DC JUMP JUMPDEST PUSH1 0x40 MLOAD DUP1 SWAP2 SUB SWAP1 LOG2 POP POP POP JUMPDEST POP POP JUMP JUMPDEST PUSH1 0x1 PUSH1 0x1 PUSH1 0xA0 SHL SUB DUP1 DUP4 AND PUSH1 0x0 SWAP1 DUP2 MSTORE PUSH1 0x2 PUSH1 0x20 SWAP1 DUP2 MSTORE PUSH1 0x40 DUP1 DUP4 KECCAK256 SWAP4 DUP6 AND DUP4 MSTORE SWAP3 DUP2 MSTORE DUP3 DUP3 KECCAK256 PUSH1 0x1 SWAP1 SWAP2 MSTORE SWAP2 DUP2 KECCAK256 DUP3 SLOAD SWAP2 SWAP3 SWAP2 DUP4 SUB PUSH2 0x1329 JUMPI POP PUSH1 0x4 ADD SLOAD SWAP1 POP PUSH2 0x1379 JUMP JUMPDEST PUSH1 0x0 DUP3 PUSH1 0x3 ADD SLOAD PUSH8 0xDE0B6B3A7640000 DUP4 PUSH1 0xC ADD SLOAD DUP6 PUSH1 0x0 ADD SLOAD PUSH2 0x134D SWAP2 SWAP1 PUSH2 0x4A88 JUMP JUMPDEST PUSH2 0x1357 SWAP2 SWAP1 PUSH2 0x4AB5 JUMP JUMPDEST PUSH2 0x1361 SWAP2 SWAP1 PUSH2 0x4AC9 JUMP JUMPDEST SWAP1 POP DUP1 DUP4 PUSH1 0x4 ADD SLOAD PUSH2 0x1373 SWAP2 SWAP1 PUSH2 0x4B42 JUMP JUMPDEST SWAP4 POP POP POP POP JUMPDEST SWAP3 SWAP2 POP POP JUMP JUMPDEST PUSH1 0x0 SLOAD PUSH3 0x10000 SWAP1 DIV PUSH1 0x1 PUSH1 0x1 PUSH1 0xA0 SHL SUB AND CALLER EQ PUSH2 0x13AF JUMPI PUSH1 0x40 MLOAD PUSH3 0x461BCD PUSH1 0xE5 SHL DUP2 MSTORE PUSH1 0x4 ADD PUSH2 0x77E SWAP1 PUSH2 0x4C05 JUMP JUMPDEST PUSH1 0x0 SLOAD PUSH2 0x100 SWAP1 DIV PUSH1 0xFF AND ISZERO PUSH2 0x13D7 JUMPI PUSH1 0x40 MLOAD PUSH3 0x461BCD PUSH1 0xE5 SHL DUP2 MSTORE PUSH1 0x4 ADD PUSH2 0x77E SWAP1 PUSH2 0x4D6F JUMP JUMPDEST PUSH1 0x0 DUP1 SLOAD PUSH2 0xFF00 NOT AND PUSH2 0x100 OR DUP2 SSTORE PUSH1 0x40 MLOAD PUSH32 0x9E87FAC88FF661F02D44F95383C817FECE4BCE600A3DAB7A54406878B965E752 SWAP2 SWAP1 LOG1 JUMP JUMPDEST PUSH1 0x1 PUSH1 0x1 PUSH1 0xA0 SHL SUB DUP2 DUP2 AND PUSH1 0x0 SWAP1 DUP2 MSTORE PUSH1 0x1 PUSH1 0x20 SWAP1 DUP2 MSTORE PUSH1 0x40 DUP1 DUP4 KECCAK256 DUP2 MLOAD PUSH2 0x1A0 DUP2 ADD SWAP1 SWAP3 MSTORE DUP1 SLOAD SWAP5 DUP6 AND DUP3 MSTORE SWAP3 SWAP4 PUSH1 0x60 SWAP4 DUP6 SWAP4 DUP5 SWAP4 DUP5 SWAP4 DUP5 SWAP4 DUP5 SWAP4 SWAP1 SWAP2 SWAP1 DUP4 ADD SWAP1 PUSH1 0x1 PUSH1 0xA0 SHL SWAP1 DIV PUSH1 0xFF AND PUSH1 0x4 DUP2 GT ISZERO PUSH2 0x146C JUMPI PUSH2 0x146C PUSH2 0x4842 JUMP JUMPDEST PUSH1 0x4 DUP2 GT ISZERO PUSH2 0x147D JUMPI PUSH2 0x147D PUSH2 0x4842 JUMP JUMPDEST DUP2 MSTORE PUSH1 0x20 ADD PUSH1 0x1 DUP3 ADD SLOAD DUP2 MSTORE PUSH1 0x20 ADD PUSH1 0x2 DUP3 ADD PUSH1 0x40 MLOAD DUP1 PUSH1 0x80 ADD PUSH1 0x40 MSTORE SWAP1 DUP2 PUSH1 0x0 DUP3 ADD DUP1 SLOAD PUSH2 0x14AB SWAP1 PUSH2 0x4D95 JUMP JUMPDEST DUP1 PUSH1 0x1F ADD PUSH1 0x20 DUP1 SWAP2 DIV MUL PUSH1 0x20 ADD PUSH1 0x40 MLOAD SWAP1 DUP2 ADD PUSH1 0x40 MSTORE DUP1 SWAP3 SWAP2 SWAP1 DUP2 DUP2 MSTORE PUSH1 0x20 ADD DUP3 DUP1 SLOAD PUSH2 0x14D7 SWAP1 PUSH2 0x4D95 JUMP JUMPDEST DUP1 ISZERO PUSH2 0x1524 JUMPI DUP1 PUSH1 0x1F LT PUSH2 0x14F9 JUMPI PUSH2 0x100 DUP1 DUP4 SLOAD DIV MUL DUP4 MSTORE SWAP2 PUSH1 0x20 ADD SWAP2 PUSH2 0x1524 JUMP JUMPDEST DUP3 ADD SWAP2 SWAP1 PUSH1 0x0 MSTORE PUSH1 0x20 PUSH1 0x0 KECCAK256 SWAP1 JUMPDEST DUP2 SLOAD DUP2 MSTORE SWAP1 PUSH1 0x1 ADD SWAP1 PUSH1 0x20 ADD DUP1 DUP4 GT PUSH2 0x1507 JUMPI DUP3 SWAP1 SUB PUSH1 0x1F AND DUP3 ADD SWAP2 JUMPDEST POP POP POP POP POP DUP2 MSTORE PUSH1 0x20 ADD PUSH1 0x1 DUP3 ADD DUP1 SLOAD PUSH2 0x153D SWAP1 PUSH2 0x4D95 JUMP JUMPDEST DUP1 PUSH1 0x1F ADD PUSH1 0x20 DUP1 SWAP2 DIV MUL PUSH1 0x20 ADD PUSH1 0x40 MLOAD SWAP1 DUP2 ADD PUSH1 0x40 MSTORE DUP1 SWAP3 SWAP2 SWAP1 DUP2 DUP2 MSTORE PUSH1 0x20 ADD DUP3 DUP1 SLOAD PUSH2 0x1569 SWAP1 PUSH2 0x4D95 JUMP JUMPDEST DUP1 ISZERO PUSH2 0x15B6 JUMPI DUP1 PUSH1 0x1F LT PUSH2 0x158B JUMPI PUSH2 0x100 DUP1 DUP4 SLOAD DIV MUL DUP4 MSTORE SWAP2 PUSH1 0x20 ADD SWAP2 PUSH2 0x15B6 JUMP JUMPDEST DUP3 ADD SWAP2 SWAP1 PUSH1 0x0 MSTORE PUSH1 0x20 PUSH1 0x0 KECCAK256 SWAP1 JUMPDEST DUP2 SLOAD DUP2 MSTORE SWAP1 PUSH1 0x1 ADD SWAP1 PUSH1 0x20 ADD DUP1 DUP4 GT PUSH2 0x1599 JUMPI DUP3 SWAP1 SUB PUSH1 0x1F AND DUP3 ADD SWAP2 JUMPDEST POP POP POP POP POP DUP2 MSTORE PUSH1 0x20 ADD PUSH1 0x2 DUP3 ADD DUP1 SLOAD PUSH2 0x15CF SWAP1 PUSH2 0x4D95 JUMP JUMPDEST DUP1 PUSH1 0x1F ADD PUSH1 0x20 DUP1 SWAP2 DIV MUL PUSH1 0x20 ADD PUSH1 0x40 MLOAD SWAP1 DUP2 ADD PUSH1 0x40 MSTORE DUP1 SWAP3 SWAP2 SWAP1 DUP2 DUP2 MSTORE PUSH1 0x20 ADD DUP3 DUP1 SLOAD PUSH2 0x15FB SWAP1 PUSH2 0x4D95 JUMP JUMPDEST DUP1 ISZERO PUSH2 0x1648 JUMPI DUP1 PUSH1 0x1F LT PUSH2 0x161D JUMPI PUSH2 0x100 DUP1 DUP4 SLOAD DIV MUL DUP4 MSTORE SWAP2 PUSH1 0x20 ADD SWAP2 PUSH2 0x1648 JUMP JUMPDEST DUP3 ADD SWAP2 SWAP1 PUSH1 0x0 MSTORE PUSH1 0x20 PUSH1 0x0 KECCAK256 SWAP1 JUMPDEST DUP2 SLOAD DUP2 MSTORE SWAP1 PUSH1 0x1 ADD SWAP1 PUSH1 0x20 ADD DUP1 DUP4 GT PUSH2 0x162B JUMPI DUP3 SWAP1 SUB PUSH1 0x1F AND DUP3 ADD SWAP2 JUMPDEST POP POP POP POP POP DUP2 MSTORE PUSH1 0x20 ADD PUSH1 0x3 DUP3 ADD DUP1 SLOAD PUSH2 0x1661 SWAP1 PUSH2 0x4D95 JUMP JUMPDEST DUP1 PUSH1 0x1F ADD PUSH1 0x20 DUP1 SWAP2 DIV MUL PUSH1 0x20 ADD PUSH1 0x40 MLOAD SWAP1 DUP2 ADD PUSH1 0x40 MSTORE DUP1 SWAP3 SWAP2 SWAP1 DUP2 DUP2 MSTORE PUSH1 0x20 ADD DUP3 DUP1 SLOAD PUSH2 0x168D SWAP1 PUSH2 0x4D95 JUMP JUMPDEST DUP1 ISZERO PUSH2 0x16DA JUMPI DUP1 PUSH1 0x1F LT PUSH2 0x16AF JUMPI PUSH2 0x100 DUP1 DUP4 SLOAD DIV MUL DUP4 MSTORE SWAP2 PUSH1 0x20 ADD SWAP2 PUSH2 0x16DA JUMP JUMPDEST DUP3 ADD SWAP2 SWAP1 PUSH1 0x0 MSTORE PUSH1 0x20 PUSH1 0x0 KECCAK256 SWAP1 JUMPDEST DUP2 SLOAD DUP2 MSTORE SWAP1 PUSH1 0x1 ADD SWAP1 PUSH1 0x20 ADD DUP1 DUP4 GT PUSH2 0x16BD JUMPI DUP3 SWAP1 SUB PUSH1 0x1F AND DUP3 ADD SWAP2 JUMPDEST POP POP POP POP POP DUP2 MSTORE POP POP DUP2 MSTORE PUSH1 0x20 ADD PUSH1 0x6 DUP3 ADD SLOAD DUP2 MSTORE PUSH1 0x20 ADD PUSH1 0x7 DUP3 ADD SLOAD DUP2 MSTORE PUSH1 0x20 ADD PUSH1 0x8 DUP3 ADD SLOAD DUP2 MSTORE PUSH1 0x20 ADD PUSH1 0x9 DUP3 ADD DUP1 SLOAD DUP1 PUSH1 0x20 MUL PUSH1 0x20 ADD PUSH1 0x40 MLOAD SWAP1 DUP2 ADD PUSH1 0x40 MSTORE DUP1 SWAP3 SWAP2 SWAP1 DUP2 DUP2 MSTORE PUSH1 0x20 ADD DUP3 DUP1 SLOAD DUP1 ISZERO PUSH2 0x175E JUMPI PUSH1 0x20 MUL DUP3 ADD SWAP2 SWAP1 PUSH1 0x0 MSTORE PUSH1 0x20 PUSH1 0x0 KECCAK256 SWAP1 JUMPDEST DUP2 SLOAD PUSH1 0x1 PUSH1 0x1 PUSH1 0xA0 SHL SUB AND DUP2 MSTORE PUSH1 0x1 SWAP1 SWAP2 ADD SWAP1 PUSH1 0x20 ADD DUP1 DUP4 GT PUSH2 0x1740 JUMPI JUMPDEST POP POP POP POP POP DUP2 MSTORE PUSH1 0x20 ADD PUSH1 0xA DUP3 ADD SLOAD DUP2 MSTORE PUSH1 0x20 ADD PUSH1 0xB DUP3 ADD SLOAD DUP2 MSTORE PUSH1 0x20 ADD PUSH1 0xC DUP3 ADD SLOAD DUP2 MSTORE PUSH1 0x20 ADD PUSH1 0xD DUP3 ADD SLOAD DUP2 MSTORE PUSH1 0x20 ADD PUSH1 0xE DUP3 ADD SLOAD DUP2 MSTORE POP POP SWAP1 POP PUSH1 0x60 PUSH1 0x0 PUSH1 0x4 DUP2 GT ISZERO PUSH2 0x17B0 JUMPI PUSH2 0x17B0 PUSH2 0x4842 JUMP JUMPDEST DUP3 PUSH1 0x20 ADD MLOAD PUSH1 0x4 DUP2 GT ISZERO PUSH2 0x17C6 JUMPI PUSH2 0x17C6 PUSH2 0x4842 JUMP JUMPDEST SUB PUSH2 0x17F0 JUMPI POP PUSH1 0x40 DUP1 MLOAD DUP1 DUP3 ADD SWAP1 SWAP2 MSTORE PUSH1 0x8 DUP2 MSTORE PUSH8 0x139BDD115E1A5CDD PUSH1 0xC2 SHL PUSH1 0x20 DUP3 ADD MSTORE PUSH2 0x18EE JUMP JUMPDEST PUSH1 0x1 DUP3 PUSH1 0x20 ADD MLOAD PUSH1 0x4 DUP2 GT ISZERO PUSH2 0x1808 JUMPI PUSH2 0x1808 PUSH2 0x4842 JUMP JUMPDEST SUB PUSH2 0x1831 JUMPI POP PUSH1 0x40 DUP1 MLOAD DUP1 DUP3 ADD SWAP1 SWAP2 MSTORE PUSH1 0x7 DUP2 MSTORE PUSH7 0x10DC99585D1959 PUSH1 0xCA SHL PUSH1 0x20 DUP3 ADD MSTORE PUSH2 0x18EE JUMP JUMPDEST PUSH1 0x2 DUP3 PUSH1 0x20 ADD MLOAD PUSH1 0x4 DUP2 GT ISZERO PUSH2 0x1849 JUMPI PUSH2 0x1849 PUSH2 0x4842 JUMP JUMPDEST SUB PUSH2 0x1871 JUMPI POP PUSH1 0x40 DUP1 MLOAD DUP1 DUP3 ADD SWAP1 SWAP2 MSTORE PUSH1 0x6 DUP2 MSTORE PUSH6 0x14DD185AD959 PUSH1 0xD2 SHL PUSH1 0x20 DUP3 ADD MSTORE PUSH2 0x18EE JUMP JUMPDEST PUSH1 0x3 DUP3 PUSH1 0x20 ADD MLOAD PUSH1 0x4 DUP2 GT ISZERO PUSH2 0x1889 JUMPI PUSH2 0x1889 PUSH2 0x4842 JUMP JUMPDEST SUB PUSH2 0x18B2 JUMPI POP PUSH1 0x40 DUP1 MLOAD DUP1 DUP3 ADD SWAP1 SWAP2 MSTORE PUSH1 0x7 DUP2 MSTORE PUSH7 0x556E7374616B65 PUSH1 0xC8 SHL PUSH1 0x20 DUP3 ADD MSTORE PUSH2 0x18EE JUMP JUMPDEST PUSH1 0x4 DUP3 PUSH1 0x20 ADD MLOAD PUSH1 0x4 DUP2 GT ISZERO PUSH2 0x18CA JUMPI PUSH2 0x18CA PUSH2 0x4842 JUMP JUMPDEST SUB PUSH2 0x18EE JUMPI POP PUSH1 0x40 DUP1 MLOAD DUP1 DUP3 ADD SWAP1 SWAP2 MSTORE PUSH1 0x6 DUP2 MSTORE PUSH6 0x12985A5B1959 PUSH1 0xD2 SHL PUSH1 0x20 DUP3 ADD MSTORE JUMPDEST DUP2 MLOAD PUSH1 0x40 DUP4 ADD MLOAD PUSH1 0x80 DUP5 ADD MLOAD PUSH1 0xA0 DUP6 ADD MLOAD PUSH2 0x100 SWAP1 SWAP6 ADD MLOAD SWAP3 SWAP13 SWAP4 SWAP12 POP SWAP1 SWAP10 POP SWAP8 POP SWAP2 SWAP6 POP SWAP1 SWAP4 POP SWAP2 POP POP JUMP JUMPDEST PUSH1 0x60 CALLER COINBASE EQ PUSH2 0x193C JUMPI PUSH1 0x40 MLOAD PUSH3 0x461BCD PUSH1 0xE5 SHL DUP2 MSTORE PUSH1 0x4 ADD PUSH2 0x77E SWAP1 PUSH2 0x4E03 JUMP JUMPDEST PUSH1 0x8 SLOAD NUMBER GT PUSH2 0x195D JUMPI PUSH1 0x40 MLOAD PUSH3 0x461BCD PUSH1 0xE5 SHL DUP2 MSTORE PUSH1 0x4 ADD PUSH2 0x77E SWAP1 PUSH2 0x4E45 JUMP JUMPDEST PUSH1 0x0 SLOAD PUSH1 0xFF AND PUSH2 0x197F JUMPI PUSH1 0x40 MLOAD PUSH3 0x461BCD PUSH1 0xE5 SHL DUP2 MSTORE PUSH1 0x4 ADD PUSH2 0x77E SWAP1 PUSH2 0x47F0 JUMP JUMPDEST PUSH2 0x198A PUSH1 0xC8 NUMBER PUSH2 0x4E55 JUMP JUMPDEST ISZERO PUSH2 0x19A7 JUMPI PUSH1 0x40 MLOAD PUSH3 0x461BCD PUSH1 0xE5 SHL DUP2 MSTORE PUSH1 0x4 ADD PUSH2 0x77E SWAP1 PUSH2 0x4E8E JUMP JUMPDEST PUSH1 0x3 SLOAD PUSH2 0x19C6 JUMPI PUSH1 0x40 MLOAD PUSH3 0x461BCD PUSH1 0xE5 SHL DUP2 MSTORE PUSH1 0x4 ADD PUSH2 0x77E SWAP1 PUSH2 0x4EC6 JUMP JUMPDEST PUSH1 0x3 SLOAD PUSH1 0x65 LT ISZERO PUSH2 0x19E9 JUMPI PUSH1 0x40 MLOAD PUSH3 0x461BCD PUSH1 0xE5 SHL DUP2 MSTORE PUSH1 0x4 ADD PUSH2 0x77E SWAP1 PUSH2 0x4EFE JUMP JUMPDEST PUSH1 0x3 DUP1 SLOAD PUSH2 0x19F9 SWAP2 PUSH1 0x4 SWAP2 PUSH2 0x407A JUMP JUMPDEST POP PUSH32 0x1EB323543B198BA3BFD5228D5A306101A17CD1B64DB20C53D442AA8C11C8B4A3 PUSH1 0x4 NUMBER PUSH1 0x40 MLOAD PUSH2 0x1A2C SWAP3 SWAP2 SWAP1 PUSH2 0x4F60 JUMP JUMPDEST PUSH1 0x40 MLOAD DUP1 SWAP2 SUB SWAP1 LOG1 PUSH1 0x4 DUP1 SLOAD DUP1 PUSH1 0x20 MUL PUSH1 0x20 ADD PUSH1 0x40 MLOAD SWAP1 DUP2 ADD PUSH1 0x40 MSTORE DUP1 SWAP3 SWAP2 SWAP1 DUP2 DUP2 MSTORE PUSH1 0x20 ADD DUP3 DUP1 SLOAD DUP1 ISZERO PUSH2 0x1A8A JUMPI PUSH1 0x20 MUL DUP3 ADD SWAP2 SWAP1 PUSH1 0x0 MSTORE PUSH1 0x20 PUSH1 0x0 KECCAK256 SWAP1 JUMPDEST DUP2 SLOAD PUSH1 0x1 PUSH1 0x1 PUSH1 0xA0 SHL SUB AND DUP2 MSTORE PUSH1 0x1 SWAP1 SWAP2 ADD SWAP1 PUSH1 0x20 ADD DUP1 DUP4 GT PUSH2 0x1A6C JUMPI JUMPDEST POP POP POP POP POP SWAP1 POP NUMBER PUSH1 0x8 SSTORE SWAP1 JUMP JUMPDEST PUSH1 0x0 DUP1 SLOAD PUSH1 0xFF AND PUSH2 0x1ABB JUMPI PUSH1 0x40 MLOAD PUSH3 0x461BCD PUSH1 0xE5 SHL DUP2 MSTORE PUSH1 0x4 ADD PUSH2 0x77E SWAP1 PUSH2 0x47F0 JUMP JUMPDEST PUSH1 0x0 SLOAD PUSH2 0x100 SWAP1 DIV PUSH1 0xFF AND ISZERO PUSH2 0x1AE3 JUMPI PUSH1 0x40 MLOAD PUSH3 0x461BCD PUSH1 0xE5 SHL DUP2 MSTORE PUSH1 0x4 ADD PUSH2 0x77E SWAP1 PUSH2 0x491E JUMP JUMPDEST PUSH1 0xA SLOAD PUSH1 0xFF AND ISZERO PUSH2 0x1B06 JUMPI PUSH1 0x40 MLOAD PUSH3 0x461BCD PUSH1 0xE5 SHL DUP2 MSTORE PUSH1 0x4 ADD PUSH2 0x77E SWAP1 PUSH2 0x4832 JUMP JUMPDEST PUSH2 0x1B1A DUP11 DUP11 DUP11 DUP11 DUP11 DUP11 DUP11 DUP11 DUP11 PUSH2 0x1F4 PUSH2 0x24EC JUMP JUMPDEST SWAP11 SWAP10 POP POP POP POP POP POP POP POP POP POP JUMP JUMPDEST PUSH1 0x0 SLOAD PUSH3 0x10000 SWAP1 DIV PUSH1 0x1 PUSH1 0x1 PUSH1 0xA0 SHL SUB AND CALLER EQ PUSH2 0x1B58 JUMPI PUSH1 0x40 MLOAD PUSH3 0x461BCD PUSH1 0xE5 SHL DUP2 MSTORE PUSH1 0x4 ADD PUSH2 0x77E SWAP1 PUSH2 0x4C05 JUMP JUMPDEST PUSH1 0x1 PUSH1 0x1 PUSH1 0xA0 SHL SUB DUP2 AND PUSH2 0x1B7E JUMPI PUSH1 0x40 MLOAD PUSH3 0x461BCD PUSH1 0xE5 SHL DUP2 MSTORE PUSH1 0x4 ADD PUSH2 0x77E SWAP1 PUSH2 0x4FAA JUMP JUMPDEST PUSH1 0x0 DUP1 SLOAD PUSH1 0x40 MLOAD PUSH1 0x1 PUSH1 0x1 PUSH1 0xA0 SHL SUB DUP1 DUP6 AND SWAP4 PUSH3 0x10000 SWAP1 SWAP4 DIV AND SWAP2 PUSH32 0x7E644D79422F17C01E4894B5F4F588D331EBFA28653D42AE832DC59E38C9798F SWAP2 LOG3 PUSH1 0x0 DUP1 SLOAD PUSH1 0x1 PUSH1 0x1 PUSH1 0xA0 SHL SUB SWAP1 SWAP3 AND PUSH3 0x10000 MUL PUSH3 0x10000 PUSH1 0x1 PUSH1 0xB0 SHL SUB NOT SWAP1 SWAP3 AND SWAP2 SWAP1 SWAP2 OR SWAP1 SSTORE JUMP JUMPDEST PUSH1 0x0 DUP1 SLOAD PUSH1 0xFF AND PUSH2 0x1C0A JUMPI PUSH1 0x40 MLOAD PUSH3 0x461BCD PUSH1 0xE5 SHL DUP2 MSTORE PUSH1 0x4 ADD PUSH2 0x77E SWAP1 PUSH2 0x47F0 JUMP JUMPDEST PUSH1 0xA SLOAD PUSH1 0xFF AND ISZERO PUSH2 0x1C2D JUMPI PUSH1 0x40 MLOAD PUSH3 0x461BCD PUSH1 0xE5 SHL DUP2 MSTORE PUSH1 0x4 ADD PUSH2 0x77E SWAP1 PUSH2 0x4832 JUMP JUMPDEST CALLER PUSH1 0x0 DUP2 DUP2 MSTORE PUSH1 0x1 PUSH1 0x20 MSTORE PUSH1 0x40 DUP2 KECCAK256 SLOAD PUSH1 0x1 PUSH1 0xA0 SHL SWAP1 DIV PUSH1 0xFF AND PUSH1 0x4 DUP2 GT ISZERO PUSH2 0x1C58 JUMPI PUSH2 0x1C58 PUSH2 0x4842 JUMP JUMPDEST SUB PUSH2 0x1C75 JUMPI PUSH1 0x40 MLOAD PUSH3 0x461BCD PUSH1 0xE5 SHL DUP2 MSTORE PUSH1 0x4 ADD PUSH2 0x77E SWAP1 PUSH2 0x488A JUMP JUMPDEST PUSH1 0x0 CALLER SWAP1 POP PUSH2 0x1D55 DUP12 DUP12 DUP1 DUP1 PUSH1 0x1F ADD PUSH1 0x20 DUP1 SWAP2 DIV MUL PUSH1 0x20 ADD PUSH1 0x40 MLOAD SWAP1 DUP2 ADD PUSH1 0x40 MSTORE DUP1 SWAP4 SWAP3 SWAP2 SWAP1 DUP2 DUP2 MSTORE PUSH1 0x20 ADD DUP4 DUP4 DUP1 DUP3 DUP5 CALLDATACOPY PUSH1 0x0 SWAP3 ADD SWAP2 SWAP1 SWAP2 MSTORE POP POP PUSH1 0x40 DUP1 MLOAD PUSH1 0x20 PUSH1 0x1F DUP16 ADD DUP2 SWAP1 DIV DUP2 MUL DUP3 ADD DUP2 ADD SWAP1 SWAP3 MSTORE DUP14 DUP2 MSTORE SWAP3 POP DUP14 SWAP2 POP DUP13 SWAP1 DUP2 SWAP1 DUP5 ADD DUP4 DUP3 DUP1 DUP3 DUP5 CALLDATACOPY PUSH1 0x0 SWAP3 ADD SWAP2 SWAP1 SWAP2 MSTORE POP POP PUSH1 0x40 DUP1 MLOAD PUSH1 0x20 PUSH1 0x1F DUP15 ADD DUP2 SWAP1 DIV DUP2 MUL DUP3 ADD DUP2 ADD SWAP1 SWAP3 MSTORE DUP13 DUP2 MSTORE SWAP3 POP DUP13 SWAP2 POP DUP12 SWAP1 DUP2 SWAP1 DUP5 ADD DUP4 DUP3 DUP1 DUP3 DUP5 CALLDATACOPY PUSH1 0x0 SWAP3 ADD SWAP2 SWAP1 SWAP2 MSTORE POP POP PUSH1 0x40 DUP1 MLOAD PUSH1 0x20 PUSH1 0x1F DUP14 ADD DUP2 SWAP1 DIV DUP2 MUL DUP3 ADD DUP2 ADD SWAP1 SWAP3 MSTORE DUP12 DUP2 MSTORE SWAP3 POP DUP12 SWAP2 POP DUP11 SWAP1 DUP2 SWAP1 DUP5 ADD DUP4 DUP3 DUP1 DUP3 DUP5 CALLDATACOPY PUSH1 0x0 SWAP3 ADD SWAP2 SWAP1 SWAP2 MSTORE POP PUSH2 0x205E SWAP3 POP POP POP JUMP JUMPDEST PUSH2 0x1D71 JUMPI PUSH1 0x40 MLOAD PUSH3 0x461BCD PUSH1 0xE5 SHL DUP2 MSTORE PUSH1 0x4 ADD PUSH2 0x77E SWAP1 PUSH2 0x4FE2 JUMP JUMPDEST PUSH1 0x0 PUSH1 0x1 PUSH1 0x0 DUP4 PUSH1 0x1 PUSH1 0x1 PUSH1 0xA0 SHL SUB AND PUSH1 0x1 PUSH1 0x1 PUSH1 0xA0 SHL SUB AND DUP2 MSTORE PUSH1 0x20 ADD SWAP1 DUP2 MSTORE PUSH1 0x20 ADD PUSH1 0x0 KECCAK256 SWAP1 POP DUP13 DUP2 PUSH1 0x0 ADD PUSH1 0x0 PUSH2 0x100 EXP DUP2 SLOAD DUP2 PUSH1 0x1 PUSH1 0x1 PUSH1 0xA0 SHL SUB MUL NOT AND SWAP1 DUP4 PUSH1 0x1 PUSH1 0x1 PUSH1 0xA0 SHL SUB AND MUL OR SWAP1 SSTORE POP PUSH1 0x40 MLOAD DUP1 PUSH1 0x80 ADD PUSH1 0x40 MSTORE DUP1 DUP14 DUP14 DUP1 DUP1 PUSH1 0x1F ADD PUSH1 0x20 DUP1 SWAP2 DIV MUL PUSH1 0x20 ADD PUSH1 0x40 MLOAD SWAP1 DUP2 ADD PUSH1 0x40 MSTORE DUP1 SWAP4 SWAP3 SWAP2 SWAP1 DUP2 DUP2 MSTORE PUSH1 0x20 ADD DUP4 DUP4 DUP1 DUP3 DUP5 CALLDATACOPY PUSH1 0x0 SWAP3 ADD SWAP2 SWAP1 SWAP2 MSTORE POP POP POP SWAP1 DUP3 MSTORE POP PUSH1 0x40 DUP1 MLOAD PUSH1 0x20 PUSH1 0x1F DUP15 ADD DUP2 SWAP1 DIV DUP2 MUL DUP3 ADD DUP2 ADD SWAP1 SWAP3 MSTORE DUP13 DUP2 MSTORE SWAP2 DUP2 ADD SWAP2 SWAP1 DUP14 SWAP1 DUP14 SWAP1 DUP2 SWAP1 DUP5 ADD DUP4 DUP3 DUP1 DUP3 DUP5 CALLDATACOPY PUSH1 0x0 SWAP3 ADD SWAP2 SWAP1 SWAP2 MSTORE POP POP POP SWAP1 DUP3 MSTORE POP PUSH1 0x40 DUP1 MLOAD PUSH1 0x20 PUSH1 0x1F DUP13 ADD DUP2 SWAP1 DIV DUP2 MUL DUP3 ADD DUP2 ADD SWAP1 SWAP3 MSTORE DUP11 DUP2 MSTORE SWAP2 DUP2 ADD SWAP2 SWAP1 DUP12 SWAP1 DUP12 SWAP1 DUP2 SWAP1 DUP5 ADD DUP4 DUP3 DUP1 DUP3 DUP5 CALLDATACOPY PUSH1 0x0 SWAP3 ADD SWAP2 SWAP1 SWAP2 MSTORE POP POP POP SWAP1 DUP3 MSTORE POP PUSH1 0x40 DUP1 MLOAD PUSH1 0x20 PUSH1 0x1F DUP11 ADD DUP2 SWAP1 DIV DUP2 MUL DUP3 ADD DUP2 ADD SWAP1 SWAP3 MSTORE DUP9 DUP2 MSTORE SWAP2 DUP2 ADD SWAP2 SWAP1 DUP10 SWAP1 DUP10 SWAP1 DUP2 SWAP1 DUP5 ADD DUP4 DUP3 DUP1 DUP3 DUP5 CALLDATACOPY PUSH1 0x0 SWAP3 ADD SWAP2 SWAP1 SWAP2 MSTORE POP POP POP SWAP2 MSTORE POP DUP1 MLOAD PUSH1 0x2 DUP4 ADD SWAP1 DUP2 SWAP1 PUSH2 0x1ECA SWAP1 DUP3 PUSH2 0x5086 JUMP JUMPDEST POP PUSH1 0x20 DUP3 ADD MLOAD PUSH1 0x1 DUP3 ADD SWAP1 PUSH2 0x1EDF SWAP1 DUP3 PUSH2 0x5086 JUMP JUMPDEST POP PUSH1 0x40 DUP3 ADD MLOAD PUSH1 0x2 DUP3 ADD SWAP1 PUSH2 0x1EF4 SWAP1 DUP3 PUSH2 0x5086 JUMP JUMPDEST POP PUSH1 0x60 DUP3 ADD MLOAD PUSH1 0x3 DUP3 ADD SWAP1 PUSH2 0x1F09 SWAP1 DUP3 PUSH2 0x5086 JUMP JUMPDEST POP SWAP1 POP POP DUP13 PUSH1 0x1 PUSH1 0x1 PUSH1 0xA0 SHL SUB AND DUP3 PUSH1 0x1 PUSH1 0x1 PUSH1 0xA0 SHL SUB AND PUSH32 0xCFAC5DC75B8D9A7E074162F59D9ADCD33DA59F0FE8DFB21580DB298FC0FDAD0D PUSH1 0x40 MLOAD PUSH1 0x40 MLOAD DUP1 SWAP2 SUB SWAP1 LOG3 POP PUSH1 0x1 SWAP13 SWAP12 POP POP POP POP POP POP POP POP POP POP POP POP JUMP JUMPDEST PUSH1 0x0 SLOAD PUSH1 0xFF AND ISZERO PUSH2 0x1F83 JUMPI PUSH1 0x40 MLOAD PUSH3 0x461BCD PUSH1 0xE5 SHL DUP2 MSTORE PUSH1 0x4 ADD PUSH2 0x77E SWAP1 PUSH2 0x5175 JUMP JUMPDEST DUP1 ISZERO DUP1 ISZERO SWAP1 PUSH2 0x1F93 JUMPI POP PUSH1 0x65 DUP2 GT ISZERO JUMPDEST PUSH2 0x1FAF JUMPI PUSH1 0x40 MLOAD PUSH3 0x461BCD PUSH1 0xE5 SHL DUP2 MSTORE PUSH1 0x4 ADD PUSH2 0x77E SWAP1 PUSH2 0x51B7 JUMP JUMPDEST PUSH1 0x6 DUP1 SLOAD PUSH2 0x1001 PUSH1 0x1 PUSH1 0x1 PUSH1 0xA0 SHL SUB NOT SWAP1 SWAP2 AND OR SWAP1 SSTORE PUSH1 0x0 DUP1 SLOAD PUSH3 0x10000 PUSH1 0x1 PUSH1 0xB0 SHL SUB NOT AND CALLER PUSH3 0x10000 DUP2 MUL SWAP2 SWAP1 SWAP2 OR DUP3 SSTORE PUSH1 0xA DUP1 SLOAD PUSH2 0x100 PUSH1 0x1 PUSH1 0xA8 SHL SUB NOT AND PUSH2 0x100 SWAP1 SWAP3 MUL SWAP2 SWAP1 SWAP2 OR SWAP1 SSTORE PUSH1 0x1 PUSH1 0xC SSTORE JUMPDEST DUP2 DUP2 LT ISZERO PUSH2 0x204C JUMPI PUSH2 0x203A DUP4 DUP4 DUP4 DUP2 DUP2 LT PUSH2 0x2020 JUMPI PUSH2 0x2020 PUSH2 0x4ADC JUMP JUMPDEST SWAP1 POP PUSH1 0x20 MUL ADD PUSH1 0x20 DUP2 ADD SWAP1 PUSH2 0x2035 SWAP2 SWAP1 PUSH2 0x42E2 JUMP JUMPDEST PUSH2 0x2C1B JUMP JUMPDEST DUP1 PUSH2 0x2044 DUP2 PUSH2 0x4AF2 JUMP JUMPDEST SWAP2 POP POP PUSH2 0x2003 JUMP JUMPDEST POP POP PUSH1 0x0 DUP1 SLOAD PUSH1 0xFF NOT AND PUSH1 0x1 OR SWAP1 SSTORE POP JUMP JUMPDEST PUSH1 0x0 PUSH1 0x80 DUP6 MLOAD GT ISZERO PUSH2 0x2082 JUMPI PUSH1 0x40 MLOAD PUSH3 0x461BCD PUSH1 0xE5 SHL DUP2 MSTORE PUSH1 0x4 ADD PUSH2 0x77E SWAP1 PUSH2 0x51EC JUMP JUMPDEST PUSH2 0x100 DUP5 MLOAD GT ISZERO PUSH2 0x20A5 JUMPI PUSH1 0x40 MLOAD PUSH3 0x461BCD PUSH1 0xE5 SHL DUP2 MSTORE PUSH1 0x4 ADD PUSH2 0x77E SWAP1 PUSH2 0x5221 JUMP JUMPDEST PUSH2 0x100 DUP4 MLOAD GT ISZERO PUSH2 0x20C8 JUMPI PUSH1 0x40 MLOAD PUSH3 0x461BCD PUSH1 0xE5 SHL DUP2 MSTORE PUSH1 0x4 ADD PUSH2 0x77E SWAP1 PUSH2 0x5254 JUMP JUMPDEST PUSH2 0x400 DUP3 MLOAD GT ISZERO PUSH2 0x20EB JUMPI PUSH1 0x40 MLOAD PUSH3 0x461BCD PUSH1 0xE5 SHL DUP2 MSTORE PUSH1 0x4 ADD PUSH2 0x77E SWAP1 PUSH2 0x5289 JUMP JUMPDEST POP PUSH1 0x1 SWAP5 SWAP4 POP POP POP POP JUMP JUMPDEST PUSH1 0x60 PUSH1 0x4 DUP1 SLOAD DUP1 PUSH1 0x20 MUL PUSH1 0x20 ADD PUSH1 0x40 MLOAD SWAP1 DUP2 ADD PUSH1 0x40 MSTORE DUP1 SWAP3 SWAP2 SWAP1 DUP2 DUP2 MSTORE PUSH1 0x20 ADD DUP3 DUP1 SLOAD DUP1 ISZERO PUSH2 0x214E JUMPI PUSH1 0x20 MUL DUP3 ADD SWAP2 SWAP1 PUSH1 0x0 MSTORE PUSH1 0x20 PUSH1 0x0 KECCAK256 SWAP1 JUMPDEST DUP2 SLOAD PUSH1 0x1 PUSH1 0x1 PUSH1 0xA0 SHL SUB AND DUP2 MSTORE PUSH1 0x1 SWAP1 SWAP2 ADD SWAP1 PUSH1 0x20 ADD DUP1 DUP4 GT PUSH2 0x2130 JUMPI JUMPDEST POP POP POP POP POP SWAP1 POP SWAP1 JUMP JUMPDEST PUSH1 0x0 DUP1 SLOAD PUSH1 0xFF AND PUSH2 0x217B JUMPI PUSH1 0x40 MLOAD PUSH3 0x461BCD PUSH1 0xE5 SHL DUP2 MSTORE PUSH1 0x4 ADD PUSH2 0x77E SWAP1 PUSH2 0x47F0 JUMP JUMPDEST PUSH1 0xA SLOAD PUSH1 0xFF AND ISZERO PUSH2 0x219E JUMPI PUSH1 0x40 MLOAD PUSH3 0x461BCD PUSH1 0xE5 SHL DUP2 MSTORE PUSH1 0x4 ADD PUSH2 0x77E SWAP1 PUSH2 0x4832 JUMP JUMPDEST CALLER PUSH1 0x0 DUP2 DUP2 MSTORE PUSH1 0x1 PUSH1 0x20 MSTORE PUSH1 0x40 SWAP1 KECCAK256 SLOAD PUSH1 0x4 SWAP1 PUSH1 0x1 PUSH1 0xA0 SHL SWAP1 DIV PUSH1 0xFF AND DUP2 DUP2 GT ISZERO PUSH2 0x21CB JUMPI PUSH2 0x21CB PUSH2 0x4842 JUMP JUMPDEST EQ PUSH2 0x21E8 JUMPI PUSH1 0x40 MLOAD PUSH3 0x461BCD PUSH1 0xE5 SHL DUP2 MSTORE PUSH1 0x4 ADD PUSH2 0x77E SWAP1 PUSH2 0x52C2 JUMP JUMPDEST PUSH1 0x6 SLOAD PUSH1 0x40 MLOAD PUSH4 0x169B2623 PUSH1 0xE0 SHL DUP2 MSTORE PUSH1 0x1 PUSH1 0x1 PUSH1 0xA0 SHL SUB SWAP1 SWAP2 AND SWAP1 PUSH4 0x169B2623 SWAP1 PUSH2 0x2218 SWAP1 DUP5 SWAP1 PUSH1 0x4 ADD PUSH2 0x430C JUMP JUMPDEST PUSH1 0x20 PUSH1 0x40 MLOAD DUP1 DUP4 SUB DUP2 PUSH1 0x0 DUP8 GAS CALL ISZERO DUP1 ISZERO PUSH2 0x2237 JUMPI RETURNDATASIZE PUSH1 0x0 DUP1 RETURNDATACOPY RETURNDATASIZE PUSH1 0x0 REVERT JUMPDEST POP POP POP POP PUSH1 0x40 MLOAD RETURNDATASIZE PUSH1 0x1F NOT PUSH1 0x1F DUP3 ADD AND DUP3 ADD DUP1 PUSH1 0x40 MSTORE POP DUP2 ADD SWAP1 PUSH2 0x225B SWAP2 SWAP1 PUSH2 0x52E5 JUMP JUMPDEST PUSH2 0x2277 JUMPI PUSH1 0x40 MLOAD PUSH3 0x461BCD PUSH1 0xE5 SHL DUP2 MSTORE PUSH1 0x4 ADD PUSH2 0x77E SWAP1 PUSH2 0x5338 JUMP JUMPDEST PUSH1 0x1 PUSH1 0x1 PUSH1 0xA0 SHL SUB DUP2 AND PUSH1 0x0 SWAP1 DUP2 MSTORE PUSH1 0x1 PUSH1 0x20 DUP2 SWAP1 MSTORE PUSH1 0x40 SWAP1 SWAP2 KECCAK256 SWAP1 DUP2 ADD SLOAD PUSH10 0x21E19E0C9BAB2400000 GT PUSH2 0x22CD JUMPI DUP1 SLOAD PUSH1 0xFF PUSH1 0xA0 SHL NOT AND PUSH1 0x1 PUSH1 0xA1 SHL OR DUP2 SSTORE PUSH1 0x1 DUP2 ADD SLOAD PUSH2 0x22C7 SWAP1 DUP4 SWAP1 PUSH2 0x2DA8 JUMP JUMPDEST POP PUSH2 0x22DF JUMP JUMPDEST DUP1 SLOAD PUSH1 0xFF PUSH1 0xA0 SHL NOT AND PUSH1 0x3 PUSH1 0xA0 SHL OR DUP2 SSTORE JUMPDEST PUSH1 0x40 MLOAD PUSH1 0x1 PUSH1 0x1 PUSH1 0xA0 SHL SUB DUP4 AND SWAP1 PUSH32 0x9390B453426557DA5EBDC31F19A37753CA04ADDF656D32F35232211BB2AF3F19 SWAP1 PUSH1 0x0 SWAP1 LOG2 PUSH1 0x1 SWAP3 POP POP POP SWAP1 JUMP JUMPDEST CALLER COINBASE EQ PUSH2 0x233B JUMPI PUSH1 0x40 MLOAD PUSH3 0x461BCD PUSH1 0xE5 SHL DUP2 MSTORE PUSH1 0x4 ADD PUSH2 0x77E SWAP1 PUSH2 0x4E03 JUMP JUMPDEST PUSH1 0x7 SLOAD NUMBER GT PUSH2 0x235C JUMPI PUSH1 0x40 MLOAD PUSH3 0x461BCD PUSH1 0xE5 SHL DUP2 MSTORE PUSH1 0x4 ADD PUSH2 0x77E SWAP1 PUSH2 0x5373 JUMP JUMPDEST PUSH1 0x0 SLOAD PUSH1 0xFF AND PUSH2 0x237E JUMPI PUSH1 0x40 MLOAD PUSH3 0x461BCD PUSH1 0xE5 SHL DUP2 MSTORE PUSH1 0x4 ADD PUSH2 0x77E SWAP1 PUSH2 0x47F0 JUMP JUMPDEST PUSH2 0x2389 PUSH1 0xC8 NUMBER PUSH2 0x4E55 JUMP JUMPDEST ISZERO PUSH2 0x23A6 JUMPI PUSH1 0x40 MLOAD PUSH3 0x461BCD PUSH1 0xE5 SHL DUP2 MSTORE PUSH1 0x4 ADD PUSH2 0x77E SWAP1 PUSH2 0x4E8E JUMP JUMPDEST CALLVALUE ISZERO PUSH2 0x23B7 JUMPI PUSH2 0x23B7 CALLVALUE PUSH1 0x0 PUSH2 0x2B2B JUMP JUMPDEST NUMBER PUSH1 0x7 SSTORE JUMP JUMPDEST PUSH1 0x0 DUP1 SLOAD PUSH1 0xFF AND PUSH2 0x23E0 JUMPI PUSH1 0x40 MLOAD PUSH3 0x461BCD PUSH1 0xE5 SHL DUP2 MSTORE PUSH1 0x4 ADD PUSH2 0x77E SWAP1 PUSH2 0x47F0 JUMP JUMPDEST PUSH1 0x0 SLOAD PUSH2 0x100 SWAP1 DIV PUSH1 0xFF AND ISZERO PUSH2 0x2408 JUMPI PUSH1 0x40 MLOAD PUSH3 0x461BCD PUSH1 0xE5 SHL DUP2 MSTORE PUSH1 0x4 ADD PUSH2 0x77E SWAP1 PUSH2 0x491E JUMP JUMPDEST PUSH1 0xA SLOAD PUSH1 0xFF AND ISZERO PUSH2 0x242B JUMPI PUSH1 0x40 MLOAD PUSH3 0x461BCD PUSH1 0xE5 SHL DUP2 MSTORE PUSH1 0x4 ADD PUSH2 0x77E SWAP1 PUSH2 0x4832 JUMP JUMPDEST DUP2 PUSH1 0x0 PUSH1 0x1 PUSH1 0x1 PUSH1 0xA0 SHL SUB DUP3 AND PUSH1 0x0 SWAP1 DUP2 MSTORE PUSH1 0x1 PUSH1 0x20 MSTORE PUSH1 0x40 SWAP1 KECCAK256 SLOAD PUSH1 0x1 PUSH1 0xA0 SHL SWAP1 DIV PUSH1 0xFF AND PUSH1 0x4 DUP2 GT ISZERO PUSH2 0x2462 JUMPI PUSH2 0x2462 PUSH2 0x4842 JUMP JUMPDEST SUB PUSH2 0x247F JUMPI PUSH1 0x40 MLOAD PUSH3 0x461BCD PUSH1 0xE5 SHL DUP2 MSTORE PUSH1 0x4 ADD PUSH2 0x77E SWAP1 PUSH2 0x488A JUMP JUMPDEST CALLER PUSH1 0x0 DUP2 DUP2 MSTORE PUSH1 0x2 PUSH1 0x20 SWAP1 DUP2 MSTORE PUSH1 0x40 DUP1 DUP4 KECCAK256 PUSH1 0x1 PUSH1 0x1 PUSH1 0xA0 SHL SUB DUP9 AND DUP5 MSTORE SWAP1 SWAP2 MSTORE SWAP1 KECCAK256 PUSH1 0x1 DUP2 ADD SLOAD ISZERO PUSH2 0x24C4 JUMPI PUSH1 0x40 MLOAD PUSH3 0x461BCD PUSH1 0xE5 SHL DUP2 MSTORE PUSH1 0x4 ADD PUSH2 0x77E SWAP1 PUSH2 0x53A9 JUMP JUMPDEST DUP1 SLOAD PUSH2 0x24E2 JUMPI PUSH1 0x40 MLOAD PUSH3 0x461BCD PUSH1 0xE5 SHL DUP2 MSTORE PUSH1 0x4 ADD PUSH2 0x77E SWAP1 PUSH2 0x53E1 JUMP JUMPDEST PUSH2 0x20EB DUP3 DUP7 PUSH2 0x3066 JUMP JUMPDEST PUSH1 0x0 DUP11 PUSH1 0x1 PUSH1 0x1 PUSH1 0xA0 SHL SUB DUP2 AND PUSH2 0x2515 JUMPI PUSH1 0x40 MLOAD PUSH3 0x461BCD PUSH1 0xE5 SHL DUP2 MSTORE PUSH1 0x4 ADD PUSH2 0x77E SWAP1 PUSH2 0x49A6 JUMP JUMPDEST CALLER PUSH1 0x0 DUP2 DUP2 MSTORE PUSH1 0x1 PUSH1 0x20 MSTORE PUSH1 0x40 DUP2 KECCAK256 SLOAD PUSH1 0x1 PUSH1 0xA0 SHL SWAP1 DIV PUSH1 0xFF AND PUSH1 0x4 DUP2 GT ISZERO PUSH2 0x2540 JUMPI PUSH2 0x2540 PUSH2 0x4842 JUMP JUMPDEST EQ PUSH2 0x255D JUMPI PUSH1 0x40 MLOAD PUSH3 0x461BCD PUSH1 0xE5 SHL DUP2 MSTORE PUSH1 0x4 ADD PUSH2 0x77E SWAP1 PUSH2 0x5423 JUMP JUMPDEST PUSH2 0x3E8 DUP5 GT ISZERO PUSH2 0x257F JUMPI PUSH1 0x40 MLOAD PUSH3 0x461BCD PUSH1 0xE5 SHL DUP2 MSTORE PUSH1 0x4 ADD PUSH2 0x77E SWAP1 PUSH2 0x48CC JUMP JUMPDEST PUSH2 0x2592 DUP2 DUP15 DUP15 DUP15 DUP15 DUP15 DUP15 DUP15 DUP15 DUP15 DUP15 PUSH2 0x320A JUMP JUMPDEST CALLVALUE ISZERO PUSH2 0x25AB JUMPI PUSH2 0x25A3 DUP2 DUP3 CALLVALUE PUSH2 0x272C JUMP JUMPDEST SWAP3 POP POP PUSH2 0x25B1 JUMP JUMPDEST PUSH1 0x1 SWAP3 POP POP JUMPDEST POP SWAP11 SWAP10 POP POP POP POP POP POP POP POP POP POP JUMP JUMPDEST PUSH2 0x25CA DUP3 DUP3 PUSH2 0x34DE JUMP JUMPDEST PUSH1 0x1 PUSH1 0x1 PUSH1 0xA0 SHL SUB DUP1 DUP4 AND PUSH1 0x0 SWAP1 DUP2 MSTORE PUSH1 0x2 PUSH1 0x20 SWAP1 DUP2 MSTORE PUSH1 0x40 DUP1 DUP4 KECCAK256 SWAP4 DUP6 AND DUP4 MSTORE SWAP3 DUP2 MSTORE DUP3 DUP3 KECCAK256 PUSH1 0x1 SWAP1 SWAP2 MSTORE SWAP2 SWAP1 KECCAK256 DUP2 SLOAD ISZERO PUSH2 0x265C JUMPI PUSH1 0x0 DUP3 PUSH1 0x3 ADD SLOAD PUSH8 0xDE0B6B3A7640000 DUP4 PUSH1 0xC ADD SLOAD DUP6 PUSH1 0x0 ADD SLOAD PUSH2 0x2624 SWAP2 SWAP1 PUSH2 0x4A88 JUMP JUMPDEST PUSH2 0x262E SWAP2 SWAP1 PUSH2 0x4AB5 JUMP JUMPDEST PUSH2 0x2638 SWAP2 SWAP1 PUSH2 0x4AC9 JUMP JUMPDEST SWAP1 POP DUP1 ISZERO PUSH2 0x265A JUMPI DUP1 DUP4 PUSH1 0x4 ADD PUSH1 0x0 DUP3 DUP3 SLOAD PUSH2 0x2654 SWAP2 SWAP1 PUSH2 0x4B42 JUMP JUMPDEST SWAP1 SWAP2 SSTORE POP POP JUMPDEST POP JUMPDEST POP POP POP POP JUMP JUMPDEST DUP1 PUSH1 0x0 SUB PUSH2 0x266E JUMPI POP POP JUMP JUMPDEST PUSH1 0x1 PUSH1 0x1 PUSH1 0xA0 SHL SUB DUP3 AND PUSH2 0x2694 JUMPI PUSH1 0x40 MLOAD PUSH3 0x461BCD PUSH1 0xE5 SHL DUP2 MSTORE PUSH1 0x4 ADD PUSH2 0x77E SWAP1 PUSH2 0x5465 JUMP JUMPDEST DUP1 SELFBALANCE LT ISZERO PUSH2 0x26B4 JUMPI PUSH1 0x40 MLOAD PUSH3 0x461BCD PUSH1 0xE5 SHL DUP2 MSTORE PUSH1 0x4 ADD PUSH2 0x77E SWAP1 PUSH2 0x549E JUMP JUMPDEST PUSH1 0x0 DUP3 PUSH1 0x1 PUSH1 0x1 PUSH1 0xA0 SHL SUB AND DUP3 PUSH1 0x40 MLOAD PUSH1 0x0 PUSH1 0x40 MLOAD DUP1 DUP4 SUB DUP2 DUP6 DUP8 GAS CALL SWAP3 POP POP POP RETURNDATASIZE DUP1 PUSH1 0x0 DUP2 EQ PUSH2 0x2701 JUMPI PUSH1 0x40 MLOAD SWAP2 POP PUSH1 0x1F NOT PUSH1 0x3F RETURNDATASIZE ADD AND DUP3 ADD PUSH1 0x40 MSTORE RETURNDATASIZE DUP3 MSTORE RETURNDATASIZE PUSH1 0x0 PUSH1 0x20 DUP5 ADD RETURNDATACOPY PUSH2 0x2706 JUMP JUMPDEST PUSH1 0x60 SWAP2 POP JUMPDEST POP POP SWAP1 POP DUP1 PUSH2 0x2727 JUMPI PUSH1 0x40 MLOAD PUSH3 0x461BCD PUSH1 0xE5 SHL DUP2 MSTORE PUSH1 0x4 ADD PUSH2 0x77E SWAP1 PUSH2 0x54D2 JUMP JUMPDEST POP POP POP JUMP JUMPDEST PUSH1 0x0 PUSH1 0x1 PUSH1 0x1 PUSH1 0xA0 SHL SUB DUP5 AND ISZERO DUP1 ISZERO SWAP1 PUSH2 0x274E JUMPI POP PUSH1 0x1 PUSH1 0x1 PUSH1 0xA0 SHL SUB DUP4 AND ISZERO ISZERO JUMPDEST PUSH2 0x276A JUMPI PUSH1 0x40 MLOAD PUSH3 0x461BCD PUSH1 0xE5 SHL DUP2 MSTORE PUSH1 0x4 ADD PUSH2 0x77E SWAP1 PUSH2 0x49A6 JUMP JUMPDEST PUSH1 0x0 DUP3 GT PUSH2 0x278A JUMPI PUSH1 0x40 MLOAD PUSH3 0x461BCD PUSH1 0xE5 SHL DUP2 MSTORE PUSH1 0x4 ADD PUSH2 0x77E SWAP1 PUSH2 0x5514 JUMP JUMPDEST PUSH1 0x0 PUSH1 0x1 PUSH1 0x1 PUSH1 0xA0 SHL SUB DUP5 AND PUSH1 0x0 SWAP1 DUP2 MSTORE PUSH1 0x1 PUSH1 0x20 MSTORE PUSH1 0x40 SWAP1 KECCAK256 SLOAD PUSH1 0x1 PUSH1 0xA0 SHL SWAP1 DIV PUSH1 0xFF AND PUSH1 0x4 DUP2 GT ISZERO PUSH2 0x27C0 JUMPI PUSH2 0x27C0 PUSH2 0x4842 JUMP JUMPDEST SUB PUSH2 0x27DD JUMPI PUSH1 0x40 MLOAD PUSH3 0x461BCD PUSH1 0xE5 SHL DUP2 MSTORE PUSH1 0x4 ADD PUSH2 0x77E SWAP1 PUSH2 0x488A JUMP JUMPDEST PUSH1 0x1 PUSH1 0x1 PUSH1 0xA0 SHL SUB DUP1 DUP6 AND PUSH1 0x0 SWAP1 DUP2 MSTORE PUSH1 0x2 PUSH1 0x20 SWAP1 DUP2 MSTORE PUSH1 0x40 DUP1 DUP4 KECCAK256 SWAP4 DUP8 AND DUP4 MSTORE SWAP3 SWAP1 MSTORE KECCAK256 PUSH1 0x1 DUP2 ADD SLOAD ISZERO PUSH2 0x2824 JUMPI PUSH1 0x40 MLOAD PUSH3 0x461BCD PUSH1 0xE5 SHL DUP2 MSTORE PUSH1 0x4 ADD PUSH2 0x77E SWAP1 PUSH2 0x5556 JUMP JUMPDEST DUP1 SLOAD PUSH1 0x0 SUB PUSH2 0x2856 JUMPI PUSH9 0x3635C9ADC5DEA00000 DUP4 LT ISZERO PUSH2 0x2856 JUMPI PUSH1 0x40 MLOAD PUSH3 0x461BCD PUSH1 0xE5 SHL DUP2 MSTORE PUSH1 0x4 ADD PUSH2 0x77E SWAP1 PUSH2 0x5598 JUMP JUMPDEST PUSH2 0x2861 DUP6 DUP6 DUP6 PUSH2 0x365C JUMP JUMPDEST PUSH1 0x1 SWAP2 POP POP JUMPDEST SWAP4 SWAP3 POP POP POP JUMP JUMPDEST PUSH1 0x0 JUMPDEST PUSH1 0x4 SLOAD DUP2 LT DUP1 ISZERO PUSH2 0x2884 JUMPI POP PUSH1 0x4 SLOAD PUSH1 0x1 LT JUMPDEST ISZERO PUSH2 0x12DF JUMPI PUSH1 0x4 DUP2 DUP2 SLOAD DUP2 LT PUSH2 0x289C JUMPI PUSH2 0x289C PUSH2 0x4ADC JUMP JUMPDEST PUSH1 0x0 SWAP2 DUP3 MSTORE PUSH1 0x20 SWAP1 SWAP2 KECCAK256 ADD SLOAD PUSH1 0x1 PUSH1 0x1 PUSH1 0xA0 SHL SUB SWAP1 DUP2 AND SWAP1 DUP4 AND SUB PUSH2 0x2982 JUMPI PUSH1 0x4 SLOAD PUSH2 0x28CA SWAP1 PUSH1 0x1 SWAP1 PUSH2 0x4AC9 JUMP JUMPDEST DUP2 EQ PUSH2 0x294B JUMPI PUSH1 0x4 DUP1 SLOAD PUSH2 0x28E0 SWAP1 PUSH1 0x1 SWAP1 PUSH2 0x4AC9 JUMP JUMPDEST DUP2 SLOAD DUP2 LT PUSH2 0x28F0 JUMPI PUSH2 0x28F0 PUSH2 0x4ADC JUMP JUMPDEST PUSH1 0x0 SWAP2 DUP3 MSTORE PUSH1 0x20 SWAP1 SWAP2 KECCAK256 ADD SLOAD PUSH1 0x4 DUP1 SLOAD PUSH1 0x1 PUSH1 0x1 PUSH1 0xA0 SHL SUB SWAP1 SWAP3 AND SWAP2 DUP4 SWAP1 DUP2 LT PUSH2 0x291C JUMPI PUSH2 0x291C PUSH2 0x4ADC JUMP JUMPDEST SWAP1 PUSH1 0x0 MSTORE PUSH1 0x20 PUSH1 0x0 KECCAK256 ADD PUSH1 0x0 PUSH2 0x100 EXP DUP2 SLOAD DUP2 PUSH1 0x1 PUSH1 0x1 PUSH1 0xA0 SHL SUB MUL NOT AND SWAP1 DUP4 PUSH1 0x1 PUSH1 0x1 PUSH1 0xA0 SHL SUB AND MUL OR SWAP1 SSTORE POP JUMPDEST PUSH1 0x4 DUP1 SLOAD DUP1 PUSH2 0x295C JUMPI PUSH2 0x295C PUSH2 0x55A8 JUMP JUMPDEST PUSH1 0x0 DUP3 DUP2 MSTORE PUSH1 0x20 SWAP1 KECCAK256 DUP2 ADD PUSH1 0x0 NOT SWAP1 DUP2 ADD DUP1 SLOAD PUSH1 0x1 PUSH1 0x1 PUSH1 0xA0 SHL SUB NOT AND SWAP1 SSTORE ADD SWAP1 SSTORE POP POP JUMP JUMPDEST DUP1 PUSH2 0x298C DUP2 PUSH2 0x4AF2 JUMP JUMPDEST SWAP2 POP POP PUSH2 0x2871 JUMP JUMPDEST PUSH1 0x1 PUSH1 0x1 PUSH1 0xA0 SHL SUB DUP2 AND PUSH1 0x0 SWAP1 DUP2 MSTORE PUSH1 0x9 PUSH1 0x20 MSTORE PUSH1 0x40 SWAP1 KECCAK256 SLOAD PUSH1 0xFF AND PUSH2 0x29B7 JUMPI POP JUMP JUMPDEST PUSH1 0x0 JUMPDEST PUSH1 0x3 SLOAD DUP2 LT DUP1 ISZERO PUSH2 0x29CD JUMPI POP PUSH1 0x3 SLOAD PUSH1 0x1 LT JUMPDEST ISZERO PUSH2 0x12DF JUMPI DUP2 PUSH1 0x1 PUSH1 0x1 PUSH1 0xA0 SHL SUB AND PUSH1 0x3 DUP3 DUP2 SLOAD DUP2 LT PUSH2 0x29EF JUMPI PUSH2 0x29EF PUSH2 0x4ADC JUMP JUMPDEST PUSH1 0x0 SWAP2 DUP3 MSTORE PUSH1 0x20 SWAP1 SWAP2 KECCAK256 ADD SLOAD PUSH1 0x1 PUSH1 0x1 PUSH1 0xA0 SHL SUB AND SUB PUSH2 0x2B19 JUMPI PUSH1 0x3 SLOAD PUSH2 0x2A18 SWAP1 PUSH1 0x1 SWAP1 PUSH2 0x4AC9 JUMP JUMPDEST DUP2 EQ PUSH2 0x2A99 JUMPI PUSH1 0x3 DUP1 SLOAD PUSH2 0x2A2E SWAP1 PUSH1 0x1 SWAP1 PUSH2 0x4AC9 JUMP JUMPDEST DUP2 SLOAD DUP2 LT PUSH2 0x2A3E JUMPI PUSH2 0x2A3E PUSH2 0x4ADC JUMP JUMPDEST PUSH1 0x0 SWAP2 DUP3 MSTORE PUSH1 0x20 SWAP1 SWAP2 KECCAK256 ADD SLOAD PUSH1 0x3 DUP1 SLOAD PUSH1 0x1 PUSH1 0x1 PUSH1 0xA0 SHL SUB SWAP1 SWAP3 AND SWAP2 DUP4 SWAP1 DUP2 LT PUSH2 0x2A6A JUMPI PUSH2 0x2A6A PUSH2 0x4ADC JUMP JUMPDEST SWAP1 PUSH1 0x0 MSTORE PUSH1 0x20 PUSH1 0x0 KECCAK256 ADD PUSH1 0x0 PUSH2 0x100 EXP DUP2 SLOAD DUP2 PUSH1 0x1 PUSH1 0x1 PUSH1 0xA0 SHL SUB MUL NOT AND SWAP1 DUP4 PUSH1 0x1 PUSH1 0x1 PUSH1 0xA0 SHL SUB AND MUL OR SWAP1 SSTORE POP JUMPDEST PUSH1 0x3 DUP1 SLOAD DUP1 PUSH2 0x2AAA JUMPI PUSH2 0x2AAA PUSH2 0x55A8 JUMP JUMPDEST PUSH1 0x0 DUP3 DUP2 MSTORE PUSH1 0x20 DUP1 DUP3 KECCAK256 DUP4 ADD PUSH1 0x0 NOT SWAP1 DUP2 ADD DUP1 SLOAD PUSH1 0x1 PUSH1 0x1 PUSH1 0xA0 SHL SUB NOT AND SWAP1 SSTORE SWAP1 SWAP3 ADD SWAP1 SWAP3 SSTORE PUSH1 0x1 PUSH1 0x1 PUSH1 0xA0 SHL SUB DUP5 AND DUP1 DUP4 MSTORE PUSH1 0x9 SWAP1 SWAP2 MSTORE PUSH1 0x40 DUP1 DUP4 KECCAK256 DUP1 SLOAD PUSH1 0xFF NOT AND SWAP1 SSTORE MLOAD SWAP1 SWAP2 PUSH32 0x4FC54CDA221FAFC19BAAE2A4C79AE99DD0916C88B67AB97D3122A5AFE333FC1D SWAP2 LOG2 POP POP JUMP JUMPDEST DUP1 PUSH2 0x2B23 DUP2 PUSH2 0x4AF2 JUMP JUMPDEST SWAP2 POP POP PUSH2 0x29BA JUMP JUMPDEST DUP2 PUSH1 0x0 SUB PUSH2 0x2B37 JUMPI POP POP JUMP JUMPDEST PUSH1 0x0 DUP1 JUMPDEST PUSH1 0x4 SLOAD DUP2 LT ISZERO PUSH2 0x2C02 JUMPI PUSH1 0x4 PUSH1 0x1 PUSH1 0x0 PUSH1 0x4 DUP5 DUP2 SLOAD DUP2 LT PUSH2 0x2B5E JUMPI PUSH2 0x2B5E PUSH2 0x4ADC JUMP JUMPDEST PUSH1 0x0 SWAP2 DUP3 MSTORE PUSH1 0x20 DUP1 DUP4 KECCAK256 SWAP1 SWAP2 ADD SLOAD PUSH1 0x1 PUSH1 0x1 PUSH1 0xA0 SHL SUB AND DUP4 MSTORE DUP3 ADD SWAP3 SWAP1 SWAP3 MSTORE PUSH1 0x40 ADD SWAP1 KECCAK256 SLOAD PUSH1 0xFF PUSH1 0x1 PUSH1 0xA0 SHL SWAP1 SWAP2 DIV AND PUSH1 0x4 DUP2 GT ISZERO PUSH2 0x2B9F JUMPI PUSH2 0x2B9F PUSH2 0x4842 JUMP JUMPDEST EQ ISZERO DUP1 ISZERO PUSH2 0x2BDD JUMPI POP DUP3 PUSH1 0x1 PUSH1 0x1 PUSH1 0xA0 SHL SUB AND PUSH1 0x4 DUP3 DUP2 SLOAD DUP2 LT PUSH2 0x2BC5 JUMPI PUSH2 0x2BC5 PUSH2 0x4ADC JUMP JUMPDEST PUSH1 0x0 SWAP2 DUP3 MSTORE PUSH1 0x20 SWAP1 SWAP2 KECCAK256 ADD SLOAD PUSH1 0x1 PUSH1 0x1 PUSH1 0xA0 SHL SUB AND EQ ISZERO JUMPDEST ISZERO PUSH2 0x2BF0 JUMPI DUP2 PUSH2 0x2BEC DUP2 PUSH2 0x4AF2 JUMP JUMPDEST SWAP3 POP POP JUMPDEST DUP1 PUSH2 0x2BFA DUP2 PUSH2 0x4AF2 JUMP JUMPDEST SWAP2 POP POP PUSH2 0x2B3B JUMP JUMPDEST POP DUP1 PUSH1 0x0 SUB PUSH2 0x2C10 JUMPI POP POP POP JUMP JUMPDEST PUSH2 0x2727 DUP4 DUP4 DUP4 PUSH2 0x3825 JUMP JUMPDEST PUSH1 0x1 PUSH1 0x1 PUSH1 0xA0 SHL SUB DUP2 AND PUSH2 0x2C41 JUMPI PUSH1 0x40 MLOAD PUSH3 0x461BCD PUSH1 0xE5 SHL DUP2 MSTORE PUSH1 0x4 ADD PUSH2 0x77E SWAP1 PUSH2 0x55F0 JUMP JUMPDEST PUSH1 0x1 PUSH1 0x1 PUSH1 0xA0 SHL SUB DUP2 AND PUSH1 0x0 SWAP1 DUP2 MSTORE PUSH1 0x9 PUSH1 0x20 MSTORE PUSH1 0x40 SWAP1 KECCAK256 SLOAD PUSH1 0xFF AND PUSH2 0x2CC5 JUMPI PUSH1 0x3 DUP1 SLOAD PUSH1 0x1 DUP1 DUP3 ADD SWAP1 SWAP3 SSTORE PUSH32 0xC2575A0E9E593C00F959F8C92F12DB2869C3395A3B0502D05E2516446F71F85B ADD DUP1 SLOAD PUSH1 0x1 PUSH1 0x1 PUSH1 0xA0 SHL SUB NOT AND PUSH1 0x1 PUSH1 0x1 PUSH1 0xA0 SHL SUB DUP5 AND SWAP1 DUP2 OR SWAP1 SWAP2 SSTORE PUSH1 0x0 SWAP1 DUP2 MSTORE PUSH1 0x9 PUSH1 0x20 MSTORE PUSH1 0x40 SWAP1 KECCAK256 DUP1 SLOAD PUSH1 0xFF NOT AND SWAP1 SWAP2 OR SWAP1 SSTORE JUMPDEST PUSH2 0x2CCE DUP2 PUSH2 0xC50 JUMP JUMPDEST PUSH2 0x2D1E JUMPI PUSH1 0x4 DUP1 SLOAD PUSH1 0x1 DUP2 ADD DUP3 SSTORE PUSH1 0x0 SWAP2 SWAP1 SWAP2 MSTORE PUSH32 0x8A35ACFBC15FF81A39AE7D344FD709F28E8600B4AA8C65C6B64BFE7FE36BD19B ADD DUP1 SLOAD PUSH1 0x1 PUSH1 0x1 PUSH1 0xA0 SHL SUB NOT AND PUSH1 0x1 PUSH1 0x1 PUSH1 0xA0 SHL SUB DUP4 AND OR SWAP1 SSTORE JUMPDEST PUSH1 0x1 PUSH1 0x1 PUSH1 0xA0 SHL SUB DUP1 DUP3 AND PUSH1 0x0 SWAP1 DUP2 MSTORE PUSH1 0x1 PUSH1 0x20 MSTORE PUSH1 0x40 SWAP1 KECCAK256 DUP1 SLOAD SWAP1 SWAP2 AND PUSH2 0x2D5A JUMPI DUP1 SLOAD PUSH1 0x1 PUSH1 0x1 PUSH1 0xA0 SHL SUB NOT AND PUSH1 0x1 PUSH1 0x1 PUSH1 0xA0 SHL SUB DUP4 AND OR DUP2 SSTORE JUMPDEST PUSH1 0x0 DUP2 SLOAD PUSH1 0x1 PUSH1 0xA0 SHL SWAP1 DIV PUSH1 0xFF AND PUSH1 0x4 DUP2 GT ISZERO PUSH2 0x2D79 JUMPI PUSH2 0x2D79 PUSH2 0x4842 JUMP JUMPDEST SUB PUSH2 0x2D90 JUMPI DUP1 SLOAD PUSH1 0xFF PUSH1 0xA0 SHL NOT AND PUSH1 0x1 PUSH1 0xA1 SHL OR DUP2 SSTORE JUMPDEST DUP1 PUSH1 0xA ADD SLOAD PUSH1 0x0 SUB PUSH2 0x12DF JUMPI PUSH2 0x1F4 PUSH1 0xA DUP3 ADD SSTORE POP POP JUMP JUMPDEST PUSH1 0x1 PUSH1 0x1 PUSH1 0xA0 SHL SUB DUP3 AND PUSH1 0x0 SWAP1 DUP2 MSTORE PUSH1 0x9 PUSH1 0x20 MSTORE PUSH1 0x40 DUP2 KECCAK256 SLOAD PUSH1 0xFF AND ISZERO PUSH2 0x2DD1 JUMPI POP PUSH1 0x1 PUSH2 0x1379 JUMP JUMPDEST PUSH1 0x3 SLOAD PUSH1 0x65 GT ISZERO PUSH2 0x2E81 JUMPI PUSH1 0x3 DUP1 SLOAD PUSH1 0x1 DUP1 DUP3 ADD SWAP1 SWAP3 SSTORE PUSH32 0xC2575A0E9E593C00F959F8C92F12DB2869C3395A3B0502D05E2516446F71F85B ADD DUP1 SLOAD PUSH1 0x1 PUSH1 0x1 PUSH1 0xA0 SHL SUB NOT AND PUSH1 0x1 PUSH1 0x1 PUSH1 0xA0 SHL SUB DUP7 AND SWAP1 DUP2 OR SWAP1 SWAP2 SSTORE PUSH1 0x0 DUP2 DUP2 MSTORE PUSH1 0x9 PUSH1 0x20 MSTORE PUSH1 0x40 SWAP1 DUP2 SWAP1 KECCAK256 DUP1 SLOAD PUSH1 0xFF NOT AND SWAP1 SWAP4 OR SWAP1 SWAP3 SSTORE SWAP1 MLOAD PUSH32 0xAA45E8A267CC523C778EBBBD8E3ECB5BF7627C28A8D043AF282593529EA367CE SWAP1 PUSH2 0x2E71 SWAP1 DUP6 SWAP1 PUSH2 0x4159 JUMP JUMPDEST PUSH1 0x40 MLOAD DUP1 SWAP2 SUB SWAP1 LOG2 POP PUSH1 0x1 PUSH2 0x1379 JUMP JUMPDEST PUSH1 0x0 PUSH1 0x1 PUSH1 0x0 PUSH1 0x3 PUSH1 0x0 DUP2 SLOAD DUP2 LT PUSH2 0x2E9B JUMPI PUSH2 0x2E9B PUSH2 0x4ADC JUMP JUMPDEST PUSH1 0x0 SWAP2 DUP3 MSTORE PUSH1 0x20 DUP1 DUP4 KECCAK256 SWAP1 SWAP2 ADD SLOAD PUSH1 0x1 PUSH1 0x1 PUSH1 0xA0 SHL SUB AND DUP4 MSTORE DUP3 ADD SWAP3 SWAP1 SWAP3 MSTORE PUSH1 0x40 ADD DUP2 KECCAK256 PUSH1 0x1 SWAP1 DUP2 ADD SLOAD SWAP3 POP JUMPDEST PUSH1 0x3 SLOAD DUP2 LT ISZERO PUSH2 0x2F37 JUMPI PUSH1 0x0 PUSH1 0x1 PUSH1 0x0 PUSH1 0x3 DUP5 DUP2 SLOAD DUP2 LT PUSH2 0x2EEB JUMPI PUSH2 0x2EEB PUSH2 0x4ADC JUMP JUMPDEST PUSH1 0x0 SWAP2 DUP3 MSTORE PUSH1 0x20 DUP1 DUP4 KECCAK256 SWAP1 SWAP2 ADD SLOAD PUSH1 0x1 PUSH1 0x1 PUSH1 0xA0 SHL SUB AND DUP4 MSTORE DUP3 ADD SWAP3 SWAP1 SWAP3 MSTORE PUSH1 0x40 ADD SWAP1 KECCAK256 PUSH1 0x1 ADD SLOAD SWAP1 POP DUP4 DUP2 LT ISZERO PUSH2 0x2F24 JUMPI DUP1 SWAP4 POP DUP2 SWAP3 POP JUMPDEST POP DUP1 PUSH2 0x2F2F DUP2 PUSH2 0x4AF2 JUMP JUMPDEST SWAP2 POP POP PUSH2 0x2EC8 JUMP JUMPDEST POP DUP2 DUP5 GT PUSH2 0x2F4A JUMPI PUSH1 0x0 SWAP3 POP POP POP PUSH2 0x1379 JUMP JUMPDEST PUSH1 0x0 PUSH1 0x3 DUP3 DUP2 SLOAD DUP2 LT PUSH2 0x2F5F JUMPI PUSH2 0x2F5F PUSH2 0x4ADC JUMP JUMPDEST PUSH1 0x0 SWAP2 DUP3 MSTORE PUSH1 0x20 DUP3 KECCAK256 ADD SLOAD PUSH1 0x40 MLOAD PUSH1 0x1 PUSH1 0x1 PUSH1 0xA0 SHL SUB SWAP1 SWAP2 AND SWAP3 POP DUP3 SWAP2 PUSH32 0x4FC54CDA221FAFC19BAAE2A4C79AE99DD0916C88B67AB97D3122A5AFE333FC1D SWAP2 LOG2 DUP6 PUSH1 0x1 PUSH1 0x1 PUSH1 0xA0 SHL SUB AND PUSH32 0xAA45E8A267CC523C778EBBBD8E3ECB5BF7627C28A8D043AF282593529EA367CE DUP7 PUSH1 0x40 MLOAD PUSH2 0x2FD8 SWAP2 SWAP1 PUSH2 0x4159 JUMP JUMPDEST PUSH1 0x40 MLOAD DUP1 SWAP2 SUB SWAP1 LOG2 PUSH1 0x1 PUSH1 0x1 PUSH1 0xA0 SHL SUB DUP2 AND PUSH1 0x0 SWAP1 DUP2 MSTORE PUSH1 0x9 PUSH1 0x20 MSTORE PUSH1 0x40 SWAP1 KECCAK256 DUP1 SLOAD PUSH1 0xFF NOT AND SWAP1 SSTORE PUSH1 0x3 DUP1 SLOAD DUP8 SWAP2 SWAP1 DUP5 SWAP1 DUP2 LT PUSH2 0x3017 JUMPI PUSH2 0x3017 PUSH2 0x4ADC JUMP JUMPDEST PUSH1 0x0 SWAP2 DUP3 MSTORE PUSH1 0x20 DUP1 DUP4 KECCAK256 SWAP2 SWAP1 SWAP2 ADD DUP1 SLOAD PUSH1 0x1 PUSH1 0x1 PUSH1 0xA0 SHL SUB NOT AND PUSH1 0x1 PUSH1 0x1 PUSH1 0xA0 SHL SUB SWAP5 DUP6 AND OR SWAP1 SSTORE SWAP8 SWAP1 SWAP2 AND DUP2 MSTORE PUSH1 0x9 SWAP1 SWAP7 MSTORE POP POP PUSH1 0x40 SWAP1 SWAP4 KECCAK256 DUP1 SLOAD PUSH1 0xFF NOT AND PUSH1 0x1 SWAP1 DUP2 OR SWAP1 SWAP2 SSTORE SWAP4 SWAP3 POP POP POP JUMP JUMPDEST PUSH1 0x1 PUSH1 0x1 PUSH1 0xA0 SHL SUB DUP1 DUP4 AND PUSH1 0x0 SWAP1 DUP2 MSTORE PUSH1 0x2 PUSH1 0x20 SWAP1 DUP2 MSTORE PUSH1 0x40 DUP1 DUP4 KECCAK256 SWAP4 DUP6 AND DUP4 MSTORE SWAP3 DUP2 MSTORE DUP3 DUP3 KECCAK256 PUSH1 0x1 SWAP2 DUP3 SWAP1 MSTORE SWAP3 SWAP1 SWAP2 KECCAK256 DUP3 SLOAD PUSH1 0x4 SLOAD SWAP2 SWAP3 SWAP1 SWAP2 EQ DUP1 ISZERO PUSH2 0x30B1 JUMPI POP PUSH2 0x30B1 DUP5 PUSH2 0xC50 JUMP JUMPDEST DUP1 ISZERO PUSH2 0x30D5 JUMPI POP PUSH10 0x21E19E0C9BAB2400000 DUP2 DUP4 PUSH1 0x1 ADD SLOAD PUSH2 0x30D3 SWAP2 SWAP1 PUSH2 0x4AC9 JUMP JUMPDEST LT JUMPDEST ISZERO PUSH2 0x30F2 JUMPI PUSH1 0x40 MLOAD PUSH3 0x461BCD PUSH1 0xE5 SHL DUP2 MSTORE PUSH1 0x4 ADD PUSH2 0x77E SWAP1 PUSH2 0x5647 JUMP JUMPDEST PUSH2 0x30FC DUP6 DUP6 PUSH2 0x25C0 JUMP JUMPDEST PUSH2 0x3106 DUP6 DUP6 PUSH2 0x34DE JUMP JUMPDEST PUSH2 0x3110 DUP6 DUP6 PUSH2 0x3B73 JUMP JUMPDEST DUP1 DUP3 PUSH1 0x1 ADD PUSH1 0x0 DUP3 DUP3 SLOAD PUSH2 0x3124 SWAP2 SWAP1 PUSH2 0x4AC9 JUMP JUMPDEST SWAP1 SWAP2 SSTORE POP POP TIMESTAMP PUSH1 0x1 DUP5 ADD SSTORE NUMBER PUSH1 0x6 DUP5 ADD SSTORE PUSH1 0x5 DUP1 SLOAD DUP3 SWAP2 SWAP1 PUSH1 0x0 SWAP1 PUSH2 0x314A SWAP1 DUP5 SWAP1 PUSH2 0x4AC9 JUMP JUMPDEST SWAP1 SWAP2 SSTORE POP POP PUSH1 0x1 DUP3 ADD SLOAD PUSH10 0x21E19E0C9BAB2400000 GT ISZERO PUSH2 0x3177 JUMPI DUP2 SLOAD PUSH1 0xFF PUSH1 0xA0 SHL NOT AND PUSH1 0x3 PUSH1 0xA0 SHL OR DUP3 SSTORE JUMPDEST PUSH1 0x0 PUSH2 0x3186 PUSH3 0x15180 TIMESTAMP PUSH2 0x4B42 JUMP JUMPDEST SWAP1 POP DUP5 PUSH1 0x1 PUSH1 0x1 PUSH1 0xA0 SHL SUB AND DUP7 PUSH1 0x1 PUSH1 0x1 PUSH1 0xA0 SHL SUB AND PUSH32 0x18EDD09E80386CD99DF397E2E0D87D2BB259423EAE08645E776321A36FE680EF DUP5 DUP5 PUSH1 0x40 MLOAD PUSH2 0x31CD SWAP3 SWAP2 SWAP1 PUSH2 0x48DC JUMP JUMPDEST PUSH1 0x40 MLOAD DUP1 SWAP2 SUB SWAP1 LOG3 PUSH1 0x2 DUP4 SLOAD PUSH1 0x1 PUSH1 0xA0 SHL SWAP1 DIV PUSH1 0xFF AND PUSH1 0x4 DUP2 GT ISZERO PUSH2 0x31F4 JUMPI PUSH2 0x31F4 PUSH2 0x4842 JUMP JUMPDEST EQ PUSH2 0x3202 JUMPI PUSH2 0x3202 DUP6 PUSH2 0x2994 JUMP JUMPDEST POP POP POP POP POP POP JUMP JUMPDEST PUSH2 0x32E5 DUP10 DUP10 DUP1 DUP1 PUSH1 0x1F ADD PUSH1 0x20 DUP1 SWAP2 DIV MUL PUSH1 0x20 ADD PUSH1 0x40 MLOAD SWAP1 DUP2 ADD PUSH1 0x40 MSTORE DUP1 SWAP4 SWAP3 SWAP2 SWAP1 DUP2 DUP2 MSTORE PUSH1 0x20 ADD DUP4 DUP4 DUP1 DUP3 DUP5 CALLDATACOPY PUSH1 0x0 SWAP3 ADD SWAP2 SWAP1 SWAP2 MSTORE POP POP PUSH1 0x40 DUP1 MLOAD PUSH1 0x20 PUSH1 0x1F DUP14 ADD DUP2 SWAP1 DIV DUP2 MUL DUP3 ADD DUP2 ADD SWAP1 SWAP3 MSTORE DUP12 DUP2 MSTORE SWAP3 POP DUP12 SWAP2 POP DUP11 SWAP1 DUP2 SWAP1 DUP5 ADD DUP4 DUP3 DUP1 DUP3 DUP5 CALLDATACOPY PUSH1 0x0 SWAP3 ADD SWAP2 SWAP1 SWAP2 MSTORE POP POP PUSH1 0x40 DUP1 MLOAD PUSH1 0x20 PUSH1 0x1F DUP13 ADD DUP2 SWAP1 DIV DUP2 MUL DUP3 ADD DUP2 ADD SWAP1 SWAP3 MSTORE DUP11 DUP2 MSTORE SWAP3 POP DUP11 SWAP2 POP DUP10 SWAP1 DUP2 SWAP1 DUP5 ADD DUP4 DUP3 DUP1 DUP3 DUP5 CALLDATACOPY PUSH1 0x0 SWAP3 ADD SWAP2 SWAP1 SWAP2 MSTORE POP POP PUSH1 0x40 DUP1 MLOAD PUSH1 0x20 PUSH1 0x1F DUP12 ADD DUP2 SWAP1 DIV DUP2 MUL DUP3 ADD DUP2 ADD SWAP1 SWAP3 MSTORE DUP10 DUP2 MSTORE SWAP3 POP DUP10 SWAP2 POP DUP9 SWAP1 DUP2 SWAP1 DUP5 ADD DUP4 DUP3 DUP1 DUP3 DUP5 CALLDATACOPY PUSH1 0x0 SWAP3 ADD SWAP2 SWAP1 SWAP2 MSTORE POP PUSH2 0x205E SWAP3 POP POP POP JUMP JUMPDEST PUSH2 0x3301 JUMPI PUSH1 0x40 MLOAD PUSH3 0x461BCD PUSH1 0xE5 SHL DUP2 MSTORE PUSH1 0x4 ADD PUSH2 0x77E SWAP1 PUSH2 0x4FE2 JUMP JUMPDEST PUSH1 0x1 PUSH1 0x1 PUSH1 0xA0 SHL SUB DUP12 DUP2 AND PUSH1 0x0 SWAP1 DUP2 MSTORE PUSH1 0x1 PUSH1 0x20 SWAP1 DUP2 MSTORE PUSH1 0x40 SWAP2 DUP3 SWAP1 KECCAK256 DUP1 SLOAD SWAP4 DUP15 AND PUSH1 0x1 PUSH1 0x1 PUSH1 0xA8 SHL SUB NOT SWAP1 SWAP5 AND SWAP4 SWAP1 SWAP4 OR PUSH1 0x1 PUSH1 0xA0 SHL OR DUP4 SSTORE DUP2 MLOAD PUSH1 0xA0 PUSH1 0x1F DUP14 ADD DUP4 SWAP1 DIV SWAP1 SWAP3 MUL DUP2 ADD DUP3 ADD SWAP1 SWAP3 MSTORE PUSH1 0x80 DUP3 ADD DUP12 DUP2 MSTORE DUP3 SWAP2 DUP14 SWAP1 DUP14 SWAP1 DUP2 SWAP1 DUP6 ADD DUP4 DUP3 DUP1 DUP3 DUP5 CALLDATACOPY PUSH1 0x0 SWAP3 ADD SWAP2 SWAP1 SWAP2 MSTORE POP POP POP SWAP1 DUP3 MSTORE POP PUSH1 0x40 DUP1 MLOAD PUSH1 0x20 PUSH1 0x1F DUP13 ADD DUP2 SWAP1 DIV DUP2 MUL DUP3 ADD DUP2 ADD SWAP1 SWAP3 MSTORE DUP11 DUP2 MSTORE SWAP2 DUP2 ADD SWAP2 SWAP1 DUP12 SWAP1 DUP12 SWAP1 DUP2 SWAP1 DUP5 ADD DUP4 DUP3 DUP1 DUP3 DUP5 CALLDATACOPY PUSH1 0x0 SWAP3 ADD SWAP2 SWAP1 SWAP2 MSTORE POP POP POP SWAP1 DUP3 MSTORE POP PUSH1 0x40 DUP1 MLOAD PUSH1 0x20 PUSH1 0x1F DUP11 ADD DUP2 SWAP1 DIV DUP2 MUL DUP3 ADD DUP2 ADD SWAP1 SWAP3 MSTORE DUP9 DUP2 MSTORE SWAP2 DUP2 ADD SWAP2 SWAP1 DUP10 SWAP1 DUP10 SWAP1 DUP2 SWAP1 DUP5 ADD DUP4 DUP3 DUP1 DUP3 DUP5 CALLDATACOPY PUSH1 0x0 SWAP3 ADD SWAP2 SWAP1 SWAP2 MSTORE POP POP POP SWAP1 DUP3 MSTORE POP PUSH1 0x40 DUP1 MLOAD PUSH1 0x20 PUSH1 0x1F DUP9 ADD DUP2 SWAP1 DIV DUP2 MUL DUP3 ADD DUP2 ADD SWAP1 SWAP3 MSTORE DUP7 DUP2 MSTORE SWAP2 DUP2 ADD SWAP2 SWAP1 DUP8 SWAP1 DUP8 SWAP1 DUP2 SWAP1 DUP5 ADD DUP4 DUP3 DUP1 DUP3 DUP5 CALLDATACOPY PUSH1 0x0 SWAP3 ADD SWAP2 SWAP1 SWAP2 MSTORE POP POP POP SWAP2 MSTORE POP DUP1 MLOAD PUSH1 0x2 DUP4 ADD SWAP1 DUP2 SWAP1 PUSH2 0x3439 SWAP1 DUP3 PUSH2 0x5086 JUMP JUMPDEST POP PUSH1 0x20 DUP3 ADD MLOAD PUSH1 0x1 DUP3 ADD SWAP1 PUSH2 0x344E SWAP1 DUP3 PUSH2 0x5086 JUMP JUMPDEST POP PUSH1 0x40 DUP3 ADD MLOAD PUSH1 0x2 DUP3 ADD SWAP1 PUSH2 0x3463 SWAP1 DUP3 PUSH2 0x5086 JUMP JUMPDEST POP PUSH1 0x60 DUP3 ADD MLOAD PUSH1 0x3 DUP3 ADD SWAP1 PUSH2 0x3478 SWAP1 DUP3 PUSH2 0x5086 JUMP JUMPDEST POP SWAP1 POP POP DUP2 DUP2 PUSH1 0xA ADD DUP2 SWAP1 SSTORE POP DUP11 PUSH1 0x1 PUSH1 0x1 PUSH1 0xA0 SHL SUB AND DUP13 PUSH1 0x1 PUSH1 0x1 PUSH1 0xA0 SHL SUB AND PUSH32 0x91BA9E4EE44DD0A1764DA83D050D0E9B503DF39488E5FA49093D6E7CF8FD92CA DUP5 PUSH1 0x40 MLOAD PUSH2 0x34C8 SWAP2 SWAP1 PUSH2 0x4159 JUMP JUMPDEST PUSH1 0x40 MLOAD DUP1 SWAP2 SUB SWAP1 LOG3 POP POP POP POP POP POP POP POP POP POP POP POP JUMP JUMPDEST PUSH1 0x1 PUSH1 0x1 PUSH1 0xA0 SHL SUB DUP1 DUP4 AND PUSH1 0x0 SWAP1 DUP2 MSTORE PUSH1 0x2 PUSH1 0x20 SWAP1 DUP2 MSTORE PUSH1 0x40 DUP1 DUP4 KECCAK256 SWAP4 DUP6 AND DUP4 MSTORE SWAP3 DUP2 MSTORE DUP3 DUP3 KECCAK256 PUSH1 0x1 SWAP1 SWAP2 MSTORE SWAP2 DUP2 KECCAK256 DUP3 SLOAD SWAP1 SWAP2 SUB PUSH2 0x3524 JUMPI PUSH1 0xD ADD SLOAD PUSH1 0x5 SWAP1 SWAP2 ADD SSTORE POP POP JUMP JUMPDEST DUP2 PUSH1 0x5 ADD SLOAD DUP2 PUSH1 0xD ADD SLOAD GT PUSH2 0x3539 JUMPI POP POP POP POP JUMP JUMPDEST PUSH1 0x0 DUP3 PUSH1 0x5 ADD SLOAD DUP3 PUSH1 0xD ADD SLOAD PUSH2 0x354F SWAP2 SWAP1 PUSH2 0x4AC9 JUMP JUMPDEST SWAP1 POP PUSH1 0x0 PUSH8 0xDE0B6B3A7640000 DUP3 DUP6 PUSH1 0x0 ADD SLOAD PUSH2 0x356C SWAP2 SWAP1 PUSH2 0x4A88 JUMP JUMPDEST PUSH2 0x3576 SWAP2 SWAP1 PUSH2 0x4AB5 JUMP JUMPDEST SWAP1 POP DUP1 PUSH1 0x0 SUB PUSH2 0x3590 JUMPI POP POP PUSH1 0xD ADD SLOAD PUSH1 0x5 SWAP1 SWAP2 ADD SSTORE POP POP JUMP JUMPDEST DUP4 SLOAD DUP2 LT PUSH2 0x35D5 JUMPI DUP4 SLOAD PUSH1 0x5 DUP1 SLOAD PUSH1 0x0 SWAP1 PUSH2 0x35AC SWAP1 DUP5 SWAP1 PUSH2 0x4AC9 JUMP JUMPDEST SWAP1 SWAP2 SSTORE POP POP DUP4 SLOAD PUSH1 0x1 DUP5 ADD DUP1 SLOAD PUSH1 0x0 SWAP1 PUSH2 0x35C7 SWAP1 DUP5 SWAP1 PUSH2 0x4AC9 JUMP JUMPDEST SWAP1 SWAP2 SSTORE POP POP PUSH1 0x0 DUP5 SSTORE PUSH2 0x3623 JUMP JUMPDEST DUP1 DUP5 PUSH1 0x0 ADD PUSH1 0x0 DUP3 DUP3 SLOAD PUSH2 0x35E9 SWAP2 SWAP1 PUSH2 0x4AC9 JUMP JUMPDEST SWAP3 POP POP DUP2 SWAP1 SSTORE POP DUP1 PUSH1 0x5 PUSH1 0x0 DUP3 DUP3 SLOAD PUSH2 0x3602 SWAP2 SWAP1 PUSH2 0x4AC9 JUMP JUMPDEST SWAP3 POP POP DUP2 SWAP1 SSTORE POP DUP1 DUP4 PUSH1 0x1 ADD PUSH1 0x0 DUP3 DUP3 SLOAD PUSH2 0x361D SWAP2 SWAP1 PUSH2 0x4AC9 JUMP JUMPDEST SWAP1 SWAP2 SSTORE POP POP JUMPDEST DUP4 SLOAD PUSH1 0xC DUP5 ADD SLOAD PUSH8 0xDE0B6B3A7640000 SWAP2 PUSH2 0x363D SWAP2 PUSH2 0x4A88 JUMP JUMPDEST PUSH2 0x3647 SWAP2 SWAP1 PUSH2 0x4AB5 JUMP JUMPDEST PUSH1 0x3 DUP6 ADD SSTORE POP POP PUSH1 0xD ADD SLOAD PUSH1 0x5 SWAP1 SWAP2 ADD SSTORE POP POP JUMP JUMPDEST PUSH1 0x1 PUSH1 0x1 PUSH1 0xA0 SHL SUB DUP1 DUP4 AND PUSH1 0x0 DUP2 DUP2 MSTORE PUSH1 0x1 PUSH1 0x20 DUP2 DUP2 MSTORE PUSH1 0x40 DUP1 DUP5 KECCAK256 SWAP6 DUP10 AND DUP5 MSTORE PUSH1 0x2 DUP3 MSTORE DUP1 DUP5 KECCAK256 SWAP5 DUP5 MSTORE SWAP4 SWAP1 MSTORE SWAP2 SWAP1 KECCAK256 SWAP1 DUP3 ADD SLOAD PUSH10 0x21E19E0C9BAB2400000 SWAP1 PUSH2 0x36A8 SWAP1 DUP6 SWAP1 PUSH2 0x4B42 JUMP JUMPDEST LT ISZERO PUSH2 0x36C6 JUMPI PUSH1 0x40 MLOAD PUSH3 0x461BCD PUSH1 0xE5 SHL DUP2 MSTORE PUSH1 0x4 ADD PUSH2 0x77E SWAP1 PUSH2 0x5695 JUMP JUMPDEST PUSH2 0x36D0 DUP6 DUP6 PUSH2 0x34DE JUMP JUMPDEST DUP1 SLOAD PUSH1 0x0 SUB PUSH2 0x36E9 JUMPI PUSH2 0x36E4 DUP6 DUP6 DUP6 PUSH2 0x3D2D JUMP JUMPDEST PUSH2 0x36F4 JUMP JUMPDEST PUSH2 0x36F4 DUP6 DUP6 DUP6 PUSH2 0x3DC4 JUMP JUMPDEST DUP3 DUP3 PUSH1 0x1 ADD PUSH1 0x0 DUP3 DUP3 SLOAD PUSH2 0x3708 SWAP2 SWAP1 PUSH2 0x4B42 JUMP JUMPDEST SWAP1 SWAP2 SSTORE POP POP DUP1 SLOAD DUP4 SWAP1 DUP3 SWAP1 PUSH1 0x0 SWAP1 PUSH2 0x3721 SWAP1 DUP5 SWAP1 PUSH2 0x4B42 JUMP JUMPDEST SWAP1 SWAP2 SSTORE POP POP NUMBER PUSH1 0x6 DUP3 ADD SSTORE PUSH1 0x5 DUP1 SLOAD DUP5 SWAP2 SWAP1 PUSH1 0x0 SWAP1 PUSH2 0x3741 SWAP1 DUP5 SWAP1 PUSH2 0x4B42 JUMP JUMPDEST SWAP1 SWAP2 SSTORE POP PUSH1 0x2 SWAP1 POP DUP3 SLOAD PUSH1 0x1 PUSH1 0xA0 SHL SWAP1 DIV PUSH1 0xFF AND PUSH1 0x4 DUP2 GT ISZERO PUSH2 0x3766 JUMPI PUSH2 0x3766 PUSH2 0x4842 JUMP JUMPDEST EQ ISZERO DUP1 ISZERO PUSH2 0x3791 JUMPI POP PUSH1 0x4 DUP3 SLOAD PUSH1 0x1 PUSH1 0xA0 SHL SWAP1 DIV PUSH1 0xFF AND PUSH1 0x4 DUP2 GT ISZERO PUSH2 0x378E JUMPI PUSH2 0x378E PUSH2 0x4842 JUMP JUMPDEST EQ ISZERO JUMPDEST ISZERO PUSH2 0x37A8 JUMPI DUP2 SLOAD PUSH1 0xFF PUSH1 0xA0 SHL NOT AND PUSH1 0x1 PUSH1 0xA1 SHL OR DUP3 SSTORE JUMPDEST DUP4 PUSH1 0x1 PUSH1 0x1 PUSH1 0xA0 SHL SUB AND DUP6 PUSH1 0x1 PUSH1 0x1 PUSH1 0xA0 SHL SUB AND PUSH32 0x795C91E2FEF542F2E8BCCD08552A8961ECB158D0F47BE08F5C44B349993B07A9 DUP6 PUSH1 0x40 MLOAD PUSH2 0x37EB SWAP2 SWAP1 PUSH2 0x4159 JUMP JUMPDEST PUSH1 0x40 MLOAD DUP1 SWAP2 SUB SWAP1 LOG3 PUSH1 0x2 DUP3 SLOAD PUSH1 0x1 PUSH1 0xA0 SHL SWAP1 DIV PUSH1 0xFF AND PUSH1 0x4 DUP2 GT ISZERO PUSH2 0x3812 JUMPI PUSH2 0x3812 PUSH2 0x4842 JUMP JUMPDEST SUB PUSH2 0x265A JUMPI PUSH2 0x3202 DUP5 DUP4 PUSH1 0x1 ADD SLOAD PUSH2 0x2DA8 JUMP JUMPDEST PUSH1 0x0 DUP2 PUSH1 0x1 PUSH1 0x1 PUSH1 0x40 SHL SUB DUP2 GT ISZERO PUSH2 0x383F JUMPI PUSH2 0x383F PUSH2 0x45FF JUMP JUMPDEST PUSH1 0x40 MLOAD SWAP1 DUP1 DUP3 MSTORE DUP1 PUSH1 0x20 MUL PUSH1 0x20 ADD DUP3 ADD PUSH1 0x40 MSTORE DUP1 ISZERO PUSH2 0x3868 JUMPI DUP2 PUSH1 0x20 ADD PUSH1 0x20 DUP3 MUL DUP1 CALLDATASIZE DUP4 CALLDATACOPY ADD SWAP1 POP JUMPDEST POP SWAP1 POP PUSH1 0x0 DUP3 PUSH1 0x1 PUSH1 0x1 PUSH1 0x40 SHL SUB DUP2 GT ISZERO PUSH2 0x3885 JUMPI PUSH2 0x3885 PUSH2 0x45FF JUMP JUMPDEST PUSH1 0x40 MLOAD SWAP1 DUP1 DUP3 MSTORE DUP1 PUSH1 0x20 MUL PUSH1 0x20 ADD DUP3 ADD PUSH1 0x40 MSTORE DUP1 ISZERO PUSH2 0x38AE JUMPI DUP2 PUSH1 0x20 ADD PUSH1 0x20 DUP3 MUL DUP1 CALLDATASIZE DUP4 CALLDATACOPY ADD SWAP1 POP JUMPDEST POP SWAP1 POP PUSH1 0x0 DUP1 PUSH1 0x0 JUMPDEST PUSH1 0x4 SLOAD DUP2 LT ISZERO PUSH2 0x3A2C JUMPI PUSH1 0x4 PUSH1 0x1 PUSH1 0x0 PUSH1 0x4 DUP5 DUP2 SLOAD DUP2 LT PUSH2 0x38DA JUMPI PUSH2 0x38DA PUSH2 0x4ADC JUMP JUMPDEST PUSH1 0x0 SWAP2 DUP3 MSTORE PUSH1 0x20 DUP1 DUP4 KECCAK256 SWAP1 SWAP2 ADD SLOAD PUSH1 0x1 PUSH1 0x1 PUSH1 0xA0 SHL SUB AND DUP4 MSTORE DUP3 ADD SWAP3 SWAP1 SWAP3 MSTORE PUSH1 0x40 ADD SWAP1 KECCAK256 SLOAD PUSH1 0xFF PUSH1 0x1 PUSH1 0xA0 SHL SWAP1 SWAP2 DIV AND PUSH1 0x4 DUP2 GT ISZERO PUSH2 0x391B JUMPI PUSH2 0x391B PUSH2 0x4842 JUMP JUMPDEST EQ ISZERO DUP1 ISZERO PUSH2 0x3959 JUMPI POP DUP7 PUSH1 0x1 PUSH1 0x1 PUSH1 0xA0 SHL SUB AND PUSH1 0x4 DUP3 DUP2 SLOAD DUP2 LT PUSH2 0x3941 JUMPI PUSH2 0x3941 PUSH2 0x4ADC JUMP JUMPDEST PUSH1 0x0 SWAP2 DUP3 MSTORE PUSH1 0x20 SWAP1 SWAP2 KECCAK256 ADD SLOAD PUSH1 0x1 PUSH1 0x1 PUSH1 0xA0 SHL SUB AND EQ ISZERO JUMPDEST ISZERO PUSH2 0x3A1A JUMPI PUSH1 0x4 DUP2 DUP2 SLOAD DUP2 LT PUSH2 0x3971 JUMPI PUSH2 0x3971 PUSH2 0x4ADC JUMP JUMPDEST SWAP1 PUSH1 0x0 MSTORE PUSH1 0x20 PUSH1 0x0 KECCAK256 ADD PUSH1 0x0 SWAP1 SLOAD SWAP1 PUSH2 0x100 EXP SWAP1 DIV PUSH1 0x1 PUSH1 0x1 PUSH1 0xA0 SHL SUB AND DUP6 DUP4 DUP2 MLOAD DUP2 LT PUSH2 0x39A1 JUMPI PUSH2 0x39A1 PUSH2 0x4ADC JUMP JUMPDEST PUSH1 0x20 MUL PUSH1 0x20 ADD ADD SWAP1 PUSH1 0x1 PUSH1 0x1 PUSH1 0xA0 SHL SUB AND SWAP1 DUP2 PUSH1 0x1 PUSH1 0x1 PUSH1 0xA0 SHL SUB AND DUP2 MSTORE POP POP PUSH1 0x1 PUSH1 0x0 PUSH1 0x4 DUP4 DUP2 SLOAD DUP2 LT PUSH2 0x39D8 JUMPI PUSH2 0x39D8 PUSH2 0x4ADC JUMP JUMPDEST PUSH1 0x0 SWAP2 DUP3 MSTORE PUSH1 0x20 DUP1 DUP4 KECCAK256 SWAP1 SWAP2 ADD SLOAD PUSH1 0x1 PUSH1 0x1 PUSH1 0xA0 SHL SUB AND DUP4 MSTORE DUP3 ADD SWAP3 SWAP1 SWAP3 MSTORE PUSH1 0x40 ADD SWAP1 KECCAK256 PUSH1 0x1 ADD SLOAD PUSH2 0x3A0A SWAP1 DUP5 PUSH2 0x4B42 JUMP JUMPDEST SWAP3 POP DUP2 PUSH2 0x3A16 DUP2 PUSH2 0x4AF2 JUMP JUMPDEST SWAP3 POP POP JUMPDEST DUP1 PUSH2 0x3A24 DUP2 PUSH2 0x4AF2 JUMP JUMPDEST SWAP2 POP POP PUSH2 0x38B7 JUMP JUMPDEST POP PUSH1 0x0 DUP1 JUMPDEST DUP7 DUP2 LT ISZERO PUSH2 0x3B0E JUMPI PUSH1 0x0 DUP5 ISZERO PUSH2 0x3AA0 JUMPI DUP5 PUSH1 0x1 PUSH1 0x0 DUP10 DUP6 DUP2 MLOAD DUP2 LT PUSH2 0x3A58 JUMPI PUSH2 0x3A58 PUSH2 0x4ADC JUMP JUMPDEST PUSH1 0x20 MUL PUSH1 0x20 ADD ADD MLOAD PUSH1 0x1 PUSH1 0x1 PUSH1 0xA0 SHL SUB AND PUSH1 0x1 PUSH1 0x1 PUSH1 0xA0 SHL SUB AND DUP2 MSTORE PUSH1 0x20 ADD SWAP1 DUP2 MSTORE PUSH1 0x20 ADD PUSH1 0x0 KECCAK256 PUSH1 0x1 ADD SLOAD DUP12 PUSH2 0x3A8F SWAP2 SWAP1 PUSH2 0x4A88 JUMP JUMPDEST PUSH2 0x3A99 SWAP2 SWAP1 PUSH2 0x4AB5 JUMP JUMPDEST SWAP1 POP PUSH2 0x3AAD JUMP JUMPDEST PUSH2 0x3AAA DUP9 DUP12 PUSH2 0x4AB5 JUMP JUMPDEST SWAP1 POP JUMPDEST PUSH2 0x3AD0 DUP8 DUP4 DUP2 MLOAD DUP2 LT PUSH2 0x3AC2 JUMPI PUSH2 0x3AC2 PUSH2 0x4ADC JUMP JUMPDEST PUSH1 0x20 MUL PUSH1 0x20 ADD ADD MLOAD DUP3 PUSH2 0x3E8E JUMP JUMPDEST DUP1 DUP7 DUP4 DUP2 MLOAD DUP2 LT PUSH2 0x3AE3 JUMPI PUSH2 0x3AE3 PUSH2 0x4ADC JUMP JUMPDEST PUSH1 0x20 SWAP1 DUP2 MUL SWAP2 SWAP1 SWAP2 ADD ADD MSTORE PUSH2 0x3AF8 DUP2 DUP5 PUSH2 0x4B42 JUMP JUMPDEST SWAP3 POP POP DUP1 DUP1 PUSH2 0x3B06 SWAP1 PUSH2 0x4AF2 JUMP JUMPDEST SWAP2 POP POP PUSH2 0x3A31 JUMP JUMPDEST POP PUSH2 0x3B23 PUSH2 0x3B1C DUP3 DUP11 PUSH2 0x4AC9 JUMP JUMPDEST DUP7 DUP7 PUSH2 0x3F73 JUMP JUMPDEST PUSH32 0xD71BB710CD55FD674B86B6D8349571D9467F07C45170642BF524BA287653D837 DUP6 DUP6 DUP11 PUSH2 0x3B51 DUP6 DUP3 PUSH2 0x4AC9 JUMP JUMPDEST PUSH1 0x40 MLOAD PUSH2 0x3B61 SWAP5 SWAP4 SWAP3 SWAP2 SWAP1 PUSH2 0x56EC JUMP JUMPDEST PUSH1 0x40 MLOAD DUP1 SWAP2 SUB SWAP1 LOG1 POP POP POP POP POP POP POP POP JUMP JUMPDEST PUSH1 0x1 PUSH1 0x1 PUSH1 0xA0 SHL SUB DUP1 DUP4 AND PUSH1 0x0 SWAP1 DUP2 MSTORE PUSH1 0x2 PUSH1 0x20 SWAP1 DUP2 MSTORE PUSH1 0x40 DUP1 DUP4 KECCAK256 SWAP4 DUP6 AND DUP4 MSTORE SWAP3 DUP2 MSTORE DUP3 DUP3 KECCAK256 PUSH1 0x1 SWAP1 SWAP2 MSTORE SWAP2 SWAP1 KECCAK256 PUSH1 0x9 DUP2 ADD SLOAD PUSH2 0x3BC3 JUMPI PUSH1 0x40 MLOAD PUSH3 0x461BCD PUSH1 0xE5 SHL DUP2 MSTORE PUSH1 0x4 ADD PUSH2 0x77E SWAP1 PUSH2 0x5758 JUMP JUMPDEST PUSH1 0x9 DUP2 ADD SLOAD PUSH1 0x2 DUP4 ADD SLOAD LT PUSH2 0x3BEA JUMPI PUSH1 0x40 MLOAD PUSH3 0x461BCD PUSH1 0xE5 SHL DUP2 MSTORE PUSH1 0x4 ADD PUSH2 0x77E SWAP1 PUSH2 0x578A JUMP JUMPDEST PUSH1 0x9 DUP2 ADD SLOAD PUSH2 0x3BFB SWAP1 PUSH1 0x1 SWAP1 PUSH2 0x4AC9 JUMP JUMPDEST DUP3 PUSH1 0x2 ADD SLOAD EQ PUSH2 0x3CE7 JUMPI PUSH1 0x9 DUP2 ADD DUP1 SLOAD PUSH2 0x3C17 SWAP1 PUSH1 0x1 SWAP1 PUSH2 0x4AC9 JUMP JUMPDEST DUP2 SLOAD DUP2 LT PUSH2 0x3C27 JUMPI PUSH2 0x3C27 PUSH2 0x4ADC JUMP JUMPDEST SWAP1 PUSH1 0x0 MSTORE PUSH1 0x20 PUSH1 0x0 KECCAK256 ADD PUSH1 0x0 SWAP1 SLOAD SWAP1 PUSH2 0x100 EXP SWAP1 DIV PUSH1 0x1 PUSH1 0x1 PUSH1 0xA0 SHL SUB AND DUP2 PUSH1 0x9 ADD DUP4 PUSH1 0x2 ADD SLOAD DUP2 SLOAD DUP2 LT PUSH2 0x3C5E JUMPI PUSH2 0x3C5E PUSH2 0x4ADC JUMP JUMPDEST SWAP1 PUSH1 0x0 MSTORE PUSH1 0x20 PUSH1 0x0 KECCAK256 ADD PUSH1 0x0 PUSH2 0x100 EXP DUP2 SLOAD DUP2 PUSH1 0x1 PUSH1 0x1 PUSH1 0xA0 SHL SUB MUL NOT AND SWAP1 DUP4 PUSH1 0x1 PUSH1 0x1 PUSH1 0xA0 SHL SUB AND MUL OR SWAP1 SSTORE POP DUP2 PUSH1 0x2 ADD SLOAD PUSH1 0x2 PUSH1 0x0 DUP4 PUSH1 0x9 ADD DUP6 PUSH1 0x2 ADD SLOAD DUP2 SLOAD DUP2 LT PUSH2 0x3CAE JUMPI PUSH2 0x3CAE PUSH2 0x4ADC JUMP JUMPDEST PUSH1 0x0 SWAP2 DUP3 MSTORE PUSH1 0x20 DUP1 DUP4 KECCAK256 SWAP1 SWAP2 ADD SLOAD PUSH1 0x1 PUSH1 0x1 PUSH1 0xA0 SHL SUB SWAP1 DUP2 AND DUP5 MSTORE DUP4 DUP3 ADD SWAP5 SWAP1 SWAP5 MSTORE PUSH1 0x40 SWAP3 DUP4 ADD DUP3 KECCAK256 SWAP4 DUP9 AND DUP3 MSTORE SWAP3 SWAP1 SWAP3 MSTORE SWAP1 KECCAK256 PUSH1 0x2 ADD SSTORE JUMPDEST DUP1 PUSH1 0x9 ADD DUP1 SLOAD DUP1 PUSH2 0x3CFA JUMPI PUSH2 0x3CFA PUSH2 0x55A8 JUMP JUMPDEST PUSH1 0x0 DUP3 DUP2 MSTORE PUSH1 0x20 SWAP1 KECCAK256 DUP2 ADD PUSH1 0x0 NOT SWAP1 DUP2 ADD DUP1 SLOAD PUSH1 0x1 PUSH1 0x1 PUSH1 0xA0 SHL SUB NOT AND SWAP1 SSTORE SWAP1 DUP2 ADD SWAP1 SWAP2 SSTORE PUSH1 0x2 SWAP1 SWAP3 ADD SWAP2 SWAP1 SWAP2 SSTORE POP POP POP JUMP JUMPDEST PUSH1 0x1 PUSH1 0x1 PUSH1 0xA0 SHL SUB DUP1 DUP4 AND PUSH1 0x0 DUP2 DUP2 MSTORE PUSH1 0x1 PUSH1 0x20 DUP2 DUP2 MSTORE PUSH1 0x40 DUP1 DUP5 KECCAK256 SWAP6 DUP10 AND DUP1 DUP6 MSTORE PUSH1 0x2 DUP1 DUP5 MSTORE DUP3 DUP7 KECCAK256 SWAP7 DUP7 MSTORE SWAP6 DUP4 MSTORE SWAP1 DUP5 KECCAK256 PUSH1 0x9 DUP8 ADD DUP1 SLOAD SWAP7 DUP3 ADD DUP8 SWAP1 SSTORE SWAP4 DUP7 ADD DUP5 SSTORE SWAP3 DUP5 MSTORE SWAP3 KECCAK256 SWAP1 SWAP3 ADD DUP1 SLOAD PUSH1 0x1 PUSH1 0x1 PUSH1 0xA0 SHL SUB NOT AND SWAP1 SWAP2 OR SWAP1 SSTORE PUSH1 0xC DUP3 ADD SLOAD PUSH8 0xDE0B6B3A7640000 SWAP1 PUSH2 0x3DA4 SWAP1 DUP6 SWAP1 PUSH2 0x4A88 JUMP JUMPDEST PUSH2 0x3DAE SWAP2 SWAP1 PUSH2 0x4AB5 JUMP JUMPDEST PUSH1 0x3 DUP3 ADD SSTORE PUSH1 0xD SWAP1 SWAP2 ADD SLOAD PUSH1 0x5 SWAP1 SWAP2 ADD SSTORE POP POP POP JUMP JUMPDEST PUSH1 0x1 PUSH1 0x1 PUSH1 0xA0 SHL SUB DUP1 DUP4 AND PUSH1 0x0 DUP2 DUP2 MSTORE PUSH1 0x1 PUSH1 0x20 DUP2 DUP2 MSTORE PUSH1 0x40 DUP1 DUP5 KECCAK256 SWAP6 DUP10 AND DUP5 MSTORE PUSH1 0x2 DUP1 DUP4 MSTORE DUP2 DUP6 KECCAK256 SWAP6 DUP6 MSTORE SWAP5 SWAP1 SWAP2 MSTORE SWAP1 SWAP2 KECCAK256 SWAP2 DUP3 ADD SLOAD ADD PUSH2 0x3E38 JUMPI PUSH1 0x9 DUP3 ADD DUP1 SLOAD PUSH1 0x2 DUP4 ADD DUP2 SWAP1 SSTORE PUSH1 0x1 DUP2 ADD DUP3 SSTORE PUSH1 0x0 SWAP2 DUP3 MSTORE PUSH1 0x20 SWAP1 SWAP2 KECCAK256 ADD DUP1 SLOAD PUSH1 0x1 PUSH1 0x1 PUSH1 0xA0 SHL SUB NOT AND PUSH1 0x1 PUSH1 0x1 PUSH1 0xA0 SHL SUB DUP8 AND OR SWAP1 SSTORE JUMPDEST PUSH2 0x3E42 DUP6 DUP6 PUSH2 0x25C0 JUMP JUMPDEST PUSH8 0xDE0B6B3A7640000 DUP4 DUP4 PUSH1 0xC ADD SLOAD PUSH2 0x3E5B SWAP2 SWAP1 PUSH2 0x4A88 JUMP JUMPDEST PUSH2 0x3E65 SWAP2 SWAP1 PUSH2 0x4AB5 JUMP JUMPDEST DUP2 PUSH1 0x3 ADD PUSH1 0x0 DUP3 DUP3 SLOAD PUSH2 0x3E78 SWAP2 SWAP1 PUSH2 0x4B42 JUMP JUMPDEST SWAP1 SWAP2 SSTORE POP POP PUSH1 0xD SWAP1 SWAP2 ADD SLOAD PUSH1 0x5 SWAP1 SWAP2 ADD SSTORE POP POP POP JUMP JUMPDEST DUP1 PUSH1 0x0 SUB PUSH2 0x3E9A JUMPI POP POP JUMP JUMPDEST PUSH1 0x1 PUSH1 0x1 PUSH1 0xA0 SHL SUB DUP3 AND PUSH1 0x0 SWAP1 DUP2 MSTORE PUSH1 0x1 PUSH1 0x20 MSTORE PUSH1 0x40 DUP2 KECCAK256 PUSH1 0xA DUP2 ADD SLOAD SWAP1 SWAP2 SWAP1 PUSH2 0x2710 SWAP1 PUSH2 0x3EC8 SWAP1 DUP6 PUSH2 0x4A88 JUMP JUMPDEST PUSH2 0x3ED2 SWAP2 SWAP1 PUSH2 0x4AB5 JUMP JUMPDEST SWAP1 POP PUSH1 0x0 PUSH2 0x3EE0 DUP3 DUP6 PUSH2 0x4AC9 JUMP JUMPDEST SWAP1 POP DUP2 DUP4 PUSH1 0x6 ADD PUSH1 0x0 DUP3 DUP3 SLOAD PUSH2 0x3EF6 SWAP2 SWAP1 PUSH2 0x4B42 JUMP JUMPDEST SWAP1 SWAP2 SSTORE POP POP PUSH1 0x1 DUP4 ADD SLOAD ISZERO DUP1 ISZERO SWAP1 PUSH2 0x3F0E JUMPI POP PUSH1 0x0 DUP2 GT JUMPDEST ISZERO PUSH2 0x3F66 JUMPI DUP1 DUP4 PUSH1 0xB ADD PUSH1 0x0 DUP3 DUP3 SLOAD PUSH2 0x3F27 SWAP2 SWAP1 PUSH2 0x4B42 JUMP JUMPDEST SWAP1 SWAP2 SSTORE POP POP PUSH1 0x1 DUP4 ADD SLOAD PUSH2 0x3F43 PUSH8 0xDE0B6B3A7640000 DUP4 PUSH2 0x4A88 JUMP JUMPDEST PUSH2 0x3F4D SWAP2 SWAP1 PUSH2 0x4AB5 JUMP JUMPDEST DUP4 PUSH1 0xC ADD PUSH1 0x0 DUP3 DUP3 SLOAD PUSH2 0x3F60 SWAP2 SWAP1 PUSH2 0x4B42 JUMP JUMPDEST SWAP1 SWAP2 SSTORE POP POP JUMPDEST POP POP NUMBER PUSH1 0xE SWAP1 SWAP2 ADD SSTORE POP POP JUMP JUMPDEST PUSH1 0x0 DUP4 GT DUP1 ISZERO PUSH2 0x3F84 JUMPI POP PUSH1 0x0 DUP3 MLOAD GT JUMPDEST ISZERO PUSH2 0x2727 JUMPI DUP3 PUSH1 0xB PUSH1 0x0 DUP3 DUP3 SLOAD PUSH2 0x3F9B SWAP2 SWAP1 PUSH2 0x4B42 JUMP JUMPDEST SWAP1 SWAP2 SSTORE POP POP PUSH1 0xB SLOAD PUSH7 0x38D7EA4C68000 GT ISZERO DUP1 PUSH2 0x3FC0 JUMPI POP PUSH2 0x3FBE PUSH1 0x64 NUMBER PUSH2 0x4E55 JUMP JUMPDEST ISZERO JUMPDEST ISZERO PUSH2 0x2727 JUMPI PUSH1 0xB DUP1 SLOAD PUSH1 0x0 SWAP2 DUP3 SWAP1 SSTORE DUP4 MLOAD SWAP1 SWAP2 SWAP1 PUSH2 0x3FDE SWAP1 DUP4 PUSH2 0x4AB5 JUMP JUMPDEST SWAP1 POP PUSH1 0x0 DUP5 MLOAD DUP3 PUSH2 0x3FEF SWAP2 SWAP1 PUSH2 0x4A88 JUMP JUMPDEST PUSH2 0x3FF9 SWAP1 DUP5 PUSH2 0x4AC9 JUMP JUMPDEST SWAP1 POP PUSH1 0x0 JUMPDEST DUP6 MLOAD DUP2 LT ISZERO PUSH2 0x4071 JUMPI DUP3 PUSH1 0x0 DUP3 SWAP1 SUB PUSH2 0x401E JUMPI PUSH2 0x401B DUP4 DUP3 PUSH2 0x4B42 JUMP JUMPDEST SWAP1 POP JUMPDEST PUSH2 0x4033 DUP8 DUP4 DUP2 MLOAD DUP2 LT PUSH2 0x3AC2 JUMPI PUSH2 0x3AC2 PUSH2 0x4ADC JUMP JUMPDEST DUP1 DUP7 DUP4 DUP2 MLOAD DUP2 LT PUSH2 0x4046 JUMPI PUSH2 0x4046 PUSH2 0x4ADC JUMP JUMPDEST PUSH1 0x20 MUL PUSH1 0x20 ADD ADD DUP2 DUP2 MLOAD PUSH2 0x405A SWAP2 SWAP1 PUSH2 0x4B42 JUMP JUMPDEST SWAP1 MSTORE POP DUP2 SWAP1 POP PUSH2 0x4069 DUP2 PUSH2 0x4AF2 JUMP JUMPDEST SWAP2 POP POP PUSH2 0x3FFE JUMP JUMPDEST POP POP POP POP POP POP POP JUMP JUMPDEST DUP3 DUP1 SLOAD DUP3 DUP3 SSTORE SWAP1 PUSH1 0x0 MSTORE PUSH1 0x20 PUSH1 0x0 KECCAK256 SWAP1 DUP2 ADD SWAP3 DUP3 ISZERO PUSH2 0x40BA JUMPI PUSH1 0x0 MSTORE PUSH1 0x20 PUSH1 0x0 KECCAK256 SWAP2 DUP3 ADD JUMPDEST DUP3 DUP2 GT ISZERO PUSH2 0x40BA JUMPI DUP3 SLOAD DUP3 SSTORE SWAP2 PUSH1 0x1 ADD SWAP2 SWAP1 PUSH1 0x1 ADD SWAP1 PUSH2 0x409F JUMP JUMPDEST POP PUSH2 0x40C6 SWAP3 SWAP2 POP PUSH2 0x40CA JUMP JUMPDEST POP SWAP1 JUMP JUMPDEST JUMPDEST DUP1 DUP3 GT ISZERO PUSH2 0x40C6 JUMPI PUSH1 0x0 DUP2 SSTORE PUSH1 0x1 ADD PUSH2 0x40CB JUMP JUMPDEST DUP1 JUMPDEST DUP2 EQ PUSH2 0x40EC JUMPI PUSH1 0x0 DUP1 REVERT JUMPDEST POP JUMP JUMPDEST DUP1 CALLDATALOAD PUSH2 0x1379 DUP2 PUSH2 0x40DF JUMP JUMPDEST PUSH1 0x0 PUSH1 0x20 DUP3 DUP5 SUB SLT ISZERO PUSH2 0x410F JUMPI PUSH2 0x410F PUSH1 0x0 DUP1 REVERT JUMPDEST PUSH1 0x0 PUSH2 0x411B DUP5 DUP5 PUSH2 0x40EF JUMP JUMPDEST SWAP5 SWAP4 POP POP POP POP JUMP JUMPDEST DUP1 ISZERO ISZERO JUMPDEST DUP3 MSTORE POP POP JUMP JUMPDEST PUSH1 0x20 DUP2 ADD PUSH2 0x1379 DUP3 DUP5 PUSH2 0x4123 JUMP JUMPDEST PUSH2 0xFFFF DUP2 AND PUSH2 0x4127 JUMP JUMPDEST PUSH1 0x20 DUP2 ADD PUSH2 0x1379 DUP3 DUP5 PUSH2 0x413B JUMP JUMPDEST DUP1 PUSH2 0x4127 JUMP JUMPDEST PUSH1 0x20 DUP2 ADD PUSH2 0x1379 DUP3 DUP5 PUSH2 0x4153 JUMP JUMPDEST PUSH1 0x0 PUSH1 0x1 PUSH1 0x1 PUSH1 0xA0 SHL SUB DUP3 AND PUSH2 0xF0B JUMP JUMPDEST PUSH2 0x40E1 DUP2 PUSH2 0x4167 JUMP JUMPDEST DUP1 CALLDATALOAD PUSH2 0x1379 DUP2 PUSH2 0x4178 JUMP JUMPDEST PUSH1 0x0 DUP1 DUP4 PUSH1 0x1F DUP5 ADD SLT PUSH2 0x41A1 JUMPI PUSH2 0x41A1 PUSH1 0x0 DUP1 REVERT JUMPDEST POP DUP2 CALLDATALOAD PUSH1 0x1 PUSH1 0x1 PUSH1 0x40 SHL SUB DUP2 GT ISZERO PUSH2 0x41BB JUMPI PUSH2 0x41BB PUSH1 0x0 DUP1 REVERT JUMPDEST PUSH1 0x20 DUP4 ADD SWAP2 POP DUP4 PUSH1 0x1 DUP3 MUL DUP4 ADD GT ISZERO PUSH2 0x41D6 JUMPI PUSH2 0x41D6 PUSH1 0x0 DUP1 REVERT JUMPDEST SWAP3 POP SWAP3 SWAP1 POP JUMP JUMPDEST PUSH1 0x0 DUP1 PUSH1 0x0 DUP1 PUSH1 0x0 DUP1 PUSH1 0x0 DUP1 PUSH1 0x0 DUP1 PUSH1 0xC0 DUP12 DUP14 SUB SLT ISZERO PUSH2 0x41FF JUMPI PUSH2 0x41FF PUSH1 0x0 DUP1 REVERT JUMPDEST PUSH1 0x0 PUSH2 0x420B DUP14 DUP14 PUSH2 0x4181 JUMP JUMPDEST SWAP11 POP POP PUSH1 0x20 DUP12 ADD CALLDATALOAD PUSH1 0x1 PUSH1 0x1 PUSH1 0x40 SHL SUB DUP2 GT ISZERO PUSH2 0x422A JUMPI PUSH2 0x422A PUSH1 0x0 DUP1 REVERT JUMPDEST PUSH2 0x4236 DUP14 DUP3 DUP15 ADD PUSH2 0x418C JUMP JUMPDEST SWAP10 POP SWAP10 POP POP PUSH1 0x40 DUP12 ADD CALLDATALOAD PUSH1 0x1 PUSH1 0x1 PUSH1 0x40 SHL SUB DUP2 GT ISZERO PUSH2 0x4257 JUMPI PUSH2 0x4257 PUSH1 0x0 DUP1 REVERT JUMPDEST PUSH2 0x4263 DUP14 DUP3 DUP15 ADD PUSH2 0x418C JUMP JUMPDEST SWAP8 POP SWAP8 POP POP PUSH1 0x60 DUP12 ADD CALLDATALOAD PUSH1 0x1 PUSH1 0x1 PUSH1 0x40 SHL SUB DUP2 GT ISZERO PUSH2 0x4284 JUMPI PUSH2 0x4284 PUSH1 0x0 DUP1 REVERT JUMPDEST PUSH2 0x4290 DUP14 DUP3 DUP15 ADD PUSH2 0x418C JUMP JUMPDEST SWAP6 POP SWAP6 POP POP PUSH1 0x80 DUP12 ADD CALLDATALOAD PUSH1 0x1 PUSH1 0x1 PUSH1 0x40 SHL SUB DUP2 GT ISZERO PUSH2 0x42B1 JUMPI PUSH2 0x42B1 PUSH1 0x0 DUP1 REVERT JUMPDEST PUSH2 0x42BD DUP14 DUP3 DUP15 ADD PUSH2 0x418C JUMP JUMPDEST SWAP4 POP SWAP4 POP POP PUSH1 0xA0 PUSH2 0x42D0 DUP14 DUP3 DUP15 ADD PUSH2 0x40EF JUMP JUMPDEST SWAP2 POP POP SWAP3 SWAP6 SWAP9 SWAP12 SWAP2 SWAP5 SWAP8 SWAP11 POP SWAP3 SWAP6 SWAP9 POP JUMP JUMPDEST PUSH1 0x0 PUSH1 0x20 DUP3 DUP5 SUB SLT ISZERO PUSH2 0x42F7 JUMPI PUSH2 0x42F7 PUSH1 0x0 DUP1 REVERT JUMPDEST PUSH1 0x0 PUSH2 0x411B DUP5 DUP5 PUSH2 0x4181 JUMP JUMPDEST PUSH2 0x4127 DUP2 PUSH2 0x4167 JUMP JUMPDEST PUSH1 0x20 DUP2 ADD PUSH2 0x1379 DUP3 DUP5 PUSH2 0x4303 JUMP JUMPDEST PUSH1 0x0 DUP1 PUSH1 0x40 DUP4 DUP6 SUB SLT ISZERO PUSH2 0x4330 JUMPI PUSH2 0x4330 PUSH1 0x0 DUP1 REVERT JUMPDEST PUSH1 0x0 PUSH2 0x433C DUP6 DUP6 PUSH2 0x4181 JUMP JUMPDEST SWAP3 POP POP PUSH1 0x20 PUSH2 0x434D DUP6 DUP3 DUP7 ADD PUSH2 0x4181 JUMP JUMPDEST SWAP2 POP POP SWAP3 POP SWAP3 SWAP1 POP JUMP JUMPDEST PUSH1 0x0 JUMPDEST DUP4 DUP2 LT ISZERO PUSH2 0x4372 JUMPI DUP2 DUP2 ADD MLOAD DUP4 DUP3 ADD MSTORE PUSH1 0x20 ADD PUSH2 0x435A JUMP JUMPDEST POP POP PUSH1 0x0 SWAP2 ADD MSTORE JUMP JUMPDEST PUSH1 0x0 PUSH2 0x4385 DUP3 MLOAD SWAP1 JUMP JUMPDEST DUP1 DUP5 MSTORE PUSH1 0x20 DUP5 ADD SWAP4 POP PUSH2 0x439C DUP2 DUP6 PUSH1 0x20 DUP7 ADD PUSH2 0x4357 JUMP JUMPDEST PUSH1 0x1F ADD PUSH1 0x1F NOT AND SWAP3 SWAP1 SWAP3 ADD SWAP3 SWAP2 POP POP JUMP JUMPDEST PUSH1 0xC0 DUP2 ADD PUSH2 0x43BB DUP3 DUP10 PUSH2 0x4303 JUMP JUMPDEST DUP2 DUP2 SUB PUSH1 0x20 DUP4 ADD MSTORE PUSH2 0x43CD DUP2 DUP9 PUSH2 0x437B JUMP JUMPDEST SWAP1 POP PUSH2 0x43DC PUSH1 0x40 DUP4 ADD DUP8 PUSH2 0x4153 JUMP JUMPDEST PUSH2 0x43E9 PUSH1 0x60 DUP4 ADD DUP7 PUSH2 0x4153 JUMP JUMPDEST PUSH2 0x43F6 PUSH1 0x80 DUP4 ADD DUP6 PUSH2 0x4153 JUMP JUMPDEST PUSH2 0x4403 PUSH1 0xA0 DUP4 ADD DUP5 PUSH2 0x4153 JUMP JUMPDEST SWAP8 SWAP7 POP POP POP POP POP POP POP JUMP JUMPDEST PUSH2 0x4418 DUP3 DUP3 PUSH2 0x4303 JUMP JUMPDEST POP PUSH1 0x20 ADD SWAP1 JUMP JUMPDEST PUSH1 0x20 ADD SWAP1 JUMP JUMPDEST PUSH1 0x0 PUSH2 0x442F DUP3 MLOAD SWAP1 JUMP JUMPDEST DUP1 DUP5 MSTORE PUSH1 0x20 SWAP4 DUP5 ADD SWAP4 DUP4 ADD PUSH1 0x0 JUMPDEST DUP3 DUP2 LT ISZERO PUSH2 0x4462 JUMPI DUP2 MLOAD PUSH2 0x4451 DUP8 DUP3 PUSH2 0x440E JUMP JUMPDEST SWAP7 POP POP PUSH1 0x20 DUP3 ADD SWAP2 POP PUSH1 0x1 ADD PUSH2 0x443D JUMP JUMPDEST POP SWAP4 SWAP5 SWAP4 POP POP POP POP JUMP JUMPDEST PUSH1 0x20 DUP1 DUP3 MSTORE DUP2 ADD PUSH2 0x2867 DUP2 DUP5 PUSH2 0x4425 JUMP JUMPDEST PUSH1 0x0 DUP1 PUSH1 0x0 DUP1 PUSH1 0x0 DUP1 PUSH1 0x0 DUP1 PUSH1 0x0 PUSH1 0xA0 DUP11 DUP13 SUB SLT ISZERO PUSH2 0x449E JUMPI PUSH2 0x449E PUSH1 0x0 DUP1 REVERT JUMPDEST PUSH1 0x0 PUSH2 0x44AA DUP13 DUP13 PUSH2 0x4181 JUMP JUMPDEST SWAP10 POP POP PUSH1 0x20 DUP11 ADD CALLDATALOAD PUSH1 0x1 PUSH1 0x1 PUSH1 0x40 SHL SUB DUP2 GT ISZERO PUSH2 0x44C9 JUMPI PUSH2 0x44C9 PUSH1 0x0 DUP1 REVERT JUMPDEST PUSH2 0x44D5 DUP13 DUP3 DUP14 ADD PUSH2 0x418C JUMP JUMPDEST SWAP9 POP SWAP9 POP POP PUSH1 0x40 DUP11 ADD CALLDATALOAD PUSH1 0x1 PUSH1 0x1 PUSH1 0x40 SHL SUB DUP2 GT ISZERO PUSH2 0x44F6 JUMPI PUSH2 0x44F6 PUSH1 0x0 DUP1 REVERT JUMPDEST PUSH2 0x4502 DUP13 DUP3 DUP14 ADD PUSH2 0x418C JUMP JUMPDEST SWAP7 POP SWAP7 POP POP PUSH1 0x60 DUP11 ADD CALLDATALOAD PUSH1 0x1 PUSH1 0x1 PUSH1 0x40 SHL SUB DUP2 GT ISZERO PUSH2 0x4523 JUMPI PUSH2 0x4523 PUSH1 0x0 DUP1 REVERT JUMPDEST PUSH2 0x452F DUP13 DUP3 DUP14 ADD PUSH2 0x418C JUMP JUMPDEST SWAP5 POP SWAP5 POP POP PUSH1 0x80 DUP11 ADD CALLDATALOAD PUSH1 0x1 PUSH1 0x1 PUSH1 0x40 SHL SUB DUP2 GT ISZERO PUSH2 0x4550 JUMPI PUSH2 0x4550 PUSH1 0x0 DUP1 REVERT JUMPDEST PUSH2 0x455C DUP13 DUP3 DUP14 ADD PUSH2 0x418C JUMP JUMPDEST SWAP3 POP SWAP3 POP POP SWAP3 SWAP6 SWAP9 POP SWAP3 SWAP6 SWAP9 POP SWAP3 SWAP6 SWAP9 JUMP JUMPDEST PUSH1 0x0 DUP1 DUP4 PUSH1 0x1F DUP5 ADD SLT PUSH2 0x4583 JUMPI PUSH2 0x4583 PUSH1 0x0 DUP1 REVERT JUMPDEST POP DUP2 CALLDATALOAD PUSH1 0x1 PUSH1 0x1 PUSH1 0x40 SHL SUB DUP2 GT ISZERO PUSH2 0x459D JUMPI PUSH2 0x459D PUSH1 0x0 DUP1 REVERT JUMPDEST PUSH1 0x20 DUP4 ADD SWAP2 POP DUP4 PUSH1 0x20 DUP3 MUL DUP4 ADD GT ISZERO PUSH2 0x41D6 JUMPI PUSH2 0x41D6 PUSH1 0x0 DUP1 REVERT JUMPDEST PUSH1 0x0 DUP1 PUSH1 0x20 DUP4 DUP6 SUB SLT ISZERO PUSH2 0x45CE JUMPI PUSH2 0x45CE PUSH1 0x0 DUP1 REVERT JUMPDEST DUP3 CALLDATALOAD PUSH1 0x1 PUSH1 0x1 PUSH1 0x40 SHL SUB DUP2 GT ISZERO PUSH2 0x45E7 JUMPI PUSH2 0x45E7 PUSH1 0x0 DUP1 REVERT JUMPDEST PUSH2 0x45F3 DUP6 DUP3 DUP7 ADD PUSH2 0x456E JUMP JUMPDEST SWAP3 POP SWAP3 POP POP SWAP3 POP SWAP3 SWAP1 POP JUMP JUMPDEST PUSH4 0x4E487B71 PUSH1 0xE0 SHL PUSH1 0x0 MSTORE PUSH1 0x41 PUSH1 0x4 MSTORE PUSH1 0x24 PUSH1 0x0 REVERT JUMPDEST PUSH1 0x1F NOT PUSH1 0x1F DUP4 ADD AND DUP2 ADD DUP2 DUP2 LT PUSH1 0x1 PUSH1 0x1 PUSH1 0x40 SHL SUB DUP3 GT OR ISZERO PUSH2 0x463A JUMPI PUSH2 0x463A PUSH2 0x45FF JUMP JUMPDEST PUSH1 0x40 MSTORE POP POP JUMP JUMPDEST PUSH1 0x0 PUSH2 0x464C PUSH1 0x40 MLOAD SWAP1 JUMP JUMPDEST SWAP1 POP PUSH2 0xF0E DUP3 DUP3 PUSH2 0x4615 JUMP JUMPDEST PUSH1 0x0 PUSH1 0x1 PUSH1 0x1 PUSH1 0x40 SHL SUB DUP3 GT ISZERO PUSH2 0x4671 JUMPI PUSH2 0x4671 PUSH2 0x45FF JUMP JUMPDEST PUSH1 0x1F NOT PUSH1 0x1F DUP4 ADD AND PUSH1 0x20 ADD SWAP3 SWAP2 POP POP JUMP JUMPDEST DUP3 DUP2 DUP4 CALLDATACOPY POP PUSH1 0x0 SWAP2 ADD MSTORE JUMP JUMPDEST PUSH1 0x0 PUSH2 0x46A1 PUSH2 0x469C DUP5 PUSH2 0x4658 JUMP JUMPDEST PUSH2 0x4641 JUMP JUMPDEST SWAP1 POP DUP3 DUP2 MSTORE PUSH1 0x20 DUP2 ADD DUP5 DUP5 DUP5 ADD GT ISZERO PUSH2 0x46BC JUMPI PUSH2 0x46BC PUSH1 0x0 DUP1 REVERT JUMPDEST PUSH2 0x46C7 DUP5 DUP3 DUP6 PUSH2 0x4682 JUMP JUMPDEST POP SWAP4 SWAP3 POP POP POP JUMP JUMPDEST PUSH1 0x0 DUP3 PUSH1 0x1F DUP4 ADD SLT PUSH2 0x46E3 JUMPI PUSH2 0x46E3 PUSH1 0x0 DUP1 REVERT JUMPDEST DUP2 CALLDATALOAD PUSH2 0x411B DUP5 DUP3 PUSH1 0x20 DUP7 ADD PUSH2 0x468E JUMP JUMPDEST PUSH1 0x0 DUP1 PUSH1 0x0 DUP1 PUSH1 0x80 DUP6 DUP8 SUB SLT ISZERO PUSH2 0x470C JUMPI PUSH2 0x470C PUSH1 0x0 DUP1 REVERT JUMPDEST DUP5 CALLDATALOAD PUSH1 0x1 PUSH1 0x1 PUSH1 0x40 SHL SUB DUP2 GT ISZERO PUSH2 0x4725 JUMPI PUSH2 0x4725 PUSH1 0x0 DUP1 REVERT JUMPDEST PUSH2 0x4731 DUP8 DUP3 DUP9 ADD PUSH2 0x46CF JUMP JUMPDEST SWAP5 POP POP PUSH1 0x20 DUP6 ADD CALLDATALOAD PUSH1 0x1 PUSH1 0x1 PUSH1 0x40 SHL SUB DUP2 GT ISZERO PUSH2 0x4750 JUMPI PUSH2 0x4750 PUSH1 0x0 DUP1 REVERT JUMPDEST PUSH2 0x475C DUP8 DUP3 DUP9 ADD PUSH2 0x46CF JUMP JUMPDEST SWAP4 POP POP PUSH1 0x40 DUP6 ADD CALLDATALOAD PUSH1 0x1 PUSH1 0x1 PUSH1 0x40 SHL SUB DUP2 GT ISZERO PUSH2 0x477B JUMPI PUSH2 0x477B PUSH1 0x0 DUP1 REVERT JUMPDEST PUSH2 0x4787 DUP8 DUP3 DUP9 ADD PUSH2 0x46CF JUMP JUMPDEST SWAP3 POP POP PUSH1 0x60 DUP6 ADD CALLDATALOAD PUSH1 0x1 PUSH1 0x1 PUSH1 0x40 SHL SUB DUP2 GT ISZERO PUSH2 0x47A6 JUMPI PUSH2 0x47A6 PUSH1 0x0 DUP1 REVERT JUMPDEST PUSH2 0x47B2 DUP8 DUP3 DUP9 ADD PUSH2 0x46CF JUMP JUMPDEST SWAP2 POP POP SWAP3 SWAP6 SWAP2 SWAP5 POP SWAP3 POP JUMP JUMPDEST PUSH1 0x19 DUP2 MSTORE PUSH1 0x20 DUP2 ADD PUSH32 0x74686520636F6E7472616374206E6F7420696E69742079657400000000000000 DUP2 MSTORE SWAP1 POP PUSH2 0x441F JUMP JUMPDEST PUSH1 0x20 DUP1 DUP3 MSTORE DUP2 ADD PUSH2 0xF0B DUP2 PUSH2 0x47BE JUMP JUMPDEST PUSH1 0x19 DUP2 MSTORE PUSH1 0x20 DUP2 ADD PUSH32 0x436F6E747261637420656D657267656E63792070617573656400000000000000 DUP2 MSTORE SWAP1 POP PUSH2 0x441F JUMP JUMPDEST PUSH1 0x20 DUP1 DUP3 MSTORE DUP2 ADD PUSH2 0xF0B DUP2 PUSH2 0x4800 JUMP JUMPDEST PUSH4 0x4E487B71 PUSH1 0xE0 SHL PUSH1 0x0 MSTORE PUSH1 0x21 PUSH1 0x4 MSTORE PUSH1 0x24 PUSH1 0x0 REVERT JUMPDEST PUSH1 0x18 DUP2 MSTORE PUSH1 0x20 DUP2 ADD PUSH32 0x56616C696461746F7220646F6573206E6F742065786973740000000000000000 DUP2 MSTORE SWAP1 POP PUSH2 0x441F JUMP JUMPDEST PUSH1 0x20 DUP1 DUP3 MSTORE DUP2 ADD PUSH2 0xF0B DUP2 PUSH2 0x4858 JUMP JUMPDEST PUSH1 0x18 DUP2 MSTORE PUSH1 0x20 DUP2 ADD PUSH32 0x436F6D6D697373696F6E207261746520746F6F20686967680000000000000000 DUP2 MSTORE SWAP1 POP PUSH2 0x441F JUMP JUMPDEST PUSH1 0x20 DUP1 DUP3 MSTORE DUP2 ADD PUSH2 0xF0B DUP2 PUSH2 0x489A JUMP JUMPDEST PUSH1 0x40 DUP2 ADD PUSH2 0x48EA DUP3 DUP6 PUSH2 0x4153 JUMP JUMPDEST PUSH2 0x2867 PUSH1 0x20 DUP4 ADD DUP5 PUSH2 0x4153 JUMP JUMPDEST PUSH1 0x12 DUP2 MSTORE PUSH1 0x20 DUP2 ADD PUSH18 0x10DBDB9D1C9858DD081A5CC81C185D5CD959 PUSH1 0x72 SHL DUP2 MSTORE SWAP1 POP PUSH2 0x441F JUMP JUMPDEST PUSH1 0x20 DUP1 DUP3 MSTORE DUP2 ADD PUSH2 0xF0B DUP2 PUSH2 0x48F7 JUMP JUMPDEST PUSH1 0x14 DUP2 MSTORE PUSH1 0x20 DUP2 ADD PUSH20 0x27B7363C9032B6B2B933B2B731BC9030B236B4B7 PUSH1 0x61 SHL DUP2 MSTORE SWAP1 POP PUSH2 0x441F JUMP JUMPDEST PUSH1 0x20 DUP1 DUP3 MSTORE DUP2 ADD PUSH2 0xF0B DUP2 PUSH2 0x492E JUMP JUMPDEST PUSH1 0x40 DUP2 ADD PUSH2 0x4975 DUP3 DUP6 PUSH2 0x4123 JUMP JUMPDEST PUSH2 0x2867 PUSH1 0x20 DUP4 ADD DUP5 PUSH2 0x4303 JUMP JUMPDEST PUSH1 0xF DUP2 MSTORE PUSH1 0x20 DUP2 ADD PUSH15 0x496E76616C69642061646472657373 PUSH1 0x88 SHL DUP2 MSTORE SWAP1 POP PUSH2 0x441F JUMP JUMPDEST PUSH1 0x20 DUP1 DUP3 MSTORE DUP2 ADD PUSH2 0xF0B DUP2 PUSH2 0x4982 JUMP JUMPDEST PUSH1 0x1F DUP2 MSTORE PUSH1 0x20 DUP2 ADD PUSH32 0x5265656E7472616E637947756172643A207265656E7472616E742063616C6C00 DUP2 MSTORE SWAP1 POP PUSH2 0x441F JUMP JUMPDEST PUSH1 0x20 DUP1 DUP3 MSTORE DUP2 ADD PUSH2 0xF0B DUP2 PUSH2 0x49B6 JUMP JUMPDEST PUSH1 0x17 DUP2 MSTORE PUSH1 0x20 DUP2 ADD PUSH32 0x4E6F207374616B6520776974682076616C696461746F72000000000000000000 DUP2 MSTORE SWAP1 POP PUSH2 0x441F JUMP JUMPDEST PUSH1 0x20 DUP1 DUP3 MSTORE DUP2 ADD PUSH2 0xF0B DUP2 PUSH2 0x49F8 JUMP JUMPDEST PUSH1 0x13 DUP2 MSTORE PUSH1 0x20 DUP2 ADD PUSH19 0x4E6F207265776172647320746F20636C61696D PUSH1 0x68 SHL DUP2 MSTORE SWAP1 POP PUSH2 0x441F JUMP JUMPDEST PUSH1 0x20 DUP1 DUP3 MSTORE DUP2 ADD PUSH2 0xF0B DUP2 PUSH2 0x4A3A JUMP JUMPDEST PUSH4 0x4E487B71 PUSH1 0xE0 SHL PUSH1 0x0 MSTORE PUSH1 0x11 PUSH1 0x4 MSTORE PUSH1 0x24 PUSH1 0x0 REVERT JUMPDEST DUP2 DUP2 MUL DUP2 ISZERO DUP3 DUP3 DIV DUP5 EQ OR PUSH2 0x1379 JUMPI PUSH2 0x1379 PUSH2 0x4A72 JUMP JUMPDEST PUSH4 0x4E487B71 PUSH1 0xE0 SHL PUSH1 0x0 MSTORE PUSH1 0x12 PUSH1 0x4 MSTORE PUSH1 0x24 PUSH1 0x0 REVERT JUMPDEST PUSH1 0x0 DUP3 PUSH2 0x4AC4 JUMPI PUSH2 0x4AC4 PUSH2 0x4A9F JUMP JUMPDEST POP DIV SWAP1 JUMP JUMPDEST DUP2 DUP2 SUB DUP2 DUP2 GT ISZERO PUSH2 0x1379 JUMPI PUSH2 0x1379 PUSH2 0x4A72 JUMP JUMPDEST PUSH4 0x4E487B71 PUSH1 0xE0 SHL PUSH1 0x0 MSTORE PUSH1 0x32 PUSH1 0x4 MSTORE PUSH1 0x24 PUSH1 0x0 REVERT JUMPDEST PUSH1 0x0 PUSH1 0x1 DUP3 ADD PUSH2 0x4B04 JUMPI PUSH2 0x4B04 PUSH2 0x4A72 JUMP JUMPDEST POP PUSH1 0x1 ADD SWAP1 JUMP JUMPDEST PUSH1 0x12 DUP2 MSTORE PUSH1 0x20 DUP2 ADD PUSH18 0x135D5CDD081D5B9CDD185AD948199A5C9CDD PUSH1 0x72 SHL DUP2 MSTORE SWAP1 POP PUSH2 0x441F JUMP JUMPDEST PUSH1 0x20 DUP1 DUP3 MSTORE DUP2 ADD PUSH2 0xF0B DUP2 PUSH2 0x4B0B JUMP JUMPDEST DUP1 DUP3 ADD DUP1 DUP3 GT ISZERO PUSH2 0x1379 JUMPI PUSH2 0x1379 PUSH2 0x4A72 JUMP JUMPDEST PUSH1 0x13 DUP2 MSTORE PUSH1 0x20 DUP2 ADD PUSH19 0x151BDAD95B9CC81CDD1A5B1B081B1BD8DAD959 PUSH1 0x6A SHL DUP2 MSTORE SWAP1 POP PUSH2 0x441F JUMP JUMPDEST PUSH1 0x20 DUP1 DUP3 MSTORE DUP2 ADD PUSH2 0xF0B DUP2 PUSH2 0x4B55 JUMP JUMPDEST PUSH1 0x15 DUP2 MSTORE PUSH1 0x20 DUP2 ADD PUSH21 0x4E6F20746F6B656E7320746F207769746864726177 PUSH1 0x58 SHL DUP2 MSTORE SWAP1 POP PUSH2 0x441F JUMP JUMPDEST PUSH1 0x20 DUP1 DUP3 MSTORE DUP2 ADD PUSH2 0xF0B DUP2 PUSH2 0x4B8D JUMP JUMPDEST PUSH1 0x21 DUP2 MSTORE PUSH1 0x20 DUP2 ADD PUSH32 0x4F6E6C792061646D696E2063616E2063616C6C20746869732066756E6374696F DUP2 MSTORE PUSH1 0x37 PUSH1 0xF9 SHL PUSH1 0x20 DUP3 ADD MSTORE SWAP1 POP JUMPDEST PUSH1 0x40 ADD SWAP1 JUMP JUMPDEST PUSH1 0x20 DUP1 DUP3 MSTORE DUP2 ADD PUSH2 0xF0B DUP2 PUSH2 0x4BC7 JUMP JUMPDEST PUSH1 0xA DUP2 MSTORE PUSH1 0x20 DUP2 ADD PUSH10 0x139BDD081C185D5CD959 PUSH1 0xB2 SHL DUP2 MSTORE SWAP1 POP PUSH2 0x441F JUMP JUMPDEST PUSH1 0x20 DUP1 DUP3 MSTORE DUP2 ADD PUSH2 0xF0B DUP2 PUSH2 0x4C15 JUMP JUMPDEST PUSH1 0x14 DUP2 MSTORE PUSH1 0x20 DUP2 ADD PUSH20 0x139BDD081C995DD85C99081C9958DA5C1A595B9D PUSH1 0x62 SHL DUP2 MSTORE SWAP1 POP PUSH2 0x441F JUMP JUMPDEST PUSH1 0x20 DUP1 DUP3 MSTORE DUP2 ADD PUSH2 0xF0B DUP2 PUSH2 0x4C44 JUMP JUMPDEST PUSH1 0x20 DUP1 DUP3 MSTORE PUSH32 0x4D7573742077616974206265666F7265206E657874207769746864726177616C SWAP2 ADD SWAP1 DUP2 MSTORE PUSH2 0x441F JUMP JUMPDEST PUSH1 0x20 DUP1 DUP3 MSTORE DUP2 ADD PUSH2 0xF0B DUP2 PUSH2 0x4C7D JUMP JUMPDEST PUSH1 0x16 DUP2 MSTORE PUSH1 0x20 DUP2 ADD PUSH22 0x4E6F207265776172647320746F207769746864726177 PUSH1 0x50 SHL DUP2 MSTORE SWAP1 POP PUSH2 0x441F JUMP JUMPDEST PUSH1 0x20 DUP1 DUP3 MSTORE DUP2 ADD PUSH2 0xF0B DUP2 PUSH2 0x4CBD JUMP JUMPDEST PUSH1 0x29 DUP2 MSTORE PUSH1 0x20 DUP2 ADD PUSH32 0x746865206D6573736167652073656E646572206D75737420626520736C617368 DUP2 MSTORE PUSH9 0x818DBDB9D1C9858DD PUSH1 0xBA SHL PUSH1 0x20 DUP3 ADD MSTORE SWAP1 POP PUSH2 0x4BFF JUMP JUMPDEST PUSH1 0x20 DUP1 DUP3 MSTORE DUP2 ADD PUSH2 0xF0B DUP2 PUSH2 0x4CF8 JUMP JUMPDEST PUSH1 0xE DUP2 MSTORE PUSH1 0x20 DUP2 ADD PUSH14 0x105B1C9958591E481C185D5CD959 PUSH1 0x92 SHL DUP2 MSTORE SWAP1 POP PUSH2 0x441F JUMP JUMPDEST PUSH1 0x20 DUP1 DUP3 MSTORE DUP2 ADD PUSH2 0xF0B DUP2 PUSH2 0x4D4C JUMP JUMPDEST PUSH4 0x4E487B71 PUSH1 0xE0 SHL PUSH1 0x0 MSTORE PUSH1 0x22 PUSH1 0x4 MSTORE PUSH1 0x24 PUSH1 0x0 REVERT JUMPDEST PUSH1 0x2 DUP2 DIV PUSH1 0x1 DUP3 AND DUP1 PUSH2 0x4DA9 JUMPI PUSH1 0x7F DUP3 AND SWAP2 POP JUMPDEST PUSH1 0x20 DUP3 LT DUP2 SUB PUSH2 0x870 JUMPI PUSH2 0x870 PUSH2 0x4D7F JUMP JUMPDEST PUSH1 0x2D DUP2 MSTORE PUSH1 0x20 DUP2 ADD PUSH32 0x746865206D6573736167652073656E646572206D757374206265207468652062 DUP2 MSTORE PUSH13 0x3637B1B590383937B23AB1B2B9 PUSH1 0x99 SHL PUSH1 0x20 DUP3 ADD MSTORE SWAP1 POP PUSH2 0x4BFF JUMP JUMPDEST PUSH1 0x20 DUP1 DUP3 MSTORE DUP2 ADD PUSH2 0xF0B DUP2 PUSH2 0x4DBB JUMP JUMPDEST PUSH1 0x1A DUP2 MSTORE PUSH1 0x20 DUP2 ADD PUSH32 0x56616C696461746F727320616C72656164792075706461746564000000000000 DUP2 MSTORE SWAP1 POP PUSH2 0x441F JUMP JUMPDEST PUSH1 0x20 DUP1 DUP3 MSTORE DUP2 ADD PUSH2 0xF0B DUP2 PUSH2 0x4E13 JUMP JUMPDEST PUSH1 0x0 DUP3 PUSH2 0x4E64 JUMPI PUSH2 0x4E64 PUSH2 0x4A9F JUMP JUMPDEST POP MOD SWAP1 JUMP JUMPDEST PUSH1 0x10 DUP2 MSTORE PUSH1 0x20 DUP2 ADD PUSH16 0x426C6F636B2065706F6368206F6E6C79 PUSH1 0x80 SHL DUP2 MSTORE SWAP1 POP PUSH2 0x441F JUMP JUMPDEST PUSH1 0x20 DUP1 DUP3 MSTORE DUP2 ADD PUSH2 0xF0B DUP2 PUSH2 0x4E69 JUMP JUMPDEST PUSH1 0x13 DUP2 MSTORE PUSH1 0x20 DUP2 ADD PUSH19 0x115B5C1D1E4818D85B991A59185D19481CD95D PUSH1 0x6A SHL DUP2 MSTORE SWAP1 POP PUSH2 0x441F JUMP JUMPDEST PUSH1 0x20 DUP1 DUP3 MSTORE DUP2 ADD PUSH2 0xF0B DUP2 PUSH2 0x4E9E JUMP JUMPDEST PUSH1 0x13 DUP2 MSTORE PUSH1 0x20 DUP2 ADD PUSH19 0x546F6F206D616E792063616E64696461746573 PUSH1 0x68 SHL DUP2 MSTORE SWAP1 POP PUSH2 0x441F JUMP JUMPDEST PUSH1 0x20 DUP1 DUP3 MSTORE DUP2 ADD PUSH2 0xF0B DUP2 PUSH2 0x4ED6 JUMP JUMPDEST PUSH1 0x0 PUSH2 0xF0B DUP3 SLOAD PUSH2 0x4167 JUMP JUMPDEST PUSH1 0x0 PUSH2 0x4F24 DUP3 SLOAD SWAP1 JUMP JUMPDEST DUP1 DUP5 MSTORE PUSH1 0x0 DUP4 DUP2 MSTORE PUSH1 0x20 DUP1 DUP3 KECCAK256 SWAP6 ADD SWAP5 SWAP1 JUMPDEST DUP3 DUP2 LT ISZERO PUSH2 0x4462 JUMPI PUSH2 0x4F47 DUP3 PUSH2 0x4F0E JUMP JUMPDEST PUSH2 0x4F51 DUP8 DUP3 PUSH2 0x440E JUMP JUMPDEST SWAP7 POP POP PUSH1 0x1 SWAP2 DUP3 ADD SWAP2 ADD PUSH2 0x4F36 JUMP JUMPDEST PUSH1 0x40 DUP1 DUP3 MSTORE DUP2 ADD PUSH2 0x4F71 DUP2 DUP6 PUSH2 0x4F1A JUMP JUMPDEST SWAP1 POP PUSH2 0x2867 PUSH1 0x20 DUP4 ADD DUP5 PUSH2 0x4153 JUMP JUMPDEST PUSH1 0x15 DUP2 MSTORE PUSH1 0x20 DUP2 ADD PUSH21 0x496E76616C69642061646D696E2061646472657373 PUSH1 0x58 SHL DUP2 MSTORE SWAP1 POP PUSH2 0x441F JUMP JUMPDEST PUSH1 0x20 DUP1 DUP3 MSTORE DUP2 ADD PUSH2 0xF0B DUP2 PUSH2 0x4F80 JUMP JUMPDEST PUSH1 0x13 DUP2 MSTORE PUSH1 0x20 DUP2 ADD PUSH19 0x24B73B30B634B2103232B9B1B934B83A34B7B7 PUSH1 0x69 SHL DUP2 MSTORE SWAP1 POP PUSH2 0x441F JUMP JUMPDEST PUSH1 0x20 DUP1 DUP3 MSTORE DUP2 ADD PUSH2 0xF0B DUP2 PUSH2 0x4FBA JUMP JUMPDEST PUSH1 0x0 PUSH2 0xF0B PUSH2 0x4FFE DUP4 DUP2 JUMP JUMPDEST SWAP1 JUMP JUMPDEST PUSH2 0x500A DUP4 PUSH2 0x4FF2 JUMP JUMPDEST DUP2 SLOAD PUSH1 0x0 NOT PUSH1 0x8 SWAP5 SWAP1 SWAP5 MUL SWAP4 DUP5 SHL NOT AND SWAP3 SHL SWAP2 SWAP1 SWAP2 OR SWAP1 SSTORE POP JUMP JUMPDEST PUSH1 0x0 PUSH2 0x2727 DUP2 DUP5 DUP5 PUSH2 0x5001 JUMP JUMPDEST DUP2 DUP2 LT ISZERO PUSH2 0x12DF JUMPI PUSH2 0x5045 PUSH1 0x0 DUP3 PUSH2 0x5025 JUMP JUMPDEST PUSH1 0x1 ADD PUSH2 0x5032 JUMP JUMPDEST PUSH1 0x1F DUP3 GT ISZERO PUSH2 0x2727 JUMPI PUSH1 0x0 DUP2 DUP2 MSTORE PUSH1 0x20 SWAP1 KECCAK256 PUSH1 0x20 PUSH1 0x1F DUP6 ADD DIV DUP2 ADD PUSH1 0x20 DUP6 LT ISZERO PUSH2 0x5074 JUMPI POP DUP1 JUMPDEST PUSH2 0x265A PUSH1 0x20 PUSH1 0x1F DUP7 ADD DIV DUP4 ADD DUP3 PUSH2 0x5032 JUMP JUMPDEST DUP2 MLOAD PUSH1 0x1 PUSH1 0x1 PUSH1 0x40 SHL SUB DUP2 GT ISZERO PUSH2 0x509F JUMPI PUSH2 0x509F PUSH2 0x45FF JUMP JUMPDEST PUSH2 0x50A9 DUP3 SLOAD PUSH2 0x4D95 JUMP JUMPDEST PUSH2 0x50B4 DUP3 DUP3 DUP6 PUSH2 0x504D JUMP JUMPDEST POP PUSH1 0x20 PUSH1 0x1F DUP3 GT PUSH1 0x1 DUP2 EQ PUSH2 0x50E9 JUMPI PUSH1 0x0 DUP4 ISZERO PUSH2 0x50D1 JUMPI POP DUP5 DUP3 ADD MLOAD JUMPDEST PUSH1 0x0 NOT PUSH1 0x8 DUP6 MUL SHR NOT DUP2 AND PUSH1 0x2 DUP6 MUL OR DUP6 SSTORE POP PUSH2 0x265A JUMP JUMPDEST PUSH1 0x0 DUP5 DUP2 MSTORE PUSH1 0x20 DUP2 KECCAK256 PUSH1 0x1F NOT DUP6 AND SWAP2 JUMPDEST DUP3 DUP2 LT ISZERO PUSH2 0x5119 JUMPI DUP8 DUP6 ADD MLOAD DUP3 SSTORE PUSH1 0x20 SWAP5 DUP6 ADD SWAP5 PUSH1 0x1 SWAP1 SWAP3 ADD SWAP2 ADD PUSH2 0x50F9 JUMP JUMPDEST POP DUP5 DUP3 LT ISZERO PUSH2 0x5136 JUMPI DUP4 DUP8 ADD MLOAD PUSH1 0x0 NOT PUSH1 0x1F DUP8 AND PUSH1 0x8 MUL SHR NOT AND DUP2 SSTORE JUMPDEST POP POP POP POP PUSH1 0x2 MUL PUSH1 0x1 ADD SWAP1 SSTORE POP JUMP JUMPDEST PUSH1 0x20 DUP1 DUP3 MSTORE PUSH32 0x74686520636F6E747261637420616C726561647920696E697469616C697A6564 SWAP2 ADD SWAP1 DUP2 MSTORE PUSH2 0x441F JUMP JUMPDEST PUSH1 0x20 DUP1 DUP3 MSTORE DUP2 ADD PUSH2 0xF0B DUP2 PUSH2 0x5145 JUMP JUMPDEST PUSH1 0x17 DUP2 MSTORE PUSH1 0x20 DUP2 ADD PUSH32 0x496E76616C69642076616C696461746F7220636F756E74000000000000000000 DUP2 MSTORE SWAP1 POP PUSH2 0x441F JUMP JUMPDEST PUSH1 0x20 DUP1 DUP3 MSTORE DUP2 ADD PUSH2 0xF0B DUP2 PUSH2 0x5185 JUMP JUMPDEST PUSH1 0x10 DUP2 MSTORE PUSH1 0x20 DUP2 ADD PUSH16 0x4D6F6E696B657220746F6F206C6F6E67 PUSH1 0x80 SHL DUP2 MSTORE SWAP1 POP PUSH2 0x441F JUMP JUMPDEST PUSH1 0x20 DUP1 DUP3 MSTORE DUP2 ADD PUSH2 0xF0B DUP2 PUSH2 0x51C7 JUMP JUMPDEST PUSH1 0x10 DUP2 MSTORE PUSH1 0x20 DUP2 ADD PUSH16 0x5765627369746520746F6F206C6F6E67 PUSH1 0x80 SHL DUP2 MSTORE SWAP1 POP PUSH2 0x441F JUMP JUMPDEST PUSH1 0x20 DUP1 DUP3 MSTORE DUP2 ADD PUSH2 0xF0B DUP2 PUSH2 0x51FC JUMP JUMPDEST PUSH1 0xE DUP2 MSTORE PUSH1 0x20 DUP2 ADD PUSH14 0x456D61696C20746F6F206C6F6E67 PUSH1 0x90 SHL DUP2 MSTORE SWAP1 POP PUSH2 0x441F JUMP JUMPDEST PUSH1 0x20 DUP1 DUP3 MSTORE DUP2 ADD PUSH2 0xF0B DUP2 PUSH2 0x5231 JUMP JUMPDEST PUSH1 0x10 DUP2 MSTORE PUSH1 0x20 DUP2 ADD PUSH16 0x44657461696C7320746F6F206C6F6E67 PUSH1 0x80 SHL DUP2 MSTORE SWAP1 POP PUSH2 0x441F JUMP JUMPDEST PUSH1 0x20 DUP1 DUP3 MSTORE DUP2 ADD PUSH2 0xF0B DUP2 PUSH2 0x5264 JUMP JUMPDEST PUSH1 0x14 DUP2 MSTORE PUSH1 0x20 DUP2 ADD PUSH20 0x15985B1A59185D1BDC881B9BDD081A985A5B1959 PUSH1 0x62 SHL DUP2 MSTORE SWAP1 POP PUSH2 0x441F JUMP JUMPDEST PUSH1 0x20 DUP1 DUP3 MSTORE DUP2 ADD PUSH2 0xF0B DUP2 PUSH2 0x5299 JUMP JUMPDEST DUP1 ISZERO ISZERO PUSH2 0x40E1 JUMP JUMPDEST DUP1 MLOAD PUSH2 0x1379 DUP2 PUSH2 0x52D2 JUMP JUMPDEST PUSH1 0x0 PUSH1 0x20 DUP3 DUP5 SUB SLT ISZERO PUSH2 0x52FA JUMPI PUSH2 0x52FA PUSH1 0x0 DUP1 REVERT JUMPDEST PUSH1 0x0 PUSH2 0x411B DUP5 DUP5 PUSH2 0x52DA JUMP JUMPDEST PUSH1 0x1C DUP2 MSTORE PUSH1 0x20 DUP2 ADD PUSH32 0x4661696C656420746F20636C65616E20736C617368207265636F726400000000 DUP2 MSTORE SWAP1 POP PUSH2 0x441F JUMP JUMPDEST PUSH1 0x20 DUP1 DUP3 MSTORE DUP2 ADD PUSH2 0xF0B DUP2 PUSH2 0x5306 JUMP JUMPDEST PUSH1 0x16 DUP2 MSTORE PUSH1 0x20 DUP2 ADD PUSH22 0x109B1BD8DAC8185B1C9958591E481C995DD85C991959 PUSH1 0x52 SHL DUP2 MSTORE SWAP1 POP PUSH2 0x441F JUMP JUMPDEST PUSH1 0x20 DUP1 DUP3 MSTORE DUP2 ADD PUSH2 0xF0B DUP2 PUSH2 0x5348 JUMP JUMPDEST PUSH1 0x11 DUP2 MSTORE PUSH1 0x20 DUP2 ADD PUSH17 0x416C726561647920756E7374616B696E67 PUSH1 0x78 SHL DUP2 MSTORE SWAP1 POP PUSH2 0x441F JUMP JUMPDEST PUSH1 0x20 DUP1 DUP3 MSTORE DUP2 ADD PUSH2 0xF0B DUP2 PUSH2 0x5383 JUMP JUMPDEST PUSH1 0x13 DUP2 MSTORE PUSH1 0x20 DUP2 ADD PUSH19 0x4E6F207374616B6520746F20756E7374616B65 PUSH1 0x68 SHL DUP2 MSTORE SWAP1 POP PUSH2 0x441F JUMP JUMPDEST PUSH1 0x20 DUP1 DUP3 MSTORE DUP2 ADD PUSH2 0xF0B DUP2 PUSH2 0x53B9 JUMP JUMPDEST PUSH1 0x18 DUP2 MSTORE PUSH1 0x20 DUP2 ADD PUSH32 0x56616C696461746F7220616C7265616479206578697374730000000000000000 DUP2 MSTORE SWAP1 POP PUSH2 0x441F JUMP JUMPDEST PUSH1 0x20 DUP1 DUP3 MSTORE DUP2 ADD PUSH2 0xF0B DUP2 PUSH2 0x53F1 JUMP JUMPDEST PUSH1 0x18 DUP2 MSTORE PUSH1 0x20 DUP2 ADD PUSH32 0x5472616E7366657220746F207A65726F20616464726573730000000000000000 DUP2 MSTORE SWAP1 POP PUSH2 0x441F JUMP JUMPDEST PUSH1 0x20 DUP1 DUP3 MSTORE DUP2 ADD PUSH2 0xF0B DUP2 PUSH2 0x5433 JUMP JUMPDEST PUSH1 0x14 DUP2 MSTORE PUSH1 0x20 DUP2 ADD PUSH20 0x496E73756666696369656E742062616C616E6365 PUSH1 0x60 SHL DUP2 MSTORE SWAP1 POP PUSH2 0x441F JUMP JUMPDEST PUSH1 0x20 DUP1 DUP3 MSTORE DUP2 ADD PUSH2 0xF0B DUP2 PUSH2 0x5475 JUMP JUMPDEST PUSH1 0xF DUP2 MSTORE PUSH1 0x20 DUP2 ADD PUSH15 0x151C985B9CD9995C8819985A5B1959 PUSH1 0x8A SHL DUP2 MSTORE SWAP1 POP PUSH2 0x441F JUMP JUMPDEST PUSH1 0x20 DUP1 DUP3 MSTORE DUP2 ADD PUSH2 0xF0B DUP2 PUSH2 0x54AE JUMP JUMPDEST PUSH1 0x1D DUP2 MSTORE PUSH1 0x20 DUP2 ADD PUSH32 0x416D6F756E74206D7573742062652067726561746572207468616E2030000000 DUP2 MSTORE SWAP1 POP PUSH2 0x441F JUMP JUMPDEST PUSH1 0x20 DUP1 DUP3 MSTORE DUP2 ADD PUSH2 0xF0B DUP2 PUSH2 0x54E2 JUMP JUMPDEST PUSH1 0x1C DUP2 MSTORE PUSH1 0x20 DUP2 ADD PUSH32 0x43616E6E6F74207374616B65207768696C6520756E7374616B696E6700000000 DUP2 MSTORE SWAP1 POP PUSH2 0x441F JUMP JUMPDEST PUSH1 0x20 DUP1 DUP3 MSTORE DUP2 ADD PUSH2 0xF0B DUP2 PUSH2 0x5524 JUMP JUMPDEST PUSH1 0x1B DUP2 MSTORE PUSH1 0x20 DUP2 ADD PUSH32 0x496E697469616C207374616B652062656C6F77206D696E696D756D0000000000 DUP2 MSTORE SWAP1 POP PUSH2 0x441F JUMP JUMPDEST PUSH1 0x20 DUP1 DUP3 MSTORE DUP2 ADD PUSH2 0xF0B DUP2 PUSH2 0x5566 JUMP JUMPDEST PUSH4 0x4E487B71 PUSH1 0xE0 SHL PUSH1 0x0 MSTORE PUSH1 0x31 PUSH1 0x4 MSTORE PUSH1 0x24 PUSH1 0x0 REVERT JUMPDEST PUSH1 0x19 DUP2 MSTORE PUSH1 0x20 DUP2 ADD PUSH32 0x496E76616C69642076616C696461746F72206164647265737300000000000000 DUP2 MSTORE SWAP1 POP PUSH2 0x441F JUMP JUMPDEST PUSH1 0x20 DUP1 DUP3 MSTORE DUP2 ADD PUSH2 0xF0B DUP2 PUSH2 0x55BE JUMP JUMPDEST PUSH1 0x2C DUP2 MSTORE PUSH1 0x20 DUP2 ADD PUSH32 0x43616E6E6F7420756E7374616B653A20776F756C642064697361626C65206C61 DUP2 MSTORE PUSH12 0x39BA103B30B634B230BA37B9 PUSH1 0xA1 SHL PUSH1 0x20 DUP3 ADD MSTORE SWAP1 POP PUSH2 0x4BFF JUMP JUMPDEST PUSH1 0x20 DUP1 DUP3 MSTORE DUP2 ADD PUSH2 0xF0B DUP2 PUSH2 0x5600 JUMP JUMPDEST PUSH1 0x23 DUP2 MSTORE PUSH1 0x20 DUP2 ADD PUSH32 0x546F74616C207374616B652062656C6F77206D696E696D756D20746872657368 DUP2 MSTORE PUSH3 0x1BDB19 PUSH1 0xEA SHL PUSH1 0x20 DUP3 ADD MSTORE SWAP1 POP PUSH2 0x4BFF JUMP JUMPDEST PUSH1 0x20 DUP1 DUP3 MSTORE DUP2 ADD PUSH2 0xF0B DUP2 PUSH2 0x5657 JUMP JUMPDEST PUSH2 0x4418 DUP3 DUP3 PUSH2 0x4153 JUMP JUMPDEST PUSH1 0x0 PUSH2 0x56B9 DUP3 MLOAD SWAP1 JUMP JUMPDEST DUP1 DUP5 MSTORE PUSH1 0x20 SWAP4 DUP5 ADD SWAP4 DUP4 ADD PUSH1 0x0 JUMPDEST DUP3 DUP2 LT ISZERO PUSH2 0x4462 JUMPI DUP2 MLOAD PUSH2 0x56DB DUP8 DUP3 PUSH2 0x56A5 JUMP JUMPDEST SWAP7 POP POP PUSH1 0x20 DUP3 ADD SWAP2 POP PUSH1 0x1 ADD PUSH2 0x56C7 JUMP JUMPDEST PUSH1 0x80 DUP1 DUP3 MSTORE DUP2 ADD PUSH2 0x56FD DUP2 DUP8 PUSH2 0x4425 JUMP JUMPDEST SWAP1 POP DUP2 DUP2 SUB PUSH1 0x20 DUP4 ADD MSTORE PUSH2 0x5711 DUP2 DUP7 PUSH2 0x56AF JUMP JUMPDEST SWAP1 POP PUSH2 0x5720 PUSH1 0x40 DUP4 ADD DUP6 PUSH2 0x4153 JUMP JUMPDEST PUSH2 0x572D PUSH1 0x60 DUP4 ADD DUP5 PUSH2 0x4153 JUMP JUMPDEST SWAP6 SWAP5 POP POP POP POP POP JUMP JUMPDEST PUSH1 0xD DUP2 MSTORE PUSH1 0x20 DUP2 ADD PUSH13 0x4E6F2064656C656761746F7273 PUSH1 0x98 SHL DUP2 MSTORE SWAP1 POP PUSH2 0x441F JUMP JUMPDEST PUSH1 0x20 DUP1 DUP3 MSTORE DUP2 ADD PUSH2 0xF0B DUP2 PUSH2 0x5736 JUMP JUMPDEST PUSH1 0xD DUP2 MSTORE PUSH1 0x20 DUP2 ADD PUSH13 0x92DCECC2D8D2C840D2DCC8CAF PUSH1 0x9B SHL DUP2 MSTORE SWAP1 POP PUSH2 0x441F JUMP JUMPDEST PUSH1 0x20 DUP1 DUP3 MSTORE DUP2 ADD PUSH2 0xF0B DUP2 PUSH2 0x5768 JUMP INVALID LOG1 PUSH5 0x736F6C6343 STOP ADDMOD SGT STOP EXP "},"methodIdentifiers":{"BlockEpoch()":"e8a3298b","DEFAULT_COMMISSION_RATE()":"b8db983e","MAX_COMMISSION_RATE()":"207239c0","MAX_VALIDATOR_NUM()":"0b3a2323","MIN_DELEGATOR_STAKE()":"0f952573","MIN_VALIDATOR_TOTAL_STAKE()":"2b599c0d","STAKING_LOCK_PERIOD()":"d2f01a9b","SlashContractAddr()":"67239a04","VALIDATOR_SLASH_PENALTY()":"21974455","ValidatorContractAddr()":"3a061bd3","WITHDRAW_REWARD_PERIOD()":"fd4facde","admin()":"f851a440","changeAdmin(address)":"8f283970","claimDelegatorRewards(address)":"1a8d57bc","create(address,string,string,string,string)":"8cab587d","createWithCommission(address,string,string,string,string,uint256)":"142d13c9","distributeBlockReward()":"d6c0edad","edit(address,string,string,string,string)":"9b7fb063","emergencyAdmin()":"70905dce","emergencyPaused()":"27c830a9","getActivatedValidators()":"b7dc5c40","getPendingRewards(address,address)":"7a27db57","getTotalNetworkStaked()":"a0774743","getValidatorInfo(address)":"8a11d7c9","initialize(address[])":"a224cee7","initialized()":"158ef93e","isJailed(address)":"14bfb527","isValidatorActivated(address)":"1c8b8a3d","isValidatorCandidate(address)":"a0c3f2d2","pause()":"8456cb59","paused()":"5c975abb","slashValidator(address)":"4711f586","stake(address)":"26476204","toggleEmergencyPause()":"147e291f","unjailValidator()":"ce5cf377","unpause()":"3f4ba83a","unstake(address)":"f2888dbb","updateActivatedValidators()":"8af0a869","updateCommissionRate(uint256)":"00fa3d50","updateEmergencyAdmin(address)":"14c57e93","validateDescription(string,string,string,string)":"b7d02ce2","withdrawRewards(address)":"42d86693","withdrawStaking(address)":"222d3b05"}}}}}