{"contracts/Validators.sol":{"Validators":{"abi":[{"anonymous":false,"inputs":[{"indexed":true,"internalType":"address","name":"validator","type":"address"}],"name":"AddToValidatorCandidate","type":"event"},{"anonymous":false,"inputs":[{"indexed":true,"internalType":"address","name":"previousAdmin","type":"address"},{"indexed":true,"internalType":"address","name":"newAdmin","type":"address"}],"name":"AdminChanged","type":"event"},{"anonymous":false,"inputs":[{"indexed":true,"internalType":"address","name":"delegator","type":"address"},{"indexed":true,"internalType":"address","name":"validator","type":"address"},{"indexed":false,"internalType":"uint256","name":"amount","type":"uint256"}],"name":"DelegatorRewardsClaimed","type":"event"},{"anonymous":false,"inputs":[],"name":"Paused","type":"event"},{"anonymous":false,"inputs":[{"indexed":true,"internalType":"address","name":"validator","type":"address"}],"name":"RemoveFromValidatorCandidate","type":"event"},{"anonymous":false,"inputs":[{"indexed":false,"internalType":"address[]","name":"validators","type":"address[]"},{"indexed":false,"internalType":"uint256[]","name":"rewards","type":"uint256[]"},{"indexed":false,"internalType":"uint256","name":"rewardCount","type":"uint256"}],"name":"RewardDistributed","type":"event"},{"anonymous":false,"inputs":[{"indexed":true,"internalType":"address","name":"staker","type":"address"},{"indexed":true,"internalType":"address","name":"validator","type":"address"},{"indexed":false,"internalType":"uint256","name":"amount","type":"uint256"}],"name":"Staking","type":"event"},{"anonymous":false,"inputs":[],"name":"Unpaused","type":"event"},{"anonymous":false,"inputs":[{"indexed":true,"internalType":"address","name":"staker","type":"address"},{"indexed":true,"internalType":"address","name":"validator","type":"address"},{"indexed":false,"internalType":"uint256","name":"amount","type":"uint256"},{"indexed":false,"internalType":"uint256","name":"unLockHeight","type":"uint256"}],"name":"Unstake","type":"event"},{"anonymous":false,"inputs":[{"indexed":true,"internalType":"address","name":"validator","type":"address"},{"indexed":true,"internalType":"address","name":"rewardAddr","type":"address"}],"name":"ValidatorCreated","type":"event"},{"anonymous":false,"inputs":[{"indexed":false,"internalType":"address[]","name":"validators","type":"address[]"}],"name":"ValidatorSetUpdated","type":"event"},{"anonymous":false,"inputs":[{"indexed":true,"internalType":"address","name":"validator","type":"address"},{"indexed":false,"internalType":"uint256","name":"amount","type":"uint256"}],"name":"ValidatorSlash","type":"event"},{"anonymous":false,"inputs":[{"indexed":true,"internalType":"address","name":"validator","type":"address"}],"name":"ValidatorUnjailed","type":"event"},{"anonymous":false,"inputs":[{"indexed":true,"internalType":"address","name":"validator","type":"address"},{"indexed":true,"internalType":"address","name":"rewardAddr","type":"address"}],"name":"ValidatorUpdated","type":"event"},{"anonymous":false,"inputs":[{"indexed":true,"internalType":"address","name":"validator","type":"address"},{"indexed":true,"internalType":"address","name":"rewardAddress","type":"address"},{"indexed":false,"internalType":"uint256","name":"amount","type":"uint256"},{"indexed":false,"internalType":"uint256","name":"nextWithdrawBlock","type":"uint256"}],"name":"WithdrawRewards","type":"event"},{"anonymous":false,"inputs":[{"indexed":true,"internalType":"address","name":"staker","type":"address"},{"indexed":true,"internalType":"address","name":"validator","type":"address"},{"indexed":false,"internalType":"uint256","name":"amount","type":"uint256"}],"name":"WithdrawStaking","type":"event"},{"inputs":[],"name":"BlockEpoch","outputs":[{"internalType":"uint256","name":"","type":"uint256"}],"stateMutability":"view","type":"function"},{"inputs":[],"name":"DEFAULT_COMMISSION_RATE","outputs":[{"internalType":"uint256","name":"","type":"uint256"}],"stateMutability":"view","type":"function"},{"inputs":[],"name":"MAX_COMMISSION_RATE","outputs":[{"internalType":"uint256","name":"","type":"uint256"}],"stateMutability":"view","type":"function"},{"inputs":[],"name":"MaxValidatorNum","outputs":[{"internalType":"uint16","name":"","type":"uint16"}],"stateMutability":"view","type":"function"},{"inputs":[],"name":"MinimalOfStaking","outputs":[{"internalType":"uint256","name":"","type":"uint256"}],"stateMutability":"view","type":"function"},{"inputs":[],"name":"MinimalStakingCoin","outputs":[{"internalType":"uint256","name":"","type":"uint256"}],"stateMutability":"view","type":"function"},{"inputs":[],"name":"SlashContractAddr","outputs":[{"internalType":"address","name":"","type":"address"}],"stateMutability":"view","type":"function"},{"inputs":[],"name":"StakingLockPeriod","outputs":[{"internalType":"uint64","name":"","type":"uint64"}],"stateMutability":"view","type":"function"},{"inputs":[],"name":"ValidatorContractAddr","outputs":[{"internalType":"address","name":"","type":"address"}],"stateMutability":"view","type":"function"},{"inputs":[],"name":"ValidatorSlashAmount","outputs":[{"internalType":"uint256","name":"","type":"uint256"}],"stateMutability":"view","type":"function"},{"inputs":[],"name":"WithdrawRewardPeriod","outputs":[{"internalType":"uint64","name":"","type":"uint64"}],"stateMutability":"view","type":"function"},{"inputs":[],"name":"admin","outputs":[{"internalType":"address","name":"","type":"address"}],"stateMutability":"view","type":"function"},{"inputs":[{"internalType":"address","name":"newAdmin","type":"address"}],"name":"changeAdmin","outputs":[],"stateMutability":"nonpayable","type":"function"},{"inputs":[{"internalType":"address","name":"validator","type":"address"}],"name":"claimDelegatorRewards","outputs":[{"internalType":"bool","name":"","type":"bool"}],"stateMutability":"nonpayable","type":"function"},{"inputs":[{"internalType":"address payable","name":"rewardAddr","type":"address"},{"internalType":"string","name":"moniker","type":"string"},{"internalType":"string","name":"website","type":"string"},{"internalType":"string","name":"email","type":"string"},{"internalType":"string","name":"details","type":"string"}],"name":"create","outputs":[{"internalType":"bool","name":"","type":"bool"}],"stateMutability":"payable","type":"function"},{"inputs":[{"internalType":"address","name":"","type":"address"},{"internalType":"address","name":"","type":"address"}],"name":"delegatorRewardInfo","outputs":[{"internalType":"uint256","name":"rewardDebt","type":"uint256"},{"internalType":"uint256","name":"pendingRewards","type":"uint256"},{"internalType":"uint256","name":"lastClaimBlock","type":"uint256"}],"stateMutability":"view","type":"function"},{"inputs":[],"name":"distributeBlockReward","outputs":[],"stateMutability":"payable","type":"function"},{"inputs":[{"internalType":"address payable","name":"rewardAddr","type":"address"},{"internalType":"string","name":"moniker","type":"string"},{"internalType":"string","name":"website","type":"string"},{"internalType":"string","name":"email","type":"string"},{"internalType":"string","name":"details","type":"string"}],"name":"edit","outputs":[{"internalType":"bool","name":"","type":"bool"}],"stateMutability":"nonpayable","type":"function"},{"inputs":[],"name":"getActivatedValidators","outputs":[{"internalType":"address[]","name":"","type":"address[]"}],"stateMutability":"view","type":"function"},{"inputs":[{"internalType":"address","name":"delegator","type":"address"},{"internalType":"address","name":"validator","type":"address"}],"name":"getPendingDelegatorRewards","outputs":[{"internalType":"uint256","name":"","type":"uint256"}],"stateMutability":"view","type":"function"},{"inputs":[{"internalType":"address","name":"staker","type":"address"},{"internalType":"address","name":"validator","type":"address"}],"name":"getStakingInfo","outputs":[{"internalType":"uint256","name":"","type":"uint256"},{"internalType":"uint256","name":"","type":"uint256"},{"internalType":"uint256","name":"","type":"uint256"}],"stateMutability":"view","type":"function"},{"inputs":[],"name":"getValidatorCandidate","outputs":[{"internalType":"address[]","name":"","type":"address[]"},{"internalType":"uint256[]","name":"","type":"uint256[]"},{"internalType":"uint256","name":"","type":"uint256"}],"stateMutability":"view","type":"function"},{"inputs":[{"internalType":"address","name":"validator","type":"address"}],"name":"getValidatorDescription","outputs":[{"internalType":"string","name":"","type":"string"},{"internalType":"string","name":"","type":"string"},{"internalType":"string","name":"","type":"string"},{"internalType":"string","name":"","type":"string"}],"stateMutability":"view","type":"function"},{"inputs":[{"internalType":"address","name":"validator","type":"address"}],"name":"getValidatorInfo","outputs":[{"internalType":"address payable","name":"","type":"address"},{"internalType":"enum Validators.Status","name":"","type":"uint8"},{"internalType":"uint256","name":"","type":"uint256"},{"internalType":"uint256","name":"","type":"uint256"},{"internalType":"uint256","name":"","type":"uint256"},{"internalType":"uint256","name":"","type":"uint256"},{"internalType":"address[]","name":"","type":"address[]"}],"stateMutability":"view","type":"function"},{"inputs":[{"internalType":"address[]","name":"validators","type":"address[]"}],"name":"initialize","outputs":[],"stateMutability":"nonpayable","type":"function"},{"inputs":[],"name":"initialized","outputs":[{"internalType":"bool","name":"","type":"bool"}],"stateMutability":"view","type":"function"},{"inputs":[{"internalType":"address","name":"validator","type":"address"}],"name":"isJailed","outputs":[{"internalType":"bool","name":"","type":"bool"}],"stateMutability":"view","type":"function"},{"inputs":[{"internalType":"address","name":"validator","type":"address"}],"name":"isValidatorActivated","outputs":[{"internalType":"bool","name":"","type":"bool"}],"stateMutability":"view","type":"function"},{"inputs":[{"internalType":"address","name":"who","type":"address"}],"name":"isValidatorCandidate","outputs":[{"internalType":"bool","name":"","type":"bool"}],"stateMutability":"view","type":"function"},{"inputs":[],"name":"pause","outputs":[],"stateMutability":"nonpayable","type":"function"},{"inputs":[],"name":"paused","outputs":[{"internalType":"bool","name":"","type":"bool"}],"stateMutability":"view","type":"function"},{"inputs":[{"internalType":"address","name":"validator","type":"address"}],"name":"slashValidator","outputs":[],"stateMutability":"nonpayable","type":"function"},{"inputs":[{"internalType":"address","name":"validator","type":"address"}],"name":"stake","outputs":[{"internalType":"bool","name":"","type":"bool"}],"stateMutability":"payable","type":"function"},{"inputs":[{"internalType":"address","name":"","type":"address"},{"internalType":"address","name":"","type":"address"}],"name":"stakerInfo","outputs":[{"internalType":"uint256","name":"amount","type":"uint256"},{"internalType":"uint256","name":"unstakeBlock","type":"uint256"},{"internalType":"uint256","name":"index","type":"uint256"}],"stateMutability":"view","type":"function"},{"inputs":[],"name":"totalStaking","outputs":[{"internalType":"uint256","name":"","type":"uint256"}],"stateMutability":"view","type":"function"},{"inputs":[],"name":"unjailed","outputs":[{"internalType":"bool","name":"","type":"bool"}],"stateMutability":"nonpayable","type":"function"},{"inputs":[],"name":"unpause","outputs":[],"stateMutability":"nonpayable","type":"function"},{"inputs":[{"internalType":"address","name":"validator","type":"address"}],"name":"unstake","outputs":[{"internalType":"bool","name":"","type":"bool"}],"stateMutability":"nonpayable","type":"function"},{"inputs":[],"name":"updateActivatedValidators","outputs":[{"internalType":"address[]","name":"","type":"address[]"}],"stateMutability":"nonpayable","type":"function"},{"inputs":[{"internalType":"string","name":"moniker","type":"string"},{"internalType":"string","name":"website","type":"string"},{"internalType":"string","name":"email","type":"string"},{"internalType":"string","name":"details","type":"string"}],"name":"validateDescription","outputs":[{"internalType":"bool","name":"","type":"bool"}],"stateMutability":"pure","type":"function"},{"inputs":[{"internalType":"uint256","name":"","type":"uint256"}],"name":"validatorCandidateSet","outputs":[{"internalType":"address","name":"","type":"address"}],"stateMutability":"view","type":"function"},{"inputs":[{"internalType":"address","name":"","type":"address"}],"name":"validatorInfo","outputs":[{"internalType":"address payable","name":"rewardAddr","type":"address"},{"internalType":"enum Validators.Status","name":"status","type":"uint8"},{"internalType":"uint256","name":"stakingAmount","type":"uint256"},{"components":[{"internalType":"string","name":"moniker","type":"string"},{"internalType":"string","name":"website","type":"string"},{"internalType":"string","name":"email","type":"string"},{"internalType":"string","name":"details","type":"string"}],"internalType":"struct Validators.Description","name":"description","type":"tuple"},{"internalType":"uint256","name":"rewardAmount","type":"uint256"},{"internalType":"uint256","name":"slashAmount","type":"uint256"},{"internalType":"uint256","name":"lastWithdrawRewardBlock","type":"uint256"},{"internalType":"uint256","name":"commissionRate","type":"uint256"},{"internalType":"uint256","name":"delegatorRewardPool","type":"uint256"},{"internalType":"uint256","name":"accRewardPerStake","type":"uint256"},{"internalType":"uint256","name":"accSlashPerStake","type":"uint256"}],"stateMutability":"view","type":"function"},{"inputs":[{"internalType":"uint256","name":"","type":"uint256"}],"name":"validatorSet","outputs":[{"internalType":"address","name":"","type":"address"}],"stateMutability":"view","type":"function"},{"inputs":[{"internalType":"address","name":"validator","type":"address"}],"name":"withdrawRewards","outputs":[{"internalType":"bool","name":"","type":"bool"}],"stateMutability":"nonpayable","type":"function"},{"inputs":[{"internalType":"address","name":"validator","type":"address"}],"name":"withdrawStaking","outputs":[{"internalType":"bool","name":"","type":"bool"}],"stateMutability":"nonpayable","type":"function"},{"stateMutability":"payable","type":"receive"}],"evm":{"bytecode":{"linkReferences":{},"object":"608060405234801561001057600080fd5b50615546806100206000396000f3fe6080604052600436106102365760003560e01c80638cab587d1161012f578063b8db983e116100b1578063b8db983e146106f9578063be6456921461070f578063c6b6d9ec1461072d578063d59070c21461074d578063d6056e6714610775578063d6c0edad14610792578063db78dd281461079a578063db7d5ace146107c9578063e64808f3146107df578063e8a3298b146107ff578063f2888dbb14610814578063f851a4401461083457600080fd5b80638cab587d146105625780638f283970146105755780638f67e6bb1461059557806393e71c5f146105d85780639b7fb063146105ed578063a0c3f2d21461060d578063a224cee71461062d578063a43569b31461064d578063a4473f121461067d578063b7d02ce2146106c4578063b7dc5c40146106e457600080fd5b80633f4ba83a116101b85780633f4ba83a1461039e57806342d86693146103b5578063445db4a1146103d55780634711f586146103f95780634f1811dd146104195780635c975abb1461045057806367239a041461046f5780637f4f95fa146104855780638456cb59146104f85780638a11d7c91461050d5780638af0a8691461054057600080fd5b806314bfb52714610242578063158ef93e14610277578063165defa4146102915780631a8d57bc146102b55780631c8b8a3d146102d5578063207239c0146102f5578063222d3b051461030b578063264762041461032b5780632bccecfd1461033e57806338a92c761461035b5780633a061bd31461038857600080fd5b3661023d57005b600080fd5b34801561024e57600080fd5b5061026261025d366004614b31565b61085a565b60405190151581526020015b60405180910390f35b34801561028357600080fd5b506000546102629060ff1681565b34801561029d57600080fd5b506102a760055481565b60405190815260200161026e565b3480156102c157600080fd5b506102626102d0366004614b31565b610899565b3480156102e157600080fd5b506102626102f0366004614b31565b6109f5565b34801561030157600080fd5b506102a76103e881565b34801561031757600080fd5b50610262610326366004614b31565b610a5e565b610262610339366004614b31565b610c15565b34801561034a57600080fd5b506102a7681b1ae4d6e2ef50000081565b34801561036757600080fd5b5061037b610376366004614b55565b610c75565b60405161026e9190614b6e565b34801561039457600080fd5b5061037b61100081565b3480156103aa57600080fd5b506103b3610c9f565b005b3480156103c157600080fd5b506102626103d0366004614b31565b610d47565b3480156103e157600080fd5b506103ea610f81565b60405161026e93929190614bc6565b34801561040557600080fd5b506103b3610414366004614b31565b611175565b34801561042557600080fd5b50610439610434366004614b31565b61136b565b60405161026e9b9a99989796959493929190614ca4565b34801561045c57600080fd5b5060005461026290610100900460ff1681565b34801561047b57600080fd5b5061037b61100181565b34801561049157600080fd5b506104dd6104a0366004614d80565b6001600160a01b03918216600090815260026020818152604080842094909516835292909252919091208054600182015491909201549192909190565b6040805193845260208401929092529082015260600161026e565b34801561050457600080fd5b506103b3611622565b34801561051957600080fd5b5061052d610528366004614b31565b6116d3565b60405161026e9796959493929190614db9565b34801561054c57600080fd5b50610555611a93565b60405161026e9190614e00565b610262610570366004614e5b565b611c66565b34801561058157600080fd5b506103b3610590366004614b31565b611da7565b3480156105a157600080fd5b506104dd6105b0366004614d80565b6002602081815260009384526040808520909152918352912080546001820154919092015483565b3480156105e457600080fd5b50610262611e8e565b3480156105f957600080fd5b50610262610608366004614e5b565b6120c0565b34801561061957600080fd5b50610262610628366004614b31565b6121b7565b34801561063957600080fd5b506103b3610648366004614f33565b612217565b34801561065957600080fd5b5061066d610668366004614b31565b6126e4565b60405161026e9493929190614fa7565b34801561068957600080fd5b506104dd610698366004614d80565b600a60209081526000928352604080842090915290825290208054600182015460029092015490919083565b3480156106d057600080fd5b506102626106df3660046150a1565b612a96565b3480156106f057600080fd5b50610555612ba4565b34801561070557600080fd5b506102a76101f481565b34801561071b57600080fd5b506102a769021e19e0c9bab240000081565b34801561073957600080fd5b506102a7610748366004614d80565b612c06565b34801561075957600080fd5b50610762606581565b60405161ffff909116815260200161026e565b34801561078157600080fd5b506102a7683635c9adc5dea0000081565b6103b361309f565b3480156107a657600080fd5b506107b16201518081565b6040516001600160401b03909116815260200161026e565b3480156107d557600080fd5b506107b161708081565b3480156107eb57600080fd5b5061037b6107fa366004614b55565b613165565b34801561080b57600080fd5b506102a760c881565b34801561082057600080fd5b5061026261082f366004614b31565b613175565b34801561084057600080fd5b5060005461037b906201000090046001600160a01b031681565b600060046001600160a01b038316600090815260016020526040902054600160a01b900460ff16600481111561089257610892614c26565b1492915050565b6000336108a6818461356d565b6001600160a01b038082166000908152600a6020908152604080832093871683529290522060018101548061090f5760405162461bcd60e51b815260206004820152600a6024820152694e6f207265776172647360b01b60448201526064015b60405180910390fd5b600060018084018290554360028501556001600160a01b038716825260205260409020600b8101548211610957578181600b015461094d9190615163565b600b820155610965565b600b81018054600090915591505b6040516001600160a01b0385169083156108fc029084906000818181858888f1935050505015801561099b573d6000803e3d6000fd5b50856001600160a01b0316846001600160a01b03167fd6372d5dcef6fdc00333adeb055e218bfc8aafecdc567f58874ee83017bfd0bd846040516109e191815260200190565b60405180910390a350600195945050505050565b6000805b600454811015610a5557826001600160a01b031660048281548110610a2057610a20615176565b6000918252602090912001546001600160a01b031603610a435750600192915050565b80610a4d8161518c565b9150506109f9565b50600092915050565b3360008181526002602090815260408083206001600160a01b0386168452825280832060019092528220549192918390600160a01b900460ff166004811115610aa957610aa9614c26565b03610ac65760405162461bcd60e51b8152600401610906906151a5565b8060010154600003610b0a5760405162461bcd60e51b815260206004820152600d60248201526c155b9cdd185ad948199a5c9cdd609a1b6044820152606401610906565b60018101544390610b1f9062015180906151c8565b1115610b5c5760405162461bcd60e51b815260206004820152600c60248201526b14dd1a5b1b081b1bd8dad95960a21b6044820152606401610906565b8054610b7a5760405162461bcd60e51b8152600401610906906151db565b80546000808355600183018190556040516001600160a01b0385169183156108fc02918491818181858888f19350505050158015610bbc573d6000803e3d6000fd5b50846001600160a01b0316836001600160a01b03167f3ca927248eb3fe77ad85f6de5853a874833484b0985cdb49c8ceaa326162456b83604051610c0291815260200190565b60405180910390a3506001949350505050565b6000805460ff16610c385760405162461bcd60e51b8152600401610906906151fd565b600054610100900460ff1615610c605760405162461bcd60e51b815260040161090690615230565b3334610c6d82858361363e565b949350505050565b60038181548110610c8557600080fd5b6000918252602090912001546001600160a01b0316905081565b6000546201000090046001600160a01b03163314610ccf5760405162461bcd60e51b81526004016109069061525c565b600054610100900460ff16610d135760405162461bcd60e51b815260206004820152600a602482015269139bdd081c185d5cd95960b21b6044820152606401610906565b6000805461ff00191681556040517fa45f47fdea8a1efdd9029a5691c7f759c32b7c698632b563573e155625d169339190a1565b600033816001600160a01b038416600090815260016020526040902054600160a01b900460ff166004811115610d7f57610d7f614c26565b03610d9c5760405162461bcd60e51b8152600401610906906151a5565b6001600160a01b03838116600090815260016020526040902054811690821614610df75760405162461bcd60e51b815260206004820152600c60248201526b2737ba103932b1b2b4bb32b960a11b6044820152606401610906565b6001600160a01b0383166000908152600160205260409020600801544390610e2290617080906151c8565b1115610e5e5760405162461bcd60e51b815260206004820152600b60248201526a15d85a5d081c195c9a5bd960aa1b6044820152606401610906565b6001600160a01b03831660009081526001602052604090206006015480610eb35760405162461bcd60e51b8152602060048201526009602482015268139bc81c995dd85c9960ba1b6044820152606401610906565b6001600160a01b03841660009081526001602052604081206006810191909155436008909101558015610f18576040516001600160a01b0383169082156108fc029083906000818181858888f19350505050158015610f16573d6000803e3d6000fd5b505b6000610f26617080436151c8565b610f319060016151c8565b9050826001600160a01b0316856001600160a01b03167ff4e9e956ba4b65051e84982c3ade043c89890cdbc452e9e446afe09cd4db40c88484604051610c02929190918252602082015260400190565b6060806000806003805490506001600160401b03811115610fa457610fa4614fff565b604051908082528060200260200182016040528015610fcd578160200160208202803683370190505b506003549091506000906001600160401b03811115610fee57610fee614fff565b604051908082528060200260200182016040528015611017578160200160208202803683370190505b5090506000805b600354811015611168576002600160006003848154811061104157611041615176565b60009182526020808320909101546001600160a01b0316835282019290925260400190205460ff600160a01b90910416600481111561108257611082614c26565b03611156576003818154811061109a5761109a615176565b9060005260206000200160009054906101000a90046001600160a01b03168483815181106110ca576110ca615176565b60200260200101906001600160a01b031690816001600160a01b031681525050600160006003838154811061110157611101615176565b60009182526020808320909101546001600160a01b03168352820192909252604001902060010154835184908490811061113d5761113d615176565b6020908102919091010152816111528161518c565b9250505b806111608161518c565b91505061101e565b5091959094509092509050565b33611001146111d85760405162461bcd60e51b815260206004820152602960248201527f746865206d6573736167652073656e646572206d75737420626520736c6173686044820152680818dbdb9d1c9858dd60ba1b6064820152608401610906565b6111e1816109f5565b15611368576001600160a01b0381166000908152600160208190526040909120805460ff60a01b1916600160a21b1781559081015461121f836139fb565b61122883613b25565b8060000361123557505050565b6000805b60098401548110156112ec5760006002600086600901848154811061126057611260615176565b60009182526020808320909101546001600160a01b0390811684528382019490945260409283018220938a168252929092528120805490925085906112af90681b1ae4d6e2ef5000009061529d565b6112b991906152ca565b82549091506112c9908290615163565b82556112d581856151c8565b9350505080806112e49061518c565b915050611239565b508083600101546112fd9190615163565b600184015560078301546113129082906151c8565b60078401556113218185613cbc565b836001600160a01b03167fdd028864d7fcafbeb3bfb9802b23966c52cef5d2e4066d3c76ca2e8e4c19ebd08260405161135c91815260200190565b60405180910390a25050505b50565b6001602081905260009182526040918290208054918101548351608081019094526002820180546001600160a01b03851695600160a01b90950460ff16949293929190829082906113bb906152de565b80601f01602080910402602001604051908101604052809291908181526020018280546113e7906152de565b80156114345780601f1061140957610100808354040283529160200191611434565b820191906000526020600020905b81548152906001019060200180831161141757829003601f168201915b5050505050815260200160018201805461144d906152de565b80601f0160208091040260200160405190810160405280929190818152602001828054611479906152de565b80156114c65780601f1061149b576101008083540402835291602001916114c6565b820191906000526020600020905b8154815290600101906020018083116114a957829003601f168201915b505050505081526020016002820180546114df906152de565b80601f016020809104026020016040519081016040528092919081815260200182805461150b906152de565b80156115585780601f1061152d57610100808354040283529160200191611558565b820191906000526020600020905b81548152906001019060200180831161153b57829003601f168201915b50505050508152602001600382018054611571906152de565b80601f016020809104026020016040519081016040528092919081815260200182805461159d906152de565b80156115ea5780601f106115bf576101008083540402835291602001916115ea565b820191906000526020600020905b8154815290600101906020018083116115cd57829003601f168201915b5050505050815250509080600601549080600701549080600801549080600a01549080600b01549080600c01549080600d015490508b565b6000546201000090046001600160a01b031633146116525760405162461bcd60e51b81526004016109069061525c565b600054610100900460ff161561169b5760405162461bcd60e51b815260206004820152600e60248201526d105b1c9958591e481c185d5cd95960921b6044820152606401610906565b6000805461ff0019166101001781556040517f9e87fac88ff661f02d44f95383c817fece4bce600a3dab7a54406878b965e7529190a1565b6001600160a01b038181166000908152600160209081526040808320815161018081019092528054948516825292938493849384938493849360609385939290830190600160a01b900460ff16600481111561173157611731614c26565b600481111561174257611742614c26565b81526020016001820154815260200160028201604051806080016040529081600082018054611770906152de565b80601f016020809104026020016040519081016040528092919081815260200182805461179c906152de565b80156117e95780601f106117be576101008083540402835291602001916117e9565b820191906000526020600020905b8154815290600101906020018083116117cc57829003601f168201915b50505050508152602001600182018054611802906152de565b80601f016020809104026020016040519081016040528092919081815260200182805461182e906152de565b801561187b5780601f106118505761010080835404028352916020019161187b565b820191906000526020600020905b81548152906001019060200180831161185e57829003601f168201915b50505050508152602001600282018054611894906152de565b80601f01602080910402602001604051908101604052809291908181526020018280546118c0906152de565b801561190d5780601f106118e25761010080835404028352916020019161190d565b820191906000526020600020905b8154815290600101906020018083116118f057829003601f168201915b50505050508152602001600382018054611926906152de565b80601f0160208091040260200160405190810160405280929190818152602001828054611952906152de565b801561199f5780601f106119745761010080835404028352916020019161199f565b820191906000526020600020905b81548152906001019060200180831161198257829003601f168201915b505050505081525050815260200160068201548152602001600782015481526020016008820154815260200160098201805480602002602001604051908101604052809291908181526020018280548015611a2357602002820191906000526020600020905b81546001600160a01b03168152600190910190602001808311611a05575b50505050508152602001600a8201548152602001600b8201548152602001600c8201548152602001600d82015481525050905080600001518160200151826040015183608001518460a001518560c001518660e00151975097509750975097509750975050919395979092949650565b6060334114611ab45760405162461bcd60e51b815260040161090690615318565b6008544311611af75760405162461bcd60e51b815260206004820152600f60248201526e105b1c9958591e481d5c19185d1959608a1b6044820152606401610906565b60005460ff16611b195760405162461bcd60e51b8152600401610906906151fd565b611b2460c843615365565b15611b415760405162461bcd60e51b815260040161090690615379565b600354611b7c5760405162461bcd60e51b8152602060048201526009602482015268195b5c1d1e481cd95d60ba1b6044820152606401610906565b60035460651015611bb95760405162461bcd60e51b81526020600482015260076024820152666d61782031303160c81b6044820152606401610906565b60038054611bc991600491614ab7565b507f6120448f3d4245c1ff708d970c34e1b6484ee22a794ede0bfca2317a97aa8ced6004604051611bfa91906153a3565b60405180910390a16004805480602002602001604051908101604052809291908181526020018280548015611c5857602002820191906000526020600020905b81546001600160a01b03168152600190910190602001808311611c3a575b505050505090504360085590565b6000805460ff16611c895760405162461bcd60e51b8152600401610906906151fd565b600054610100900460ff1615611cb15760405162461bcd60e51b815260040161090690615230565b33600081815260016020526040812054600160a01b900460ff166004811115611cdc57611cdc614c26565b14611d195760405162461bcd60e51b815260206004820152600d60248201526c105b1c9958591e48195e1a5cdd609a1b6044820152606401610906565b34611d2c828d8d8d8d8d8d8d8d8d614462565b506001600160a01b038083166000818152600160205260408082206101f4600a9091015551928f16927f22d10a5eb7a0f38ef7d1b508532e80fc470342c7ffafcc24fc98b5d20b2cc0ea9190a38015611d9357611d8a82838361363e565b92505050611d9a565b6001925050505b9998505050505050505050565b6000546201000090046001600160a01b03163314611dd75760405162461bcd60e51b81526004016109069061525c565b6001600160a01b038116611e255760405162461bcd60e51b8152602060048201526015602482015274496e76616c69642061646d696e206164647265737360581b6044820152606401610906565b600080546040516001600160a01b03808516936201000090930416917f7e644d79422f17c01e4894b5f4f588d331ebfa28653d42ae832dc59e38c9798f91a3600080546001600160a01b03909216620100000262010000600160b01b0319909216919091179055565b6000805460ff16611eb15760405162461bcd60e51b8152600401610906906151fd565b600054610100900460ff1615611ed95760405162461bcd60e51b815260040161090690615230565b33600081815260016020526040902054600490600160a01b900460ff1681811115611f0657611f06614c26565b14611f405760405162461bcd60e51b815260206004820152600a602482015269139bdd081a985a5b195960b21b6044820152606401610906565b60065460405163169b262360e01b81526001600160a01b039091169063169b262390611f70908490600401614b6e565b6020604051808303816000875af1158015611f8f573d6000803e3d6000fd5b505050506040513d601f19601f82011682018060405250810190611fb391906153f3565b611fee5760405162461bcd60e51b815260206004820152600c60248201526b10db19585b8819985a5b195960a21b6044820152606401610906565b6001600160a01b0381166000908152600160208190526040909120015469021e19e0c9bab24000001161205a576001600160a01b0381166000908152600160208190526040909120805460ff60a01b1916600160a11b17815501546120549082906147c7565b50612084565b6001600160a01b0381166000908152600160205260409020805460ff60a01b1916600360a01b1790555b6040516001600160a01b038216907f9390b453426557da5ebdc31f19a37753ca04addf656d32f35232211bb2af3f1990600090a2600191505090565b6000805460ff166120e35760405162461bcd60e51b8152600401610906906151fd565b600054610100900460ff161561210b5760405162461bcd60e51b815260040161090690615230565b33600081815260016020526040812054600160a01b900460ff16600481111561213657612136614c26565b036121535760405162461bcd60e51b8152600401610906906151a5565b612165818c8c8c8c8c8c8c8c8c614462565b508a6001600160a01b0316816001600160a01b03167fcfac5dc75b8d9a7e074162f59d9adcd33da59f0fe8dfb21580db298fc0fdad0d60405160405180910390a35060019a9950505050505050505050565b6000805b600354811015610a5557826001600160a01b0316600382815481106121e2576121e2615176565b6000918252602090912001546001600160a01b0316036122055750600192915050565b8061220f8161518c565b9150506121bb565b60005460ff161561226a5760405162461bcd60e51b815260206004820181905260248201527f74686520636f6e747261637420616c726561647920696e697469616c697a65646044820152606401610906565b600680546001600160a01b0319166110011790556000805462010000330262010000600160b01b03199091161781555b818110156126d25760008383838181106122b6576122b6615176565b90506020020160208101906122cb9190614b31565b6001600160a01b0316036123105760405162461bcd60e51b815260206004820152600c60248201526b24b73b30b634b21030b2323960a11b6044820152606401610906565b61233a83838381811061232557612325615176565b90506020020160208101906106289190614b31565b6123ef57600383838381811061235257612352615176565b90506020020160208101906123679190614b31565b81546001808201845560009384526020842090910180546001600160a01b0319166001600160a01b039390931692909217909155906009908585858181106123b1576123b1615176565b90506020020160208101906123c69190614b31565b6001600160a01b031681526020810191909152604001600020805460ff19169115159190911790555b61241983838381811061240457612404615176565b90506020020160208101906102f09190614b31565b61247957600483838381811061243157612431615176565b90506020020160208101906124469190614b31565b81546001810183556000928352602090922090910180546001600160a01b0319166001600160a01b039092169190911790555b600060018185858581811061249057612490615176565b90506020020160208101906124a59190614b31565b6001600160a01b039081168252602082019290925260400160002054160361254b578282828181106124d9576124d9615176565b90506020020160208101906124ee9190614b31565b6001600085858581811061250457612504615176565b90506020020160208101906125199190614b31565b6001600160a01b039081168252602082019290925260400160002080546001600160a01b031916929091169190911790555b60006001600085858581811061256357612563615176565b90506020020160208101906125789190614b31565b6001600160a01b03168152602081019190915260400160002054600160a01b900460ff1660048111156125ad576125ad614c26565b0361261e576002600160008585858181106125ca576125ca615176565b90506020020160208101906125df9190614b31565b6001600160a01b031681526020810191909152604001600020805460ff60a01b1916600160a01b83600481111561261857612618614c26565b02179055505b6001600084848481811061263457612634615176565b90506020020160208101906126499190614b31565b6001600160a01b03166001600160a01b03168152602001908152602001600020600a01546000036126c0576101f46001600085858581811061268d5761268d615176565b90506020020160208101906126a29190614b31565b6001600160a01b031681526020810191909152604001600020600a01555b806126ca8161518c565b91505061229a565b50506000805460ff1916600117905550565b6001600160a01b03818116600090815260016020908152604080832081516101808101909252805494851682526060948594859485949193919290830190600160a01b900460ff16600481111561273d5761273d614c26565b600481111561274e5761274e614c26565b8152602001600182015481526020016002820160405180608001604052908160008201805461277c906152de565b80601f01602080910402602001604051908101604052809291908181526020018280546127a8906152de565b80156127f55780601f106127ca576101008083540402835291602001916127f5565b820191906000526020600020905b8154815290600101906020018083116127d857829003601f168201915b5050505050815260200160018201805461280e906152de565b80601f016020809104026020016040519081016040528092919081815260200182805461283a906152de565b80156128875780601f1061285c57610100808354040283529160200191612887565b820191906000526020600020905b81548152906001019060200180831161286a57829003601f168201915b505050505081526020016002820180546128a0906152de565b80601f01602080910402602001604051908101604052809291908181526020018280546128cc906152de565b80156129195780601f106128ee57610100808354040283529160200191612919565b820191906000526020600020905b8154815290600101906020018083116128fc57829003601f168201915b50505050508152602001600382018054612932906152de565b80601f016020809104026020016040519081016040528092919081815260200182805461295e906152de565b80156129ab5780601f10612980576101008083540402835291602001916129ab565b820191906000526020600020905b81548152906001019060200180831161298e57829003601f168201915b505050505081525050815260200160068201548152602001600782015481526020016008820154815260200160098201805480602002602001604051908101604052809291908181526020018280548015612a2f57602002820191906000526020600020905b81546001600160a01b03168152600190910190602001808311612a11575b50505050508152602001600a8201548152602001600b8201548152602001600c8201548152602001600d8201548152505090508060600151600001518160600151602001518260600151604001518360600151606001519450945094509450509193509193565b6000608085511115612ad85760405162461bcd60e51b815260206004820152600b60248201526a36b7b734b5b2b9103632b760a91b6044820152606401610906565b61010084511115612b195760405162461bcd60e51b815260206004820152600b60248201526a3bb2b139b4ba32903632b760a91b6044820152606401610906565b61010083511115612b585760405162461bcd60e51b815260206004820152600960248201526832b6b0b4b6103632b760b91b6044820152606401610906565b61040082511115612b995760405162461bcd60e51b815260206004820152600b60248201526a3232ba30b4b639903632b760a91b6044820152606401610906565b506001949350505050565b60606004805480602002602001604051908101604052809291908181526020018280548015612bfc57602002820191906000526020600020905b81546001600160a01b03168152600190910190602001808311612bde575b5050505050905090565b6001600160a01b03828116600090815260026020818152604080842086861680865290835281852082516060810184528154815260018083015482870152919095015485840152908552825280842081516101808101909252805495861682529394929385939192909190830190600160a01b900460ff166004811115612c8f57612c8f614c26565b6004811115612ca057612ca0614c26565b81526020016001820154815260200160028201604051806080016040529081600082018054612cce906152de565b80601f0160208091040260200160405190810160405280929190818152602001828054612cfa906152de565b8015612d475780601f10612d1c57610100808354040283529160200191612d47565b820191906000526020600020905b815481529060010190602001808311612d2a57829003601f168201915b50505050508152602001600182018054612d60906152de565b80601f0160208091040260200160405190810160405280929190818152602001828054612d8c906152de565b8015612dd95780601f10612dae57610100808354040283529160200191612dd9565b820191906000526020600020905b815481529060010190602001808311612dbc57829003601f168201915b50505050508152602001600282018054612df2906152de565b80601f0160208091040260200160405190810160405280929190818152602001828054612e1e906152de565b8015612e6b5780601f10612e4057610100808354040283529160200191612e6b565b820191906000526020600020905b815481529060010190602001808311612e4e57829003601f168201915b50505050508152602001600382018054612e84906152de565b80601f0160208091040260200160405190810160405280929190818152602001828054612eb0906152de565b8015612efd5780601f10612ed257610100808354040283529160200191612efd565b820191906000526020600020905b815481529060010190602001808311612ee057829003601f168201915b505050505081525050815260200160068201548152602001600782015481526020016008820154815260200160098201805480602002602001604051908101604052809291908181526020018280548015612f8157602002820191906000526020600020905b81546001600160a01b03168152600190910190602001808311612f63575b50505050508152602001600a8201548152602001600b8201548152602001600c8201548152602001600d8201548152505090506000600a6000876001600160a01b03166001600160a01b031681526020019081526020016000206000866001600160a01b03166001600160a01b0316815260200190815260200160002060405180606001604052908160008201548152602001600182015481526020016002820154815250509050826000015160000361304357602001519250613099915050565b6000670de0b6b3a76400008361014001518560000151613063919061529d565b61306d91906152ca565b825190915060009061307f9083615163565b905080836020015161309191906151c8565b955050505050505b92915050565b3341146130be5760405162461bcd60e51b815260040161090690615318565b60075443116131025760405162461bcd60e51b815260206004820152601060248201526f105b1c9958591e481c995dd85c99195960821b6044820152606401610906565b60005460ff166131245760405162461bcd60e51b8152600401610906906151fd565b61312f60c843615365565b1561314c5760405162461bcd60e51b815260040161090690615379565b34801561315e5761315e816000613cbc565b5043600755565b60048181548110610c8557600080fd5b6000805460ff166131985760405162461bcd60e51b8152600401610906906151fd565b600054610100900460ff16156131c05760405162461bcd60e51b815260040161090690615230565b3360006001600160a01b038416600090815260016020526040902054600160a01b900460ff1660048111156131f7576131f7614c26565b036132145760405162461bcd60e51b8152600401610906906151a5565b61321e818461356d565b6001600160a01b038082166000908152600260209081526040808320938716835292815282822060019182905292909120825491830154909190156132995760405162461bcd60e51b8152602060048201526011602482015270416c726561647920756e7374616b696e6760781b6044820152606401610906565b600081116132b95760405162461bcd60e51b8152600401610906906151db565b60045460011480156132cf57506132cf866109f5565b80156132f3575069021e19e0c9bab24000008183600101546132f19190615163565b105b156133315760405162461bcd60e51b815260206004820152600e60248201526d2630b9ba103b30b634b230ba37b960911b6044820152606401610906565b600982015461334290600190615163565b83600201541461342e5760098201805461335e90600190615163565b8154811061336e5761336e615176565b9060005260206000200160009054906101000a90046001600160a01b0316826009018460020154815481106133a5576133a5615176565b9060005260206000200160006101000a8154816001600160a01b0302191690836001600160a01b03160217905550826002015460026000846009018660020154815481106133f5576133f5615176565b60009182526020808320909101546001600160a01b0390811684528382019490945260409283018220938b168252929092529020600201555b8160090180548061344157613441615415565b600082815260209020810160001990810180546001600160a01b03191690550190556001820154613473908290615163565b600180840191909155439084015560006002840155600554613496908290615163565b600555600182015469021e19e0c9bab240000011156134c157815460ff60a01b1916600360a01b1782555b60006134d062015180436151c8565b6134db9060016151c8565b9050866001600160a01b0316856001600160a01b03167f18edd09e80386cd99df397e2e0d87d2bb259423eae08645e776321a36fe680ef848460405161352b929190918252602082015260400190565b60405180910390a360028354600160a01b900460ff16600481111561355257613552614c26565b146135605761356087613b25565b5060019695505050505050565b6001600160a01b03808316600081815260026020908152604080832094861680845294825280832060018352818420948452600a8352818420958452949091529020825415613612576000670de0b6b3a764000083600c015485600001546135d5919061529d565b6135df91906152ca565b82549091506000906135f19083615163565b9050801561360f5780836001015461360991906151c8565b60018401555b50505b600c8201548354670de0b6b3a76400009161362c9161529d565b61363691906152ca565b905550505050565b6000806001600160a01b038416600090815260016020526040902054600160a01b900460ff16600481111561367557613675614c26565b036136925760405162461bcd60e51b8152600401610906906151a5565b6001600160a01b03808516600090815260026020908152604080832093871683529290522060010154156136f45760405162461bcd60e51b8152602060048201526009602482015268556e7374616b696e6760b81b6044820152606401610906565b683635c9adc5dea0000082101561373c5760405162461bcd60e51b815260206004820152600c60248201526b135a5b880c4c0c0c0813d61560a21b6044820152606401610906565b6001600160a01b03831660009081526001602081905260409091209081015469021e19e0c9bab2400000906137729085906151c8565b10156137b05760405162461bcd60e51b815260206004820152600d60248201526c135a5b880c4c0c0c0c0813d615609a1b6044820152606401610906565b6137ba858561356d565b6001600160a01b0380861660009081526002602090815260408083209388168352929052908120549003613837576009810180546001600160a01b038088166000818152600260208181526040808420958c1684529481529382200184905560018401855593845292200180546001600160a01b03191690911790555b82816001015461384791906151c8565b600182015560028154600160a01b900460ff16600481111561386b5761386b614c26565b14158015613896575060048154600160a01b900460ff16600481111561389357613893614c26565b14155b156138ad57805460ff60a01b1916600160a11b1781555b6001600160a01b038086166000908152600260209081526040808320938816835292905220546138de9084906151c8565b6001600160a01b038087166000908152600260209081526040808320938916835292905220556005546139129084906151c8565b600555600c8101546001600160a01b03808716600090815260026020908152604080832093891683529290522054670de0b6b3a7640000916139539161529d565b61395d91906152ca565b6001600160a01b038681166000818152600a60209081526040808320948a16808452948252918290209490945551868152919290917f795c91e2fef542f2e8bccd08552a8961ecb158d0f47be08f5c44b349993b07a9910160405180910390a360028154600160a01b900460ff1660048111156139dc576139dc614c26565b03612b99576139ef8482600101546147c7565b50506001949350505050565b60005b60045481108015613a1157506004546001105b15613b215760048181548110613a2957613a29615176565b6000918252602090912001546001600160a01b0390811690831603613b0f57600454613a5790600190615163565b8114613ad85760048054613a6d90600190615163565b81548110613a7d57613a7d615176565b600091825260209091200154600480546001600160a01b039092169183908110613aa957613aa9615176565b9060005260206000200160006101000a8154816001600160a01b0302191690836001600160a01b031602179055505b6004805480613ae957613ae9615415565b600082815260209020810160001990810180546001600160a01b03191690550190555050565b80613b198161518c565b9150506139fe565b5050565b6001600160a01b03811660009081526009602052604090205460ff16613b485750565b60005b60035481108015613b5e57506003546001105b15613b2157816001600160a01b031660038281548110613b8057613b80615176565b6000918252602090912001546001600160a01b031603613caa57600354613ba990600190615163565b8114613c2a5760038054613bbf90600190615163565b81548110613bcf57613bcf615176565b600091825260209091200154600380546001600160a01b039092169183908110613bfb57613bfb615176565b9060005260206000200160006101000a8154816001600160a01b0302191690836001600160a01b031602179055505b6003805480613c3b57613c3b615415565b60008281526020808220830160001990810180546001600160a01b03191690559092019092556001600160a01b03841680835260099091526040808320805460ff191690555190917f4fc54cda221fafc19baae2a4c79ae99dd0916c88b67ab97d3122a5afe333fc1d91a25050565b80613cb48161518c565b915050613b4b565b81600003613cc8575050565b60008060005b600454811015613de05760046001600060048481548110613cf157613cf1615176565b60009182526020808320909101546001600160a01b0316835282019290925260400190205460ff600160a01b909104166004811115613d3257613d32614c26565b14158015613d705750836001600160a01b031660048281548110613d5857613d58615176565b6000918252602090912001546001600160a01b031614155b15613dce576001600060048381548110613d8c57613d8c615176565b60009182526020808320909101546001600160a01b03168352820192909252604001902060010154613dbe90846151c8565b925081613dca8161518c565b9250505b80613dd88161518c565b915050613cce565b5080600003613def5750505050565b6000816001600160401b03811115613e0957613e09614fff565b604051908082528060200260200182016040528015613e32578160200160208202803683370190505b5090506000826001600160401b03811115613e4f57613e4f614fff565b604051908082528060200260200182016040528015613e78578160200160208202803683370190505b50905060008060005b6004548110156143045760046001600060048481548110613ea457613ea4615176565b60009182526020808320909101546001600160a01b0316835282019290925260400190205460ff600160a01b909104166004811115613ee557613ee5614c26565b14158015613f235750876001600160a01b031660048281548110613f0b57613f0b615176565b6000918252602090912001546001600160a01b031614155b156142f257600087600003613f4357613f3c878b6152ca565b9050613f9a565b876001600060048581548110613f5b57613f5b615176565b60009182526020808320909101546001600160a01b03168352820192909252604001902060010154613f8d908c61529d565b613f9791906152ca565b90505b60006127106001600060048681548110613fb657613fb6615176565b60009182526020808320909101546001600160a01b031683528201929092526040019020600a0154613fe8908461529d565b613ff291906152ca565b905060006140008284615163565b905081600160006004878154811061401a5761401a615176565b60009182526020808320909101546001600160a01b0316835282019290925260400190206006015461404c91906151c8565b600160006004878154811061406357614063615176565b60009182526020808320909101546001600160a01b03168352820192909252604001812060060191909155600480546001918391889081106140a7576140a7615176565b60009182526020808320909101546001600160a01b031683528201929092526040019020600101541180156140dc5750600081115b15614253578060016000600487815481106140f9576140f9615176565b60009182526020808320909101546001600160a01b031683528201929092526040019020600b015461412b91906151c8565b600160006004878154811061414257614142615176565b60009182526020808320909101546001600160a01b031683528201929092526040018120600b01919091556004805460019291908790811061418657614186615176565b60009182526020808320909101546001600160a01b031683528201929092526040019020600101546141c0670de0b6b3a76400008361529d565b6141ca91906152ca565b60016000600487815481106141e1576141e1615176565b60009182526020808320909101546001600160a01b031683528201929092526040019020600c015461421391906151c8565b600160006004878154811061422a5761422a615176565b60009182526020808320909101546001600160a01b031683528201929092526040019020600c01555b6004848154811061426657614266615176565b9060005260206000200160009054906101000a90046001600160a01b031688878151811061429657614296615176565b60200260200101906001600160a01b031690816001600160a01b031681525050828787815181106142c9576142c9615176565b6020908102919091010152856142de8161518c565b96506142ec905083866151c8565b94505050505b806142fc8161518c565b915050613e81565b506000614311828a615163565b90506000811180156143235750600083115b1561441c578060016000876143388388615163565b8151811061434857614348615176565b60200260200101516001600160a01b03166001600160a01b031681526020019081526020016000206006015461437e91906151c8565b600160008761438d8388615163565b8151811061439d5761439d615176565b6020908102919091018101516001600160a01b031682528101919091526040016000206006015580846143d1600186615163565b815181106143e1576143e1615176565b60200260200101516143f391906151c8565b846143ff600186615163565b8151811061440f5761440f615176565b6020026020010181815250505b7f762312188fa57bea7344b027aa7fe37066e66085ddedd6dbec6190a107668dd685858560405161444f93929190614bc6565b60405180910390a1505050505050505050565b60006001600160a01b038a166144b05760405162461bcd60e51b815260206004820152601360248201527224b73b30b634b2103932bbb0b9321030b2323960691b6044820152606401610906565b61458b89898080601f01602080910402602001604051908101604052809392919081815260200183838082843760009201919091525050604080516020601f8d018190048102820181019092528b815292508b91508a908190840183828082843760009201919091525050604080516020601f8c018190048102820181019092528a815292508a915089908190840183828082843760009201919091525050604080516020601f8b018190048102820181019092528981529250899150889081908401838280828437600092019190915250612a9692505050565b6145c65760405162461bcd60e51b815260206004820152600c60248201526b496e76616c6964206465736360a01b6044820152606401610906565b60006001600160a01b038c16600090815260016020526040902054600160a01b900460ff1660048111156145fc576145fc614c26565b0361462b576001600160a01b038b166000908152600160205260409020805460ff60a01b1916600160a01b1790555b6001600160a01b038b811660009081526001602090815260409182902080546001600160a01b031916938e16939093179092558051601f8b01839004909202820160a0908101909152608082018a815282918c908c9081908501838280828437600092019190915250505090825250604080516020601f8b0181900481028201810190925289815291810191908a908a9081908401838280828437600092019190915250505090825250604080516020601f890181900481028201810190925287815291810191908890889081908401838280828437600092019190915250505090825250604080516020601f87018190048102820181019092528581529181019190869086908190840183828082843760009201829052509390945250506001600160a01b038e1681526001602052604090208251600290910191508190614774908261547a565b5060208201516001820190614789908261547a565b506040820151600282019061479e908261547a565b50606082015160038201906147b3908261547a565b5060019d9c50505050505050505050505050565b6001600160a01b03821660009081526009602052604081205460ff16156147f057506001613099565b6003546065111561488f576003805460018082019092557fc2575a0e9e593c00f959f8c92f12db2869c3395a3b0502d05e2516446f71f85b0180546001600160a01b0319166001600160a01b038616908117909155600081815260096020526040808220805460ff1916909417909355915190917f3200b283524ec389117b5f97a240b03a9a72a036996087fd6e65404e5ec52fd391a2506001613099565b60006001600060036000815481106148a9576148a9615176565b60009182526020808320909101546001600160a01b03168352820192909252604001812060019081015492505b60035481101561497d578260016000600384815481106148f8576148f8615176565b60009182526020808320909101546001600160a01b03168352820192909252604001902060010154101561496b57600160006003838154811061493d5761493d615176565b60009182526020808320909101546001600160a01b0316835282019290925260400190206001015492509050805b806149758161518c565b9150506148d6565b5081841161499057600092505050613099565b600381815481106149a3576149a3615176565b60009182526020822001546040516001600160a01b03909116917f4fc54cda221fafc19baae2a4c79ae99dd0916c88b67ab97d3122a5afe333fc1d91a2600060096000600384815481106149f9576149f9615176565b6000918252602080832091909101546001600160a01b031683528201929092526040019020805460ff19169115159190911790556003805486919083908110614a4457614a44615176565b600091825260208083209190910180546001600160a01b0319166001600160a01b0394851617905591871680825260099092526040808220805460ff19166001179055517f3200b283524ec389117b5f97a240b03a9a72a036996087fd6e65404e5ec52fd39190a2506001949350505050565b828054828255906000526020600020908101928215614af75760005260206000209182015b82811115614af7578254825591600101919060010190614adc565b50614b03929150614b07565b5090565b5b80821115614b035760008155600101614b08565b6001600160a01b038116811461136857600080fd5b600060208284031215614b4357600080fd5b8135614b4e81614b1c565b9392505050565b600060208284031215614b6757600080fd5b5035919050565b6001600160a01b0391909116815260200190565b600081518084526020808501945080840160005b83811015614bbb5781516001600160a01b031687529582019590820190600101614b96565b509495945050505050565b606081526000614bd96060830186614b82565b82810360208481019190915285518083528682019282019060005b81811015614c1057845183529383019391830191600101614bf4565b5050809350505050826040830152949350505050565b634e487b7160e01b600052602160045260246000fd5b60058110614c5a57634e487b7160e01b600052602160045260246000fd5b9052565b6000815180845260005b81811015614c8457602081850181015186830182015201614c68565b506000602082860101526020601f19601f83011685010191505092915050565b6001600160a01b038c1681526000610160614cc2602084018e614c3c565b8b60408401528060608401528a51608082850152614ce46101e0850182614c5e565b91505060208b015161015f198085840301610180860152614d058383614c5e565b925060408d0151915080858403016101a0860152614d238383614c5e565b925060608d0151915080858403016101c086015250614d428282614c5e565b608085019b909b5250505060a081019690965260c086019490945260e085019290925261010084015261012083015261014090910152949350505050565b60008060408385031215614d9357600080fd5b8235614d9e81614b1c565b91506020830135614dae81614b1c565b809150509250929050565b6001600160a01b0388168152614dd26020820188614c3c565b8560408201528460608201528360808201528260a082015260e060c08201526000611d9a60e0830184614b82565b602081526000614b4e6020830184614b82565b60008083601f840112614e2557600080fd5b5081356001600160401b03811115614e3c57600080fd5b602083019150836020828501011115614e5457600080fd5b9250929050565b600080600080600080600080600060a08a8c031215614e7957600080fd5b8935614e8481614b1c565b985060208a01356001600160401b0380821115614ea057600080fd5b614eac8d838e01614e13565b909a50985060408c0135915080821115614ec557600080fd5b614ed18d838e01614e13565b909850965060608c0135915080821115614eea57600080fd5b614ef68d838e01614e13565b909650945060808c0135915080821115614f0f57600080fd5b50614f1c8c828d01614e13565b915080935050809150509295985092959850929598565b60008060208385031215614f4657600080fd5b82356001600160401b0380821115614f5d57600080fd5b818501915085601f830112614f7157600080fd5b813581811115614f8057600080fd5b8660208260051b8501011115614f9557600080fd5b60209290920196919550909350505050565b608081526000614fba6080830187614c5e565b8281036020840152614fcc8187614c5e565b90508281036040840152614fe08186614c5e565b90508281036060840152614ff48185614c5e565b979650505050505050565b634e487b7160e01b600052604160045260246000fd5b600082601f83011261502657600080fd5b81356001600160401b038082111561504057615040614fff565b604051601f8301601f19908116603f0116810190828211818310171561506857615068614fff565b8160405283815286602085880101111561508157600080fd5b836020870160208301376000602085830101528094505050505092915050565b600080600080608085870312156150b757600080fd5b84356001600160401b03808211156150ce57600080fd5b6150da88838901615015565b955060208701359150808211156150f057600080fd5b6150fc88838901615015565b9450604087013591508082111561511257600080fd5b61511e88838901615015565b9350606087013591508082111561513457600080fd5b5061514187828801615015565b91505092959194509250565b634e487b7160e01b600052601160045260246000fd5b818103818111156130995761309961514d565b634e487b7160e01b600052603260045260246000fd5b60006001820161519e5761519e61514d565b5060010190565b602080825260099082015268139bdd08195e1a5cdd60ba1b604082015260600190565b808201808211156130995761309961514d565b6020808252600890820152674e6f207374616b6560c01b604082015260600190565b6020808252601990820152781d1a194818dbdb9d1c9858dd081b9bdd081a5b9a5d081e595d603a1b604082015260600190565b60208082526012908201527110dbdb9d1c9858dd081a5cc81c185d5cd95960721b604082015260600190565b60208082526021908201527f4f6e6c792061646d696e2063616e2063616c6c20746869732066756e6374696f6040820152603760f91b606082015260800190565b80820281158282048414176130995761309961514d565b634e487b7160e01b600052601260045260246000fd5b6000826152d9576152d96152b4565b500490565b600181811c908216806152f257607f821691505b60208210810361531257634e487b7160e01b600052602260045260246000fd5b50919050565b6020808252602d908201527f746865206d6573736167652073656e646572206d75737420626520746865206260408201526c3637b1b590383937b23ab1b2b960991b606082015260800190565b600082615374576153746152b4565b500690565b60208082526010908201526f426c6f636b2065706f6368206f6e6c7960801b604082015260600190565b6020808252825482820181905260008481528281209092916040850190845b818110156153e75783546001600160a01b0316835260019384019392850192016153c2565b50909695505050505050565b60006020828403121561540557600080fd5b81518015158114614b4e57600080fd5b634e487b7160e01b600052603160045260246000fd5b601f82111561547557600081815260208120601f850160051c810160208610156154525750805b601f850160051c820191505b818110156154715782815560010161545e565b5050505b505050565b81516001600160401b0381111561549357615493614fff565b6154a7816154a184546152de565b8461542b565b602080601f8311600181146154dc57600084156154c45750858301515b600019600386901b1c1916600185901b178555615471565b600085815260208120601f198616915b8281101561550b578886015182559484019460019091019084016154ec565b50858210156155295787850151600019600388901b60f8161c191681555b5050505050600190811b0190555056fea164736f6c6343000813000a","opcodes":"PUSH1 0x80 PUSH1 0x40 MSTORE CALLVALUE DUP1 ISZERO PUSH2 0x10 JUMPI PUSH1 0x0 DUP1 REVERT JUMPDEST POP PUSH2 0x5546 DUP1 PUSH2 0x20 PUSH1 0x0 CODECOPY PUSH1 0x0 RETURN INVALID PUSH1 0x80 PUSH1 0x40 MSTORE PUSH1 0x4 CALLDATASIZE LT PUSH2 0x236 JUMPI PUSH1 0x0 CALLDATALOAD PUSH1 0xE0 SHR DUP1 PUSH4 0x8CAB587D GT PUSH2 0x12F JUMPI DUP1 PUSH4 0xB8DB983E GT PUSH2 0xB1 JUMPI DUP1 PUSH4 0xB8DB983E EQ PUSH2 0x6F9 JUMPI DUP1 PUSH4 0xBE645692 EQ PUSH2 0x70F JUMPI DUP1 PUSH4 0xC6B6D9EC EQ PUSH2 0x72D JUMPI DUP1 PUSH4 0xD59070C2 EQ PUSH2 0x74D JUMPI DUP1 PUSH4 0xD6056E67 EQ PUSH2 0x775 JUMPI DUP1 PUSH4 0xD6C0EDAD EQ PUSH2 0x792 JUMPI DUP1 PUSH4 0xDB78DD28 EQ PUSH2 0x79A JUMPI DUP1 PUSH4 0xDB7D5ACE EQ PUSH2 0x7C9 JUMPI DUP1 PUSH4 0xE64808F3 EQ PUSH2 0x7DF JUMPI DUP1 PUSH4 0xE8A3298B EQ PUSH2 0x7FF JUMPI DUP1 PUSH4 0xF2888DBB EQ PUSH2 0x814 JUMPI DUP1 PUSH4 0xF851A440 EQ PUSH2 0x834 JUMPI PUSH1 0x0 DUP1 REVERT JUMPDEST DUP1 PUSH4 0x8CAB587D EQ PUSH2 0x562 JUMPI DUP1 PUSH4 0x8F283970 EQ PUSH2 0x575 JUMPI DUP1 PUSH4 0x8F67E6BB EQ PUSH2 0x595 JUMPI DUP1 PUSH4 0x93E71C5F EQ PUSH2 0x5D8 JUMPI DUP1 PUSH4 0x9B7FB063 EQ PUSH2 0x5ED JUMPI DUP1 PUSH4 0xA0C3F2D2 EQ PUSH2 0x60D JUMPI DUP1 PUSH4 0xA224CEE7 EQ PUSH2 0x62D JUMPI DUP1 PUSH4 0xA43569B3 EQ PUSH2 0x64D JUMPI DUP1 PUSH4 0xA4473F12 EQ PUSH2 0x67D JUMPI DUP1 PUSH4 0xB7D02CE2 EQ PUSH2 0x6C4 JUMPI DUP1 PUSH4 0xB7DC5C40 EQ PUSH2 0x6E4 JUMPI PUSH1 0x0 DUP1 REVERT JUMPDEST DUP1 PUSH4 0x3F4BA83A GT PUSH2 0x1B8 JUMPI DUP1 PUSH4 0x3F4BA83A EQ PUSH2 0x39E JUMPI DUP1 PUSH4 0x42D86693 EQ PUSH2 0x3B5 JUMPI DUP1 PUSH4 0x445DB4A1 EQ PUSH2 0x3D5 JUMPI DUP1 PUSH4 0x4711F586 EQ PUSH2 0x3F9 JUMPI DUP1 PUSH4 0x4F1811DD EQ PUSH2 0x419 JUMPI DUP1 PUSH4 0x5C975ABB EQ PUSH2 0x450 JUMPI DUP1 PUSH4 0x67239A04 EQ PUSH2 0x46F JUMPI DUP1 PUSH4 0x7F4F95FA EQ PUSH2 0x485 JUMPI DUP1 PUSH4 0x8456CB59 EQ PUSH2 0x4F8 JUMPI DUP1 PUSH4 0x8A11D7C9 EQ PUSH2 0x50D JUMPI DUP1 PUSH4 0x8AF0A869 EQ PUSH2 0x540 JUMPI PUSH1 0x0 DUP1 REVERT JUMPDEST DUP1 PUSH4 0x14BFB527 EQ PUSH2 0x242 JUMPI DUP1 PUSH4 0x158EF93E EQ PUSH2 0x277 JUMPI DUP1 PUSH4 0x165DEFA4 EQ PUSH2 0x291 JUMPI DUP1 PUSH4 0x1A8D57BC EQ PUSH2 0x2B5 JUMPI DUP1 PUSH4 0x1C8B8A3D EQ PUSH2 0x2D5 JUMPI DUP1 PUSH4 0x207239C0 EQ PUSH2 0x2F5 JUMPI DUP1 PUSH4 0x222D3B05 EQ PUSH2 0x30B JUMPI DUP1 PUSH4 0x26476204 EQ PUSH2 0x32B JUMPI DUP1 PUSH4 0x2BCCECFD EQ PUSH2 0x33E JUMPI DUP1 PUSH4 0x38A92C76 EQ PUSH2 0x35B JUMPI DUP1 PUSH4 0x3A061BD3 EQ PUSH2 0x388 JUMPI PUSH1 0x0 DUP1 REVERT JUMPDEST CALLDATASIZE PUSH2 0x23D JUMPI STOP JUMPDEST PUSH1 0x0 DUP1 REVERT JUMPDEST CALLVALUE DUP1 ISZERO PUSH2 0x24E JUMPI PUSH1 0x0 DUP1 REVERT JUMPDEST POP PUSH2 0x262 PUSH2 0x25D CALLDATASIZE PUSH1 0x4 PUSH2 0x4B31 JUMP JUMPDEST PUSH2 0x85A JUMP JUMPDEST PUSH1 0x40 MLOAD SWAP1 ISZERO ISZERO DUP2 MSTORE PUSH1 0x20 ADD JUMPDEST PUSH1 0x40 MLOAD DUP1 SWAP2 SUB SWAP1 RETURN JUMPDEST CALLVALUE DUP1 ISZERO PUSH2 0x283 JUMPI PUSH1 0x0 DUP1 REVERT JUMPDEST POP PUSH1 0x0 SLOAD PUSH2 0x262 SWAP1 PUSH1 0xFF AND DUP2 JUMP JUMPDEST CALLVALUE DUP1 ISZERO PUSH2 0x29D JUMPI PUSH1 0x0 DUP1 REVERT JUMPDEST POP PUSH2 0x2A7 PUSH1 0x5 SLOAD DUP2 JUMP JUMPDEST PUSH1 0x40 MLOAD SWAP1 DUP2 MSTORE PUSH1 0x20 ADD PUSH2 0x26E JUMP JUMPDEST CALLVALUE DUP1 ISZERO PUSH2 0x2C1 JUMPI PUSH1 0x0 DUP1 REVERT JUMPDEST POP PUSH2 0x262 PUSH2 0x2D0 CALLDATASIZE PUSH1 0x4 PUSH2 0x4B31 JUMP JUMPDEST PUSH2 0x899 JUMP JUMPDEST CALLVALUE DUP1 ISZERO PUSH2 0x2E1 JUMPI PUSH1 0x0 DUP1 REVERT JUMPDEST POP PUSH2 0x262 PUSH2 0x2F0 CALLDATASIZE PUSH1 0x4 PUSH2 0x4B31 JUMP JUMPDEST PUSH2 0x9F5 JUMP JUMPDEST CALLVALUE DUP1 ISZERO PUSH2 0x301 JUMPI PUSH1 0x0 DUP1 REVERT JUMPDEST POP PUSH2 0x2A7 PUSH2 0x3E8 DUP2 JUMP JUMPDEST CALLVALUE DUP1 ISZERO PUSH2 0x317 JUMPI PUSH1 0x0 DUP1 REVERT JUMPDEST POP PUSH2 0x262 PUSH2 0x326 CALLDATASIZE PUSH1 0x4 PUSH2 0x4B31 JUMP JUMPDEST PUSH2 0xA5E JUMP JUMPDEST PUSH2 0x262 PUSH2 0x339 CALLDATASIZE PUSH1 0x4 PUSH2 0x4B31 JUMP JUMPDEST PUSH2 0xC15 JUMP JUMPDEST CALLVALUE DUP1 ISZERO PUSH2 0x34A JUMPI PUSH1 0x0 DUP1 REVERT JUMPDEST POP PUSH2 0x2A7 PUSH9 0x1B1AE4D6E2EF500000 DUP2 JUMP JUMPDEST CALLVALUE DUP1 ISZERO PUSH2 0x367 JUMPI PUSH1 0x0 DUP1 REVERT JUMPDEST POP PUSH2 0x37B PUSH2 0x376 CALLDATASIZE PUSH1 0x4 PUSH2 0x4B55 JUMP JUMPDEST PUSH2 0xC75 JUMP JUMPDEST PUSH1 0x40 MLOAD PUSH2 0x26E SWAP2 SWAP1 PUSH2 0x4B6E JUMP JUMPDEST CALLVALUE DUP1 ISZERO PUSH2 0x394 JUMPI PUSH1 0x0 DUP1 REVERT JUMPDEST POP PUSH2 0x37B PUSH2 0x1000 DUP2 JUMP JUMPDEST CALLVALUE DUP1 ISZERO PUSH2 0x3AA JUMPI PUSH1 0x0 DUP1 REVERT JUMPDEST POP PUSH2 0x3B3 PUSH2 0xC9F JUMP JUMPDEST STOP JUMPDEST CALLVALUE DUP1 ISZERO PUSH2 0x3C1 JUMPI PUSH1 0x0 DUP1 REVERT JUMPDEST POP PUSH2 0x262 PUSH2 0x3D0 CALLDATASIZE PUSH1 0x4 PUSH2 0x4B31 JUMP JUMPDEST PUSH2 0xD47 JUMP JUMPDEST CALLVALUE DUP1 ISZERO PUSH2 0x3E1 JUMPI PUSH1 0x0 DUP1 REVERT JUMPDEST POP PUSH2 0x3EA PUSH2 0xF81 JUMP JUMPDEST PUSH1 0x40 MLOAD PUSH2 0x26E SWAP4 SWAP3 SWAP2 SWAP1 PUSH2 0x4BC6 JUMP JUMPDEST CALLVALUE DUP1 ISZERO PUSH2 0x405 JUMPI PUSH1 0x0 DUP1 REVERT JUMPDEST POP PUSH2 0x3B3 PUSH2 0x414 CALLDATASIZE PUSH1 0x4 PUSH2 0x4B31 JUMP JUMPDEST PUSH2 0x1175 JUMP JUMPDEST CALLVALUE DUP1 ISZERO PUSH2 0x425 JUMPI PUSH1 0x0 DUP1 REVERT JUMPDEST POP PUSH2 0x439 PUSH2 0x434 CALLDATASIZE PUSH1 0x4 PUSH2 0x4B31 JUMP JUMPDEST PUSH2 0x136B JUMP JUMPDEST PUSH1 0x40 MLOAD PUSH2 0x26E SWAP12 SWAP11 SWAP10 SWAP9 SWAP8 SWAP7 SWAP6 SWAP5 SWAP4 SWAP3 SWAP2 SWAP1 PUSH2 0x4CA4 JUMP JUMPDEST CALLVALUE DUP1 ISZERO PUSH2 0x45C JUMPI PUSH1 0x0 DUP1 REVERT JUMPDEST POP PUSH1 0x0 SLOAD PUSH2 0x262 SWAP1 PUSH2 0x100 SWAP1 DIV PUSH1 0xFF AND DUP2 JUMP JUMPDEST CALLVALUE DUP1 ISZERO PUSH2 0x47B JUMPI PUSH1 0x0 DUP1 REVERT JUMPDEST POP PUSH2 0x37B PUSH2 0x1001 DUP2 JUMP JUMPDEST CALLVALUE DUP1 ISZERO PUSH2 0x491 JUMPI PUSH1 0x0 DUP1 REVERT JUMPDEST POP PUSH2 0x4DD PUSH2 0x4A0 CALLDATASIZE PUSH1 0x4 PUSH2 0x4D80 JUMP JUMPDEST PUSH1 0x1 PUSH1 0x1 PUSH1 0xA0 SHL SUB SWAP2 DUP3 AND PUSH1 0x0 SWAP1 DUP2 MSTORE PUSH1 0x2 PUSH1 0x20 DUP2 DUP2 MSTORE PUSH1 0x40 DUP1 DUP5 KECCAK256 SWAP5 SWAP1 SWAP6 AND DUP4 MSTORE SWAP3 SWAP1 SWAP3 MSTORE SWAP2 SWAP1 SWAP2 KECCAK256 DUP1 SLOAD PUSH1 0x1 DUP3 ADD SLOAD SWAP2 SWAP1 SWAP3 ADD SLOAD SWAP2 SWAP3 SWAP1 SWAP2 SWAP1 JUMP JUMPDEST PUSH1 0x40 DUP1 MLOAD SWAP4 DUP5 MSTORE PUSH1 0x20 DUP5 ADD SWAP3 SWAP1 SWAP3 MSTORE SWAP1 DUP3 ADD MSTORE PUSH1 0x60 ADD PUSH2 0x26E JUMP JUMPDEST CALLVALUE DUP1 ISZERO PUSH2 0x504 JUMPI PUSH1 0x0 DUP1 REVERT JUMPDEST POP PUSH2 0x3B3 PUSH2 0x1622 JUMP JUMPDEST CALLVALUE DUP1 ISZERO PUSH2 0x519 JUMPI PUSH1 0x0 DUP1 REVERT JUMPDEST POP PUSH2 0x52D PUSH2 0x528 CALLDATASIZE PUSH1 0x4 PUSH2 0x4B31 JUMP JUMPDEST PUSH2 0x16D3 JUMP JUMPDEST PUSH1 0x40 MLOAD PUSH2 0x26E SWAP8 SWAP7 SWAP6 SWAP5 SWAP4 SWAP3 SWAP2 SWAP1 PUSH2 0x4DB9 JUMP JUMPDEST CALLVALUE DUP1 ISZERO PUSH2 0x54C JUMPI PUSH1 0x0 DUP1 REVERT JUMPDEST POP PUSH2 0x555 PUSH2 0x1A93 JUMP JUMPDEST PUSH1 0x40 MLOAD PUSH2 0x26E SWAP2 SWAP1 PUSH2 0x4E00 JUMP JUMPDEST PUSH2 0x262 PUSH2 0x570 CALLDATASIZE PUSH1 0x4 PUSH2 0x4E5B JUMP JUMPDEST PUSH2 0x1C66 JUMP JUMPDEST CALLVALUE DUP1 ISZERO PUSH2 0x581 JUMPI PUSH1 0x0 DUP1 REVERT JUMPDEST POP PUSH2 0x3B3 PUSH2 0x590 CALLDATASIZE PUSH1 0x4 PUSH2 0x4B31 JUMP JUMPDEST PUSH2 0x1DA7 JUMP JUMPDEST CALLVALUE DUP1 ISZERO PUSH2 0x5A1 JUMPI PUSH1 0x0 DUP1 REVERT JUMPDEST POP PUSH2 0x4DD PUSH2 0x5B0 CALLDATASIZE PUSH1 0x4 PUSH2 0x4D80 JUMP JUMPDEST PUSH1 0x2 PUSH1 0x20 DUP2 DUP2 MSTORE PUSH1 0x0 SWAP4 DUP5 MSTORE PUSH1 0x40 DUP1 DUP6 KECCAK256 SWAP1 SWAP2 MSTORE SWAP2 DUP4 MSTORE SWAP2 KECCAK256 DUP1 SLOAD PUSH1 0x1 DUP3 ADD SLOAD SWAP2 SWAP1 SWAP3 ADD SLOAD DUP4 JUMP JUMPDEST CALLVALUE DUP1 ISZERO PUSH2 0x5E4 JUMPI PUSH1 0x0 DUP1 REVERT JUMPDEST POP PUSH2 0x262 PUSH2 0x1E8E JUMP JUMPDEST CALLVALUE DUP1 ISZERO PUSH2 0x5F9 JUMPI PUSH1 0x0 DUP1 REVERT JUMPDEST POP PUSH2 0x262 PUSH2 0x608 CALLDATASIZE PUSH1 0x4 PUSH2 0x4E5B JUMP JUMPDEST PUSH2 0x20C0 JUMP JUMPDEST CALLVALUE DUP1 ISZERO PUSH2 0x619 JUMPI PUSH1 0x0 DUP1 REVERT JUMPDEST POP PUSH2 0x262 PUSH2 0x628 CALLDATASIZE PUSH1 0x4 PUSH2 0x4B31 JUMP JUMPDEST PUSH2 0x21B7 JUMP JUMPDEST CALLVALUE DUP1 ISZERO PUSH2 0x639 JUMPI PUSH1 0x0 DUP1 REVERT JUMPDEST POP PUSH2 0x3B3 PUSH2 0x648 CALLDATASIZE PUSH1 0x4 PUSH2 0x4F33 JUMP JUMPDEST PUSH2 0x2217 JUMP JUMPDEST CALLVALUE DUP1 ISZERO PUSH2 0x659 JUMPI PUSH1 0x0 DUP1 REVERT JUMPDEST POP PUSH2 0x66D PUSH2 0x668 CALLDATASIZE PUSH1 0x4 PUSH2 0x4B31 JUMP JUMPDEST PUSH2 0x26E4 JUMP JUMPDEST PUSH1 0x40 MLOAD PUSH2 0x26E SWAP5 SWAP4 SWAP3 SWAP2 SWAP1 PUSH2 0x4FA7 JUMP JUMPDEST CALLVALUE DUP1 ISZERO PUSH2 0x689 JUMPI PUSH1 0x0 DUP1 REVERT JUMPDEST POP PUSH2 0x4DD PUSH2 0x698 CALLDATASIZE PUSH1 0x4 PUSH2 0x4D80 JUMP JUMPDEST PUSH1 0xA PUSH1 0x20 SWAP1 DUP2 MSTORE PUSH1 0x0 SWAP3 DUP4 MSTORE PUSH1 0x40 DUP1 DUP5 KECCAK256 SWAP1 SWAP2 MSTORE SWAP1 DUP3 MSTORE SWAP1 KECCAK256 DUP1 SLOAD PUSH1 0x1 DUP3 ADD SLOAD PUSH1 0x2 SWAP1 SWAP3 ADD SLOAD SWAP1 SWAP2 SWAP1 DUP4 JUMP JUMPDEST CALLVALUE DUP1 ISZERO PUSH2 0x6D0 JUMPI PUSH1 0x0 DUP1 REVERT JUMPDEST POP PUSH2 0x262 PUSH2 0x6DF CALLDATASIZE PUSH1 0x4 PUSH2 0x50A1 JUMP JUMPDEST PUSH2 0x2A96 JUMP JUMPDEST CALLVALUE DUP1 ISZERO PUSH2 0x6F0 JUMPI PUSH1 0x0 DUP1 REVERT JUMPDEST POP PUSH2 0x555 PUSH2 0x2BA4 JUMP JUMPDEST CALLVALUE DUP1 ISZERO PUSH2 0x705 JUMPI PUSH1 0x0 DUP1 REVERT JUMPDEST POP PUSH2 0x2A7 PUSH2 0x1F4 DUP2 JUMP JUMPDEST CALLVALUE DUP1 ISZERO PUSH2 0x71B JUMPI PUSH1 0x0 DUP1 REVERT JUMPDEST POP PUSH2 0x2A7 PUSH10 0x21E19E0C9BAB2400000 DUP2 JUMP JUMPDEST CALLVALUE DUP1 ISZERO PUSH2 0x739 JUMPI PUSH1 0x0 DUP1 REVERT JUMPDEST POP PUSH2 0x2A7 PUSH2 0x748 CALLDATASIZE PUSH1 0x4 PUSH2 0x4D80 JUMP JUMPDEST PUSH2 0x2C06 JUMP JUMPDEST CALLVALUE DUP1 ISZERO PUSH2 0x759 JUMPI PUSH1 0x0 DUP1 REVERT JUMPDEST POP PUSH2 0x762 PUSH1 0x65 DUP2 JUMP JUMPDEST PUSH1 0x40 MLOAD PUSH2 0xFFFF SWAP1 SWAP2 AND DUP2 MSTORE PUSH1 0x20 ADD PUSH2 0x26E JUMP JUMPDEST CALLVALUE DUP1 ISZERO PUSH2 0x781 JUMPI PUSH1 0x0 DUP1 REVERT JUMPDEST POP PUSH2 0x2A7 PUSH9 0x3635C9ADC5DEA00000 DUP2 JUMP JUMPDEST PUSH2 0x3B3 PUSH2 0x309F JUMP JUMPDEST CALLVALUE DUP1 ISZERO PUSH2 0x7A6 JUMPI PUSH1 0x0 DUP1 REVERT JUMPDEST POP PUSH2 0x7B1 PUSH3 0x15180 DUP2 JUMP JUMPDEST PUSH1 0x40 MLOAD PUSH1 0x1 PUSH1 0x1 PUSH1 0x40 SHL SUB SWAP1 SWAP2 AND DUP2 MSTORE PUSH1 0x20 ADD PUSH2 0x26E JUMP JUMPDEST CALLVALUE DUP1 ISZERO PUSH2 0x7D5 JUMPI PUSH1 0x0 DUP1 REVERT JUMPDEST POP PUSH2 0x7B1 PUSH2 0x7080 DUP2 JUMP JUMPDEST CALLVALUE DUP1 ISZERO PUSH2 0x7EB JUMPI PUSH1 0x0 DUP1 REVERT JUMPDEST POP PUSH2 0x37B PUSH2 0x7FA CALLDATASIZE PUSH1 0x4 PUSH2 0x4B55 JUMP JUMPDEST PUSH2 0x3165 JUMP JUMPDEST CALLVALUE DUP1 ISZERO PUSH2 0x80B JUMPI PUSH1 0x0 DUP1 REVERT JUMPDEST POP PUSH2 0x2A7 PUSH1 0xC8 DUP2 JUMP JUMPDEST CALLVALUE DUP1 ISZERO PUSH2 0x820 JUMPI PUSH1 0x0 DUP1 REVERT JUMPDEST POP PUSH2 0x262 PUSH2 0x82F CALLDATASIZE PUSH1 0x4 PUSH2 0x4B31 JUMP JUMPDEST PUSH2 0x3175 JUMP JUMPDEST CALLVALUE DUP1 ISZERO PUSH2 0x840 JUMPI PUSH1 0x0 DUP1 REVERT JUMPDEST POP PUSH1 0x0 SLOAD PUSH2 0x37B SWAP1 PUSH3 0x10000 SWAP1 DIV PUSH1 0x1 PUSH1 0x1 PUSH1 0xA0 SHL SUB AND DUP2 JUMP JUMPDEST PUSH1 0x0 PUSH1 0x4 PUSH1 0x1 PUSH1 0x1 PUSH1 0xA0 SHL SUB DUP4 AND PUSH1 0x0 SWAP1 DUP2 MSTORE PUSH1 0x1 PUSH1 0x20 MSTORE PUSH1 0x40 SWAP1 KECCAK256 SLOAD PUSH1 0x1 PUSH1 0xA0 SHL SWAP1 DIV PUSH1 0xFF AND PUSH1 0x4 DUP2 GT ISZERO PUSH2 0x892 JUMPI PUSH2 0x892 PUSH2 0x4C26 JUMP JUMPDEST EQ SWAP3 SWAP2 POP POP JUMP JUMPDEST PUSH1 0x0 CALLER PUSH2 0x8A6 DUP2 DUP5 PUSH2 0x356D JUMP JUMPDEST PUSH1 0x1 PUSH1 0x1 PUSH1 0xA0 SHL SUB DUP1 DUP3 AND PUSH1 0x0 SWAP1 DUP2 MSTORE PUSH1 0xA PUSH1 0x20 SWAP1 DUP2 MSTORE PUSH1 0x40 DUP1 DUP4 KECCAK256 SWAP4 DUP8 AND DUP4 MSTORE SWAP3 SWAP1 MSTORE KECCAK256 PUSH1 0x1 DUP2 ADD SLOAD DUP1 PUSH2 0x90F JUMPI PUSH1 0x40 MLOAD PUSH3 0x461BCD PUSH1 0xE5 SHL DUP2 MSTORE PUSH1 0x20 PUSH1 0x4 DUP3 ADD MSTORE PUSH1 0xA PUSH1 0x24 DUP3 ADD MSTORE PUSH10 0x4E6F2072657761726473 PUSH1 0xB0 SHL PUSH1 0x44 DUP3 ADD MSTORE PUSH1 0x64 ADD JUMPDEST PUSH1 0x40 MLOAD DUP1 SWAP2 SUB SWAP1 REVERT JUMPDEST PUSH1 0x0 PUSH1 0x1 DUP1 DUP5 ADD DUP3 SWAP1 SSTORE NUMBER PUSH1 0x2 DUP6 ADD SSTORE PUSH1 0x1 PUSH1 0x1 PUSH1 0xA0 SHL SUB DUP8 AND DUP3 MSTORE PUSH1 0x20 MSTORE PUSH1 0x40 SWAP1 KECCAK256 PUSH1 0xB DUP2 ADD SLOAD DUP3 GT PUSH2 0x957 JUMPI DUP2 DUP2 PUSH1 0xB ADD SLOAD PUSH2 0x94D SWAP2 SWAP1 PUSH2 0x5163 JUMP JUMPDEST PUSH1 0xB DUP3 ADD SSTORE PUSH2 0x965 JUMP JUMPDEST PUSH1 0xB DUP2 ADD DUP1 SLOAD PUSH1 0x0 SWAP1 SWAP2 SSTORE SWAP2 POP JUMPDEST PUSH1 0x40 MLOAD PUSH1 0x1 PUSH1 0x1 PUSH1 0xA0 SHL SUB DUP6 AND SWAP1 DUP4 ISZERO PUSH2 0x8FC MUL SWAP1 DUP5 SWAP1 PUSH1 0x0 DUP2 DUP2 DUP2 DUP6 DUP9 DUP9 CALL SWAP4 POP POP POP POP ISZERO DUP1 ISZERO PUSH2 0x99B JUMPI RETURNDATASIZE PUSH1 0x0 DUP1 RETURNDATACOPY RETURNDATASIZE PUSH1 0x0 REVERT JUMPDEST POP DUP6 PUSH1 0x1 PUSH1 0x1 PUSH1 0xA0 SHL SUB AND DUP5 PUSH1 0x1 PUSH1 0x1 PUSH1 0xA0 SHL SUB AND PUSH32 0xD6372D5DCEF6FDC00333ADEB055E218BFC8AAFECDC567F58874EE83017BFD0BD DUP5 PUSH1 0x40 MLOAD PUSH2 0x9E1 SWAP2 DUP2 MSTORE PUSH1 0x20 ADD SWAP1 JUMP JUMPDEST PUSH1 0x40 MLOAD DUP1 SWAP2 SUB SWAP1 LOG3 POP PUSH1 0x1 SWAP6 SWAP5 POP POP POP POP POP JUMP JUMPDEST PUSH1 0x0 DUP1 JUMPDEST PUSH1 0x4 SLOAD DUP2 LT ISZERO PUSH2 0xA55 JUMPI DUP3 PUSH1 0x1 PUSH1 0x1 PUSH1 0xA0 SHL SUB AND PUSH1 0x4 DUP3 DUP2 SLOAD DUP2 LT PUSH2 0xA20 JUMPI PUSH2 0xA20 PUSH2 0x5176 JUMP JUMPDEST PUSH1 0x0 SWAP2 DUP3 MSTORE PUSH1 0x20 SWAP1 SWAP2 KECCAK256 ADD SLOAD PUSH1 0x1 PUSH1 0x1 PUSH1 0xA0 SHL SUB AND SUB PUSH2 0xA43 JUMPI POP PUSH1 0x1 SWAP3 SWAP2 POP POP JUMP JUMPDEST DUP1 PUSH2 0xA4D DUP2 PUSH2 0x518C JUMP JUMPDEST SWAP2 POP POP PUSH2 0x9F9 JUMP JUMPDEST POP PUSH1 0x0 SWAP3 SWAP2 POP POP JUMP JUMPDEST CALLER PUSH1 0x0 DUP2 DUP2 MSTORE PUSH1 0x2 PUSH1 0x20 SWAP1 DUP2 MSTORE PUSH1 0x40 DUP1 DUP4 KECCAK256 PUSH1 0x1 PUSH1 0x1 PUSH1 0xA0 SHL SUB DUP7 AND DUP5 MSTORE DUP3 MSTORE DUP1 DUP4 KECCAK256 PUSH1 0x1 SWAP1 SWAP3 MSTORE DUP3 KECCAK256 SLOAD SWAP2 SWAP3 SWAP2 DUP4 SWAP1 PUSH1 0x1 PUSH1 0xA0 SHL SWAP1 DIV PUSH1 0xFF AND PUSH1 0x4 DUP2 GT ISZERO PUSH2 0xAA9 JUMPI PUSH2 0xAA9 PUSH2 0x4C26 JUMP JUMPDEST SUB PUSH2 0xAC6 JUMPI PUSH1 0x40 MLOAD PUSH3 0x461BCD PUSH1 0xE5 SHL DUP2 MSTORE PUSH1 0x4 ADD PUSH2 0x906 SWAP1 PUSH2 0x51A5 JUMP JUMPDEST DUP1 PUSH1 0x1 ADD SLOAD PUSH1 0x0 SUB PUSH2 0xB0A JUMPI PUSH1 0x40 MLOAD PUSH3 0x461BCD PUSH1 0xE5 SHL DUP2 MSTORE PUSH1 0x20 PUSH1 0x4 DUP3 ADD MSTORE PUSH1 0xD PUSH1 0x24 DUP3 ADD MSTORE PUSH13 0x155B9CDD185AD948199A5C9CDD PUSH1 0x9A SHL PUSH1 0x44 DUP3 ADD MSTORE PUSH1 0x64 ADD PUSH2 0x906 JUMP JUMPDEST PUSH1 0x1 DUP2 ADD SLOAD NUMBER SWAP1 PUSH2 0xB1F SWAP1 PUSH3 0x15180 SWAP1 PUSH2 0x51C8 JUMP JUMPDEST GT ISZERO PUSH2 0xB5C JUMPI PUSH1 0x40 MLOAD PUSH3 0x461BCD PUSH1 0xE5 SHL DUP2 MSTORE PUSH1 0x20 PUSH1 0x4 DUP3 ADD MSTORE PUSH1 0xC PUSH1 0x24 DUP3 ADD MSTORE PUSH12 0x14DD1A5B1B081B1BD8DAD959 PUSH1 0xA2 SHL PUSH1 0x44 DUP3 ADD MSTORE PUSH1 0x64 ADD PUSH2 0x906 JUMP JUMPDEST DUP1 SLOAD PUSH2 0xB7A JUMPI PUSH1 0x40 MLOAD PUSH3 0x461BCD PUSH1 0xE5 SHL DUP2 MSTORE PUSH1 0x4 ADD PUSH2 0x906 SWAP1 PUSH2 0x51DB JUMP JUMPDEST DUP1 SLOAD PUSH1 0x0 DUP1 DUP4 SSTORE PUSH1 0x1 DUP4 ADD DUP2 SWAP1 SSTORE PUSH1 0x40 MLOAD PUSH1 0x1 PUSH1 0x1 PUSH1 0xA0 SHL SUB DUP6 AND SWAP2 DUP4 ISZERO PUSH2 0x8FC MUL SWAP2 DUP5 SWAP2 DUP2 DUP2 DUP2 DUP6 DUP9 DUP9 CALL SWAP4 POP POP POP POP ISZERO DUP1 ISZERO PUSH2 0xBBC JUMPI RETURNDATASIZE PUSH1 0x0 DUP1 RETURNDATACOPY RETURNDATASIZE PUSH1 0x0 REVERT JUMPDEST POP DUP5 PUSH1 0x1 PUSH1 0x1 PUSH1 0xA0 SHL SUB AND DUP4 PUSH1 0x1 PUSH1 0x1 PUSH1 0xA0 SHL SUB AND PUSH32 0x3CA927248EB3FE77AD85F6DE5853A874833484B0985CDB49C8CEAA326162456B DUP4 PUSH1 0x40 MLOAD PUSH2 0xC02 SWAP2 DUP2 MSTORE PUSH1 0x20 ADD SWAP1 JUMP JUMPDEST PUSH1 0x40 MLOAD DUP1 SWAP2 SUB SWAP1 LOG3 POP PUSH1 0x1 SWAP5 SWAP4 POP POP POP POP JUMP JUMPDEST PUSH1 0x0 DUP1 SLOAD PUSH1 0xFF AND PUSH2 0xC38 JUMPI PUSH1 0x40 MLOAD PUSH3 0x461BCD PUSH1 0xE5 SHL DUP2 MSTORE PUSH1 0x4 ADD PUSH2 0x906 SWAP1 PUSH2 0x51FD JUMP JUMPDEST PUSH1 0x0 SLOAD PUSH2 0x100 SWAP1 DIV PUSH1 0xFF AND ISZERO PUSH2 0xC60 JUMPI PUSH1 0x40 MLOAD PUSH3 0x461BCD PUSH1 0xE5 SHL DUP2 MSTORE PUSH1 0x4 ADD PUSH2 0x906 SWAP1 PUSH2 0x5230 JUMP JUMPDEST CALLER CALLVALUE PUSH2 0xC6D DUP3 DUP6 DUP4 PUSH2 0x363E JUMP JUMPDEST SWAP5 SWAP4 POP POP POP POP JUMP JUMPDEST PUSH1 0x3 DUP2 DUP2 SLOAD DUP2 LT PUSH2 0xC85 JUMPI PUSH1 0x0 DUP1 REVERT JUMPDEST PUSH1 0x0 SWAP2 DUP3 MSTORE PUSH1 0x20 SWAP1 SWAP2 KECCAK256 ADD SLOAD PUSH1 0x1 PUSH1 0x1 PUSH1 0xA0 SHL SUB AND SWAP1 POP DUP2 JUMP JUMPDEST PUSH1 0x0 SLOAD PUSH3 0x10000 SWAP1 DIV PUSH1 0x1 PUSH1 0x1 PUSH1 0xA0 SHL SUB AND CALLER EQ PUSH2 0xCCF JUMPI PUSH1 0x40 MLOAD PUSH3 0x461BCD PUSH1 0xE5 SHL DUP2 MSTORE PUSH1 0x4 ADD PUSH2 0x906 SWAP1 PUSH2 0x525C JUMP JUMPDEST PUSH1 0x0 SLOAD PUSH2 0x100 SWAP1 DIV PUSH1 0xFF AND PUSH2 0xD13 JUMPI PUSH1 0x40 MLOAD PUSH3 0x461BCD PUSH1 0xE5 SHL DUP2 MSTORE PUSH1 0x20 PUSH1 0x4 DUP3 ADD MSTORE PUSH1 0xA PUSH1 0x24 DUP3 ADD MSTORE PUSH10 0x139BDD081C185D5CD959 PUSH1 0xB2 SHL PUSH1 0x44 DUP3 ADD MSTORE PUSH1 0x64 ADD PUSH2 0x906 JUMP JUMPDEST PUSH1 0x0 DUP1 SLOAD PUSH2 0xFF00 NOT AND DUP2 SSTORE PUSH1 0x40 MLOAD PUSH32 0xA45F47FDEA8A1EFDD9029A5691C7F759C32B7C698632B563573E155625D16933 SWAP2 SWAP1 LOG1 JUMP JUMPDEST PUSH1 0x0 CALLER DUP2 PUSH1 0x1 PUSH1 0x1 PUSH1 0xA0 SHL SUB DUP5 AND PUSH1 0x0 SWAP1 DUP2 MSTORE PUSH1 0x1 PUSH1 0x20 MSTORE PUSH1 0x40 SWAP1 KECCAK256 SLOAD PUSH1 0x1 PUSH1 0xA0 SHL SWAP1 DIV PUSH1 0xFF AND PUSH1 0x4 DUP2 GT ISZERO PUSH2 0xD7F JUMPI PUSH2 0xD7F PUSH2 0x4C26 JUMP JUMPDEST SUB PUSH2 0xD9C JUMPI PUSH1 0x40 MLOAD PUSH3 0x461BCD PUSH1 0xE5 SHL DUP2 MSTORE PUSH1 0x4 ADD PUSH2 0x906 SWAP1 PUSH2 0x51A5 JUMP JUMPDEST PUSH1 0x1 PUSH1 0x1 PUSH1 0xA0 SHL SUB DUP4 DUP2 AND PUSH1 0x0 SWAP1 DUP2 MSTORE PUSH1 0x1 PUSH1 0x20 MSTORE PUSH1 0x40 SWAP1 KECCAK256 SLOAD DUP2 AND SWAP1 DUP3 AND EQ PUSH2 0xDF7 JUMPI PUSH1 0x40 MLOAD PUSH3 0x461BCD PUSH1 0xE5 SHL DUP2 MSTORE PUSH1 0x20 PUSH1 0x4 DUP3 ADD MSTORE PUSH1 0xC PUSH1 0x24 DUP3 ADD MSTORE PUSH12 0x2737BA103932B1B2B4BB32B9 PUSH1 0xA1 SHL PUSH1 0x44 DUP3 ADD MSTORE PUSH1 0x64 ADD PUSH2 0x906 JUMP JUMPDEST PUSH1 0x1 PUSH1 0x1 PUSH1 0xA0 SHL SUB DUP4 AND PUSH1 0x0 SWAP1 DUP2 MSTORE PUSH1 0x1 PUSH1 0x20 MSTORE PUSH1 0x40 SWAP1 KECCAK256 PUSH1 0x8 ADD SLOAD NUMBER SWAP1 PUSH2 0xE22 SWAP1 PUSH2 0x7080 SWAP1 PUSH2 0x51C8 JUMP JUMPDEST GT ISZERO PUSH2 0xE5E JUMPI PUSH1 0x40 MLOAD PUSH3 0x461BCD PUSH1 0xE5 SHL DUP2 MSTORE PUSH1 0x20 PUSH1 0x4 DUP3 ADD MSTORE PUSH1 0xB PUSH1 0x24 DUP3 ADD MSTORE PUSH11 0x15D85A5D081C195C9A5BD9 PUSH1 0xAA SHL PUSH1 0x44 DUP3 ADD MSTORE PUSH1 0x64 ADD PUSH2 0x906 JUMP JUMPDEST PUSH1 0x1 PUSH1 0x1 PUSH1 0xA0 SHL SUB DUP4 AND PUSH1 0x0 SWAP1 DUP2 MSTORE PUSH1 0x1 PUSH1 0x20 MSTORE PUSH1 0x40 SWAP1 KECCAK256 PUSH1 0x6 ADD SLOAD DUP1 PUSH2 0xEB3 JUMPI PUSH1 0x40 MLOAD PUSH3 0x461BCD PUSH1 0xE5 SHL DUP2 MSTORE PUSH1 0x20 PUSH1 0x4 DUP3 ADD MSTORE PUSH1 0x9 PUSH1 0x24 DUP3 ADD MSTORE PUSH9 0x139BC81C995DD85C99 PUSH1 0xBA SHL PUSH1 0x44 DUP3 ADD MSTORE PUSH1 0x64 ADD PUSH2 0x906 JUMP JUMPDEST PUSH1 0x1 PUSH1 0x1 PUSH1 0xA0 SHL SUB DUP5 AND PUSH1 0x0 SWAP1 DUP2 MSTORE PUSH1 0x1 PUSH1 0x20 MSTORE PUSH1 0x40 DUP2 KECCAK256 PUSH1 0x6 DUP2 ADD SWAP2 SWAP1 SWAP2 SSTORE NUMBER PUSH1 0x8 SWAP1 SWAP2 ADD SSTORE DUP1 ISZERO PUSH2 0xF18 JUMPI PUSH1 0x40 MLOAD PUSH1 0x1 PUSH1 0x1 PUSH1 0xA0 SHL SUB DUP4 AND SWAP1 DUP3 ISZERO PUSH2 0x8FC MUL SWAP1 DUP4 SWAP1 PUSH1 0x0 DUP2 DUP2 DUP2 DUP6 DUP9 DUP9 CALL SWAP4 POP POP POP POP ISZERO DUP1 ISZERO PUSH2 0xF16 JUMPI RETURNDATASIZE PUSH1 0x0 DUP1 RETURNDATACOPY RETURNDATASIZE PUSH1 0x0 REVERT JUMPDEST POP JUMPDEST PUSH1 0x0 PUSH2 0xF26 PUSH2 0x7080 NUMBER PUSH2 0x51C8 JUMP JUMPDEST PUSH2 0xF31 SWAP1 PUSH1 0x1 PUSH2 0x51C8 JUMP JUMPDEST SWAP1 POP DUP3 PUSH1 0x1 PUSH1 0x1 PUSH1 0xA0 SHL SUB AND DUP6 PUSH1 0x1 PUSH1 0x1 PUSH1 0xA0 SHL SUB AND PUSH32 0xF4E9E956BA4B65051E84982C3ADE043C89890CDBC452E9E446AFE09CD4DB40C8 DUP5 DUP5 PUSH1 0x40 MLOAD PUSH2 0xC02 SWAP3 SWAP2 SWAP1 SWAP2 DUP3 MSTORE PUSH1 0x20 DUP3 ADD MSTORE PUSH1 0x40 ADD SWAP1 JUMP JUMPDEST PUSH1 0x60 DUP1 PUSH1 0x0 DUP1 PUSH1 0x3 DUP1 SLOAD SWAP1 POP PUSH1 0x1 PUSH1 0x1 PUSH1 0x40 SHL SUB DUP2 GT ISZERO PUSH2 0xFA4 JUMPI PUSH2 0xFA4 PUSH2 0x4FFF JUMP JUMPDEST PUSH1 0x40 MLOAD SWAP1 DUP1 DUP3 MSTORE DUP1 PUSH1 0x20 MUL PUSH1 0x20 ADD DUP3 ADD PUSH1 0x40 MSTORE DUP1 ISZERO PUSH2 0xFCD JUMPI DUP2 PUSH1 0x20 ADD PUSH1 0x20 DUP3 MUL DUP1 CALLDATASIZE DUP4 CALLDATACOPY ADD SWAP1 POP JUMPDEST POP PUSH1 0x3 SLOAD SWAP1 SWAP2 POP PUSH1 0x0 SWAP1 PUSH1 0x1 PUSH1 0x1 PUSH1 0x40 SHL SUB DUP2 GT ISZERO PUSH2 0xFEE JUMPI PUSH2 0xFEE PUSH2 0x4FFF JUMP JUMPDEST PUSH1 0x40 MLOAD SWAP1 DUP1 DUP3 MSTORE DUP1 PUSH1 0x20 MUL PUSH1 0x20 ADD DUP3 ADD PUSH1 0x40 MSTORE DUP1 ISZERO PUSH2 0x1017 JUMPI DUP2 PUSH1 0x20 ADD PUSH1 0x20 DUP3 MUL DUP1 CALLDATASIZE DUP4 CALLDATACOPY ADD SWAP1 POP JUMPDEST POP SWAP1 POP PUSH1 0x0 DUP1 JUMPDEST PUSH1 0x3 SLOAD DUP2 LT ISZERO PUSH2 0x1168 JUMPI PUSH1 0x2 PUSH1 0x1 PUSH1 0x0 PUSH1 0x3 DUP5 DUP2 SLOAD DUP2 LT PUSH2 0x1041 JUMPI PUSH2 0x1041 PUSH2 0x5176 JUMP JUMPDEST PUSH1 0x0 SWAP2 DUP3 MSTORE PUSH1 0x20 DUP1 DUP4 KECCAK256 SWAP1 SWAP2 ADD SLOAD PUSH1 0x1 PUSH1 0x1 PUSH1 0xA0 SHL SUB AND DUP4 MSTORE DUP3 ADD SWAP3 SWAP1 SWAP3 MSTORE PUSH1 0x40 ADD SWAP1 KECCAK256 SLOAD PUSH1 0xFF PUSH1 0x1 PUSH1 0xA0 SHL SWAP1 SWAP2 DIV AND PUSH1 0x4 DUP2 GT ISZERO PUSH2 0x1082 JUMPI PUSH2 0x1082 PUSH2 0x4C26 JUMP JUMPDEST SUB PUSH2 0x1156 JUMPI PUSH1 0x3 DUP2 DUP2 SLOAD DUP2 LT PUSH2 0x109A JUMPI PUSH2 0x109A PUSH2 0x5176 JUMP JUMPDEST SWAP1 PUSH1 0x0 MSTORE PUSH1 0x20 PUSH1 0x0 KECCAK256 ADD PUSH1 0x0 SWAP1 SLOAD SWAP1 PUSH2 0x100 EXP SWAP1 DIV PUSH1 0x1 PUSH1 0x1 PUSH1 0xA0 SHL SUB AND DUP5 DUP4 DUP2 MLOAD DUP2 LT PUSH2 0x10CA JUMPI PUSH2 0x10CA PUSH2 0x5176 JUMP JUMPDEST PUSH1 0x20 MUL PUSH1 0x20 ADD ADD SWAP1 PUSH1 0x1 PUSH1 0x1 PUSH1 0xA0 SHL SUB AND SWAP1 DUP2 PUSH1 0x1 PUSH1 0x1 PUSH1 0xA0 SHL SUB AND DUP2 MSTORE POP POP PUSH1 0x1 PUSH1 0x0 PUSH1 0x3 DUP4 DUP2 SLOAD DUP2 LT PUSH2 0x1101 JUMPI PUSH2 0x1101 PUSH2 0x5176 JUMP JUMPDEST PUSH1 0x0 SWAP2 DUP3 MSTORE PUSH1 0x20 DUP1 DUP4 KECCAK256 SWAP1 SWAP2 ADD SLOAD PUSH1 0x1 PUSH1 0x1 PUSH1 0xA0 SHL SUB AND DUP4 MSTORE DUP3 ADD SWAP3 SWAP1 SWAP3 MSTORE PUSH1 0x40 ADD SWAP1 KECCAK256 PUSH1 0x1 ADD SLOAD DUP4 MLOAD DUP5 SWAP1 DUP5 SWAP1 DUP2 LT PUSH2 0x113D JUMPI PUSH2 0x113D PUSH2 0x5176 JUMP JUMPDEST PUSH1 0x20 SWAP1 DUP2 MUL SWAP2 SWAP1 SWAP2 ADD ADD MSTORE DUP2 PUSH2 0x1152 DUP2 PUSH2 0x518C JUMP JUMPDEST SWAP3 POP POP JUMPDEST DUP1 PUSH2 0x1160 DUP2 PUSH2 0x518C JUMP JUMPDEST SWAP2 POP POP PUSH2 0x101E JUMP JUMPDEST POP SWAP2 SWAP6 SWAP1 SWAP5 POP SWAP1 SWAP3 POP SWAP1 POP JUMP JUMPDEST CALLER PUSH2 0x1001 EQ PUSH2 0x11D8 JUMPI PUSH1 0x40 MLOAD PUSH3 0x461BCD PUSH1 0xE5 SHL DUP2 MSTORE PUSH1 0x20 PUSH1 0x4 DUP3 ADD MSTORE PUSH1 0x29 PUSH1 0x24 DUP3 ADD MSTORE PUSH32 0x746865206D6573736167652073656E646572206D75737420626520736C617368 PUSH1 0x44 DUP3 ADD MSTORE PUSH9 0x818DBDB9D1C9858DD PUSH1 0xBA SHL PUSH1 0x64 DUP3 ADD MSTORE PUSH1 0x84 ADD PUSH2 0x906 JUMP JUMPDEST PUSH2 0x11E1 DUP2 PUSH2 0x9F5 JUMP JUMPDEST ISZERO PUSH2 0x1368 JUMPI PUSH1 0x1 PUSH1 0x1 PUSH1 0xA0 SHL SUB DUP2 AND PUSH1 0x0 SWAP1 DUP2 MSTORE PUSH1 0x1 PUSH1 0x20 DUP2 SWAP1 MSTORE PUSH1 0x40 SWAP1 SWAP2 KECCAK256 DUP1 SLOAD PUSH1 0xFF PUSH1 0xA0 SHL NOT AND PUSH1 0x1 PUSH1 0xA2 SHL OR DUP2 SSTORE SWAP1 DUP2 ADD SLOAD PUSH2 0x121F DUP4 PUSH2 0x39FB JUMP JUMPDEST PUSH2 0x1228 DUP4 PUSH2 0x3B25 JUMP JUMPDEST DUP1 PUSH1 0x0 SUB PUSH2 0x1235 JUMPI POP POP POP JUMP JUMPDEST PUSH1 0x0 DUP1 JUMPDEST PUSH1 0x9 DUP5 ADD SLOAD DUP2 LT ISZERO PUSH2 0x12EC JUMPI PUSH1 0x0 PUSH1 0x2 PUSH1 0x0 DUP7 PUSH1 0x9 ADD DUP5 DUP2 SLOAD DUP2 LT PUSH2 0x1260 JUMPI PUSH2 0x1260 PUSH2 0x5176 JUMP JUMPDEST PUSH1 0x0 SWAP2 DUP3 MSTORE PUSH1 0x20 DUP1 DUP4 KECCAK256 SWAP1 SWAP2 ADD SLOAD PUSH1 0x1 PUSH1 0x1 PUSH1 0xA0 SHL SUB SWAP1 DUP2 AND DUP5 MSTORE DUP4 DUP3 ADD SWAP5 SWAP1 SWAP5 MSTORE PUSH1 0x40 SWAP3 DUP4 ADD DUP3 KECCAK256 SWAP4 DUP11 AND DUP3 MSTORE SWAP3 SWAP1 SWAP3 MSTORE DUP2 KECCAK256 DUP1 SLOAD SWAP1 SWAP3 POP DUP6 SWAP1 PUSH2 0x12AF SWAP1 PUSH9 0x1B1AE4D6E2EF500000 SWAP1 PUSH2 0x529D JUMP JUMPDEST PUSH2 0x12B9 SWAP2 SWAP1 PUSH2 0x52CA JUMP JUMPDEST DUP3 SLOAD SWAP1 SWAP2 POP PUSH2 0x12C9 SWAP1 DUP3 SWAP1 PUSH2 0x5163 JUMP JUMPDEST DUP3 SSTORE PUSH2 0x12D5 DUP2 DUP6 PUSH2 0x51C8 JUMP JUMPDEST SWAP4 POP POP POP DUP1 DUP1 PUSH2 0x12E4 SWAP1 PUSH2 0x518C JUMP JUMPDEST SWAP2 POP POP PUSH2 0x1239 JUMP JUMPDEST POP DUP1 DUP4 PUSH1 0x1 ADD SLOAD PUSH2 0x12FD SWAP2 SWAP1 PUSH2 0x5163 JUMP JUMPDEST PUSH1 0x1 DUP5 ADD SSTORE PUSH1 0x7 DUP4 ADD SLOAD PUSH2 0x1312 SWAP1 DUP3 SWAP1 PUSH2 0x51C8 JUMP JUMPDEST PUSH1 0x7 DUP5 ADD SSTORE PUSH2 0x1321 DUP2 DUP6 PUSH2 0x3CBC JUMP JUMPDEST DUP4 PUSH1 0x1 PUSH1 0x1 PUSH1 0xA0 SHL SUB AND PUSH32 0xDD028864D7FCAFBEB3BFB9802B23966C52CEF5D2E4066D3C76CA2E8E4C19EBD0 DUP3 PUSH1 0x40 MLOAD PUSH2 0x135C SWAP2 DUP2 MSTORE PUSH1 0x20 ADD SWAP1 JUMP JUMPDEST PUSH1 0x40 MLOAD DUP1 SWAP2 SUB SWAP1 LOG2 POP POP POP JUMPDEST POP JUMP JUMPDEST PUSH1 0x1 PUSH1 0x20 DUP2 SWAP1 MSTORE PUSH1 0x0 SWAP2 DUP3 MSTORE PUSH1 0x40 SWAP2 DUP3 SWAP1 KECCAK256 DUP1 SLOAD SWAP2 DUP2 ADD SLOAD DUP4 MLOAD PUSH1 0x80 DUP2 ADD SWAP1 SWAP5 MSTORE PUSH1 0x2 DUP3 ADD DUP1 SLOAD PUSH1 0x1 PUSH1 0x1 PUSH1 0xA0 SHL SUB DUP6 AND SWAP6 PUSH1 0x1 PUSH1 0xA0 SHL SWAP1 SWAP6 DIV PUSH1 0xFF AND SWAP5 SWAP3 SWAP4 SWAP3 SWAP2 SWAP1 DUP3 SWAP1 DUP3 SWAP1 PUSH2 0x13BB SWAP1 PUSH2 0x52DE JUMP JUMPDEST DUP1 PUSH1 0x1F ADD PUSH1 0x20 DUP1 SWAP2 DIV MUL PUSH1 0x20 ADD PUSH1 0x40 MLOAD SWAP1 DUP2 ADD PUSH1 0x40 MSTORE DUP1 SWAP3 SWAP2 SWAP1 DUP2 DUP2 MSTORE PUSH1 0x20 ADD DUP3 DUP1 SLOAD PUSH2 0x13E7 SWAP1 PUSH2 0x52DE JUMP JUMPDEST DUP1 ISZERO PUSH2 0x1434 JUMPI DUP1 PUSH1 0x1F LT PUSH2 0x1409 JUMPI PUSH2 0x100 DUP1 DUP4 SLOAD DIV MUL DUP4 MSTORE SWAP2 PUSH1 0x20 ADD SWAP2 PUSH2 0x1434 JUMP JUMPDEST DUP3 ADD SWAP2 SWAP1 PUSH1 0x0 MSTORE PUSH1 0x20 PUSH1 0x0 KECCAK256 SWAP1 JUMPDEST DUP2 SLOAD DUP2 MSTORE SWAP1 PUSH1 0x1 ADD SWAP1 PUSH1 0x20 ADD DUP1 DUP4 GT PUSH2 0x1417 JUMPI DUP3 SWAP1 SUB PUSH1 0x1F AND DUP3 ADD SWAP2 JUMPDEST POP POP POP POP POP DUP2 MSTORE PUSH1 0x20 ADD PUSH1 0x1 DUP3 ADD DUP1 SLOAD PUSH2 0x144D SWAP1 PUSH2 0x52DE JUMP JUMPDEST DUP1 PUSH1 0x1F ADD PUSH1 0x20 DUP1 SWAP2 DIV MUL PUSH1 0x20 ADD PUSH1 0x40 MLOAD SWAP1 DUP2 ADD PUSH1 0x40 MSTORE DUP1 SWAP3 SWAP2 SWAP1 DUP2 DUP2 MSTORE PUSH1 0x20 ADD DUP3 DUP1 SLOAD PUSH2 0x1479 SWAP1 PUSH2 0x52DE JUMP JUMPDEST DUP1 ISZERO PUSH2 0x14C6 JUMPI DUP1 PUSH1 0x1F LT PUSH2 0x149B JUMPI PUSH2 0x100 DUP1 DUP4 SLOAD DIV MUL DUP4 MSTORE SWAP2 PUSH1 0x20 ADD SWAP2 PUSH2 0x14C6 JUMP JUMPDEST DUP3 ADD SWAP2 SWAP1 PUSH1 0x0 MSTORE PUSH1 0x20 PUSH1 0x0 KECCAK256 SWAP1 JUMPDEST DUP2 SLOAD DUP2 MSTORE SWAP1 PUSH1 0x1 ADD SWAP1 PUSH1 0x20 ADD DUP1 DUP4 GT PUSH2 0x14A9 JUMPI DUP3 SWAP1 SUB PUSH1 0x1F AND DUP3 ADD SWAP2 JUMPDEST POP POP POP POP POP DUP2 MSTORE PUSH1 0x20 ADD PUSH1 0x2 DUP3 ADD DUP1 SLOAD PUSH2 0x14DF SWAP1 PUSH2 0x52DE JUMP JUMPDEST DUP1 PUSH1 0x1F ADD PUSH1 0x20 DUP1 SWAP2 DIV MUL PUSH1 0x20 ADD PUSH1 0x40 MLOAD SWAP1 DUP2 ADD PUSH1 0x40 MSTORE DUP1 SWAP3 SWAP2 SWAP1 DUP2 DUP2 MSTORE PUSH1 0x20 ADD DUP3 DUP1 SLOAD PUSH2 0x150B SWAP1 PUSH2 0x52DE JUMP JUMPDEST DUP1 ISZERO PUSH2 0x1558 JUMPI DUP1 PUSH1 0x1F LT PUSH2 0x152D JUMPI PUSH2 0x100 DUP1 DUP4 SLOAD DIV MUL DUP4 MSTORE SWAP2 PUSH1 0x20 ADD SWAP2 PUSH2 0x1558 JUMP JUMPDEST DUP3 ADD SWAP2 SWAP1 PUSH1 0x0 MSTORE PUSH1 0x20 PUSH1 0x0 KECCAK256 SWAP1 JUMPDEST DUP2 SLOAD DUP2 MSTORE SWAP1 PUSH1 0x1 ADD SWAP1 PUSH1 0x20 ADD DUP1 DUP4 GT PUSH2 0x153B JUMPI DUP3 SWAP1 SUB PUSH1 0x1F AND DUP3 ADD SWAP2 JUMPDEST POP POP POP POP POP DUP2 MSTORE PUSH1 0x20 ADD PUSH1 0x3 DUP3 ADD DUP1 SLOAD PUSH2 0x1571 SWAP1 PUSH2 0x52DE JUMP JUMPDEST DUP1 PUSH1 0x1F ADD PUSH1 0x20 DUP1 SWAP2 DIV MUL PUSH1 0x20 ADD PUSH1 0x40 MLOAD SWAP1 DUP2 ADD PUSH1 0x40 MSTORE DUP1 SWAP3 SWAP2 SWAP1 DUP2 DUP2 MSTORE PUSH1 0x20 ADD DUP3 DUP1 SLOAD PUSH2 0x159D SWAP1 PUSH2 0x52DE JUMP JUMPDEST DUP1 ISZERO PUSH2 0x15EA JUMPI DUP1 PUSH1 0x1F LT PUSH2 0x15BF JUMPI PUSH2 0x100 DUP1 DUP4 SLOAD DIV MUL DUP4 MSTORE SWAP2 PUSH1 0x20 ADD SWAP2 PUSH2 0x15EA JUMP JUMPDEST DUP3 ADD SWAP2 SWAP1 PUSH1 0x0 MSTORE PUSH1 0x20 PUSH1 0x0 KECCAK256 SWAP1 JUMPDEST DUP2 SLOAD DUP2 MSTORE SWAP1 PUSH1 0x1 ADD SWAP1 PUSH1 0x20 ADD DUP1 DUP4 GT PUSH2 0x15CD JUMPI DUP3 SWAP1 SUB PUSH1 0x1F AND DUP3 ADD SWAP2 JUMPDEST POP POP POP POP POP DUP2 MSTORE POP POP SWAP1 DUP1 PUSH1 0x6 ADD SLOAD SWAP1 DUP1 PUSH1 0x7 ADD SLOAD SWAP1 DUP1 PUSH1 0x8 ADD SLOAD SWAP1 DUP1 PUSH1 0xA ADD SLOAD SWAP1 DUP1 PUSH1 0xB ADD SLOAD SWAP1 DUP1 PUSH1 0xC ADD SLOAD SWAP1 DUP1 PUSH1 0xD ADD SLOAD SWAP1 POP DUP12 JUMP JUMPDEST PUSH1 0x0 SLOAD PUSH3 0x10000 SWAP1 DIV PUSH1 0x1 PUSH1 0x1 PUSH1 0xA0 SHL SUB AND CALLER EQ PUSH2 0x1652 JUMPI PUSH1 0x40 MLOAD PUSH3 0x461BCD PUSH1 0xE5 SHL DUP2 MSTORE PUSH1 0x4 ADD PUSH2 0x906 SWAP1 PUSH2 0x525C JUMP JUMPDEST PUSH1 0x0 SLOAD PUSH2 0x100 SWAP1 DIV PUSH1 0xFF AND ISZERO PUSH2 0x169B JUMPI PUSH1 0x40 MLOAD PUSH3 0x461BCD PUSH1 0xE5 SHL DUP2 MSTORE PUSH1 0x20 PUSH1 0x4 DUP3 ADD MSTORE PUSH1 0xE PUSH1 0x24 DUP3 ADD MSTORE PUSH14 0x105B1C9958591E481C185D5CD959 PUSH1 0x92 SHL PUSH1 0x44 DUP3 ADD MSTORE PUSH1 0x64 ADD PUSH2 0x906 JUMP JUMPDEST PUSH1 0x0 DUP1 SLOAD PUSH2 0xFF00 NOT AND PUSH2 0x100 OR DUP2 SSTORE PUSH1 0x40 MLOAD PUSH32 0x9E87FAC88FF661F02D44F95383C817FECE4BCE600A3DAB7A54406878B965E752 SWAP2 SWAP1 LOG1 JUMP JUMPDEST PUSH1 0x1 PUSH1 0x1 PUSH1 0xA0 SHL SUB DUP2 DUP2 AND PUSH1 0x0 SWAP1 DUP2 MSTORE PUSH1 0x1 PUSH1 0x20 SWAP1 DUP2 MSTORE PUSH1 0x40 DUP1 DUP4 KECCAK256 DUP2 MLOAD PUSH2 0x180 DUP2 ADD SWAP1 SWAP3 MSTORE DUP1 SLOAD SWAP5 DUP6 AND DUP3 MSTORE SWAP3 SWAP4 DUP5 SWAP4 DUP5 SWAP4 DUP5 SWAP4 DUP5 SWAP4 DUP5 SWAP4 PUSH1 0x60 SWAP4 DUP6 SWAP4 SWAP3 SWAP1 DUP4 ADD SWAP1 PUSH1 0x1 PUSH1 0xA0 SHL SWAP1 DIV PUSH1 0xFF AND PUSH1 0x4 DUP2 GT ISZERO PUSH2 0x1731 JUMPI PUSH2 0x1731 PUSH2 0x4C26 JUMP JUMPDEST PUSH1 0x4 DUP2 GT ISZERO PUSH2 0x1742 JUMPI PUSH2 0x1742 PUSH2 0x4C26 JUMP JUMPDEST DUP2 MSTORE PUSH1 0x20 ADD PUSH1 0x1 DUP3 ADD SLOAD DUP2 MSTORE PUSH1 0x20 ADD PUSH1 0x2 DUP3 ADD PUSH1 0x40 MLOAD DUP1 PUSH1 0x80 ADD PUSH1 0x40 MSTORE SWAP1 DUP2 PUSH1 0x0 DUP3 ADD DUP1 SLOAD PUSH2 0x1770 SWAP1 PUSH2 0x52DE JUMP JUMPDEST DUP1 PUSH1 0x1F ADD PUSH1 0x20 DUP1 SWAP2 DIV MUL PUSH1 0x20 ADD PUSH1 0x40 MLOAD SWAP1 DUP2 ADD PUSH1 0x40 MSTORE DUP1 SWAP3 SWAP2 SWAP1 DUP2 DUP2 MSTORE PUSH1 0x20 ADD DUP3 DUP1 SLOAD PUSH2 0x179C SWAP1 PUSH2 0x52DE JUMP JUMPDEST DUP1 ISZERO PUSH2 0x17E9 JUMPI DUP1 PUSH1 0x1F LT PUSH2 0x17BE JUMPI PUSH2 0x100 DUP1 DUP4 SLOAD DIV MUL DUP4 MSTORE SWAP2 PUSH1 0x20 ADD SWAP2 PUSH2 0x17E9 JUMP JUMPDEST DUP3 ADD SWAP2 SWAP1 PUSH1 0x0 MSTORE PUSH1 0x20 PUSH1 0x0 KECCAK256 SWAP1 JUMPDEST DUP2 SLOAD DUP2 MSTORE SWAP1 PUSH1 0x1 ADD SWAP1 PUSH1 0x20 ADD DUP1 DUP4 GT PUSH2 0x17CC JUMPI DUP3 SWAP1 SUB PUSH1 0x1F AND DUP3 ADD SWAP2 JUMPDEST POP POP POP POP POP DUP2 MSTORE PUSH1 0x20 ADD PUSH1 0x1 DUP3 ADD DUP1 SLOAD PUSH2 0x1802 SWAP1 PUSH2 0x52DE JUMP JUMPDEST DUP1 PUSH1 0x1F ADD PUSH1 0x20 DUP1 SWAP2 DIV MUL PUSH1 0x20 ADD PUSH1 0x40 MLOAD SWAP1 DUP2 ADD PUSH1 0x40 MSTORE DUP1 SWAP3 SWAP2 SWAP1 DUP2 DUP2 MSTORE PUSH1 0x20 ADD DUP3 DUP1 SLOAD PUSH2 0x182E SWAP1 PUSH2 0x52DE JUMP JUMPDEST DUP1 ISZERO PUSH2 0x187B JUMPI DUP1 PUSH1 0x1F LT PUSH2 0x1850 JUMPI PUSH2 0x100 DUP1 DUP4 SLOAD DIV MUL DUP4 MSTORE SWAP2 PUSH1 0x20 ADD SWAP2 PUSH2 0x187B JUMP JUMPDEST DUP3 ADD SWAP2 SWAP1 PUSH1 0x0 MSTORE PUSH1 0x20 PUSH1 0x0 KECCAK256 SWAP1 JUMPDEST DUP2 SLOAD DUP2 MSTORE SWAP1 PUSH1 0x1 ADD SWAP1 PUSH1 0x20 ADD DUP1 DUP4 GT PUSH2 0x185E JUMPI DUP3 SWAP1 SUB PUSH1 0x1F AND DUP3 ADD SWAP2 JUMPDEST POP POP POP POP POP DUP2 MSTORE PUSH1 0x20 ADD PUSH1 0x2 DUP3 ADD DUP1 SLOAD PUSH2 0x1894 SWAP1 PUSH2 0x52DE JUMP JUMPDEST DUP1 PUSH1 0x1F ADD PUSH1 0x20 DUP1 SWAP2 DIV MUL PUSH1 0x20 ADD PUSH1 0x40 MLOAD SWAP1 DUP2 ADD PUSH1 0x40 MSTORE DUP1 SWAP3 SWAP2 SWAP1 DUP2 DUP2 MSTORE PUSH1 0x20 ADD DUP3 DUP1 SLOAD PUSH2 0x18C0 SWAP1 PUSH2 0x52DE JUMP JUMPDEST DUP1 ISZERO PUSH2 0x190D JUMPI DUP1 PUSH1 0x1F LT PUSH2 0x18E2 JUMPI PUSH2 0x100 DUP1 DUP4 SLOAD DIV MUL DUP4 MSTORE SWAP2 PUSH1 0x20 ADD SWAP2 PUSH2 0x190D JUMP JUMPDEST DUP3 ADD SWAP2 SWAP1 PUSH1 0x0 MSTORE PUSH1 0x20 PUSH1 0x0 KECCAK256 SWAP1 JUMPDEST DUP2 SLOAD DUP2 MSTORE SWAP1 PUSH1 0x1 ADD SWAP1 PUSH1 0x20 ADD DUP1 DUP4 GT PUSH2 0x18F0 JUMPI DUP3 SWAP1 SUB PUSH1 0x1F AND DUP3 ADD SWAP2 JUMPDEST POP POP POP POP POP DUP2 MSTORE PUSH1 0x20 ADD PUSH1 0x3 DUP3 ADD DUP1 SLOAD PUSH2 0x1926 SWAP1 PUSH2 0x52DE JUMP JUMPDEST DUP1 PUSH1 0x1F ADD PUSH1 0x20 DUP1 SWAP2 DIV MUL PUSH1 0x20 ADD PUSH1 0x40 MLOAD SWAP1 DUP2 ADD PUSH1 0x40 MSTORE DUP1 SWAP3 SWAP2 SWAP1 DUP2 DUP2 MSTORE PUSH1 0x20 ADD DUP3 DUP1 SLOAD PUSH2 0x1952 SWAP1 PUSH2 0x52DE JUMP JUMPDEST DUP1 ISZERO PUSH2 0x199F JUMPI DUP1 PUSH1 0x1F LT PUSH2 0x1974 JUMPI PUSH2 0x100 DUP1 DUP4 SLOAD DIV MUL DUP4 MSTORE SWAP2 PUSH1 0x20 ADD SWAP2 PUSH2 0x199F JUMP JUMPDEST DUP3 ADD SWAP2 SWAP1 PUSH1 0x0 MSTORE PUSH1 0x20 PUSH1 0x0 KECCAK256 SWAP1 JUMPDEST DUP2 SLOAD DUP2 MSTORE SWAP1 PUSH1 0x1 ADD SWAP1 PUSH1 0x20 ADD DUP1 DUP4 GT PUSH2 0x1982 JUMPI DUP3 SWAP1 SUB PUSH1 0x1F AND DUP3 ADD SWAP2 JUMPDEST POP POP POP POP POP DUP2 MSTORE POP POP DUP2 MSTORE PUSH1 0x20 ADD PUSH1 0x6 DUP3 ADD SLOAD DUP2 MSTORE PUSH1 0x20 ADD PUSH1 0x7 DUP3 ADD SLOAD DUP2 MSTORE PUSH1 0x20 ADD PUSH1 0x8 DUP3 ADD SLOAD DUP2 MSTORE PUSH1 0x20 ADD PUSH1 0x9 DUP3 ADD DUP1 SLOAD DUP1 PUSH1 0x20 MUL PUSH1 0x20 ADD PUSH1 0x40 MLOAD SWAP1 DUP2 ADD PUSH1 0x40 MSTORE DUP1 SWAP3 SWAP2 SWAP1 DUP2 DUP2 MSTORE PUSH1 0x20 ADD DUP3 DUP1 SLOAD DUP1 ISZERO PUSH2 0x1A23 JUMPI PUSH1 0x20 MUL DUP3 ADD SWAP2 SWAP1 PUSH1 0x0 MSTORE PUSH1 0x20 PUSH1 0x0 KECCAK256 SWAP1 JUMPDEST DUP2 SLOAD PUSH1 0x1 PUSH1 0x1 PUSH1 0xA0 SHL SUB AND DUP2 MSTORE PUSH1 0x1 SWAP1 SWAP2 ADD SWAP1 PUSH1 0x20 ADD DUP1 DUP4 GT PUSH2 0x1A05 JUMPI JUMPDEST POP POP POP POP POP DUP2 MSTORE PUSH1 0x20 ADD PUSH1 0xA DUP3 ADD SLOAD DUP2 MSTORE PUSH1 0x20 ADD PUSH1 0xB DUP3 ADD SLOAD DUP2 MSTORE PUSH1 0x20 ADD PUSH1 0xC DUP3 ADD SLOAD DUP2 MSTORE PUSH1 0x20 ADD PUSH1 0xD DUP3 ADD SLOAD DUP2 MSTORE POP POP SWAP1 POP DUP1 PUSH1 0x0 ADD MLOAD DUP2 PUSH1 0x20 ADD MLOAD DUP3 PUSH1 0x40 ADD MLOAD DUP4 PUSH1 0x80 ADD MLOAD DUP5 PUSH1 0xA0 ADD MLOAD DUP6 PUSH1 0xC0 ADD MLOAD DUP7 PUSH1 0xE0 ADD MLOAD SWAP8 POP SWAP8 POP SWAP8 POP SWAP8 POP SWAP8 POP SWAP8 POP SWAP8 POP POP SWAP2 SWAP4 SWAP6 SWAP8 SWAP1 SWAP3 SWAP5 SWAP7 POP JUMP JUMPDEST PUSH1 0x60 CALLER COINBASE EQ PUSH2 0x1AB4 JUMPI PUSH1 0x40 MLOAD PUSH3 0x461BCD PUSH1 0xE5 SHL DUP2 MSTORE PUSH1 0x4 ADD PUSH2 0x906 SWAP1 PUSH2 0x5318 JUMP JUMPDEST PUSH1 0x8 SLOAD NUMBER GT PUSH2 0x1AF7 JUMPI PUSH1 0x40 MLOAD PUSH3 0x461BCD PUSH1 0xE5 SHL DUP2 MSTORE PUSH1 0x20 PUSH1 0x4 DUP3 ADD MSTORE PUSH1 0xF PUSH1 0x24 DUP3 ADD MSTORE PUSH15 0x105B1C9958591E481D5C19185D1959 PUSH1 0x8A SHL PUSH1 0x44 DUP3 ADD MSTORE PUSH1 0x64 ADD PUSH2 0x906 JUMP JUMPDEST PUSH1 0x0 SLOAD PUSH1 0xFF AND PUSH2 0x1B19 JUMPI PUSH1 0x40 MLOAD PUSH3 0x461BCD PUSH1 0xE5 SHL DUP2 MSTORE PUSH1 0x4 ADD PUSH2 0x906 SWAP1 PUSH2 0x51FD JUMP JUMPDEST PUSH2 0x1B24 PUSH1 0xC8 NUMBER PUSH2 0x5365 JUMP JUMPDEST ISZERO PUSH2 0x1B41 JUMPI PUSH1 0x40 MLOAD PUSH3 0x461BCD PUSH1 0xE5 SHL DUP2 MSTORE PUSH1 0x4 ADD PUSH2 0x906 SWAP1 PUSH2 0x5379 JUMP JUMPDEST PUSH1 0x3 SLOAD PUSH2 0x1B7C JUMPI PUSH1 0x40 MLOAD PUSH3 0x461BCD PUSH1 0xE5 SHL DUP2 MSTORE PUSH1 0x20 PUSH1 0x4 DUP3 ADD MSTORE PUSH1 0x9 PUSH1 0x24 DUP3 ADD MSTORE PUSH9 0x195B5C1D1E481CD95D PUSH1 0xBA SHL PUSH1 0x44 DUP3 ADD MSTORE PUSH1 0x64 ADD PUSH2 0x906 JUMP JUMPDEST PUSH1 0x3 SLOAD PUSH1 0x65 LT ISZERO PUSH2 0x1BB9 JUMPI PUSH1 0x40 MLOAD PUSH3 0x461BCD PUSH1 0xE5 SHL DUP2 MSTORE PUSH1 0x20 PUSH1 0x4 DUP3 ADD MSTORE PUSH1 0x7 PUSH1 0x24 DUP3 ADD MSTORE PUSH7 0x6D617820313031 PUSH1 0xC8 SHL PUSH1 0x44 DUP3 ADD MSTORE PUSH1 0x64 ADD PUSH2 0x906 JUMP JUMPDEST PUSH1 0x3 DUP1 SLOAD PUSH2 0x1BC9 SWAP2 PUSH1 0x4 SWAP2 PUSH2 0x4AB7 JUMP JUMPDEST POP PUSH32 0x6120448F3D4245C1FF708D970C34E1B6484EE22A794EDE0BFCA2317A97AA8CED PUSH1 0x4 PUSH1 0x40 MLOAD PUSH2 0x1BFA SWAP2 SWAP1 PUSH2 0x53A3 JUMP JUMPDEST PUSH1 0x40 MLOAD DUP1 SWAP2 SUB SWAP1 LOG1 PUSH1 0x4 DUP1 SLOAD DUP1 PUSH1 0x20 MUL PUSH1 0x20 ADD PUSH1 0x40 MLOAD SWAP1 DUP2 ADD PUSH1 0x40 MSTORE DUP1 SWAP3 SWAP2 SWAP1 DUP2 DUP2 MSTORE PUSH1 0x20 ADD DUP3 DUP1 SLOAD DUP1 ISZERO PUSH2 0x1C58 JUMPI PUSH1 0x20 MUL DUP3 ADD SWAP2 SWAP1 PUSH1 0x0 MSTORE PUSH1 0x20 PUSH1 0x0 KECCAK256 SWAP1 JUMPDEST DUP2 SLOAD PUSH1 0x1 PUSH1 0x1 PUSH1 0xA0 SHL SUB AND DUP2 MSTORE PUSH1 0x1 SWAP1 SWAP2 ADD SWAP1 PUSH1 0x20 ADD DUP1 DUP4 GT PUSH2 0x1C3A JUMPI JUMPDEST POP POP POP POP POP SWAP1 POP NUMBER PUSH1 0x8 SSTORE SWAP1 JUMP JUMPDEST PUSH1 0x0 DUP1 SLOAD PUSH1 0xFF AND PUSH2 0x1C89 JUMPI PUSH1 0x40 MLOAD PUSH3 0x461BCD PUSH1 0xE5 SHL DUP2 MSTORE PUSH1 0x4 ADD PUSH2 0x906 SWAP1 PUSH2 0x51FD JUMP JUMPDEST PUSH1 0x0 SLOAD PUSH2 0x100 SWAP1 DIV PUSH1 0xFF AND ISZERO PUSH2 0x1CB1 JUMPI PUSH1 0x40 MLOAD PUSH3 0x461BCD PUSH1 0xE5 SHL DUP2 MSTORE PUSH1 0x4 ADD PUSH2 0x906 SWAP1 PUSH2 0x5230 JUMP JUMPDEST CALLER PUSH1 0x0 DUP2 DUP2 MSTORE PUSH1 0x1 PUSH1 0x20 MSTORE PUSH1 0x40 DUP2 KECCAK256 SLOAD PUSH1 0x1 PUSH1 0xA0 SHL SWAP1 DIV PUSH1 0xFF AND PUSH1 0x4 DUP2 GT ISZERO PUSH2 0x1CDC JUMPI PUSH2 0x1CDC PUSH2 0x4C26 JUMP JUMPDEST EQ PUSH2 0x1D19 JUMPI PUSH1 0x40 MLOAD PUSH3 0x461BCD PUSH1 0xE5 SHL DUP2 MSTORE PUSH1 0x20 PUSH1 0x4 DUP3 ADD MSTORE PUSH1 0xD PUSH1 0x24 DUP3 ADD MSTORE PUSH13 0x105B1C9958591E48195E1A5CDD PUSH1 0x9A SHL PUSH1 0x44 DUP3 ADD MSTORE PUSH1 0x64 ADD PUSH2 0x906 JUMP JUMPDEST CALLVALUE PUSH2 0x1D2C DUP3 DUP14 DUP14 DUP14 DUP14 DUP14 DUP14 DUP14 DUP14 DUP14 PUSH2 0x4462 JUMP JUMPDEST POP PUSH1 0x1 PUSH1 0x1 PUSH1 0xA0 SHL SUB DUP1 DUP4 AND PUSH1 0x0 DUP2 DUP2 MSTORE PUSH1 0x1 PUSH1 0x20 MSTORE PUSH1 0x40 DUP1 DUP3 KECCAK256 PUSH2 0x1F4 PUSH1 0xA SWAP1 SWAP2 ADD SSTORE MLOAD SWAP3 DUP16 AND SWAP3 PUSH32 0x22D10A5EB7A0F38EF7D1B508532E80FC470342C7FFAFCC24FC98B5D20B2CC0EA SWAP2 SWAP1 LOG3 DUP1 ISZERO PUSH2 0x1D93 JUMPI PUSH2 0x1D8A DUP3 DUP4 DUP4 PUSH2 0x363E JUMP JUMPDEST SWAP3 POP POP POP PUSH2 0x1D9A JUMP JUMPDEST PUSH1 0x1 SWAP3 POP POP POP JUMPDEST SWAP10 SWAP9 POP POP POP POP POP POP POP POP POP JUMP JUMPDEST PUSH1 0x0 SLOAD PUSH3 0x10000 SWAP1 DIV PUSH1 0x1 PUSH1 0x1 PUSH1 0xA0 SHL SUB AND CALLER EQ PUSH2 0x1DD7 JUMPI PUSH1 0x40 MLOAD PUSH3 0x461BCD PUSH1 0xE5 SHL DUP2 MSTORE PUSH1 0x4 ADD PUSH2 0x906 SWAP1 PUSH2 0x525C JUMP JUMPDEST PUSH1 0x1 PUSH1 0x1 PUSH1 0xA0 SHL SUB DUP2 AND PUSH2 0x1E25 JUMPI PUSH1 0x40 MLOAD PUSH3 0x461BCD PUSH1 0xE5 SHL DUP2 MSTORE PUSH1 0x20 PUSH1 0x4 DUP3 ADD MSTORE PUSH1 0x15 PUSH1 0x24 DUP3 ADD MSTORE PUSH21 0x496E76616C69642061646D696E2061646472657373 PUSH1 0x58 SHL PUSH1 0x44 DUP3 ADD MSTORE PUSH1 0x64 ADD PUSH2 0x906 JUMP JUMPDEST PUSH1 0x0 DUP1 SLOAD PUSH1 0x40 MLOAD PUSH1 0x1 PUSH1 0x1 PUSH1 0xA0 SHL SUB DUP1 DUP6 AND SWAP4 PUSH3 0x10000 SWAP1 SWAP4 DIV AND SWAP2 PUSH32 0x7E644D79422F17C01E4894B5F4F588D331EBFA28653D42AE832DC59E38C9798F SWAP2 LOG3 PUSH1 0x0 DUP1 SLOAD PUSH1 0x1 PUSH1 0x1 PUSH1 0xA0 SHL SUB SWAP1 SWAP3 AND PUSH3 0x10000 MUL PUSH3 0x10000 PUSH1 0x1 PUSH1 0xB0 SHL SUB NOT SWAP1 SWAP3 AND SWAP2 SWAP1 SWAP2 OR SWAP1 SSTORE JUMP JUMPDEST PUSH1 0x0 DUP1 SLOAD PUSH1 0xFF AND PUSH2 0x1EB1 JUMPI PUSH1 0x40 MLOAD PUSH3 0x461BCD PUSH1 0xE5 SHL DUP2 MSTORE PUSH1 0x4 ADD PUSH2 0x906 SWAP1 PUSH2 0x51FD JUMP JUMPDEST PUSH1 0x0 SLOAD PUSH2 0x100 SWAP1 DIV PUSH1 0xFF AND ISZERO PUSH2 0x1ED9 JUMPI PUSH1 0x40 MLOAD PUSH3 0x461BCD PUSH1 0xE5 SHL DUP2 MSTORE PUSH1 0x4 ADD PUSH2 0x906 SWAP1 PUSH2 0x5230 JUMP JUMPDEST CALLER PUSH1 0x0 DUP2 DUP2 MSTORE PUSH1 0x1 PUSH1 0x20 MSTORE PUSH1 0x40 SWAP1 KECCAK256 SLOAD PUSH1 0x4 SWAP1 PUSH1 0x1 PUSH1 0xA0 SHL SWAP1 DIV PUSH1 0xFF AND DUP2 DUP2 GT ISZERO PUSH2 0x1F06 JUMPI PUSH2 0x1F06 PUSH2 0x4C26 JUMP JUMPDEST EQ PUSH2 0x1F40 JUMPI PUSH1 0x40 MLOAD PUSH3 0x461BCD PUSH1 0xE5 SHL DUP2 MSTORE PUSH1 0x20 PUSH1 0x4 DUP3 ADD MSTORE PUSH1 0xA PUSH1 0x24 DUP3 ADD MSTORE PUSH10 0x139BDD081A985A5B1959 PUSH1 0xB2 SHL PUSH1 0x44 DUP3 ADD MSTORE PUSH1 0x64 ADD PUSH2 0x906 JUMP JUMPDEST PUSH1 0x6 SLOAD PUSH1 0x40 MLOAD PUSH4 0x169B2623 PUSH1 0xE0 SHL DUP2 MSTORE PUSH1 0x1 PUSH1 0x1 PUSH1 0xA0 SHL SUB SWAP1 SWAP2 AND SWAP1 PUSH4 0x169B2623 SWAP1 PUSH2 0x1F70 SWAP1 DUP5 SWAP1 PUSH1 0x4 ADD PUSH2 0x4B6E JUMP JUMPDEST PUSH1 0x20 PUSH1 0x40 MLOAD DUP1 DUP4 SUB DUP2 PUSH1 0x0 DUP8 GAS CALL ISZERO DUP1 ISZERO PUSH2 0x1F8F JUMPI RETURNDATASIZE PUSH1 0x0 DUP1 RETURNDATACOPY RETURNDATASIZE PUSH1 0x0 REVERT JUMPDEST POP POP POP POP PUSH1 0x40 MLOAD RETURNDATASIZE PUSH1 0x1F NOT PUSH1 0x1F DUP3 ADD AND DUP3 ADD DUP1 PUSH1 0x40 MSTORE POP DUP2 ADD SWAP1 PUSH2 0x1FB3 SWAP2 SWAP1 PUSH2 0x53F3 JUMP JUMPDEST PUSH2 0x1FEE JUMPI PUSH1 0x40 MLOAD PUSH3 0x461BCD PUSH1 0xE5 SHL DUP2 MSTORE PUSH1 0x20 PUSH1 0x4 DUP3 ADD MSTORE PUSH1 0xC PUSH1 0x24 DUP3 ADD MSTORE PUSH12 0x10DB19585B8819985A5B1959 PUSH1 0xA2 SHL PUSH1 0x44 DUP3 ADD MSTORE PUSH1 0x64 ADD PUSH2 0x906 JUMP JUMPDEST PUSH1 0x1 PUSH1 0x1 PUSH1 0xA0 SHL SUB DUP2 AND PUSH1 0x0 SWAP1 DUP2 MSTORE PUSH1 0x1 PUSH1 0x20 DUP2 SWAP1 MSTORE PUSH1 0x40 SWAP1 SWAP2 KECCAK256 ADD SLOAD PUSH10 0x21E19E0C9BAB2400000 GT PUSH2 0x205A JUMPI PUSH1 0x1 PUSH1 0x1 PUSH1 0xA0 SHL SUB DUP2 AND PUSH1 0x0 SWAP1 DUP2 MSTORE PUSH1 0x1 PUSH1 0x20 DUP2 SWAP1 MSTORE PUSH1 0x40 SWAP1 SWAP2 KECCAK256 DUP1 SLOAD PUSH1 0xFF PUSH1 0xA0 SHL NOT AND PUSH1 0x1 PUSH1 0xA1 SHL OR DUP2 SSTORE ADD SLOAD PUSH2 0x2054 SWAP1 DUP3 SWAP1 PUSH2 0x47C7 JUMP JUMPDEST POP PUSH2 0x2084 JUMP JUMPDEST PUSH1 0x1 PUSH1 0x1 PUSH1 0xA0 SHL SUB DUP2 AND PUSH1 0x0 SWAP1 DUP2 MSTORE PUSH1 0x1 PUSH1 0x20 MSTORE PUSH1 0x40 SWAP1 KECCAK256 DUP1 SLOAD PUSH1 0xFF PUSH1 0xA0 SHL NOT AND PUSH1 0x3 PUSH1 0xA0 SHL OR SWAP1 SSTORE JUMPDEST PUSH1 0x40 MLOAD PUSH1 0x1 PUSH1 0x1 PUSH1 0xA0 SHL SUB DUP3 AND SWAP1 PUSH32 0x9390B453426557DA5EBDC31F19A37753CA04ADDF656D32F35232211BB2AF3F19 SWAP1 PUSH1 0x0 SWAP1 LOG2 PUSH1 0x1 SWAP2 POP POP SWAP1 JUMP JUMPDEST PUSH1 0x0 DUP1 SLOAD PUSH1 0xFF AND PUSH2 0x20E3 JUMPI PUSH1 0x40 MLOAD PUSH3 0x461BCD PUSH1 0xE5 SHL DUP2 MSTORE PUSH1 0x4 ADD PUSH2 0x906 SWAP1 PUSH2 0x51FD JUMP JUMPDEST PUSH1 0x0 SLOAD PUSH2 0x100 SWAP1 DIV PUSH1 0xFF AND ISZERO PUSH2 0x210B JUMPI PUSH1 0x40 MLOAD PUSH3 0x461BCD PUSH1 0xE5 SHL DUP2 MSTORE PUSH1 0x4 ADD PUSH2 0x906 SWAP1 PUSH2 0x5230 JUMP JUMPDEST CALLER PUSH1 0x0 DUP2 DUP2 MSTORE PUSH1 0x1 PUSH1 0x20 MSTORE PUSH1 0x40 DUP2 KECCAK256 SLOAD PUSH1 0x1 PUSH1 0xA0 SHL SWAP1 DIV PUSH1 0xFF AND PUSH1 0x4 DUP2 GT ISZERO PUSH2 0x2136 JUMPI PUSH2 0x2136 PUSH2 0x4C26 JUMP JUMPDEST SUB PUSH2 0x2153 JUMPI PUSH1 0x40 MLOAD PUSH3 0x461BCD PUSH1 0xE5 SHL DUP2 MSTORE PUSH1 0x4 ADD PUSH2 0x906 SWAP1 PUSH2 0x51A5 JUMP JUMPDEST PUSH2 0x2165 DUP2 DUP13 DUP13 DUP13 DUP13 DUP13 DUP13 DUP13 DUP13 DUP13 PUSH2 0x4462 JUMP JUMPDEST POP DUP11 PUSH1 0x1 PUSH1 0x1 PUSH1 0xA0 SHL SUB AND DUP2 PUSH1 0x1 PUSH1 0x1 PUSH1 0xA0 SHL SUB AND PUSH32 0xCFAC5DC75B8D9A7E074162F59D9ADCD33DA59F0FE8DFB21580DB298FC0FDAD0D PUSH1 0x40 MLOAD PUSH1 0x40 MLOAD DUP1 SWAP2 SUB SWAP1 LOG3 POP PUSH1 0x1 SWAP11 SWAP10 POP POP POP POP POP POP POP POP POP POP JUMP JUMPDEST PUSH1 0x0 DUP1 JUMPDEST PUSH1 0x3 SLOAD DUP2 LT ISZERO PUSH2 0xA55 JUMPI DUP3 PUSH1 0x1 PUSH1 0x1 PUSH1 0xA0 SHL SUB AND PUSH1 0x3 DUP3 DUP2 SLOAD DUP2 LT PUSH2 0x21E2 JUMPI PUSH2 0x21E2 PUSH2 0x5176 JUMP JUMPDEST PUSH1 0x0 SWAP2 DUP3 MSTORE PUSH1 0x20 SWAP1 SWAP2 KECCAK256 ADD SLOAD PUSH1 0x1 PUSH1 0x1 PUSH1 0xA0 SHL SUB AND SUB PUSH2 0x2205 JUMPI POP PUSH1 0x1 SWAP3 SWAP2 POP POP JUMP JUMPDEST DUP1 PUSH2 0x220F DUP2 PUSH2 0x518C JUMP JUMPDEST SWAP2 POP POP PUSH2 0x21BB JUMP JUMPDEST PUSH1 0x0 SLOAD PUSH1 0xFF AND ISZERO PUSH2 0x226A JUMPI PUSH1 0x40 MLOAD PUSH3 0x461BCD PUSH1 0xE5 SHL DUP2 MSTORE PUSH1 0x20 PUSH1 0x4 DUP3 ADD DUP2 SWAP1 MSTORE PUSH1 0x24 DUP3 ADD MSTORE PUSH32 0x74686520636F6E747261637420616C726561647920696E697469616C697A6564 PUSH1 0x44 DUP3 ADD MSTORE PUSH1 0x64 ADD PUSH2 0x906 JUMP JUMPDEST PUSH1 0x6 DUP1 SLOAD PUSH1 0x1 PUSH1 0x1 PUSH1 0xA0 SHL SUB NOT AND PUSH2 0x1001 OR SWAP1 SSTORE PUSH1 0x0 DUP1 SLOAD PUSH3 0x10000 CALLER MUL PUSH3 0x10000 PUSH1 0x1 PUSH1 0xB0 SHL SUB NOT SWAP1 SWAP2 AND OR DUP2 SSTORE JUMPDEST DUP2 DUP2 LT ISZERO PUSH2 0x26D2 JUMPI PUSH1 0x0 DUP4 DUP4 DUP4 DUP2 DUP2 LT PUSH2 0x22B6 JUMPI PUSH2 0x22B6 PUSH2 0x5176 JUMP JUMPDEST SWAP1 POP PUSH1 0x20 MUL ADD PUSH1 0x20 DUP2 ADD SWAP1 PUSH2 0x22CB SWAP2 SWAP1 PUSH2 0x4B31 JUMP JUMPDEST PUSH1 0x1 PUSH1 0x1 PUSH1 0xA0 SHL SUB AND SUB PUSH2 0x2310 JUMPI PUSH1 0x40 MLOAD PUSH3 0x461BCD PUSH1 0xE5 SHL DUP2 MSTORE PUSH1 0x20 PUSH1 0x4 DUP3 ADD MSTORE PUSH1 0xC PUSH1 0x24 DUP3 ADD MSTORE PUSH12 0x24B73B30B634B21030B23239 PUSH1 0xA1 SHL PUSH1 0x44 DUP3 ADD MSTORE PUSH1 0x64 ADD PUSH2 0x906 JUMP JUMPDEST PUSH2 0x233A DUP4 DUP4 DUP4 DUP2 DUP2 LT PUSH2 0x2325 JUMPI PUSH2 0x2325 PUSH2 0x5176 JUMP JUMPDEST SWAP1 POP PUSH1 0x20 MUL ADD PUSH1 0x20 DUP2 ADD SWAP1 PUSH2 0x628 SWAP2 SWAP1 PUSH2 0x4B31 JUMP JUMPDEST PUSH2 0x23EF JUMPI PUSH1 0x3 DUP4 DUP4 DUP4 DUP2 DUP2 LT PUSH2 0x2352 JUMPI PUSH2 0x2352 PUSH2 0x5176 JUMP JUMPDEST SWAP1 POP PUSH1 0x20 MUL ADD PUSH1 0x20 DUP2 ADD SWAP1 PUSH2 0x2367 SWAP2 SWAP1 PUSH2 0x4B31 JUMP JUMPDEST DUP2 SLOAD PUSH1 0x1 DUP1 DUP3 ADD DUP5 SSTORE PUSH1 0x0 SWAP4 DUP5 MSTORE PUSH1 0x20 DUP5 KECCAK256 SWAP1 SWAP2 ADD DUP1 SLOAD PUSH1 0x1 PUSH1 0x1 PUSH1 0xA0 SHL SUB NOT AND PUSH1 0x1 PUSH1 0x1 PUSH1 0xA0 SHL SUB SWAP4 SWAP1 SWAP4 AND SWAP3 SWAP1 SWAP3 OR SWAP1 SWAP2 SSTORE SWAP1 PUSH1 0x9 SWAP1 DUP6 DUP6 DUP6 DUP2 DUP2 LT PUSH2 0x23B1 JUMPI PUSH2 0x23B1 PUSH2 0x5176 JUMP JUMPDEST SWAP1 POP PUSH1 0x20 MUL ADD PUSH1 0x20 DUP2 ADD SWAP1 PUSH2 0x23C6 SWAP2 SWAP1 PUSH2 0x4B31 JUMP JUMPDEST PUSH1 0x1 PUSH1 0x1 PUSH1 0xA0 SHL SUB AND DUP2 MSTORE PUSH1 0x20 DUP2 ADD SWAP2 SWAP1 SWAP2 MSTORE PUSH1 0x40 ADD PUSH1 0x0 KECCAK256 DUP1 SLOAD PUSH1 0xFF NOT AND SWAP2 ISZERO ISZERO SWAP2 SWAP1 SWAP2 OR SWAP1 SSTORE JUMPDEST PUSH2 0x2419 DUP4 DUP4 DUP4 DUP2 DUP2 LT PUSH2 0x2404 JUMPI PUSH2 0x2404 PUSH2 0x5176 JUMP JUMPDEST SWAP1 POP PUSH1 0x20 MUL ADD PUSH1 0x20 DUP2 ADD SWAP1 PUSH2 0x2F0 SWAP2 SWAP1 PUSH2 0x4B31 JUMP JUMPDEST PUSH2 0x2479 JUMPI PUSH1 0x4 DUP4 DUP4 DUP4 DUP2 DUP2 LT PUSH2 0x2431 JUMPI PUSH2 0x2431 PUSH2 0x5176 JUMP JUMPDEST SWAP1 POP PUSH1 0x20 MUL ADD PUSH1 0x20 DUP2 ADD SWAP1 PUSH2 0x2446 SWAP2 SWAP1 PUSH2 0x4B31 JUMP JUMPDEST DUP2 SLOAD PUSH1 0x1 DUP2 ADD DUP4 SSTORE PUSH1 0x0 SWAP3 DUP4 MSTORE PUSH1 0x20 SWAP1 SWAP3 KECCAK256 SWAP1 SWAP2 ADD DUP1 SLOAD PUSH1 0x1 PUSH1 0x1 PUSH1 0xA0 SHL SUB NOT AND PUSH1 0x1 PUSH1 0x1 PUSH1 0xA0 SHL SUB SWAP1 SWAP3 AND SWAP2 SWAP1 SWAP2 OR SWAP1 SSTORE JUMPDEST PUSH1 0x0 PUSH1 0x1 DUP2 DUP6 DUP6 DUP6 DUP2 DUP2 LT PUSH2 0x2490 JUMPI PUSH2 0x2490 PUSH2 0x5176 JUMP JUMPDEST SWAP1 POP PUSH1 0x20 MUL ADD PUSH1 0x20 DUP2 ADD SWAP1 PUSH2 0x24A5 SWAP2 SWAP1 PUSH2 0x4B31 JUMP JUMPDEST PUSH1 0x1 PUSH1 0x1 PUSH1 0xA0 SHL SUB SWAP1 DUP2 AND DUP3 MSTORE PUSH1 0x20 DUP3 ADD SWAP3 SWAP1 SWAP3 MSTORE PUSH1 0x40 ADD PUSH1 0x0 KECCAK256 SLOAD AND SUB PUSH2 0x254B JUMPI DUP3 DUP3 DUP3 DUP2 DUP2 LT PUSH2 0x24D9 JUMPI PUSH2 0x24D9 PUSH2 0x5176 JUMP JUMPDEST SWAP1 POP PUSH1 0x20 MUL ADD PUSH1 0x20 DUP2 ADD SWAP1 PUSH2 0x24EE SWAP2 SWAP1 PUSH2 0x4B31 JUMP JUMPDEST PUSH1 0x1 PUSH1 0x0 DUP6 DUP6 DUP6 DUP2 DUP2 LT PUSH2 0x2504 JUMPI PUSH2 0x2504 PUSH2 0x5176 JUMP JUMPDEST SWAP1 POP PUSH1 0x20 MUL ADD PUSH1 0x20 DUP2 ADD SWAP1 PUSH2 0x2519 SWAP2 SWAP1 PUSH2 0x4B31 JUMP JUMPDEST PUSH1 0x1 PUSH1 0x1 PUSH1 0xA0 SHL SUB SWAP1 DUP2 AND DUP3 MSTORE PUSH1 0x20 DUP3 ADD SWAP3 SWAP1 SWAP3 MSTORE PUSH1 0x40 ADD PUSH1 0x0 KECCAK256 DUP1 SLOAD PUSH1 0x1 PUSH1 0x1 PUSH1 0xA0 SHL SUB NOT AND SWAP3 SWAP1 SWAP2 AND SWAP2 SWAP1 SWAP2 OR SWAP1 SSTORE JUMPDEST PUSH1 0x0 PUSH1 0x1 PUSH1 0x0 DUP6 DUP6 DUP6 DUP2 DUP2 LT PUSH2 0x2563 JUMPI PUSH2 0x2563 PUSH2 0x5176 JUMP JUMPDEST SWAP1 POP PUSH1 0x20 MUL ADD PUSH1 0x20 DUP2 ADD SWAP1 PUSH2 0x2578 SWAP2 SWAP1 PUSH2 0x4B31 JUMP JUMPDEST PUSH1 0x1 PUSH1 0x1 PUSH1 0xA0 SHL SUB AND DUP2 MSTORE PUSH1 0x20 DUP2 ADD SWAP2 SWAP1 SWAP2 MSTORE PUSH1 0x40 ADD PUSH1 0x0 KECCAK256 SLOAD PUSH1 0x1 PUSH1 0xA0 SHL SWAP1 DIV PUSH1 0xFF AND PUSH1 0x4 DUP2 GT ISZERO PUSH2 0x25AD JUMPI PUSH2 0x25AD PUSH2 0x4C26 JUMP JUMPDEST SUB PUSH2 0x261E JUMPI PUSH1 0x2 PUSH1 0x1 PUSH1 0x0 DUP6 DUP6 DUP6 DUP2 DUP2 LT PUSH2 0x25CA JUMPI PUSH2 0x25CA PUSH2 0x5176 JUMP JUMPDEST SWAP1 POP PUSH1 0x20 MUL ADD PUSH1 0x20 DUP2 ADD SWAP1 PUSH2 0x25DF SWAP2 SWAP1 PUSH2 0x4B31 JUMP JUMPDEST PUSH1 0x1 PUSH1 0x1 PUSH1 0xA0 SHL SUB AND DUP2 MSTORE PUSH1 0x20 DUP2 ADD SWAP2 SWAP1 SWAP2 MSTORE PUSH1 0x40 ADD PUSH1 0x0 KECCAK256 DUP1 SLOAD PUSH1 0xFF PUSH1 0xA0 SHL NOT AND PUSH1 0x1 PUSH1 0xA0 SHL DUP4 PUSH1 0x4 DUP2 GT ISZERO PUSH2 0x2618 JUMPI PUSH2 0x2618 PUSH2 0x4C26 JUMP JUMPDEST MUL OR SWAP1 SSTORE POP JUMPDEST PUSH1 0x1 PUSH1 0x0 DUP5 DUP5 DUP5 DUP2 DUP2 LT PUSH2 0x2634 JUMPI PUSH2 0x2634 PUSH2 0x5176 JUMP JUMPDEST SWAP1 POP PUSH1 0x20 MUL ADD PUSH1 0x20 DUP2 ADD SWAP1 PUSH2 0x2649 SWAP2 SWAP1 PUSH2 0x4B31 JUMP JUMPDEST PUSH1 0x1 PUSH1 0x1 PUSH1 0xA0 SHL SUB AND PUSH1 0x1 PUSH1 0x1 PUSH1 0xA0 SHL SUB AND DUP2 MSTORE PUSH1 0x20 ADD SWAP1 DUP2 MSTORE PUSH1 0x20 ADD PUSH1 0x0 KECCAK256 PUSH1 0xA ADD SLOAD PUSH1 0x0 SUB PUSH2 0x26C0 JUMPI PUSH2 0x1F4 PUSH1 0x1 PUSH1 0x0 DUP6 DUP6 DUP6 DUP2 DUP2 LT PUSH2 0x268D JUMPI PUSH2 0x268D PUSH2 0x5176 JUMP JUMPDEST SWAP1 POP PUSH1 0x20 MUL ADD PUSH1 0x20 DUP2 ADD SWAP1 PUSH2 0x26A2 SWAP2 SWAP1 PUSH2 0x4B31 JUMP JUMPDEST PUSH1 0x1 PUSH1 0x1 PUSH1 0xA0 SHL SUB AND DUP2 MSTORE PUSH1 0x20 DUP2 ADD SWAP2 SWAP1 SWAP2 MSTORE PUSH1 0x40 ADD PUSH1 0x0 KECCAK256 PUSH1 0xA ADD SSTORE JUMPDEST DUP1 PUSH2 0x26CA DUP2 PUSH2 0x518C JUMP JUMPDEST SWAP2 POP POP PUSH2 0x229A JUMP JUMPDEST POP POP PUSH1 0x0 DUP1 SLOAD PUSH1 0xFF NOT AND PUSH1 0x1 OR SWAP1 SSTORE POP JUMP JUMPDEST PUSH1 0x1 PUSH1 0x1 PUSH1 0xA0 SHL SUB DUP2 DUP2 AND PUSH1 0x0 SWAP1 DUP2 MSTORE PUSH1 0x1 PUSH1 0x20 SWAP1 DUP2 MSTORE PUSH1 0x40 DUP1 DUP4 KECCAK256 DUP2 MLOAD PUSH2 0x180 DUP2 ADD SWAP1 SWAP3 MSTORE DUP1 SLOAD SWAP5 DUP6 AND DUP3 MSTORE PUSH1 0x60 SWAP5 DUP6 SWAP5 DUP6 SWAP5 DUP6 SWAP5 SWAP2 SWAP4 SWAP2 SWAP3 SWAP1 DUP4 ADD SWAP1 PUSH1 0x1 PUSH1 0xA0 SHL SWAP1 DIV PUSH1 0xFF AND PUSH1 0x4 DUP2 GT ISZERO PUSH2 0x273D JUMPI PUSH2 0x273D PUSH2 0x4C26 JUMP JUMPDEST PUSH1 0x4 DUP2 GT ISZERO PUSH2 0x274E JUMPI PUSH2 0x274E PUSH2 0x4C26 JUMP JUMPDEST DUP2 MSTORE PUSH1 0x20 ADD PUSH1 0x1 DUP3 ADD SLOAD DUP2 MSTORE PUSH1 0x20 ADD PUSH1 0x2 DUP3 ADD PUSH1 0x40 MLOAD DUP1 PUSH1 0x80 ADD PUSH1 0x40 MSTORE SWAP1 DUP2 PUSH1 0x0 DUP3 ADD DUP1 SLOAD PUSH2 0x277C SWAP1 PUSH2 0x52DE JUMP JUMPDEST DUP1 PUSH1 0x1F ADD PUSH1 0x20 DUP1 SWAP2 DIV MUL PUSH1 0x20 ADD PUSH1 0x40 MLOAD SWAP1 DUP2 ADD PUSH1 0x40 MSTORE DUP1 SWAP3 SWAP2 SWAP1 DUP2 DUP2 MSTORE PUSH1 0x20 ADD DUP3 DUP1 SLOAD PUSH2 0x27A8 SWAP1 PUSH2 0x52DE JUMP JUMPDEST DUP1 ISZERO PUSH2 0x27F5 JUMPI DUP1 PUSH1 0x1F LT PUSH2 0x27CA JUMPI PUSH2 0x100 DUP1 DUP4 SLOAD DIV MUL DUP4 MSTORE SWAP2 PUSH1 0x20 ADD SWAP2 PUSH2 0x27F5 JUMP JUMPDEST DUP3 ADD SWAP2 SWAP1 PUSH1 0x0 MSTORE PUSH1 0x20 PUSH1 0x0 KECCAK256 SWAP1 JUMPDEST DUP2 SLOAD DUP2 MSTORE SWAP1 PUSH1 0x1 ADD SWAP1 PUSH1 0x20 ADD DUP1 DUP4 GT PUSH2 0x27D8 JUMPI DUP3 SWAP1 SUB PUSH1 0x1F AND DUP3 ADD SWAP2 JUMPDEST POP POP POP POP POP DUP2 MSTORE PUSH1 0x20 ADD PUSH1 0x1 DUP3 ADD DUP1 SLOAD PUSH2 0x280E SWAP1 PUSH2 0x52DE JUMP JUMPDEST DUP1 PUSH1 0x1F ADD PUSH1 0x20 DUP1 SWAP2 DIV MUL PUSH1 0x20 ADD PUSH1 0x40 MLOAD SWAP1 DUP2 ADD PUSH1 0x40 MSTORE DUP1 SWAP3 SWAP2 SWAP1 DUP2 DUP2 MSTORE PUSH1 0x20 ADD DUP3 DUP1 SLOAD PUSH2 0x283A SWAP1 PUSH2 0x52DE JUMP JUMPDEST DUP1 ISZERO PUSH2 0x2887 JUMPI DUP1 PUSH1 0x1F LT PUSH2 0x285C JUMPI PUSH2 0x100 DUP1 DUP4 SLOAD DIV MUL DUP4 MSTORE SWAP2 PUSH1 0x20 ADD SWAP2 PUSH2 0x2887 JUMP JUMPDEST DUP3 ADD SWAP2 SWAP1 PUSH1 0x0 MSTORE PUSH1 0x20 PUSH1 0x0 KECCAK256 SWAP1 JUMPDEST DUP2 SLOAD DUP2 MSTORE SWAP1 PUSH1 0x1 ADD SWAP1 PUSH1 0x20 ADD DUP1 DUP4 GT PUSH2 0x286A JUMPI DUP3 SWAP1 SUB PUSH1 0x1F AND DUP3 ADD SWAP2 JUMPDEST POP POP POP POP POP DUP2 MSTORE PUSH1 0x20 ADD PUSH1 0x2 DUP3 ADD DUP1 SLOAD PUSH2 0x28A0 SWAP1 PUSH2 0x52DE JUMP JUMPDEST DUP1 PUSH1 0x1F ADD PUSH1 0x20 DUP1 SWAP2 DIV MUL PUSH1 0x20 ADD PUSH1 0x40 MLOAD SWAP1 DUP2 ADD PUSH1 0x40 MSTORE DUP1 SWAP3 SWAP2 SWAP1 DUP2 DUP2 MSTORE PUSH1 0x20 ADD DUP3 DUP1 SLOAD PUSH2 0x28CC SWAP1 PUSH2 0x52DE JUMP JUMPDEST DUP1 ISZERO PUSH2 0x2919 JUMPI DUP1 PUSH1 0x1F LT PUSH2 0x28EE JUMPI PUSH2 0x100 DUP1 DUP4 SLOAD DIV MUL DUP4 MSTORE SWAP2 PUSH1 0x20 ADD SWAP2 PUSH2 0x2919 JUMP JUMPDEST DUP3 ADD SWAP2 SWAP1 PUSH1 0x0 MSTORE PUSH1 0x20 PUSH1 0x0 KECCAK256 SWAP1 JUMPDEST DUP2 SLOAD DUP2 MSTORE SWAP1 PUSH1 0x1 ADD SWAP1 PUSH1 0x20 ADD DUP1 DUP4 GT PUSH2 0x28FC JUMPI DUP3 SWAP1 SUB PUSH1 0x1F AND DUP3 ADD SWAP2 JUMPDEST POP POP POP POP POP DUP2 MSTORE PUSH1 0x20 ADD PUSH1 0x3 DUP3 ADD DUP1 SLOAD PUSH2 0x2932 SWAP1 PUSH2 0x52DE JUMP JUMPDEST DUP1 PUSH1 0x1F ADD PUSH1 0x20 DUP1 SWAP2 DIV MUL PUSH1 0x20 ADD PUSH1 0x40 MLOAD SWAP1 DUP2 ADD PUSH1 0x40 MSTORE DUP1 SWAP3 SWAP2 SWAP1 DUP2 DUP2 MSTORE PUSH1 0x20 ADD DUP3 DUP1 SLOAD PUSH2 0x295E SWAP1 PUSH2 0x52DE JUMP JUMPDEST DUP1 ISZERO PUSH2 0x29AB JUMPI DUP1 PUSH1 0x1F LT PUSH2 0x2980 JUMPI PUSH2 0x100 DUP1 DUP4 SLOAD DIV MUL DUP4 MSTORE SWAP2 PUSH1 0x20 ADD SWAP2 PUSH2 0x29AB JUMP JUMPDEST DUP3 ADD SWAP2 SWAP1 PUSH1 0x0 MSTORE PUSH1 0x20 PUSH1 0x0 KECCAK256 SWAP1 JUMPDEST DUP2 SLOAD DUP2 MSTORE SWAP1 PUSH1 0x1 ADD SWAP1 PUSH1 0x20 ADD DUP1 DUP4 GT PUSH2 0x298E JUMPI DUP3 SWAP1 SUB PUSH1 0x1F AND DUP3 ADD SWAP2 JUMPDEST POP POP POP POP POP DUP2 MSTORE POP POP DUP2 MSTORE PUSH1 0x20 ADD PUSH1 0x6 DUP3 ADD SLOAD DUP2 MSTORE PUSH1 0x20 ADD PUSH1 0x7 DUP3 ADD SLOAD DUP2 MSTORE PUSH1 0x20 ADD PUSH1 0x8 DUP3 ADD SLOAD DUP2 MSTORE PUSH1 0x20 ADD PUSH1 0x9 DUP3 ADD DUP1 SLOAD DUP1 PUSH1 0x20 MUL PUSH1 0x20 ADD PUSH1 0x40 MLOAD SWAP1 DUP2 ADD PUSH1 0x40 MSTORE DUP1 SWAP3 SWAP2 SWAP1 DUP2 DUP2 MSTORE PUSH1 0x20 ADD DUP3 DUP1 SLOAD DUP1 ISZERO PUSH2 0x2A2F JUMPI PUSH1 0x20 MUL DUP3 ADD SWAP2 SWAP1 PUSH1 0x0 MSTORE PUSH1 0x20 PUSH1 0x0 KECCAK256 SWAP1 JUMPDEST DUP2 SLOAD PUSH1 0x1 PUSH1 0x1 PUSH1 0xA0 SHL SUB AND DUP2 MSTORE PUSH1 0x1 SWAP1 SWAP2 ADD SWAP1 PUSH1 0x20 ADD DUP1 DUP4 GT PUSH2 0x2A11 JUMPI JUMPDEST POP POP POP POP POP DUP2 MSTORE PUSH1 0x20 ADD PUSH1 0xA DUP3 ADD SLOAD DUP2 MSTORE PUSH1 0x20 ADD PUSH1 0xB DUP3 ADD SLOAD DUP2 MSTORE PUSH1 0x20 ADD PUSH1 0xC DUP3 ADD SLOAD DUP2 MSTORE PUSH1 0x20 ADD PUSH1 0xD DUP3 ADD SLOAD DUP2 MSTORE POP POP SWAP1 POP DUP1 PUSH1 0x60 ADD MLOAD PUSH1 0x0 ADD MLOAD DUP2 PUSH1 0x60 ADD MLOAD PUSH1 0x20 ADD MLOAD DUP3 PUSH1 0x60 ADD MLOAD PUSH1 0x40 ADD MLOAD DUP4 PUSH1 0x60 ADD MLOAD PUSH1 0x60 ADD MLOAD SWAP5 POP SWAP5 POP SWAP5 POP SWAP5 POP POP SWAP2 SWAP4 POP SWAP2 SWAP4 JUMP JUMPDEST PUSH1 0x0 PUSH1 0x80 DUP6 MLOAD GT ISZERO PUSH2 0x2AD8 JUMPI PUSH1 0x40 MLOAD PUSH3 0x461BCD PUSH1 0xE5 SHL DUP2 MSTORE PUSH1 0x20 PUSH1 0x4 DUP3 ADD MSTORE PUSH1 0xB PUSH1 0x24 DUP3 ADD MSTORE PUSH11 0x36B7B734B5B2B9103632B7 PUSH1 0xA9 SHL PUSH1 0x44 DUP3 ADD MSTORE PUSH1 0x64 ADD PUSH2 0x906 JUMP JUMPDEST PUSH2 0x100 DUP5 MLOAD GT ISZERO PUSH2 0x2B19 JUMPI PUSH1 0x40 MLOAD PUSH3 0x461BCD PUSH1 0xE5 SHL DUP2 MSTORE PUSH1 0x20 PUSH1 0x4 DUP3 ADD MSTORE PUSH1 0xB PUSH1 0x24 DUP3 ADD MSTORE PUSH11 0x3BB2B139B4BA32903632B7 PUSH1 0xA9 SHL PUSH1 0x44 DUP3 ADD MSTORE PUSH1 0x64 ADD PUSH2 0x906 JUMP JUMPDEST PUSH2 0x100 DUP4 MLOAD GT ISZERO PUSH2 0x2B58 JUMPI PUSH1 0x40 MLOAD PUSH3 0x461BCD PUSH1 0xE5 SHL DUP2 MSTORE PUSH1 0x20 PUSH1 0x4 DUP3 ADD MSTORE PUSH1 0x9 PUSH1 0x24 DUP3 ADD MSTORE PUSH9 0x32B6B0B4B6103632B7 PUSH1 0xB9 SHL PUSH1 0x44 DUP3 ADD MSTORE PUSH1 0x64 ADD PUSH2 0x906 JUMP JUMPDEST PUSH2 0x400 DUP3 MLOAD GT ISZERO PUSH2 0x2B99 JUMPI PUSH1 0x40 MLOAD PUSH3 0x461BCD PUSH1 0xE5 SHL DUP2 MSTORE PUSH1 0x20 PUSH1 0x4 DUP3 ADD MSTORE PUSH1 0xB PUSH1 0x24 DUP3 ADD MSTORE PUSH11 0x3232BA30B4B639903632B7 PUSH1 0xA9 SHL PUSH1 0x44 DUP3 ADD MSTORE PUSH1 0x64 ADD PUSH2 0x906 JUMP JUMPDEST POP PUSH1 0x1 SWAP5 SWAP4 POP POP POP POP JUMP JUMPDEST PUSH1 0x60 PUSH1 0x4 DUP1 SLOAD DUP1 PUSH1 0x20 MUL PUSH1 0x20 ADD PUSH1 0x40 MLOAD SWAP1 DUP2 ADD PUSH1 0x40 MSTORE DUP1 SWAP3 SWAP2 SWAP1 DUP2 DUP2 MSTORE PUSH1 0x20 ADD DUP3 DUP1 SLOAD DUP1 ISZERO PUSH2 0x2BFC JUMPI PUSH1 0x20 MUL DUP3 ADD SWAP2 SWAP1 PUSH1 0x0 MSTORE PUSH1 0x20 PUSH1 0x0 KECCAK256 SWAP1 JUMPDEST DUP2 SLOAD PUSH1 0x1 PUSH1 0x1 PUSH1 0xA0 SHL SUB AND DUP2 MSTORE PUSH1 0x1 SWAP1 SWAP2 ADD SWAP1 PUSH1 0x20 ADD DUP1 DUP4 GT PUSH2 0x2BDE JUMPI JUMPDEST POP POP POP POP POP SWAP1 POP SWAP1 JUMP JUMPDEST PUSH1 0x1 PUSH1 0x1 PUSH1 0xA0 SHL SUB DUP3 DUP2 AND PUSH1 0x0 SWAP1 DUP2 MSTORE PUSH1 0x2 PUSH1 0x20 DUP2 DUP2 MSTORE PUSH1 0x40 DUP1 DUP5 KECCAK256 DUP7 DUP7 AND DUP1 DUP7 MSTORE SWAP1 DUP4 MSTORE DUP2 DUP6 KECCAK256 DUP3 MLOAD PUSH1 0x60 DUP2 ADD DUP5 MSTORE DUP2 SLOAD DUP2 MSTORE PUSH1 0x1 DUP1 DUP4 ADD SLOAD DUP3 DUP8 ADD MSTORE SWAP2 SWAP1 SWAP6 ADD SLOAD DUP6 DUP5 ADD MSTORE SWAP1 DUP6 MSTORE DUP3 MSTORE DUP1 DUP5 KECCAK256 DUP2 MLOAD PUSH2 0x180 DUP2 ADD SWAP1 SWAP3 MSTORE DUP1 SLOAD SWAP6 DUP7 AND DUP3 MSTORE SWAP4 SWAP5 SWAP3 SWAP4 DUP6 SWAP4 SWAP2 SWAP3 SWAP1 SWAP2 SWAP1 DUP4 ADD SWAP1 PUSH1 0x1 PUSH1 0xA0 SHL SWAP1 DIV PUSH1 0xFF AND PUSH1 0x4 DUP2 GT ISZERO PUSH2 0x2C8F JUMPI PUSH2 0x2C8F PUSH2 0x4C26 JUMP JUMPDEST PUSH1 0x4 DUP2 GT ISZERO PUSH2 0x2CA0 JUMPI PUSH2 0x2CA0 PUSH2 0x4C26 JUMP JUMPDEST DUP2 MSTORE PUSH1 0x20 ADD PUSH1 0x1 DUP3 ADD SLOAD DUP2 MSTORE PUSH1 0x20 ADD PUSH1 0x2 DUP3 ADD PUSH1 0x40 MLOAD DUP1 PUSH1 0x80 ADD PUSH1 0x40 MSTORE SWAP1 DUP2 PUSH1 0x0 DUP3 ADD DUP1 SLOAD PUSH2 0x2CCE SWAP1 PUSH2 0x52DE JUMP JUMPDEST DUP1 PUSH1 0x1F ADD PUSH1 0x20 DUP1 SWAP2 DIV MUL PUSH1 0x20 ADD PUSH1 0x40 MLOAD SWAP1 DUP2 ADD PUSH1 0x40 MSTORE DUP1 SWAP3 SWAP2 SWAP1 DUP2 DUP2 MSTORE PUSH1 0x20 ADD DUP3 DUP1 SLOAD PUSH2 0x2CFA SWAP1 PUSH2 0x52DE JUMP JUMPDEST DUP1 ISZERO PUSH2 0x2D47 JUMPI DUP1 PUSH1 0x1F LT PUSH2 0x2D1C JUMPI PUSH2 0x100 DUP1 DUP4 SLOAD DIV MUL DUP4 MSTORE SWAP2 PUSH1 0x20 ADD SWAP2 PUSH2 0x2D47 JUMP JUMPDEST DUP3 ADD SWAP2 SWAP1 PUSH1 0x0 MSTORE PUSH1 0x20 PUSH1 0x0 KECCAK256 SWAP1 JUMPDEST DUP2 SLOAD DUP2 MSTORE SWAP1 PUSH1 0x1 ADD SWAP1 PUSH1 0x20 ADD DUP1 DUP4 GT PUSH2 0x2D2A JUMPI DUP3 SWAP1 SUB PUSH1 0x1F AND DUP3 ADD SWAP2 JUMPDEST POP POP POP POP POP DUP2 MSTORE PUSH1 0x20 ADD PUSH1 0x1 DUP3 ADD DUP1 SLOAD PUSH2 0x2D60 SWAP1 PUSH2 0x52DE JUMP JUMPDEST DUP1 PUSH1 0x1F ADD PUSH1 0x20 DUP1 SWAP2 DIV MUL PUSH1 0x20 ADD PUSH1 0x40 MLOAD SWAP1 DUP2 ADD PUSH1 0x40 MSTORE DUP1 SWAP3 SWAP2 SWAP1 DUP2 DUP2 MSTORE PUSH1 0x20 ADD DUP3 DUP1 SLOAD PUSH2 0x2D8C SWAP1 PUSH2 0x52DE JUMP JUMPDEST DUP1 ISZERO PUSH2 0x2DD9 JUMPI DUP1 PUSH1 0x1F LT PUSH2 0x2DAE JUMPI PUSH2 0x100 DUP1 DUP4 SLOAD DIV MUL DUP4 MSTORE SWAP2 PUSH1 0x20 ADD SWAP2 PUSH2 0x2DD9 JUMP JUMPDEST DUP3 ADD SWAP2 SWAP1 PUSH1 0x0 MSTORE PUSH1 0x20 PUSH1 0x0 KECCAK256 SWAP1 JUMPDEST DUP2 SLOAD DUP2 MSTORE SWAP1 PUSH1 0x1 ADD SWAP1 PUSH1 0x20 ADD DUP1 DUP4 GT PUSH2 0x2DBC JUMPI DUP3 SWAP1 SUB PUSH1 0x1F AND DUP3 ADD SWAP2 JUMPDEST POP POP POP POP POP DUP2 MSTORE PUSH1 0x20 ADD PUSH1 0x2 DUP3 ADD DUP1 SLOAD PUSH2 0x2DF2 SWAP1 PUSH2 0x52DE JUMP JUMPDEST DUP1 PUSH1 0x1F ADD PUSH1 0x20 DUP1 SWAP2 DIV MUL PUSH1 0x20 ADD PUSH1 0x40 MLOAD SWAP1 DUP2 ADD PUSH1 0x40 MSTORE DUP1 SWAP3 SWAP2 SWAP1 DUP2 DUP2 MSTORE PUSH1 0x20 ADD DUP3 DUP1 SLOAD PUSH2 0x2E1E SWAP1 PUSH2 0x52DE JUMP JUMPDEST DUP1 ISZERO PUSH2 0x2E6B JUMPI DUP1 PUSH1 0x1F LT PUSH2 0x2E40 JUMPI PUSH2 0x100 DUP1 DUP4 SLOAD DIV MUL DUP4 MSTORE SWAP2 PUSH1 0x20 ADD SWAP2 PUSH2 0x2E6B JUMP JUMPDEST DUP3 ADD SWAP2 SWAP1 PUSH1 0x0 MSTORE PUSH1 0x20 PUSH1 0x0 KECCAK256 SWAP1 JUMPDEST DUP2 SLOAD DUP2 MSTORE SWAP1 PUSH1 0x1 ADD SWAP1 PUSH1 0x20 ADD DUP1 DUP4 GT PUSH2 0x2E4E JUMPI DUP3 SWAP1 SUB PUSH1 0x1F AND DUP3 ADD SWAP2 JUMPDEST POP POP POP POP POP DUP2 MSTORE PUSH1 0x20 ADD PUSH1 0x3 DUP3 ADD DUP1 SLOAD PUSH2 0x2E84 SWAP1 PUSH2 0x52DE JUMP JUMPDEST DUP1 PUSH1 0x1F ADD PUSH1 0x20 DUP1 SWAP2 DIV MUL PUSH1 0x20 ADD PUSH1 0x40 MLOAD SWAP1 DUP2 ADD PUSH1 0x40 MSTORE DUP1 SWAP3 SWAP2 SWAP1 DUP2 DUP2 MSTORE PUSH1 0x20 ADD DUP3 DUP1 SLOAD PUSH2 0x2EB0 SWAP1 PUSH2 0x52DE JUMP JUMPDEST DUP1 ISZERO PUSH2 0x2EFD JUMPI DUP1 PUSH1 0x1F LT PUSH2 0x2ED2 JUMPI PUSH2 0x100 DUP1 DUP4 SLOAD DIV MUL DUP4 MSTORE SWAP2 PUSH1 0x20 ADD SWAP2 PUSH2 0x2EFD JUMP JUMPDEST DUP3 ADD SWAP2 SWAP1 PUSH1 0x0 MSTORE PUSH1 0x20 PUSH1 0x0 KECCAK256 SWAP1 JUMPDEST DUP2 SLOAD DUP2 MSTORE SWAP1 PUSH1 0x1 ADD SWAP1 PUSH1 0x20 ADD DUP1 DUP4 GT PUSH2 0x2EE0 JUMPI DUP3 SWAP1 SUB PUSH1 0x1F AND DUP3 ADD SWAP2 JUMPDEST POP POP POP POP POP DUP2 MSTORE POP POP DUP2 MSTORE PUSH1 0x20 ADD PUSH1 0x6 DUP3 ADD SLOAD DUP2 MSTORE PUSH1 0x20 ADD PUSH1 0x7 DUP3 ADD SLOAD DUP2 MSTORE PUSH1 0x20 ADD PUSH1 0x8 DUP3 ADD SLOAD DUP2 MSTORE PUSH1 0x20 ADD PUSH1 0x9 DUP3 ADD DUP1 SLOAD DUP1 PUSH1 0x20 MUL PUSH1 0x20 ADD PUSH1 0x40 MLOAD SWAP1 DUP2 ADD PUSH1 0x40 MSTORE DUP1 SWAP3 SWAP2 SWAP1 DUP2 DUP2 MSTORE PUSH1 0x20 ADD DUP3 DUP1 SLOAD DUP1 ISZERO PUSH2 0x2F81 JUMPI PUSH1 0x20 MUL DUP3 ADD SWAP2 SWAP1 PUSH1 0x0 MSTORE PUSH1 0x20 PUSH1 0x0 KECCAK256 SWAP1 JUMPDEST DUP2 SLOAD PUSH1 0x1 PUSH1 0x1 PUSH1 0xA0 SHL SUB AND DUP2 MSTORE PUSH1 0x1 SWAP1 SWAP2 ADD SWAP1 PUSH1 0x20 ADD DUP1 DUP4 GT PUSH2 0x2F63 JUMPI JUMPDEST POP POP POP POP POP DUP2 MSTORE PUSH1 0x20 ADD PUSH1 0xA DUP3 ADD SLOAD DUP2 MSTORE PUSH1 0x20 ADD PUSH1 0xB DUP3 ADD SLOAD DUP2 MSTORE PUSH1 0x20 ADD PUSH1 0xC DUP3 ADD SLOAD DUP2 MSTORE PUSH1 0x20 ADD PUSH1 0xD DUP3 ADD SLOAD DUP2 MSTORE POP POP SWAP1 POP PUSH1 0x0 PUSH1 0xA PUSH1 0x0 DUP8 PUSH1 0x1 PUSH1 0x1 PUSH1 0xA0 SHL SUB AND PUSH1 0x1 PUSH1 0x1 PUSH1 0xA0 SHL SUB AND DUP2 MSTORE PUSH1 0x20 ADD SWAP1 DUP2 MSTORE PUSH1 0x20 ADD PUSH1 0x0 KECCAK256 PUSH1 0x0 DUP7 PUSH1 0x1 PUSH1 0x1 PUSH1 0xA0 SHL SUB AND PUSH1 0x1 PUSH1 0x1 PUSH1 0xA0 SHL SUB AND DUP2 MSTORE PUSH1 0x20 ADD SWAP1 DUP2 MSTORE PUSH1 0x20 ADD PUSH1 0x0 KECCAK256 PUSH1 0x40 MLOAD DUP1 PUSH1 0x60 ADD PUSH1 0x40 MSTORE SWAP1 DUP2 PUSH1 0x0 DUP3 ADD SLOAD DUP2 MSTORE PUSH1 0x20 ADD PUSH1 0x1 DUP3 ADD SLOAD DUP2 MSTORE PUSH1 0x20 ADD PUSH1 0x2 DUP3 ADD SLOAD DUP2 MSTORE POP POP SWAP1 POP DUP3 PUSH1 0x0 ADD MLOAD PUSH1 0x0 SUB PUSH2 0x3043 JUMPI PUSH1 0x20 ADD MLOAD SWAP3 POP PUSH2 0x3099 SWAP2 POP POP JUMP JUMPDEST PUSH1 0x0 PUSH8 0xDE0B6B3A7640000 DUP4 PUSH2 0x140 ADD MLOAD DUP6 PUSH1 0x0 ADD MLOAD PUSH2 0x3063 SWAP2 SWAP1 PUSH2 0x529D JUMP JUMPDEST PUSH2 0x306D SWAP2 SWAP1 PUSH2 0x52CA JUMP JUMPDEST DUP3 MLOAD SWAP1 SWAP2 POP PUSH1 0x0 SWAP1 PUSH2 0x307F SWAP1 DUP4 PUSH2 0x5163 JUMP JUMPDEST SWAP1 POP DUP1 DUP4 PUSH1 0x20 ADD MLOAD PUSH2 0x3091 SWAP2 SWAP1 PUSH2 0x51C8 JUMP JUMPDEST SWAP6 POP POP POP POP POP POP JUMPDEST SWAP3 SWAP2 POP POP JUMP JUMPDEST CALLER COINBASE EQ PUSH2 0x30BE JUMPI PUSH1 0x40 MLOAD PUSH3 0x461BCD PUSH1 0xE5 SHL DUP2 MSTORE PUSH1 0x4 ADD PUSH2 0x906 SWAP1 PUSH2 0x5318 JUMP JUMPDEST PUSH1 0x7 SLOAD NUMBER GT PUSH2 0x3102 JUMPI PUSH1 0x40 MLOAD PUSH3 0x461BCD PUSH1 0xE5 SHL DUP2 MSTORE PUSH1 0x20 PUSH1 0x4 DUP3 ADD MSTORE PUSH1 0x10 PUSH1 0x24 DUP3 ADD MSTORE PUSH16 0x105B1C9958591E481C995DD85C991959 PUSH1 0x82 SHL PUSH1 0x44 DUP3 ADD MSTORE PUSH1 0x64 ADD PUSH2 0x906 JUMP JUMPDEST PUSH1 0x0 SLOAD PUSH1 0xFF AND PUSH2 0x3124 JUMPI PUSH1 0x40 MLOAD PUSH3 0x461BCD PUSH1 0xE5 SHL DUP2 MSTORE PUSH1 0x4 ADD PUSH2 0x906 SWAP1 PUSH2 0x51FD JUMP JUMPDEST PUSH2 0x312F PUSH1 0xC8 NUMBER PUSH2 0x5365 JUMP JUMPDEST ISZERO PUSH2 0x314C JUMPI PUSH1 0x40 MLOAD PUSH3 0x461BCD PUSH1 0xE5 SHL DUP2 MSTORE PUSH1 0x4 ADD PUSH2 0x906 SWAP1 PUSH2 0x5379 JUMP JUMPDEST CALLVALUE DUP1 ISZERO PUSH2 0x315E JUMPI PUSH2 0x315E DUP2 PUSH1 0x0 PUSH2 0x3CBC JUMP JUMPDEST POP NUMBER PUSH1 0x7 SSTORE JUMP JUMPDEST PUSH1 0x4 DUP2 DUP2 SLOAD DUP2 LT PUSH2 0xC85 JUMPI PUSH1 0x0 DUP1 REVERT JUMPDEST PUSH1 0x0 DUP1 SLOAD PUSH1 0xFF AND PUSH2 0x3198 JUMPI PUSH1 0x40 MLOAD PUSH3 0x461BCD PUSH1 0xE5 SHL DUP2 MSTORE PUSH1 0x4 ADD PUSH2 0x906 SWAP1 PUSH2 0x51FD JUMP JUMPDEST PUSH1 0x0 SLOAD PUSH2 0x100 SWAP1 DIV PUSH1 0xFF AND ISZERO PUSH2 0x31C0 JUMPI PUSH1 0x40 MLOAD PUSH3 0x461BCD PUSH1 0xE5 SHL DUP2 MSTORE PUSH1 0x4 ADD PUSH2 0x906 SWAP1 PUSH2 0x5230 JUMP JUMPDEST CALLER PUSH1 0x0 PUSH1 0x1 PUSH1 0x1 PUSH1 0xA0 SHL SUB DUP5 AND PUSH1 0x0 SWAP1 DUP2 MSTORE PUSH1 0x1 PUSH1 0x20 MSTORE PUSH1 0x40 SWAP1 KECCAK256 SLOAD PUSH1 0x1 PUSH1 0xA0 SHL SWAP1 DIV PUSH1 0xFF AND PUSH1 0x4 DUP2 GT ISZERO PUSH2 0x31F7 JUMPI PUSH2 0x31F7 PUSH2 0x4C26 JUMP JUMPDEST SUB PUSH2 0x3214 JUMPI PUSH1 0x40 MLOAD PUSH3 0x461BCD PUSH1 0xE5 SHL DUP2 MSTORE PUSH1 0x4 ADD PUSH2 0x906 SWAP1 PUSH2 0x51A5 JUMP JUMPDEST PUSH2 0x321E DUP2 DUP5 PUSH2 0x356D JUMP JUMPDEST PUSH1 0x1 PUSH1 0x1 PUSH1 0xA0 SHL SUB DUP1 DUP3 AND PUSH1 0x0 SWAP1 DUP2 MSTORE PUSH1 0x2 PUSH1 0x20 SWAP1 DUP2 MSTORE PUSH1 0x40 DUP1 DUP4 KECCAK256 SWAP4 DUP8 AND DUP4 MSTORE SWAP3 DUP2 MSTORE DUP3 DUP3 KECCAK256 PUSH1 0x1 SWAP2 DUP3 SWAP1 MSTORE SWAP3 SWAP1 SWAP2 KECCAK256 DUP3 SLOAD SWAP2 DUP4 ADD SLOAD SWAP1 SWAP2 SWAP1 ISZERO PUSH2 0x3299 JUMPI PUSH1 0x40 MLOAD PUSH3 0x461BCD PUSH1 0xE5 SHL DUP2 MSTORE PUSH1 0x20 PUSH1 0x4 DUP3 ADD MSTORE PUSH1 0x11 PUSH1 0x24 DUP3 ADD MSTORE PUSH17 0x416C726561647920756E7374616B696E67 PUSH1 0x78 SHL PUSH1 0x44 DUP3 ADD MSTORE PUSH1 0x64 ADD PUSH2 0x906 JUMP JUMPDEST PUSH1 0x0 DUP2 GT PUSH2 0x32B9 JUMPI PUSH1 0x40 MLOAD PUSH3 0x461BCD PUSH1 0xE5 SHL DUP2 MSTORE PUSH1 0x4 ADD PUSH2 0x906 SWAP1 PUSH2 0x51DB JUMP JUMPDEST PUSH1 0x4 SLOAD PUSH1 0x1 EQ DUP1 ISZERO PUSH2 0x32CF JUMPI POP PUSH2 0x32CF DUP7 PUSH2 0x9F5 JUMP JUMPDEST DUP1 ISZERO PUSH2 0x32F3 JUMPI POP PUSH10 0x21E19E0C9BAB2400000 DUP2 DUP4 PUSH1 0x1 ADD SLOAD PUSH2 0x32F1 SWAP2 SWAP1 PUSH2 0x5163 JUMP JUMPDEST LT JUMPDEST ISZERO PUSH2 0x3331 JUMPI PUSH1 0x40 MLOAD PUSH3 0x461BCD PUSH1 0xE5 SHL DUP2 MSTORE PUSH1 0x20 PUSH1 0x4 DUP3 ADD MSTORE PUSH1 0xE PUSH1 0x24 DUP3 ADD MSTORE PUSH14 0x2630B9BA103B30B634B230BA37B9 PUSH1 0x91 SHL PUSH1 0x44 DUP3 ADD MSTORE PUSH1 0x64 ADD PUSH2 0x906 JUMP JUMPDEST PUSH1 0x9 DUP3 ADD SLOAD PUSH2 0x3342 SWAP1 PUSH1 0x1 SWAP1 PUSH2 0x5163 JUMP JUMPDEST DUP4 PUSH1 0x2 ADD SLOAD EQ PUSH2 0x342E JUMPI PUSH1 0x9 DUP3 ADD DUP1 SLOAD PUSH2 0x335E SWAP1 PUSH1 0x1 SWAP1 PUSH2 0x5163 JUMP JUMPDEST DUP2 SLOAD DUP2 LT PUSH2 0x336E JUMPI PUSH2 0x336E PUSH2 0x5176 JUMP JUMPDEST SWAP1 PUSH1 0x0 MSTORE PUSH1 0x20 PUSH1 0x0 KECCAK256 ADD PUSH1 0x0 SWAP1 SLOAD SWAP1 PUSH2 0x100 EXP SWAP1 DIV PUSH1 0x1 PUSH1 0x1 PUSH1 0xA0 SHL SUB AND DUP3 PUSH1 0x9 ADD DUP5 PUSH1 0x2 ADD SLOAD DUP2 SLOAD DUP2 LT PUSH2 0x33A5 JUMPI PUSH2 0x33A5 PUSH2 0x5176 JUMP JUMPDEST SWAP1 PUSH1 0x0 MSTORE PUSH1 0x20 PUSH1 0x0 KECCAK256 ADD PUSH1 0x0 PUSH2 0x100 EXP DUP2 SLOAD DUP2 PUSH1 0x1 PUSH1 0x1 PUSH1 0xA0 SHL SUB MUL NOT AND SWAP1 DUP4 PUSH1 0x1 PUSH1 0x1 PUSH1 0xA0 SHL SUB AND MUL OR SWAP1 SSTORE POP DUP3 PUSH1 0x2 ADD SLOAD PUSH1 0x2 PUSH1 0x0 DUP5 PUSH1 0x9 ADD DUP7 PUSH1 0x2 ADD SLOAD DUP2 SLOAD DUP2 LT PUSH2 0x33F5 JUMPI PUSH2 0x33F5 PUSH2 0x5176 JUMP JUMPDEST PUSH1 0x0 SWAP2 DUP3 MSTORE PUSH1 0x20 DUP1 DUP4 KECCAK256 SWAP1 SWAP2 ADD SLOAD PUSH1 0x1 PUSH1 0x1 PUSH1 0xA0 SHL SUB SWAP1 DUP2 AND DUP5 MSTORE DUP4 DUP3 ADD SWAP5 SWAP1 SWAP5 MSTORE PUSH1 0x40 SWAP3 DUP4 ADD DUP3 KECCAK256 SWAP4 DUP12 AND DUP3 MSTORE SWAP3 SWAP1 SWAP3 MSTORE SWAP1 KECCAK256 PUSH1 0x2 ADD SSTORE JUMPDEST DUP2 PUSH1 0x9 ADD DUP1 SLOAD DUP1 PUSH2 0x3441 JUMPI PUSH2 0x3441 PUSH2 0x5415 JUMP JUMPDEST PUSH1 0x0 DUP3 DUP2 MSTORE PUSH1 0x20 SWAP1 KECCAK256 DUP2 ADD PUSH1 0x0 NOT SWAP1 DUP2 ADD DUP1 SLOAD PUSH1 0x1 PUSH1 0x1 PUSH1 0xA0 SHL SUB NOT AND SWAP1 SSTORE ADD SWAP1 SSTORE PUSH1 0x1 DUP3 ADD SLOAD PUSH2 0x3473 SWAP1 DUP3 SWAP1 PUSH2 0x5163 JUMP JUMPDEST PUSH1 0x1 DUP1 DUP5 ADD SWAP2 SWAP1 SWAP2 SSTORE NUMBER SWAP1 DUP5 ADD SSTORE PUSH1 0x0 PUSH1 0x2 DUP5 ADD SSTORE PUSH1 0x5 SLOAD PUSH2 0x3496 SWAP1 DUP3 SWAP1 PUSH2 0x5163 JUMP JUMPDEST PUSH1 0x5 SSTORE PUSH1 0x1 DUP3 ADD SLOAD PUSH10 0x21E19E0C9BAB2400000 GT ISZERO PUSH2 0x34C1 JUMPI DUP2 SLOAD PUSH1 0xFF PUSH1 0xA0 SHL NOT AND PUSH1 0x3 PUSH1 0xA0 SHL OR DUP3 SSTORE JUMPDEST PUSH1 0x0 PUSH2 0x34D0 PUSH3 0x15180 NUMBER PUSH2 0x51C8 JUMP JUMPDEST PUSH2 0x34DB SWAP1 PUSH1 0x1 PUSH2 0x51C8 JUMP JUMPDEST SWAP1 POP DUP7 PUSH1 0x1 PUSH1 0x1 PUSH1 0xA0 SHL SUB AND DUP6 PUSH1 0x1 PUSH1 0x1 PUSH1 0xA0 SHL SUB AND PUSH32 0x18EDD09E80386CD99DF397E2E0D87D2BB259423EAE08645E776321A36FE680EF DUP5 DUP5 PUSH1 0x40 MLOAD PUSH2 0x352B SWAP3 SWAP2 SWAP1 SWAP2 DUP3 MSTORE PUSH1 0x20 DUP3 ADD MSTORE PUSH1 0x40 ADD SWAP1 JUMP JUMPDEST PUSH1 0x40 MLOAD DUP1 SWAP2 SUB SWAP1 LOG3 PUSH1 0x2 DUP4 SLOAD PUSH1 0x1 PUSH1 0xA0 SHL SWAP1 DIV PUSH1 0xFF AND PUSH1 0x4 DUP2 GT ISZERO PUSH2 0x3552 JUMPI PUSH2 0x3552 PUSH2 0x4C26 JUMP JUMPDEST EQ PUSH2 0x3560 JUMPI PUSH2 0x3560 DUP8 PUSH2 0x3B25 JUMP JUMPDEST POP PUSH1 0x1 SWAP7 SWAP6 POP POP POP POP POP POP JUMP JUMPDEST PUSH1 0x1 PUSH1 0x1 PUSH1 0xA0 SHL SUB DUP1 DUP4 AND PUSH1 0x0 DUP2 DUP2 MSTORE PUSH1 0x2 PUSH1 0x20 SWAP1 DUP2 MSTORE PUSH1 0x40 DUP1 DUP4 KECCAK256 SWAP5 DUP7 AND DUP1 DUP5 MSTORE SWAP5 DUP3 MSTORE DUP1 DUP4 KECCAK256 PUSH1 0x1 DUP4 MSTORE DUP2 DUP5 KECCAK256 SWAP5 DUP5 MSTORE PUSH1 0xA DUP4 MSTORE DUP2 DUP5 KECCAK256 SWAP6 DUP5 MSTORE SWAP5 SWAP1 SWAP2 MSTORE SWAP1 KECCAK256 DUP3 SLOAD ISZERO PUSH2 0x3612 JUMPI PUSH1 0x0 PUSH8 0xDE0B6B3A7640000 DUP4 PUSH1 0xC ADD SLOAD DUP6 PUSH1 0x0 ADD SLOAD PUSH2 0x35D5 SWAP2 SWAP1 PUSH2 0x529D JUMP JUMPDEST PUSH2 0x35DF SWAP2 SWAP1 PUSH2 0x52CA JUMP JUMPDEST DUP3 SLOAD SWAP1 SWAP2 POP PUSH1 0x0 SWAP1 PUSH2 0x35F1 SWAP1 DUP4 PUSH2 0x5163 JUMP JUMPDEST SWAP1 POP DUP1 ISZERO PUSH2 0x360F JUMPI DUP1 DUP4 PUSH1 0x1 ADD SLOAD PUSH2 0x3609 SWAP2 SWAP1 PUSH2 0x51C8 JUMP JUMPDEST PUSH1 0x1 DUP5 ADD SSTORE JUMPDEST POP POP JUMPDEST PUSH1 0xC DUP3 ADD SLOAD DUP4 SLOAD PUSH8 0xDE0B6B3A7640000 SWAP2 PUSH2 0x362C SWAP2 PUSH2 0x529D JUMP JUMPDEST PUSH2 0x3636 SWAP2 SWAP1 PUSH2 0x52CA JUMP JUMPDEST SWAP1 SSTORE POP POP POP POP JUMP JUMPDEST PUSH1 0x0 DUP1 PUSH1 0x1 PUSH1 0x1 PUSH1 0xA0 SHL SUB DUP5 AND PUSH1 0x0 SWAP1 DUP2 MSTORE PUSH1 0x1 PUSH1 0x20 MSTORE PUSH1 0x40 SWAP1 KECCAK256 SLOAD PUSH1 0x1 PUSH1 0xA0 SHL SWAP1 DIV PUSH1 0xFF AND PUSH1 0x4 DUP2 GT ISZERO PUSH2 0x3675 JUMPI PUSH2 0x3675 PUSH2 0x4C26 JUMP JUMPDEST SUB PUSH2 0x3692 JUMPI PUSH1 0x40 MLOAD PUSH3 0x461BCD PUSH1 0xE5 SHL DUP2 MSTORE PUSH1 0x4 ADD PUSH2 0x906 SWAP1 PUSH2 0x51A5 JUMP JUMPDEST PUSH1 0x1 PUSH1 0x1 PUSH1 0xA0 SHL SUB DUP1 DUP6 AND PUSH1 0x0 SWAP1 DUP2 MSTORE PUSH1 0x2 PUSH1 0x20 SWAP1 DUP2 MSTORE PUSH1 0x40 DUP1 DUP4 KECCAK256 SWAP4 DUP8 AND DUP4 MSTORE SWAP3 SWAP1 MSTORE KECCAK256 PUSH1 0x1 ADD SLOAD ISZERO PUSH2 0x36F4 JUMPI PUSH1 0x40 MLOAD PUSH3 0x461BCD PUSH1 0xE5 SHL DUP2 MSTORE PUSH1 0x20 PUSH1 0x4 DUP3 ADD MSTORE PUSH1 0x9 PUSH1 0x24 DUP3 ADD MSTORE PUSH9 0x556E7374616B696E67 PUSH1 0xB8 SHL PUSH1 0x44 DUP3 ADD MSTORE PUSH1 0x64 ADD PUSH2 0x906 JUMP JUMPDEST PUSH9 0x3635C9ADC5DEA00000 DUP3 LT ISZERO PUSH2 0x373C JUMPI PUSH1 0x40 MLOAD PUSH3 0x461BCD PUSH1 0xE5 SHL DUP2 MSTORE PUSH1 0x20 PUSH1 0x4 DUP3 ADD MSTORE PUSH1 0xC PUSH1 0x24 DUP3 ADD MSTORE PUSH12 0x135A5B880C4C0C0C0813D615 PUSH1 0xA2 SHL PUSH1 0x44 DUP3 ADD MSTORE PUSH1 0x64 ADD PUSH2 0x906 JUMP JUMPDEST PUSH1 0x1 PUSH1 0x1 PUSH1 0xA0 SHL SUB DUP4 AND PUSH1 0x0 SWAP1 DUP2 MSTORE PUSH1 0x1 PUSH1 0x20 DUP2 SWAP1 MSTORE PUSH1 0x40 SWAP1 SWAP2 KECCAK256 SWAP1 DUP2 ADD SLOAD PUSH10 0x21E19E0C9BAB2400000 SWAP1 PUSH2 0x3772 SWAP1 DUP6 SWAP1 PUSH2 0x51C8 JUMP JUMPDEST LT ISZERO PUSH2 0x37B0 JUMPI PUSH1 0x40 MLOAD PUSH3 0x461BCD PUSH1 0xE5 SHL DUP2 MSTORE PUSH1 0x20 PUSH1 0x4 DUP3 ADD MSTORE PUSH1 0xD PUSH1 0x24 DUP3 ADD MSTORE PUSH13 0x135A5B880C4C0C0C0C0813D615 PUSH1 0x9A SHL PUSH1 0x44 DUP3 ADD MSTORE PUSH1 0x64 ADD PUSH2 0x906 JUMP JUMPDEST PUSH2 0x37BA DUP6 DUP6 PUSH2 0x356D JUMP JUMPDEST PUSH1 0x1 PUSH1 0x1 PUSH1 0xA0 SHL SUB DUP1 DUP7 AND PUSH1 0x0 SWAP1 DUP2 MSTORE PUSH1 0x2 PUSH1 0x20 SWAP1 DUP2 MSTORE PUSH1 0x40 DUP1 DUP4 KECCAK256 SWAP4 DUP9 AND DUP4 MSTORE SWAP3 SWAP1 MSTORE SWAP1 DUP2 KECCAK256 SLOAD SWAP1 SUB PUSH2 0x3837 JUMPI PUSH1 0x9 DUP2 ADD DUP1 SLOAD PUSH1 0x1 PUSH1 0x1 PUSH1 0xA0 SHL SUB DUP1 DUP9 AND PUSH1 0x0 DUP2 DUP2 MSTORE PUSH1 0x2 PUSH1 0x20 DUP2 DUP2 MSTORE PUSH1 0x40 DUP1 DUP5 KECCAK256 SWAP6 DUP13 AND DUP5 MSTORE SWAP5 DUP2 MSTORE SWAP4 DUP3 KECCAK256 ADD DUP5 SWAP1 SSTORE PUSH1 0x1 DUP5 ADD DUP6 SSTORE SWAP4 DUP5 MSTORE SWAP3 KECCAK256 ADD DUP1 SLOAD PUSH1 0x1 PUSH1 0x1 PUSH1 0xA0 SHL SUB NOT AND SWAP1 SWAP2 OR SWAP1 SSTORE JUMPDEST DUP3 DUP2 PUSH1 0x1 ADD SLOAD PUSH2 0x3847 SWAP2 SWAP1 PUSH2 0x51C8 JUMP JUMPDEST PUSH1 0x1 DUP3 ADD SSTORE PUSH1 0x2 DUP2 SLOAD PUSH1 0x1 PUSH1 0xA0 SHL SWAP1 DIV PUSH1 0xFF AND PUSH1 0x4 DUP2 GT ISZERO PUSH2 0x386B JUMPI PUSH2 0x386B PUSH2 0x4C26 JUMP JUMPDEST EQ ISZERO DUP1 ISZERO PUSH2 0x3896 JUMPI POP PUSH1 0x4 DUP2 SLOAD PUSH1 0x1 PUSH1 0xA0 SHL SWAP1 DIV PUSH1 0xFF AND PUSH1 0x4 DUP2 GT ISZERO PUSH2 0x3893 JUMPI PUSH2 0x3893 PUSH2 0x4C26 JUMP JUMPDEST EQ ISZERO JUMPDEST ISZERO PUSH2 0x38AD JUMPI DUP1 SLOAD PUSH1 0xFF PUSH1 0xA0 SHL NOT AND PUSH1 0x1 PUSH1 0xA1 SHL OR DUP2 SSTORE JUMPDEST PUSH1 0x1 PUSH1 0x1 PUSH1 0xA0 SHL SUB DUP1 DUP7 AND PUSH1 0x0 SWAP1 DUP2 MSTORE PUSH1 0x2 PUSH1 0x20 SWAP1 DUP2 MSTORE PUSH1 0x40 DUP1 DUP4 KECCAK256 SWAP4 DUP9 AND DUP4 MSTORE SWAP3 SWAP1 MSTORE KECCAK256 SLOAD PUSH2 0x38DE SWAP1 DUP5 SWAP1 PUSH2 0x51C8 JUMP JUMPDEST PUSH1 0x1 PUSH1 0x1 PUSH1 0xA0 SHL SUB DUP1 DUP8 AND PUSH1 0x0 SWAP1 DUP2 MSTORE PUSH1 0x2 PUSH1 0x20 SWAP1 DUP2 MSTORE PUSH1 0x40 DUP1 DUP4 KECCAK256 SWAP4 DUP10 AND DUP4 MSTORE SWAP3 SWAP1 MSTORE KECCAK256 SSTORE PUSH1 0x5 SLOAD PUSH2 0x3912 SWAP1 DUP5 SWAP1 PUSH2 0x51C8 JUMP JUMPDEST PUSH1 0x5 SSTORE PUSH1 0xC DUP2 ADD SLOAD PUSH1 0x1 PUSH1 0x1 PUSH1 0xA0 SHL SUB DUP1 DUP8 AND PUSH1 0x0 SWAP1 DUP2 MSTORE PUSH1 0x2 PUSH1 0x20 SWAP1 DUP2 MSTORE PUSH1 0x40 DUP1 DUP4 KECCAK256 SWAP4 DUP10 AND DUP4 MSTORE SWAP3 SWAP1 MSTORE KECCAK256 SLOAD PUSH8 0xDE0B6B3A7640000 SWAP2 PUSH2 0x3953 SWAP2 PUSH2 0x529D JUMP JUMPDEST PUSH2 0x395D SWAP2 SWAP1 PUSH2 0x52CA JUMP JUMPDEST PUSH1 0x1 PUSH1 0x1 PUSH1 0xA0 SHL SUB DUP7 DUP2 AND PUSH1 0x0 DUP2 DUP2 MSTORE PUSH1 0xA PUSH1 0x20 SWAP1 DUP2 MSTORE PUSH1 0x40 DUP1 DUP4 KECCAK256 SWAP5 DUP11 AND DUP1 DUP5 MSTORE SWAP5 DUP3 MSTORE SWAP2 DUP3 SWAP1 KECCAK256 SWAP5 SWAP1 SWAP5 SSTORE MLOAD DUP7 DUP2 MSTORE SWAP2 SWAP3 SWAP1 SWAP2 PUSH32 0x795C91E2FEF542F2E8BCCD08552A8961ECB158D0F47BE08F5C44B349993B07A9 SWAP2 ADD PUSH1 0x40 MLOAD DUP1 SWAP2 SUB SWAP1 LOG3 PUSH1 0x2 DUP2 SLOAD PUSH1 0x1 PUSH1 0xA0 SHL SWAP1 DIV PUSH1 0xFF AND PUSH1 0x4 DUP2 GT ISZERO PUSH2 0x39DC JUMPI PUSH2 0x39DC PUSH2 0x4C26 JUMP JUMPDEST SUB PUSH2 0x2B99 JUMPI PUSH2 0x39EF DUP5 DUP3 PUSH1 0x1 ADD SLOAD PUSH2 0x47C7 JUMP JUMPDEST POP POP PUSH1 0x1 SWAP5 SWAP4 POP POP POP POP JUMP JUMPDEST PUSH1 0x0 JUMPDEST PUSH1 0x4 SLOAD DUP2 LT DUP1 ISZERO PUSH2 0x3A11 JUMPI POP PUSH1 0x4 SLOAD PUSH1 0x1 LT JUMPDEST ISZERO PUSH2 0x3B21 JUMPI PUSH1 0x4 DUP2 DUP2 SLOAD DUP2 LT PUSH2 0x3A29 JUMPI PUSH2 0x3A29 PUSH2 0x5176 JUMP JUMPDEST PUSH1 0x0 SWAP2 DUP3 MSTORE PUSH1 0x20 SWAP1 SWAP2 KECCAK256 ADD SLOAD PUSH1 0x1 PUSH1 0x1 PUSH1 0xA0 SHL SUB SWAP1 DUP2 AND SWAP1 DUP4 AND SUB PUSH2 0x3B0F JUMPI PUSH1 0x4 SLOAD PUSH2 0x3A57 SWAP1 PUSH1 0x1 SWAP1 PUSH2 0x5163 JUMP JUMPDEST DUP2 EQ PUSH2 0x3AD8 JUMPI PUSH1 0x4 DUP1 SLOAD PUSH2 0x3A6D SWAP1 PUSH1 0x1 SWAP1 PUSH2 0x5163 JUMP JUMPDEST DUP2 SLOAD DUP2 LT PUSH2 0x3A7D JUMPI PUSH2 0x3A7D PUSH2 0x5176 JUMP JUMPDEST PUSH1 0x0 SWAP2 DUP3 MSTORE PUSH1 0x20 SWAP1 SWAP2 KECCAK256 ADD SLOAD PUSH1 0x4 DUP1 SLOAD PUSH1 0x1 PUSH1 0x1 PUSH1 0xA0 SHL SUB SWAP1 SWAP3 AND SWAP2 DUP4 SWAP1 DUP2 LT PUSH2 0x3AA9 JUMPI PUSH2 0x3AA9 PUSH2 0x5176 JUMP JUMPDEST SWAP1 PUSH1 0x0 MSTORE PUSH1 0x20 PUSH1 0x0 KECCAK256 ADD PUSH1 0x0 PUSH2 0x100 EXP DUP2 SLOAD DUP2 PUSH1 0x1 PUSH1 0x1 PUSH1 0xA0 SHL SUB MUL NOT AND SWAP1 DUP4 PUSH1 0x1 PUSH1 0x1 PUSH1 0xA0 SHL SUB AND MUL OR SWAP1 SSTORE POP JUMPDEST PUSH1 0x4 DUP1 SLOAD DUP1 PUSH2 0x3AE9 JUMPI PUSH2 0x3AE9 PUSH2 0x5415 JUMP JUMPDEST PUSH1 0x0 DUP3 DUP2 MSTORE PUSH1 0x20 SWAP1 KECCAK256 DUP2 ADD PUSH1 0x0 NOT SWAP1 DUP2 ADD DUP1 SLOAD PUSH1 0x1 PUSH1 0x1 PUSH1 0xA0 SHL SUB NOT AND SWAP1 SSTORE ADD SWAP1 SSTORE POP POP JUMP JUMPDEST DUP1 PUSH2 0x3B19 DUP2 PUSH2 0x518C JUMP JUMPDEST SWAP2 POP POP PUSH2 0x39FE JUMP JUMPDEST POP POP JUMP JUMPDEST PUSH1 0x1 PUSH1 0x1 PUSH1 0xA0 SHL SUB DUP2 AND PUSH1 0x0 SWAP1 DUP2 MSTORE PUSH1 0x9 PUSH1 0x20 MSTORE PUSH1 0x40 SWAP1 KECCAK256 SLOAD PUSH1 0xFF AND PUSH2 0x3B48 JUMPI POP JUMP JUMPDEST PUSH1 0x0 JUMPDEST PUSH1 0x3 SLOAD DUP2 LT DUP1 ISZERO PUSH2 0x3B5E JUMPI POP PUSH1 0x3 SLOAD PUSH1 0x1 LT JUMPDEST ISZERO PUSH2 0x3B21 JUMPI DUP2 PUSH1 0x1 PUSH1 0x1 PUSH1 0xA0 SHL SUB AND PUSH1 0x3 DUP3 DUP2 SLOAD DUP2 LT PUSH2 0x3B80 JUMPI PUSH2 0x3B80 PUSH2 0x5176 JUMP JUMPDEST PUSH1 0x0 SWAP2 DUP3 MSTORE PUSH1 0x20 SWAP1 SWAP2 KECCAK256 ADD SLOAD PUSH1 0x1 PUSH1 0x1 PUSH1 0xA0 SHL SUB AND SUB PUSH2 0x3CAA JUMPI PUSH1 0x3 SLOAD PUSH2 0x3BA9 SWAP1 PUSH1 0x1 SWAP1 PUSH2 0x5163 JUMP JUMPDEST DUP2 EQ PUSH2 0x3C2A JUMPI PUSH1 0x3 DUP1 SLOAD PUSH2 0x3BBF SWAP1 PUSH1 0x1 SWAP1 PUSH2 0x5163 JUMP JUMPDEST DUP2 SLOAD DUP2 LT PUSH2 0x3BCF JUMPI PUSH2 0x3BCF PUSH2 0x5176 JUMP JUMPDEST PUSH1 0x0 SWAP2 DUP3 MSTORE PUSH1 0x20 SWAP1 SWAP2 KECCAK256 ADD SLOAD PUSH1 0x3 DUP1 SLOAD PUSH1 0x1 PUSH1 0x1 PUSH1 0xA0 SHL SUB SWAP1 SWAP3 AND SWAP2 DUP4 SWAP1 DUP2 LT PUSH2 0x3BFB JUMPI PUSH2 0x3BFB PUSH2 0x5176 JUMP JUMPDEST SWAP1 PUSH1 0x0 MSTORE PUSH1 0x20 PUSH1 0x0 KECCAK256 ADD PUSH1 0x0 PUSH2 0x100 EXP DUP2 SLOAD DUP2 PUSH1 0x1 PUSH1 0x1 PUSH1 0xA0 SHL SUB MUL NOT AND SWAP1 DUP4 PUSH1 0x1 PUSH1 0x1 PUSH1 0xA0 SHL SUB AND MUL OR SWAP1 SSTORE POP JUMPDEST PUSH1 0x3 DUP1 SLOAD DUP1 PUSH2 0x3C3B JUMPI PUSH2 0x3C3B PUSH2 0x5415 JUMP JUMPDEST PUSH1 0x0 DUP3 DUP2 MSTORE PUSH1 0x20 DUP1 DUP3 KECCAK256 DUP4 ADD PUSH1 0x0 NOT SWAP1 DUP2 ADD DUP1 SLOAD PUSH1 0x1 PUSH1 0x1 PUSH1 0xA0 SHL SUB NOT AND SWAP1 SSTORE SWAP1 SWAP3 ADD SWAP1 SWAP3 SSTORE PUSH1 0x1 PUSH1 0x1 PUSH1 0xA0 SHL SUB DUP5 AND DUP1 DUP4 MSTORE PUSH1 0x9 SWAP1 SWAP2 MSTORE PUSH1 0x40 DUP1 DUP4 KECCAK256 DUP1 SLOAD PUSH1 0xFF NOT AND SWAP1 SSTORE MLOAD SWAP1 SWAP2 PUSH32 0x4FC54CDA221FAFC19BAAE2A4C79AE99DD0916C88B67AB97D3122A5AFE333FC1D SWAP2 LOG2 POP POP JUMP JUMPDEST DUP1 PUSH2 0x3CB4 DUP2 PUSH2 0x518C JUMP JUMPDEST SWAP2 POP POP PUSH2 0x3B4B JUMP JUMPDEST DUP2 PUSH1 0x0 SUB PUSH2 0x3CC8 JUMPI POP POP JUMP JUMPDEST PUSH1 0x0 DUP1 PUSH1 0x0 JUMPDEST PUSH1 0x4 SLOAD DUP2 LT ISZERO PUSH2 0x3DE0 JUMPI PUSH1 0x4 PUSH1 0x1 PUSH1 0x0 PUSH1 0x4 DUP5 DUP2 SLOAD DUP2 LT PUSH2 0x3CF1 JUMPI PUSH2 0x3CF1 PUSH2 0x5176 JUMP JUMPDEST PUSH1 0x0 SWAP2 DUP3 MSTORE PUSH1 0x20 DUP1 DUP4 KECCAK256 SWAP1 SWAP2 ADD SLOAD PUSH1 0x1 PUSH1 0x1 PUSH1 0xA0 SHL SUB AND DUP4 MSTORE DUP3 ADD SWAP3 SWAP1 SWAP3 MSTORE PUSH1 0x40 ADD SWAP1 KECCAK256 SLOAD PUSH1 0xFF PUSH1 0x1 PUSH1 0xA0 SHL SWAP1 SWAP2 DIV AND PUSH1 0x4 DUP2 GT ISZERO PUSH2 0x3D32 JUMPI PUSH2 0x3D32 PUSH2 0x4C26 JUMP JUMPDEST EQ ISZERO DUP1 ISZERO PUSH2 0x3D70 JUMPI POP DUP4 PUSH1 0x1 PUSH1 0x1 PUSH1 0xA0 SHL SUB AND PUSH1 0x4 DUP3 DUP2 SLOAD DUP2 LT PUSH2 0x3D58 JUMPI PUSH2 0x3D58 PUSH2 0x5176 JUMP JUMPDEST PUSH1 0x0 SWAP2 DUP3 MSTORE PUSH1 0x20 SWAP1 SWAP2 KECCAK256 ADD SLOAD PUSH1 0x1 PUSH1 0x1 PUSH1 0xA0 SHL SUB AND EQ ISZERO JUMPDEST ISZERO PUSH2 0x3DCE JUMPI PUSH1 0x1 PUSH1 0x0 PUSH1 0x4 DUP4 DUP2 SLOAD DUP2 LT PUSH2 0x3D8C JUMPI PUSH2 0x3D8C PUSH2 0x5176 JUMP JUMPDEST PUSH1 0x0 SWAP2 DUP3 MSTORE PUSH1 0x20 DUP1 DUP4 KECCAK256 SWAP1 SWAP2 ADD SLOAD PUSH1 0x1 PUSH1 0x1 PUSH1 0xA0 SHL SUB AND DUP4 MSTORE DUP3 ADD SWAP3 SWAP1 SWAP3 MSTORE PUSH1 0x40 ADD SWAP1 KECCAK256 PUSH1 0x1 ADD SLOAD PUSH2 0x3DBE SWAP1 DUP5 PUSH2 0x51C8 JUMP JUMPDEST SWAP3 POP DUP2 PUSH2 0x3DCA DUP2 PUSH2 0x518C JUMP JUMPDEST SWAP3 POP POP JUMPDEST DUP1 PUSH2 0x3DD8 DUP2 PUSH2 0x518C JUMP JUMPDEST SWAP2 POP POP PUSH2 0x3CCE JUMP JUMPDEST POP DUP1 PUSH1 0x0 SUB PUSH2 0x3DEF JUMPI POP POP POP POP JUMP JUMPDEST PUSH1 0x0 DUP2 PUSH1 0x1 PUSH1 0x1 PUSH1 0x40 SHL SUB DUP2 GT ISZERO PUSH2 0x3E09 JUMPI PUSH2 0x3E09 PUSH2 0x4FFF JUMP JUMPDEST PUSH1 0x40 MLOAD SWAP1 DUP1 DUP3 MSTORE DUP1 PUSH1 0x20 MUL PUSH1 0x20 ADD DUP3 ADD PUSH1 0x40 MSTORE DUP1 ISZERO PUSH2 0x3E32 JUMPI DUP2 PUSH1 0x20 ADD PUSH1 0x20 DUP3 MUL DUP1 CALLDATASIZE DUP4 CALLDATACOPY ADD SWAP1 POP JUMPDEST POP SWAP1 POP PUSH1 0x0 DUP3 PUSH1 0x1 PUSH1 0x1 PUSH1 0x40 SHL SUB DUP2 GT ISZERO PUSH2 0x3E4F JUMPI PUSH2 0x3E4F PUSH2 0x4FFF JUMP JUMPDEST PUSH1 0x40 MLOAD SWAP1 DUP1 DUP3 MSTORE DUP1 PUSH1 0x20 MUL PUSH1 0x20 ADD DUP3 ADD PUSH1 0x40 MSTORE DUP1 ISZERO PUSH2 0x3E78 JUMPI DUP2 PUSH1 0x20 ADD PUSH1 0x20 DUP3 MUL DUP1 CALLDATASIZE DUP4 CALLDATACOPY ADD SWAP1 POP JUMPDEST POP SWAP1 POP PUSH1 0x0 DUP1 PUSH1 0x0 JUMPDEST PUSH1 0x4 SLOAD DUP2 LT ISZERO PUSH2 0x4304 JUMPI PUSH1 0x4 PUSH1 0x1 PUSH1 0x0 PUSH1 0x4 DUP5 DUP2 SLOAD DUP2 LT PUSH2 0x3EA4 JUMPI PUSH2 0x3EA4 PUSH2 0x5176 JUMP JUMPDEST PUSH1 0x0 SWAP2 DUP3 MSTORE PUSH1 0x20 DUP1 DUP4 KECCAK256 SWAP1 SWAP2 ADD SLOAD PUSH1 0x1 PUSH1 0x1 PUSH1 0xA0 SHL SUB AND DUP4 MSTORE DUP3 ADD SWAP3 SWAP1 SWAP3 MSTORE PUSH1 0x40 ADD SWAP1 KECCAK256 SLOAD PUSH1 0xFF PUSH1 0x1 PUSH1 0xA0 SHL SWAP1 SWAP2 DIV AND PUSH1 0x4 DUP2 GT ISZERO PUSH2 0x3EE5 JUMPI PUSH2 0x3EE5 PUSH2 0x4C26 JUMP JUMPDEST EQ ISZERO DUP1 ISZERO PUSH2 0x3F23 JUMPI POP DUP8 PUSH1 0x1 PUSH1 0x1 PUSH1 0xA0 SHL SUB AND PUSH1 0x4 DUP3 DUP2 SLOAD DUP2 LT PUSH2 0x3F0B JUMPI PUSH2 0x3F0B PUSH2 0x5176 JUMP JUMPDEST PUSH1 0x0 SWAP2 DUP3 MSTORE PUSH1 0x20 SWAP1 SWAP2 KECCAK256 ADD SLOAD PUSH1 0x1 PUSH1 0x1 PUSH1 0xA0 SHL SUB AND EQ ISZERO JUMPDEST ISZERO PUSH2 0x42F2 JUMPI PUSH1 0x0 DUP8 PUSH1 0x0 SUB PUSH2 0x3F43 JUMPI PUSH2 0x3F3C DUP8 DUP12 PUSH2 0x52CA JUMP JUMPDEST SWAP1 POP PUSH2 0x3F9A JUMP JUMPDEST DUP8 PUSH1 0x1 PUSH1 0x0 PUSH1 0x4 DUP6 DUP2 SLOAD DUP2 LT PUSH2 0x3F5B JUMPI PUSH2 0x3F5B PUSH2 0x5176 JUMP JUMPDEST PUSH1 0x0 SWAP2 DUP3 MSTORE PUSH1 0x20 DUP1 DUP4 KECCAK256 SWAP1 SWAP2 ADD SLOAD PUSH1 0x1 PUSH1 0x1 PUSH1 0xA0 SHL SUB AND DUP4 MSTORE DUP3 ADD SWAP3 SWAP1 SWAP3 MSTORE PUSH1 0x40 ADD SWAP1 KECCAK256 PUSH1 0x1 ADD SLOAD PUSH2 0x3F8D SWAP1 DUP13 PUSH2 0x529D JUMP JUMPDEST PUSH2 0x3F97 SWAP2 SWAP1 PUSH2 0x52CA JUMP JUMPDEST SWAP1 POP JUMPDEST PUSH1 0x0 PUSH2 0x2710 PUSH1 0x1 PUSH1 0x0 PUSH1 0x4 DUP7 DUP2 SLOAD DUP2 LT PUSH2 0x3FB6 JUMPI PUSH2 0x3FB6 PUSH2 0x5176 JUMP JUMPDEST PUSH1 0x0 SWAP2 DUP3 MSTORE PUSH1 0x20 DUP1 DUP4 KECCAK256 SWAP1 SWAP2 ADD SLOAD PUSH1 0x1 PUSH1 0x1 PUSH1 0xA0 SHL SUB AND DUP4 MSTORE DUP3 ADD SWAP3 SWAP1 SWAP3 MSTORE PUSH1 0x40 ADD SWAP1 KECCAK256 PUSH1 0xA ADD SLOAD PUSH2 0x3FE8 SWAP1 DUP5 PUSH2 0x529D JUMP JUMPDEST PUSH2 0x3FF2 SWAP2 SWAP1 PUSH2 0x52CA JUMP JUMPDEST SWAP1 POP PUSH1 0x0 PUSH2 0x4000 DUP3 DUP5 PUSH2 0x5163 JUMP JUMPDEST SWAP1 POP DUP2 PUSH1 0x1 PUSH1 0x0 PUSH1 0x4 DUP8 DUP2 SLOAD DUP2 LT PUSH2 0x401A JUMPI PUSH2 0x401A PUSH2 0x5176 JUMP JUMPDEST PUSH1 0x0 SWAP2 DUP3 MSTORE PUSH1 0x20 DUP1 DUP4 KECCAK256 SWAP1 SWAP2 ADD SLOAD PUSH1 0x1 PUSH1 0x1 PUSH1 0xA0 SHL SUB AND DUP4 MSTORE DUP3 ADD SWAP3 SWAP1 SWAP3 MSTORE PUSH1 0x40 ADD SWAP1 KECCAK256 PUSH1 0x6 ADD SLOAD PUSH2 0x404C SWAP2 SWAP1 PUSH2 0x51C8 JUMP JUMPDEST PUSH1 0x1 PUSH1 0x0 PUSH1 0x4 DUP8 DUP2 SLOAD DUP2 LT PUSH2 0x4063 JUMPI PUSH2 0x4063 PUSH2 0x5176 JUMP JUMPDEST PUSH1 0x0 SWAP2 DUP3 MSTORE PUSH1 0x20 DUP1 DUP4 KECCAK256 SWAP1 SWAP2 ADD SLOAD PUSH1 0x1 PUSH1 0x1 PUSH1 0xA0 SHL SUB AND DUP4 MSTORE DUP3 ADD SWAP3 SWAP1 SWAP3 MSTORE PUSH1 0x40 ADD DUP2 KECCAK256 PUSH1 0x6 ADD SWAP2 SWAP1 SWAP2 SSTORE PUSH1 0x4 DUP1 SLOAD PUSH1 0x1 SWAP2 DUP4 SWAP2 DUP9 SWAP1 DUP2 LT PUSH2 0x40A7 JUMPI PUSH2 0x40A7 PUSH2 0x5176 JUMP JUMPDEST PUSH1 0x0 SWAP2 DUP3 MSTORE PUSH1 0x20 DUP1 DUP4 KECCAK256 SWAP1 SWAP2 ADD SLOAD PUSH1 0x1 PUSH1 0x1 PUSH1 0xA0 SHL SUB AND DUP4 MSTORE DUP3 ADD SWAP3 SWAP1 SWAP3 MSTORE PUSH1 0x40 ADD SWAP1 KECCAK256 PUSH1 0x1 ADD SLOAD GT DUP1 ISZERO PUSH2 0x40DC JUMPI POP PUSH1 0x0 DUP2 GT JUMPDEST ISZERO PUSH2 0x4253 JUMPI DUP1 PUSH1 0x1 PUSH1 0x0 PUSH1 0x4 DUP8 DUP2 SLOAD DUP2 LT PUSH2 0x40F9 JUMPI PUSH2 0x40F9 PUSH2 0x5176 JUMP JUMPDEST PUSH1 0x0 SWAP2 DUP3 MSTORE PUSH1 0x20 DUP1 DUP4 KECCAK256 SWAP1 SWAP2 ADD SLOAD PUSH1 0x1 PUSH1 0x1 PUSH1 0xA0 SHL SUB AND DUP4 MSTORE DUP3 ADD SWAP3 SWAP1 SWAP3 MSTORE PUSH1 0x40 ADD SWAP1 KECCAK256 PUSH1 0xB ADD SLOAD PUSH2 0x412B SWAP2 SWAP1 PUSH2 0x51C8 JUMP JUMPDEST PUSH1 0x1 PUSH1 0x0 PUSH1 0x4 DUP8 DUP2 SLOAD DUP2 LT PUSH2 0x4142 JUMPI PUSH2 0x4142 PUSH2 0x5176 JUMP JUMPDEST PUSH1 0x0 SWAP2 DUP3 MSTORE PUSH1 0x20 DUP1 DUP4 KECCAK256 SWAP1 SWAP2 ADD SLOAD PUSH1 0x1 PUSH1 0x1 PUSH1 0xA0 SHL SUB AND DUP4 MSTORE DUP3 ADD SWAP3 SWAP1 SWAP3 MSTORE PUSH1 0x40 ADD DUP2 KECCAK256 PUSH1 0xB ADD SWAP2 SWAP1 SWAP2 SSTORE PUSH1 0x4 DUP1 SLOAD PUSH1 0x1 SWAP3 SWAP2 SWAP1 DUP8 SWAP1 DUP2 LT PUSH2 0x4186 JUMPI PUSH2 0x4186 PUSH2 0x5176 JUMP JUMPDEST PUSH1 0x0 SWAP2 DUP3 MSTORE PUSH1 0x20 DUP1 DUP4 KECCAK256 SWAP1 SWAP2 ADD SLOAD PUSH1 0x1 PUSH1 0x1 PUSH1 0xA0 SHL SUB AND DUP4 MSTORE DUP3 ADD SWAP3 SWAP1 SWAP3 MSTORE PUSH1 0x40 ADD SWAP1 KECCAK256 PUSH1 0x1 ADD SLOAD PUSH2 0x41C0 PUSH8 0xDE0B6B3A7640000 DUP4 PUSH2 0x529D JUMP JUMPDEST PUSH2 0x41CA SWAP2 SWAP1 PUSH2 0x52CA JUMP JUMPDEST PUSH1 0x1 PUSH1 0x0 PUSH1 0x4 DUP8 DUP2 SLOAD DUP2 LT PUSH2 0x41E1 JUMPI PUSH2 0x41E1 PUSH2 0x5176 JUMP JUMPDEST PUSH1 0x0 SWAP2 DUP3 MSTORE PUSH1 0x20 DUP1 DUP4 KECCAK256 SWAP1 SWAP2 ADD SLOAD PUSH1 0x1 PUSH1 0x1 PUSH1 0xA0 SHL SUB AND DUP4 MSTORE DUP3 ADD SWAP3 SWAP1 SWAP3 MSTORE PUSH1 0x40 ADD SWAP1 KECCAK256 PUSH1 0xC ADD SLOAD PUSH2 0x4213 SWAP2 SWAP1 PUSH2 0x51C8 JUMP JUMPDEST PUSH1 0x1 PUSH1 0x0 PUSH1 0x4 DUP8 DUP2 SLOAD DUP2 LT PUSH2 0x422A JUMPI PUSH2 0x422A PUSH2 0x5176 JUMP JUMPDEST PUSH1 0x0 SWAP2 DUP3 MSTORE PUSH1 0x20 DUP1 DUP4 KECCAK256 SWAP1 SWAP2 ADD SLOAD PUSH1 0x1 PUSH1 0x1 PUSH1 0xA0 SHL SUB AND DUP4 MSTORE DUP3 ADD SWAP3 SWAP1 SWAP3 MSTORE PUSH1 0x40 ADD SWAP1 KECCAK256 PUSH1 0xC ADD SSTORE JUMPDEST PUSH1 0x4 DUP5 DUP2 SLOAD DUP2 LT PUSH2 0x4266 JUMPI PUSH2 0x4266 PUSH2 0x5176 JUMP JUMPDEST SWAP1 PUSH1 0x0 MSTORE PUSH1 0x20 PUSH1 0x0 KECCAK256 ADD PUSH1 0x0 SWAP1 SLOAD SWAP1 PUSH2 0x100 EXP SWAP1 DIV PUSH1 0x1 PUSH1 0x1 PUSH1 0xA0 SHL SUB AND DUP9 DUP8 DUP2 MLOAD DUP2 LT PUSH2 0x4296 JUMPI PUSH2 0x4296 PUSH2 0x5176 JUMP JUMPDEST PUSH1 0x20 MUL PUSH1 0x20 ADD ADD SWAP1 PUSH1 0x1 PUSH1 0x1 PUSH1 0xA0 SHL SUB AND SWAP1 DUP2 PUSH1 0x1 PUSH1 0x1 PUSH1 0xA0 SHL SUB AND DUP2 MSTORE POP POP DUP3 DUP8 DUP8 DUP2 MLOAD DUP2 LT PUSH2 0x42C9 JUMPI PUSH2 0x42C9 PUSH2 0x5176 JUMP JUMPDEST PUSH1 0x20 SWAP1 DUP2 MUL SWAP2 SWAP1 SWAP2 ADD ADD MSTORE DUP6 PUSH2 0x42DE DUP2 PUSH2 0x518C JUMP JUMPDEST SWAP7 POP PUSH2 0x42EC SWAP1 POP DUP4 DUP7 PUSH2 0x51C8 JUMP JUMPDEST SWAP5 POP POP POP POP JUMPDEST DUP1 PUSH2 0x42FC DUP2 PUSH2 0x518C JUMP JUMPDEST SWAP2 POP POP PUSH2 0x3E81 JUMP JUMPDEST POP PUSH1 0x0 PUSH2 0x4311 DUP3 DUP11 PUSH2 0x5163 JUMP JUMPDEST SWAP1 POP PUSH1 0x0 DUP2 GT DUP1 ISZERO PUSH2 0x4323 JUMPI POP PUSH1 0x0 DUP4 GT JUMPDEST ISZERO PUSH2 0x441C JUMPI DUP1 PUSH1 0x1 PUSH1 0x0 DUP8 PUSH2 0x4338 DUP4 DUP9 PUSH2 0x5163 JUMP JUMPDEST DUP2 MLOAD DUP2 LT PUSH2 0x4348 JUMPI PUSH2 0x4348 PUSH2 0x5176 JUMP JUMPDEST PUSH1 0x20 MUL PUSH1 0x20 ADD ADD MLOAD PUSH1 0x1 PUSH1 0x1 PUSH1 0xA0 SHL SUB AND PUSH1 0x1 PUSH1 0x1 PUSH1 0xA0 SHL SUB AND DUP2 MSTORE PUSH1 0x20 ADD SWAP1 DUP2 MSTORE PUSH1 0x20 ADD PUSH1 0x0 KECCAK256 PUSH1 0x6 ADD SLOAD PUSH2 0x437E SWAP2 SWAP1 PUSH2 0x51C8 JUMP JUMPDEST PUSH1 0x1 PUSH1 0x0 DUP8 PUSH2 0x438D DUP4 DUP9 PUSH2 0x5163 JUMP JUMPDEST DUP2 MLOAD DUP2 LT PUSH2 0x439D JUMPI PUSH2 0x439D PUSH2 0x5176 JUMP JUMPDEST PUSH1 0x20 SWAP1 DUP2 MUL SWAP2 SWAP1 SWAP2 ADD DUP2 ADD MLOAD PUSH1 0x1 PUSH1 0x1 PUSH1 0xA0 SHL SUB AND DUP3 MSTORE DUP2 ADD SWAP2 SWAP1 SWAP2 MSTORE PUSH1 0x40 ADD PUSH1 0x0 KECCAK256 PUSH1 0x6 ADD SSTORE DUP1 DUP5 PUSH2 0x43D1 PUSH1 0x1 DUP7 PUSH2 0x5163 JUMP JUMPDEST DUP2 MLOAD DUP2 LT PUSH2 0x43E1 JUMPI PUSH2 0x43E1 PUSH2 0x5176 JUMP JUMPDEST PUSH1 0x20 MUL PUSH1 0x20 ADD ADD MLOAD PUSH2 0x43F3 SWAP2 SWAP1 PUSH2 0x51C8 JUMP JUMPDEST DUP5 PUSH2 0x43FF PUSH1 0x1 DUP7 PUSH2 0x5163 JUMP JUMPDEST DUP2 MLOAD DUP2 LT PUSH2 0x440F JUMPI PUSH2 0x440F PUSH2 0x5176 JUMP JUMPDEST PUSH1 0x20 MUL PUSH1 0x20 ADD ADD DUP2 DUP2 MSTORE POP POP JUMPDEST PUSH32 0x762312188FA57BEA7344B027AA7FE37066E66085DDEDD6DBEC6190A107668DD6 DUP6 DUP6 DUP6 PUSH1 0x40 MLOAD PUSH2 0x444F SWAP4 SWAP3 SWAP2 SWAP1 PUSH2 0x4BC6 JUMP JUMPDEST PUSH1 0x40 MLOAD DUP1 SWAP2 SUB SWAP1 LOG1 POP POP POP POP POP POP POP POP POP JUMP JUMPDEST PUSH1 0x0 PUSH1 0x1 PUSH1 0x1 PUSH1 0xA0 SHL SUB DUP11 AND PUSH2 0x44B0 JUMPI PUSH1 0x40 MLOAD PUSH3 0x461BCD PUSH1 0xE5 SHL DUP2 MSTORE PUSH1 0x20 PUSH1 0x4 DUP3 ADD MSTORE PUSH1 0x13 PUSH1 0x24 DUP3 ADD MSTORE PUSH19 0x24B73B30B634B2103932BBB0B9321030B23239 PUSH1 0x69 SHL PUSH1 0x44 DUP3 ADD MSTORE PUSH1 0x64 ADD PUSH2 0x906 JUMP JUMPDEST PUSH2 0x458B DUP10 DUP10 DUP1 DUP1 PUSH1 0x1F ADD PUSH1 0x20 DUP1 SWAP2 DIV MUL PUSH1 0x20 ADD PUSH1 0x40 MLOAD SWAP1 DUP2 ADD PUSH1 0x40 MSTORE DUP1 SWAP4 SWAP3 SWAP2 SWAP1 DUP2 DUP2 MSTORE PUSH1 0x20 ADD DUP4 DUP4 DUP1 DUP3 DUP5 CALLDATACOPY PUSH1 0x0 SWAP3 ADD SWAP2 SWAP1 SWAP2 MSTORE POP POP PUSH1 0x40 DUP1 MLOAD PUSH1 0x20 PUSH1 0x1F DUP14 ADD DUP2 SWAP1 DIV DUP2 MUL DUP3 ADD DUP2 ADD SWAP1 SWAP3 MSTORE DUP12 DUP2 MSTORE SWAP3 POP DUP12 SWAP2 POP DUP11 SWAP1 DUP2 SWAP1 DUP5 ADD DUP4 DUP3 DUP1 DUP3 DUP5 CALLDATACOPY PUSH1 0x0 SWAP3 ADD SWAP2 SWAP1 SWAP2 MSTORE POP POP PUSH1 0x40 DUP1 MLOAD PUSH1 0x20 PUSH1 0x1F DUP13 ADD DUP2 SWAP1 DIV DUP2 MUL DUP3 ADD DUP2 ADD SWAP1 SWAP3 MSTORE DUP11 DUP2 MSTORE SWAP3 POP DUP11 SWAP2 POP DUP10 SWAP1 DUP2 SWAP1 DUP5 ADD DUP4 DUP3 DUP1 DUP3 DUP5 CALLDATACOPY PUSH1 0x0 SWAP3 ADD SWAP2 SWAP1 SWAP2 MSTORE POP POP PUSH1 0x40 DUP1 MLOAD PUSH1 0x20 PUSH1 0x1F DUP12 ADD DUP2 SWAP1 DIV DUP2 MUL DUP3 ADD DUP2 ADD SWAP1 SWAP3 MSTORE DUP10 DUP2 MSTORE SWAP3 POP DUP10 SWAP2 POP DUP9 SWAP1 DUP2 SWAP1 DUP5 ADD DUP4 DUP3 DUP1 DUP3 DUP5 CALLDATACOPY PUSH1 0x0 SWAP3 ADD SWAP2 SWAP1 SWAP2 MSTORE POP PUSH2 0x2A96 SWAP3 POP POP POP JUMP JUMPDEST PUSH2 0x45C6 JUMPI PUSH1 0x40 MLOAD PUSH3 0x461BCD PUSH1 0xE5 SHL DUP2 MSTORE PUSH1 0x20 PUSH1 0x4 DUP3 ADD MSTORE PUSH1 0xC PUSH1 0x24 DUP3 ADD MSTORE PUSH12 0x496E76616C69642064657363 PUSH1 0xA0 SHL PUSH1 0x44 DUP3 ADD MSTORE PUSH1 0x64 ADD PUSH2 0x906 JUMP JUMPDEST PUSH1 0x0 PUSH1 0x1 PUSH1 0x1 PUSH1 0xA0 SHL SUB DUP13 AND PUSH1 0x0 SWAP1 DUP2 MSTORE PUSH1 0x1 PUSH1 0x20 MSTORE PUSH1 0x40 SWAP1 KECCAK256 SLOAD PUSH1 0x1 PUSH1 0xA0 SHL SWAP1 DIV PUSH1 0xFF AND PUSH1 0x4 DUP2 GT ISZERO PUSH2 0x45FC JUMPI PUSH2 0x45FC PUSH2 0x4C26 JUMP JUMPDEST SUB PUSH2 0x462B JUMPI PUSH1 0x1 PUSH1 0x1 PUSH1 0xA0 SHL SUB DUP12 AND PUSH1 0x0 SWAP1 DUP2 MSTORE PUSH1 0x1 PUSH1 0x20 MSTORE PUSH1 0x40 SWAP1 KECCAK256 DUP1 SLOAD PUSH1 0xFF PUSH1 0xA0 SHL NOT AND PUSH1 0x1 PUSH1 0xA0 SHL OR SWAP1 SSTORE JUMPDEST PUSH1 0x1 PUSH1 0x1 PUSH1 0xA0 SHL SUB DUP12 DUP2 AND PUSH1 0x0 SWAP1 DUP2 MSTORE PUSH1 0x1 PUSH1 0x20 SWAP1 DUP2 MSTORE PUSH1 0x40 SWAP2 DUP3 SWAP1 KECCAK256 DUP1 SLOAD PUSH1 0x1 PUSH1 0x1 PUSH1 0xA0 SHL SUB NOT AND SWAP4 DUP15 AND SWAP4 SWAP1 SWAP4 OR SWAP1 SWAP3 SSTORE DUP1 MLOAD PUSH1 0x1F DUP12 ADD DUP4 SWAP1 DIV SWAP1 SWAP3 MUL DUP3 ADD PUSH1 0xA0 SWAP1 DUP2 ADD SWAP1 SWAP2 MSTORE PUSH1 0x80 DUP3 ADD DUP11 DUP2 MSTORE DUP3 SWAP2 DUP13 SWAP1 DUP13 SWAP1 DUP2 SWAP1 DUP6 ADD DUP4 DUP3 DUP1 DUP3 DUP5 CALLDATACOPY PUSH1 0x0 SWAP3 ADD SWAP2 SWAP1 SWAP2 MSTORE POP POP POP SWAP1 DUP3 MSTORE POP PUSH1 0x40 DUP1 MLOAD PUSH1 0x20 PUSH1 0x1F DUP12 ADD DUP2 SWAP1 DIV DUP2 MUL DUP3 ADD DUP2 ADD SWAP1 SWAP3 MSTORE DUP10 DUP2 MSTORE SWAP2 DUP2 ADD SWAP2 SWAP1 DUP11 SWAP1 DUP11 SWAP1 DUP2 SWAP1 DUP5 ADD DUP4 DUP3 DUP1 DUP3 DUP5 CALLDATACOPY PUSH1 0x0 SWAP3 ADD SWAP2 SWAP1 SWAP2 MSTORE POP POP POP SWAP1 DUP3 MSTORE POP PUSH1 0x40 DUP1 MLOAD PUSH1 0x20 PUSH1 0x1F DUP10 ADD DUP2 SWAP1 DIV DUP2 MUL DUP3 ADD DUP2 ADD SWAP1 SWAP3 MSTORE DUP8 DUP2 MSTORE SWAP2 DUP2 ADD SWAP2 SWAP1 DUP9 SWAP1 DUP9 SWAP1 DUP2 SWAP1 DUP5 ADD DUP4 DUP3 DUP1 DUP3 DUP5 CALLDATACOPY PUSH1 0x0 SWAP3 ADD SWAP2 SWAP1 SWAP2 MSTORE POP POP POP SWAP1 DUP3 MSTORE POP PUSH1 0x40 DUP1 MLOAD PUSH1 0x20 PUSH1 0x1F DUP8 ADD DUP2 SWAP1 DIV DUP2 MUL DUP3 ADD DUP2 ADD SWAP1 SWAP3 MSTORE DUP6 DUP2 MSTORE SWAP2 DUP2 ADD SWAP2 SWAP1 DUP7 SWAP1 DUP7 SWAP1 DUP2 SWAP1 DUP5 ADD DUP4 DUP3 DUP1 DUP3 DUP5 CALLDATACOPY PUSH1 0x0 SWAP3 ADD DUP3 SWAP1 MSTORE POP SWAP4 SWAP1 SWAP5 MSTORE POP POP PUSH1 0x1 PUSH1 0x1 PUSH1 0xA0 SHL SUB DUP15 AND DUP2 MSTORE PUSH1 0x1 PUSH1 0x20 MSTORE PUSH1 0x40 SWAP1 KECCAK256 DUP3 MLOAD PUSH1 0x2 SWAP1 SWAP2 ADD SWAP2 POP DUP2 SWAP1 PUSH2 0x4774 SWAP1 DUP3 PUSH2 0x547A JUMP JUMPDEST POP PUSH1 0x20 DUP3 ADD MLOAD PUSH1 0x1 DUP3 ADD SWAP1 PUSH2 0x4789 SWAP1 DUP3 PUSH2 0x547A JUMP JUMPDEST POP PUSH1 0x40 DUP3 ADD MLOAD PUSH1 0x2 DUP3 ADD SWAP1 PUSH2 0x479E SWAP1 DUP3 PUSH2 0x547A JUMP JUMPDEST POP PUSH1 0x60 DUP3 ADD MLOAD PUSH1 0x3 DUP3 ADD SWAP1 PUSH2 0x47B3 SWAP1 DUP3 PUSH2 0x547A JUMP JUMPDEST POP PUSH1 0x1 SWAP14 SWAP13 POP POP POP POP POP POP POP POP POP POP POP POP POP JUMP JUMPDEST PUSH1 0x1 PUSH1 0x1 PUSH1 0xA0 SHL SUB DUP3 AND PUSH1 0x0 SWAP1 DUP2 MSTORE PUSH1 0x9 PUSH1 0x20 MSTORE PUSH1 0x40 DUP2 KECCAK256 SLOAD PUSH1 0xFF AND ISZERO PUSH2 0x47F0 JUMPI POP PUSH1 0x1 PUSH2 0x3099 JUMP JUMPDEST PUSH1 0x3 SLOAD PUSH1 0x65 GT ISZERO PUSH2 0x488F JUMPI PUSH1 0x3 DUP1 SLOAD PUSH1 0x1 DUP1 DUP3 ADD SWAP1 SWAP3 SSTORE PUSH32 0xC2575A0E9E593C00F959F8C92F12DB2869C3395A3B0502D05E2516446F71F85B ADD DUP1 SLOAD PUSH1 0x1 PUSH1 0x1 PUSH1 0xA0 SHL SUB NOT AND PUSH1 0x1 PUSH1 0x1 PUSH1 0xA0 SHL SUB DUP7 AND SWAP1 DUP2 OR SWAP1 SWAP2 SSTORE PUSH1 0x0 DUP2 DUP2 MSTORE PUSH1 0x9 PUSH1 0x20 MSTORE PUSH1 0x40 DUP1 DUP3 KECCAK256 DUP1 SLOAD PUSH1 0xFF NOT AND SWAP1 SWAP5 OR SWAP1 SWAP4 SSTORE SWAP2 MLOAD SWAP1 SWAP2 PUSH32 0x3200B283524EC389117B5F97A240B03A9A72A036996087FD6E65404E5EC52FD3 SWAP2 LOG2 POP PUSH1 0x1 PUSH2 0x3099 JUMP JUMPDEST PUSH1 0x0 PUSH1 0x1 PUSH1 0x0 PUSH1 0x3 PUSH1 0x0 DUP2 SLOAD DUP2 LT PUSH2 0x48A9 JUMPI PUSH2 0x48A9 PUSH2 0x5176 JUMP JUMPDEST PUSH1 0x0 SWAP2 DUP3 MSTORE PUSH1 0x20 DUP1 DUP4 KECCAK256 SWAP1 SWAP2 ADD SLOAD PUSH1 0x1 PUSH1 0x1 PUSH1 0xA0 SHL SUB AND DUP4 MSTORE DUP3 ADD SWAP3 SWAP1 SWAP3 MSTORE PUSH1 0x40 ADD DUP2 KECCAK256 PUSH1 0x1 SWAP1 DUP2 ADD SLOAD SWAP3 POP JUMPDEST PUSH1 0x3 SLOAD DUP2 LT ISZERO PUSH2 0x497D JUMPI DUP3 PUSH1 0x1 PUSH1 0x0 PUSH1 0x3 DUP5 DUP2 SLOAD DUP2 LT PUSH2 0x48F8 JUMPI PUSH2 0x48F8 PUSH2 0x5176 JUMP JUMPDEST PUSH1 0x0 SWAP2 DUP3 MSTORE PUSH1 0x20 DUP1 DUP4 KECCAK256 SWAP1 SWAP2 ADD SLOAD PUSH1 0x1 PUSH1 0x1 PUSH1 0xA0 SHL SUB AND DUP4 MSTORE DUP3 ADD SWAP3 SWAP1 SWAP3 MSTORE PUSH1 0x40 ADD SWAP1 KECCAK256 PUSH1 0x1 ADD SLOAD LT ISZERO PUSH2 0x496B JUMPI PUSH1 0x1 PUSH1 0x0 PUSH1 0x3 DUP4 DUP2 SLOAD DUP2 LT PUSH2 0x493D JUMPI PUSH2 0x493D PUSH2 0x5176 JUMP JUMPDEST PUSH1 0x0 SWAP2 DUP3 MSTORE PUSH1 0x20 DUP1 DUP4 KECCAK256 SWAP1 SWAP2 ADD SLOAD PUSH1 0x1 PUSH1 0x1 PUSH1 0xA0 SHL SUB AND DUP4 MSTORE DUP3 ADD SWAP3 SWAP1 SWAP3 MSTORE PUSH1 0x40 ADD SWAP1 KECCAK256 PUSH1 0x1 ADD SLOAD SWAP3 POP SWAP1 POP DUP1 JUMPDEST DUP1 PUSH2 0x4975 DUP2 PUSH2 0x518C JUMP JUMPDEST SWAP2 POP POP PUSH2 0x48D6 JUMP JUMPDEST POP DUP2 DUP5 GT PUSH2 0x4990 JUMPI PUSH1 0x0 SWAP3 POP POP POP PUSH2 0x3099 JUMP JUMPDEST PUSH1 0x3 DUP2 DUP2 SLOAD DUP2 LT PUSH2 0x49A3 JUMPI PUSH2 0x49A3 PUSH2 0x5176 JUMP JUMPDEST PUSH1 0x0 SWAP2 DUP3 MSTORE PUSH1 0x20 DUP3 KECCAK256 ADD SLOAD PUSH1 0x40 MLOAD PUSH1 0x1 PUSH1 0x1 PUSH1 0xA0 SHL SUB SWAP1 SWAP2 AND SWAP2 PUSH32 0x4FC54CDA221FAFC19BAAE2A4C79AE99DD0916C88B67AB97D3122A5AFE333FC1D SWAP2 LOG2 PUSH1 0x0 PUSH1 0x9 PUSH1 0x0 PUSH1 0x3 DUP5 DUP2 SLOAD DUP2 LT PUSH2 0x49F9 JUMPI PUSH2 0x49F9 PUSH2 0x5176 JUMP JUMPDEST PUSH1 0x0 SWAP2 DUP3 MSTORE PUSH1 0x20 DUP1 DUP4 KECCAK256 SWAP2 SWAP1 SWAP2 ADD SLOAD PUSH1 0x1 PUSH1 0x1 PUSH1 0xA0 SHL SUB AND DUP4 MSTORE DUP3 ADD SWAP3 SWAP1 SWAP3 MSTORE PUSH1 0x40 ADD SWAP1 KECCAK256 DUP1 SLOAD PUSH1 0xFF NOT AND SWAP2 ISZERO ISZERO SWAP2 SWAP1 SWAP2 OR SWAP1 SSTORE PUSH1 0x3 DUP1 SLOAD DUP7 SWAP2 SWAP1 DUP4 SWAP1 DUP2 LT PUSH2 0x4A44 JUMPI PUSH2 0x4A44 PUSH2 0x5176 JUMP JUMPDEST PUSH1 0x0 SWAP2 DUP3 MSTORE PUSH1 0x20 DUP1 DUP4 KECCAK256 SWAP2 SWAP1 SWAP2 ADD DUP1 SLOAD PUSH1 0x1 PUSH1 0x1 PUSH1 0xA0 SHL SUB NOT AND PUSH1 0x1 PUSH1 0x1 PUSH1 0xA0 SHL SUB SWAP5 DUP6 AND OR SWAP1 SSTORE SWAP2 DUP8 AND DUP1 DUP3 MSTORE PUSH1 0x9 SWAP1 SWAP3 MSTORE PUSH1 0x40 DUP1 DUP3 KECCAK256 DUP1 SLOAD PUSH1 0xFF NOT AND PUSH1 0x1 OR SWAP1 SSTORE MLOAD PUSH32 0x3200B283524EC389117B5F97A240B03A9A72A036996087FD6E65404E5EC52FD3 SWAP2 SWAP1 LOG2 POP PUSH1 0x1 SWAP5 SWAP4 POP POP POP POP JUMP JUMPDEST DUP3 DUP1 SLOAD DUP3 DUP3 SSTORE SWAP1 PUSH1 0x0 MSTORE PUSH1 0x20 PUSH1 0x0 KECCAK256 SWAP1 DUP2 ADD SWAP3 DUP3 ISZERO PUSH2 0x4AF7 JUMPI PUSH1 0x0 MSTORE PUSH1 0x20 PUSH1 0x0 KECCAK256 SWAP2 DUP3 ADD JUMPDEST DUP3 DUP2 GT ISZERO PUSH2 0x4AF7 JUMPI DUP3 SLOAD DUP3 SSTORE SWAP2 PUSH1 0x1 ADD SWAP2 SWAP1 PUSH1 0x1 ADD SWAP1 PUSH2 0x4ADC JUMP JUMPDEST POP PUSH2 0x4B03 SWAP3 SWAP2 POP PUSH2 0x4B07 JUMP JUMPDEST POP SWAP1 JUMP JUMPDEST JUMPDEST DUP1 DUP3 GT ISZERO PUSH2 0x4B03 JUMPI PUSH1 0x0 DUP2 SSTORE PUSH1 0x1 ADD PUSH2 0x4B08 JUMP JUMPDEST PUSH1 0x1 PUSH1 0x1 PUSH1 0xA0 SHL SUB DUP2 AND DUP2 EQ PUSH2 0x1368 JUMPI PUSH1 0x0 DUP1 REVERT JUMPDEST PUSH1 0x0 PUSH1 0x20 DUP3 DUP5 SUB SLT ISZERO PUSH2 0x4B43 JUMPI PUSH1 0x0 DUP1 REVERT JUMPDEST DUP2 CALLDATALOAD PUSH2 0x4B4E DUP2 PUSH2 0x4B1C JUMP JUMPDEST SWAP4 SWAP3 POP POP POP JUMP JUMPDEST PUSH1 0x0 PUSH1 0x20 DUP3 DUP5 SUB SLT ISZERO PUSH2 0x4B67 JUMPI PUSH1 0x0 DUP1 REVERT JUMPDEST POP CALLDATALOAD SWAP2 SWAP1 POP JUMP JUMPDEST PUSH1 0x1 PUSH1 0x1 PUSH1 0xA0 SHL SUB SWAP2 SWAP1 SWAP2 AND DUP2 MSTORE PUSH1 0x20 ADD SWAP1 JUMP JUMPDEST PUSH1 0x0 DUP2 MLOAD DUP1 DUP5 MSTORE PUSH1 0x20 DUP1 DUP6 ADD SWAP5 POP DUP1 DUP5 ADD PUSH1 0x0 JUMPDEST DUP4 DUP2 LT ISZERO PUSH2 0x4BBB JUMPI DUP2 MLOAD PUSH1 0x1 PUSH1 0x1 PUSH1 0xA0 SHL SUB AND DUP8 MSTORE SWAP6 DUP3 ADD SWAP6 SWAP1 DUP3 ADD SWAP1 PUSH1 0x1 ADD PUSH2 0x4B96 JUMP JUMPDEST POP SWAP5 SWAP6 SWAP5 POP POP POP POP POP JUMP JUMPDEST PUSH1 0x60 DUP2 MSTORE PUSH1 0x0 PUSH2 0x4BD9 PUSH1 0x60 DUP4 ADD DUP7 PUSH2 0x4B82 JUMP JUMPDEST DUP3 DUP2 SUB PUSH1 0x20 DUP5 DUP2 ADD SWAP2 SWAP1 SWAP2 MSTORE DUP6 MLOAD DUP1 DUP4 MSTORE DUP7 DUP3 ADD SWAP3 DUP3 ADD SWAP1 PUSH1 0x0 JUMPDEST DUP2 DUP2 LT ISZERO PUSH2 0x4C10 JUMPI DUP5 MLOAD DUP4 MSTORE SWAP4 DUP4 ADD SWAP4 SWAP2 DUP4 ADD SWAP2 PUSH1 0x1 ADD PUSH2 0x4BF4 JUMP JUMPDEST POP POP DUP1 SWAP4 POP POP POP POP DUP3 PUSH1 0x40 DUP4 ADD MSTORE SWAP5 SWAP4 POP POP POP POP JUMP JUMPDEST PUSH4 0x4E487B71 PUSH1 0xE0 SHL PUSH1 0x0 MSTORE PUSH1 0x21 PUSH1 0x4 MSTORE PUSH1 0x24 PUSH1 0x0 REVERT JUMPDEST PUSH1 0x5 DUP2 LT PUSH2 0x4C5A JUMPI PUSH4 0x4E487B71 PUSH1 0xE0 SHL PUSH1 0x0 MSTORE PUSH1 0x21 PUSH1 0x4 MSTORE PUSH1 0x24 PUSH1 0x0 REVERT JUMPDEST SWAP1 MSTORE JUMP JUMPDEST PUSH1 0x0 DUP2 MLOAD DUP1 DUP5 MSTORE PUSH1 0x0 JUMPDEST DUP2 DUP2 LT ISZERO PUSH2 0x4C84 JUMPI PUSH1 0x20 DUP2 DUP6 ADD DUP2 ADD MLOAD DUP7 DUP4 ADD DUP3 ADD MSTORE ADD PUSH2 0x4C68 JUMP JUMPDEST POP PUSH1 0x0 PUSH1 0x20 DUP3 DUP7 ADD ADD MSTORE PUSH1 0x20 PUSH1 0x1F NOT PUSH1 0x1F DUP4 ADD AND DUP6 ADD ADD SWAP2 POP POP SWAP3 SWAP2 POP POP JUMP JUMPDEST PUSH1 0x1 PUSH1 0x1 PUSH1 0xA0 SHL SUB DUP13 AND DUP2 MSTORE PUSH1 0x0 PUSH2 0x160 PUSH2 0x4CC2 PUSH1 0x20 DUP5 ADD DUP15 PUSH2 0x4C3C JUMP JUMPDEST DUP12 PUSH1 0x40 DUP5 ADD MSTORE DUP1 PUSH1 0x60 DUP5 ADD MSTORE DUP11 MLOAD PUSH1 0x80 DUP3 DUP6 ADD MSTORE PUSH2 0x4CE4 PUSH2 0x1E0 DUP6 ADD DUP3 PUSH2 0x4C5E JUMP JUMPDEST SWAP2 POP POP PUSH1 0x20 DUP12 ADD MLOAD PUSH2 0x15F NOT DUP1 DUP6 DUP5 SUB ADD PUSH2 0x180 DUP7 ADD MSTORE PUSH2 0x4D05 DUP4 DUP4 PUSH2 0x4C5E JUMP JUMPDEST SWAP3 POP PUSH1 0x40 DUP14 ADD MLOAD SWAP2 POP DUP1 DUP6 DUP5 SUB ADD PUSH2 0x1A0 DUP7 ADD MSTORE PUSH2 0x4D23 DUP4 DUP4 PUSH2 0x4C5E JUMP JUMPDEST SWAP3 POP PUSH1 0x60 DUP14 ADD MLOAD SWAP2 POP DUP1 DUP6 DUP5 SUB ADD PUSH2 0x1C0 DUP7 ADD MSTORE POP PUSH2 0x4D42 DUP3 DUP3 PUSH2 0x4C5E JUMP JUMPDEST PUSH1 0x80 DUP6 ADD SWAP12 SWAP1 SWAP12 MSTORE POP POP POP PUSH1 0xA0 DUP2 ADD SWAP7 SWAP1 SWAP7 MSTORE PUSH1 0xC0 DUP7 ADD SWAP5 SWAP1 SWAP5 MSTORE PUSH1 0xE0 DUP6 ADD SWAP3 SWAP1 SWAP3 MSTORE PUSH2 0x100 DUP5 ADD MSTORE PUSH2 0x120 DUP4 ADD MSTORE PUSH2 0x140 SWAP1 SWAP2 ADD MSTORE SWAP5 SWAP4 POP POP POP POP JUMP JUMPDEST PUSH1 0x0 DUP1 PUSH1 0x40 DUP4 DUP6 SUB SLT ISZERO PUSH2 0x4D93 JUMPI PUSH1 0x0 DUP1 REVERT JUMPDEST DUP3 CALLDATALOAD PUSH2 0x4D9E DUP2 PUSH2 0x4B1C JUMP JUMPDEST SWAP2 POP PUSH1 0x20 DUP4 ADD CALLDATALOAD PUSH2 0x4DAE DUP2 PUSH2 0x4B1C JUMP JUMPDEST DUP1 SWAP2 POP POP SWAP3 POP SWAP3 SWAP1 POP JUMP JUMPDEST PUSH1 0x1 PUSH1 0x1 PUSH1 0xA0 SHL SUB DUP9 AND DUP2 MSTORE PUSH2 0x4DD2 PUSH1 0x20 DUP3 ADD DUP9 PUSH2 0x4C3C JUMP JUMPDEST DUP6 PUSH1 0x40 DUP3 ADD MSTORE DUP5 PUSH1 0x60 DUP3 ADD MSTORE DUP4 PUSH1 0x80 DUP3 ADD MSTORE DUP3 PUSH1 0xA0 DUP3 ADD MSTORE PUSH1 0xE0 PUSH1 0xC0 DUP3 ADD MSTORE PUSH1 0x0 PUSH2 0x1D9A PUSH1 0xE0 DUP4 ADD DUP5 PUSH2 0x4B82 JUMP JUMPDEST PUSH1 0x20 DUP2 MSTORE PUSH1 0x0 PUSH2 0x4B4E PUSH1 0x20 DUP4 ADD DUP5 PUSH2 0x4B82 JUMP JUMPDEST PUSH1 0x0 DUP1 DUP4 PUSH1 0x1F DUP5 ADD SLT PUSH2 0x4E25 JUMPI PUSH1 0x0 DUP1 REVERT JUMPDEST POP DUP2 CALLDATALOAD PUSH1 0x1 PUSH1 0x1 PUSH1 0x40 SHL SUB DUP2 GT ISZERO PUSH2 0x4E3C JUMPI PUSH1 0x0 DUP1 REVERT JUMPDEST PUSH1 0x20 DUP4 ADD SWAP2 POP DUP4 PUSH1 0x20 DUP3 DUP6 ADD ADD GT ISZERO PUSH2 0x4E54 JUMPI PUSH1 0x0 DUP1 REVERT JUMPDEST SWAP3 POP SWAP3 SWAP1 POP JUMP JUMPDEST PUSH1 0x0 DUP1 PUSH1 0x0 DUP1 PUSH1 0x0 DUP1 PUSH1 0x0 DUP1 PUSH1 0x0 PUSH1 0xA0 DUP11 DUP13 SUB SLT ISZERO PUSH2 0x4E79 JUMPI PUSH1 0x0 DUP1 REVERT JUMPDEST DUP10 CALLDATALOAD PUSH2 0x4E84 DUP2 PUSH2 0x4B1C JUMP JUMPDEST SWAP9 POP PUSH1 0x20 DUP11 ADD CALLDATALOAD PUSH1 0x1 PUSH1 0x1 PUSH1 0x40 SHL SUB DUP1 DUP3 GT ISZERO PUSH2 0x4EA0 JUMPI PUSH1 0x0 DUP1 REVERT JUMPDEST PUSH2 0x4EAC DUP14 DUP4 DUP15 ADD PUSH2 0x4E13 JUMP JUMPDEST SWAP1 SWAP11 POP SWAP9 POP PUSH1 0x40 DUP13 ADD CALLDATALOAD SWAP2 POP DUP1 DUP3 GT ISZERO PUSH2 0x4EC5 JUMPI PUSH1 0x0 DUP1 REVERT JUMPDEST PUSH2 0x4ED1 DUP14 DUP4 DUP15 ADD PUSH2 0x4E13 JUMP JUMPDEST SWAP1 SWAP9 POP SWAP7 POP PUSH1 0x60 DUP13 ADD CALLDATALOAD SWAP2 POP DUP1 DUP3 GT ISZERO PUSH2 0x4EEA JUMPI PUSH1 0x0 DUP1 REVERT JUMPDEST PUSH2 0x4EF6 DUP14 DUP4 DUP15 ADD PUSH2 0x4E13 JUMP JUMPDEST SWAP1 SWAP7 POP SWAP5 POP PUSH1 0x80 DUP13 ADD CALLDATALOAD SWAP2 POP DUP1 DUP3 GT ISZERO PUSH2 0x4F0F JUMPI PUSH1 0x0 DUP1 REVERT JUMPDEST POP PUSH2 0x4F1C DUP13 DUP3 DUP14 ADD PUSH2 0x4E13 JUMP JUMPDEST SWAP2 POP DUP1 SWAP4 POP POP DUP1 SWAP2 POP POP SWAP3 SWAP6 SWAP9 POP SWAP3 SWAP6 SWAP9 POP SWAP3 SWAP6 SWAP9 JUMP JUMPDEST PUSH1 0x0 DUP1 PUSH1 0x20 DUP4 DUP6 SUB SLT ISZERO PUSH2 0x4F46 JUMPI PUSH1 0x0 DUP1 REVERT JUMPDEST DUP3 CALLDATALOAD PUSH1 0x1 PUSH1 0x1 PUSH1 0x40 SHL SUB DUP1 DUP3 GT ISZERO PUSH2 0x4F5D JUMPI PUSH1 0x0 DUP1 REVERT JUMPDEST DUP2 DUP6 ADD SWAP2 POP DUP6 PUSH1 0x1F DUP4 ADD SLT PUSH2 0x4F71 JUMPI PUSH1 0x0 DUP1 REVERT JUMPDEST DUP2 CALLDATALOAD DUP2 DUP2 GT ISZERO PUSH2 0x4F80 JUMPI PUSH1 0x0 DUP1 REVERT JUMPDEST DUP7 PUSH1 0x20 DUP3 PUSH1 0x5 SHL DUP6 ADD ADD GT ISZERO PUSH2 0x4F95 JUMPI PUSH1 0x0 DUP1 REVERT JUMPDEST PUSH1 0x20 SWAP3 SWAP1 SWAP3 ADD SWAP7 SWAP2 SWAP6 POP SWAP1 SWAP4 POP POP POP POP JUMP JUMPDEST PUSH1 0x80 DUP2 MSTORE PUSH1 0x0 PUSH2 0x4FBA PUSH1 0x80 DUP4 ADD DUP8 PUSH2 0x4C5E JUMP JUMPDEST DUP3 DUP2 SUB PUSH1 0x20 DUP5 ADD MSTORE PUSH2 0x4FCC DUP2 DUP8 PUSH2 0x4C5E JUMP JUMPDEST SWAP1 POP DUP3 DUP2 SUB PUSH1 0x40 DUP5 ADD MSTORE PUSH2 0x4FE0 DUP2 DUP7 PUSH2 0x4C5E JUMP JUMPDEST SWAP1 POP DUP3 DUP2 SUB PUSH1 0x60 DUP5 ADD MSTORE PUSH2 0x4FF4 DUP2 DUP6 PUSH2 0x4C5E JUMP JUMPDEST SWAP8 SWAP7 POP POP POP POP POP POP POP JUMP JUMPDEST PUSH4 0x4E487B71 PUSH1 0xE0 SHL PUSH1 0x0 MSTORE PUSH1 0x41 PUSH1 0x4 MSTORE PUSH1 0x24 PUSH1 0x0 REVERT JUMPDEST PUSH1 0x0 DUP3 PUSH1 0x1F DUP4 ADD SLT PUSH2 0x5026 JUMPI PUSH1 0x0 DUP1 REVERT JUMPDEST DUP2 CALLDATALOAD PUSH1 0x1 PUSH1 0x1 PUSH1 0x40 SHL SUB DUP1 DUP3 GT ISZERO PUSH2 0x5040 JUMPI PUSH2 0x5040 PUSH2 0x4FFF JUMP JUMPDEST PUSH1 0x40 MLOAD PUSH1 0x1F DUP4 ADD PUSH1 0x1F NOT SWAP1 DUP2 AND PUSH1 0x3F ADD AND DUP2 ADD SWAP1 DUP3 DUP3 GT DUP2 DUP4 LT OR ISZERO PUSH2 0x5068 JUMPI PUSH2 0x5068 PUSH2 0x4FFF JUMP JUMPDEST DUP2 PUSH1 0x40 MSTORE DUP4 DUP2 MSTORE DUP7 PUSH1 0x20 DUP6 DUP9 ADD ADD GT ISZERO PUSH2 0x5081 JUMPI PUSH1 0x0 DUP1 REVERT JUMPDEST DUP4 PUSH1 0x20 DUP8 ADD PUSH1 0x20 DUP4 ADD CALLDATACOPY PUSH1 0x0 PUSH1 0x20 DUP6 DUP4 ADD ADD MSTORE DUP1 SWAP5 POP POP POP POP POP SWAP3 SWAP2 POP POP JUMP JUMPDEST PUSH1 0x0 DUP1 PUSH1 0x0 DUP1 PUSH1 0x80 DUP6 DUP8 SUB SLT ISZERO PUSH2 0x50B7 JUMPI PUSH1 0x0 DUP1 REVERT JUMPDEST DUP5 CALLDATALOAD PUSH1 0x1 PUSH1 0x1 PUSH1 0x40 SHL SUB DUP1 DUP3 GT ISZERO PUSH2 0x50CE JUMPI PUSH1 0x0 DUP1 REVERT JUMPDEST PUSH2 0x50DA DUP9 DUP4 DUP10 ADD PUSH2 0x5015 JUMP JUMPDEST SWAP6 POP PUSH1 0x20 DUP8 ADD CALLDATALOAD SWAP2 POP DUP1 DUP3 GT ISZERO PUSH2 0x50F0 JUMPI PUSH1 0x0 DUP1 REVERT JUMPDEST PUSH2 0x50FC DUP9 DUP4 DUP10 ADD PUSH2 0x5015 JUMP JUMPDEST SWAP5 POP PUSH1 0x40 DUP8 ADD CALLDATALOAD SWAP2 POP DUP1 DUP3 GT ISZERO PUSH2 0x5112 JUMPI PUSH1 0x0 DUP1 REVERT JUMPDEST PUSH2 0x511E DUP9 DUP4 DUP10 ADD PUSH2 0x5015 JUMP JUMPDEST SWAP4 POP PUSH1 0x60 DUP8 ADD CALLDATALOAD SWAP2 POP DUP1 DUP3 GT ISZERO PUSH2 0x5134 JUMPI PUSH1 0x0 DUP1 REVERT JUMPDEST POP PUSH2 0x5141 DUP8 DUP3 DUP9 ADD PUSH2 0x5015 JUMP JUMPDEST SWAP2 POP POP SWAP3 SWAP6 SWAP2 SWAP5 POP SWAP3 POP JUMP JUMPDEST PUSH4 0x4E487B71 PUSH1 0xE0 SHL PUSH1 0x0 MSTORE PUSH1 0x11 PUSH1 0x4 MSTORE PUSH1 0x24 PUSH1 0x0 REVERT JUMPDEST DUP2 DUP2 SUB DUP2 DUP2 GT ISZERO PUSH2 0x3099 JUMPI PUSH2 0x3099 PUSH2 0x514D JUMP JUMPDEST PUSH4 0x4E487B71 PUSH1 0xE0 SHL PUSH1 0x0 MSTORE PUSH1 0x32 PUSH1 0x4 MSTORE PUSH1 0x24 PUSH1 0x0 REVERT JUMPDEST PUSH1 0x0 PUSH1 0x1 DUP3 ADD PUSH2 0x519E JUMPI PUSH2 0x519E PUSH2 0x514D JUMP JUMPDEST POP PUSH1 0x1 ADD SWAP1 JUMP JUMPDEST PUSH1 0x20 DUP1 DUP3 MSTORE PUSH1 0x9 SWAP1 DUP3 ADD MSTORE PUSH9 0x139BDD08195E1A5CDD PUSH1 0xBA SHL PUSH1 0x40 DUP3 ADD MSTORE PUSH1 0x60 ADD SWAP1 JUMP JUMPDEST DUP1 DUP3 ADD DUP1 DUP3 GT ISZERO PUSH2 0x3099 JUMPI PUSH2 0x3099 PUSH2 0x514D JUMP JUMPDEST PUSH1 0x20 DUP1 DUP3 MSTORE PUSH1 0x8 SWAP1 DUP3 ADD MSTORE PUSH8 0x4E6F207374616B65 PUSH1 0xC0 SHL PUSH1 0x40 DUP3 ADD MSTORE PUSH1 0x60 ADD SWAP1 JUMP JUMPDEST PUSH1 0x20 DUP1 DUP3 MSTORE PUSH1 0x19 SWAP1 DUP3 ADD MSTORE PUSH25 0x1D1A194818DBDB9D1C9858DD081B9BDD081A5B9A5D081E595D PUSH1 0x3A SHL PUSH1 0x40 DUP3 ADD MSTORE PUSH1 0x60 ADD SWAP1 JUMP JUMPDEST PUSH1 0x20 DUP1 DUP3 MSTORE PUSH1 0x12 SWAP1 DUP3 ADD MSTORE PUSH18 0x10DBDB9D1C9858DD081A5CC81C185D5CD959 PUSH1 0x72 SHL PUSH1 0x40 DUP3 ADD MSTORE PUSH1 0x60 ADD SWAP1 JUMP JUMPDEST PUSH1 0x20 DUP1 DUP3 MSTORE PUSH1 0x21 SWAP1 DUP3 ADD MSTORE PUSH32 0x4F6E6C792061646D696E2063616E2063616C6C20746869732066756E6374696F PUSH1 0x40 DUP3 ADD MSTORE PUSH1 0x37 PUSH1 0xF9 SHL PUSH1 0x60 DUP3 ADD MSTORE PUSH1 0x80 ADD SWAP1 JUMP JUMPDEST DUP1 DUP3 MUL DUP2 ISZERO DUP3 DUP3 DIV DUP5 EQ OR PUSH2 0x3099 JUMPI PUSH2 0x3099 PUSH2 0x514D JUMP JUMPDEST PUSH4 0x4E487B71 PUSH1 0xE0 SHL PUSH1 0x0 MSTORE PUSH1 0x12 PUSH1 0x4 MSTORE PUSH1 0x24 PUSH1 0x0 REVERT JUMPDEST PUSH1 0x0 DUP3 PUSH2 0x52D9 JUMPI PUSH2 0x52D9 PUSH2 0x52B4 JUMP JUMPDEST POP DIV SWAP1 JUMP JUMPDEST PUSH1 0x1 DUP2 DUP2 SHR SWAP1 DUP3 AND DUP1 PUSH2 0x52F2 JUMPI PUSH1 0x7F DUP3 AND SWAP2 POP JUMPDEST PUSH1 0x20 DUP3 LT DUP2 SUB PUSH2 0x5312 JUMPI PUSH4 0x4E487B71 PUSH1 0xE0 SHL PUSH1 0x0 MSTORE PUSH1 0x22 PUSH1 0x4 MSTORE PUSH1 0x24 PUSH1 0x0 REVERT JUMPDEST POP SWAP2 SWAP1 POP JUMP JUMPDEST PUSH1 0x20 DUP1 DUP3 MSTORE PUSH1 0x2D SWAP1 DUP3 ADD MSTORE PUSH32 0x746865206D6573736167652073656E646572206D757374206265207468652062 PUSH1 0x40 DUP3 ADD MSTORE PUSH13 0x3637B1B590383937B23AB1B2B9 PUSH1 0x99 SHL PUSH1 0x60 DUP3 ADD MSTORE PUSH1 0x80 ADD SWAP1 JUMP JUMPDEST PUSH1 0x0 DUP3 PUSH2 0x5374 JUMPI PUSH2 0x5374 PUSH2 0x52B4 JUMP JUMPDEST POP MOD SWAP1 JUMP JUMPDEST PUSH1 0x20 DUP1 DUP3 MSTORE PUSH1 0x10 SWAP1 DUP3 ADD MSTORE PUSH16 0x426C6F636B2065706F6368206F6E6C79 PUSH1 0x80 SHL PUSH1 0x40 DUP3 ADD MSTORE PUSH1 0x60 ADD SWAP1 JUMP JUMPDEST PUSH1 0x20 DUP1 DUP3 MSTORE DUP3 SLOAD DUP3 DUP3 ADD DUP2 SWAP1 MSTORE PUSH1 0x0 DUP5 DUP2 MSTORE DUP3 DUP2 KECCAK256 SWAP1 SWAP3 SWAP2 PUSH1 0x40 DUP6 ADD SWAP1 DUP5 JUMPDEST DUP2 DUP2 LT ISZERO PUSH2 0x53E7 JUMPI DUP4 SLOAD PUSH1 0x1 PUSH1 0x1 PUSH1 0xA0 SHL SUB AND DUP4 MSTORE PUSH1 0x1 SWAP4 DUP5 ADD SWAP4 SWAP3 DUP6 ADD SWAP3 ADD PUSH2 0x53C2 JUMP JUMPDEST POP SWAP1 SWAP7 SWAP6 POP POP POP POP POP POP JUMP JUMPDEST PUSH1 0x0 PUSH1 0x20 DUP3 DUP5 SUB SLT ISZERO PUSH2 0x5405 JUMPI PUSH1 0x0 DUP1 REVERT JUMPDEST DUP2 MLOAD DUP1 ISZERO ISZERO DUP2 EQ PUSH2 0x4B4E JUMPI PUSH1 0x0 DUP1 REVERT JUMPDEST PUSH4 0x4E487B71 PUSH1 0xE0 SHL PUSH1 0x0 MSTORE PUSH1 0x31 PUSH1 0x4 MSTORE PUSH1 0x24 PUSH1 0x0 REVERT JUMPDEST PUSH1 0x1F DUP3 GT ISZERO PUSH2 0x5475 JUMPI PUSH1 0x0 DUP2 DUP2 MSTORE PUSH1 0x20 DUP2 KECCAK256 PUSH1 0x1F DUP6 ADD PUSH1 0x5 SHR DUP2 ADD PUSH1 0x20 DUP7 LT ISZERO PUSH2 0x5452 JUMPI POP DUP1 JUMPDEST PUSH1 0x1F DUP6 ADD PUSH1 0x5 SHR DUP3 ADD SWAP2 POP JUMPDEST DUP2 DUP2 LT ISZERO PUSH2 0x5471 JUMPI DUP3 DUP2 SSTORE PUSH1 0x1 ADD PUSH2 0x545E JUMP JUMPDEST POP POP POP JUMPDEST POP POP POP JUMP JUMPDEST DUP2 MLOAD PUSH1 0x1 PUSH1 0x1 PUSH1 0x40 SHL SUB DUP2 GT ISZERO PUSH2 0x5493 JUMPI PUSH2 0x5493 PUSH2 0x4FFF JUMP JUMPDEST PUSH2 0x54A7 DUP2 PUSH2 0x54A1 DUP5 SLOAD PUSH2 0x52DE JUMP JUMPDEST DUP5 PUSH2 0x542B JUMP JUMPDEST PUSH1 0x20 DUP1 PUSH1 0x1F DUP4 GT PUSH1 0x1 DUP2 EQ PUSH2 0x54DC JUMPI PUSH1 0x0 DUP5 ISZERO PUSH2 0x54C4 JUMPI POP DUP6 DUP4 ADD MLOAD JUMPDEST PUSH1 0x0 NOT PUSH1 0x3 DUP7 SWAP1 SHL SHR NOT AND PUSH1 0x1 DUP6 SWAP1 SHL OR DUP6 SSTORE PUSH2 0x5471 JUMP JUMPDEST PUSH1 0x0 DUP6 DUP2 MSTORE PUSH1 0x20 DUP2 KECCAK256 PUSH1 0x1F NOT DUP7 AND SWAP2 JUMPDEST DUP3 DUP2 LT ISZERO PUSH2 0x550B JUMPI DUP9 DUP7 ADD MLOAD DUP3 SSTORE SWAP5 DUP5 ADD SWAP5 PUSH1 0x1 SWAP1 SWAP2 ADD SWAP1 DUP5 ADD PUSH2 0x54EC JUMP JUMPDEST POP DUP6 DUP3 LT ISZERO PUSH2 0x5529 JUMPI DUP8 DUP6 ADD MLOAD PUSH1 0x0 NOT PUSH1 0x3 DUP9 SWAP1 SHL PUSH1 0xF8 AND SHR NOT AND DUP2 SSTORE JUMPDEST POP POP POP POP POP PUSH1 0x1 SWAP1 DUP2 SHL ADD SWAP1 SSTORE POP JUMP INVALID LOG1 PUSH5 0x736F6C6343 STOP ADDMOD SGT STOP EXP "},"methodIdentifiers":{"BlockEpoch()":"e8a3298b","DEFAULT_COMMISSION_RATE()":"b8db983e","MAX_COMMISSION_RATE()":"207239c0","MaxValidatorNum()":"d59070c2","MinimalOfStaking()":"d6056e67","MinimalStakingCoin()":"be645692","SlashContractAddr()":"67239a04","StakingLockPeriod()":"db78dd28","ValidatorContractAddr()":"3a061bd3","ValidatorSlashAmount()":"2bccecfd","WithdrawRewardPeriod()":"db7d5ace","admin()":"f851a440","changeAdmin(address)":"8f283970","claimDelegatorRewards(address)":"1a8d57bc","create(address,string,string,string,string)":"8cab587d","delegatorRewardInfo(address,address)":"a4473f12","distributeBlockReward()":"d6c0edad","edit(address,string,string,string,string)":"9b7fb063","getActivatedValidators()":"b7dc5c40","getPendingDelegatorRewards(address,address)":"c6b6d9ec","getStakingInfo(address,address)":"7f4f95fa","getValidatorCandidate()":"445db4a1","getValidatorDescription(address)":"a43569b3","getValidatorInfo(address)":"8a11d7c9","initialize(address[])":"a224cee7","initialized()":"158ef93e","isJailed(address)":"14bfb527","isValidatorActivated(address)":"1c8b8a3d","isValidatorCandidate(address)":"a0c3f2d2","pause()":"8456cb59","paused()":"5c975abb","slashValidator(address)":"4711f586","stake(address)":"26476204","stakerInfo(address,address)":"8f67e6bb","totalStaking()":"165defa4","unjailed()":"93e71c5f","unpause()":"3f4ba83a","unstake(address)":"f2888dbb","updateActivatedValidators()":"8af0a869","validateDescription(string,string,string,string)":"b7d02ce2","validatorCandidateSet(uint256)":"38a92c76","validatorInfo(address)":"4f1811dd","validatorSet(uint256)":"e64808f3","withdrawRewards(address)":"42d86693","withdrawStaking(address)":"222d3b05"}}}}}