{
  "_format": "hh-sol-artifact-1",
  "contractName": "Validators",
  "sourceName": "contracts/Validators.sol",
  "abi": [
    {
      "anonymous": false,
      "inputs": [
        {
          "indexed": true,
          "internalType": "address",
          "name": "validator",
          "type": "address"
        }
      ],
      "name": "AddToValidatorCandidate",
      "type": "event"
    },
    {
      "anonymous": false,
      "inputs": [
        {
          "indexed": true,
          "internalType": "address",
          "name": "previousAdmin",
          "type": "address"
        },
        {
          "indexed": true,
          "internalType": "address",
          "name": "newAdmin",
          "type": "address"
        }
      ],
      "name": "AdminChanged",
      "type": "event"
    },
    {
      "anonymous": false,
      "inputs": [
        {
          "indexed": true,
          "internalType": "address",
          "name": "delegator",
          "type": "address"
        },
        {
          "indexed": true,
          "internalType": "address",
          "name": "validator",
          "type": "address"
        },
        {
          "indexed": false,
          "internalType": "uint256",
          "name": "amount",
          "type": "uint256"
        }
      ],
      "name": "DelegatorRewardsClaimed",
      "type": "event"
    },
    {
      "anonymous": false,
      "inputs": [],
      "name": "Paused",
      "type": "event"
    },
    {
      "anonymous": false,
      "inputs": [
        {
          "indexed": true,
          "internalType": "address",
          "name": "validator",
          "type": "address"
        }
      ],
      "name": "RemoveFromValidatorCandidate",
      "type": "event"
    },
    {
      "anonymous": false,
      "inputs": [
        {
          "indexed": false,
          "internalType": "address[]",
          "name": "validators",
          "type": "address[]"
        },
        {
          "indexed": false,
          "internalType": "uint256[]",
          "name": "rewards",
          "type": "uint256[]"
        },
        {
          "indexed": false,
          "internalType": "uint256",
          "name": "rewardCount",
          "type": "uint256"
        }
      ],
      "name": "RewardDistributed",
      "type": "event"
    },
    {
      "anonymous": false,
      "inputs": [
        {
          "indexed": true,
          "internalType": "address",
          "name": "staker",
          "type": "address"
        },
        {
          "indexed": true,
          "internalType": "address",
          "name": "validator",
          "type": "address"
        },
        {
          "indexed": false,
          "internalType": "uint256",
          "name": "amount",
          "type": "uint256"
        }
      ],
      "name": "Staking",
      "type": "event"
    },
    {
      "anonymous": false,
      "inputs": [],
      "name": "Unpaused",
      "type": "event"
    },
    {
      "anonymous": false,
      "inputs": [
        {
          "indexed": true,
          "internalType": "address",
          "name": "staker",
          "type": "address"
        },
        {
          "indexed": true,
          "internalType": "address",
          "name": "validator",
          "type": "address"
        },
        {
          "indexed": false,
          "internalType": "uint256",
          "name": "amount",
          "type": "uint256"
        },
        {
          "indexed": false,
          "internalType": "uint256",
          "name": "unLockHeight",
          "type": "uint256"
        }
      ],
      "name": "Unstake",
      "type": "event"
    },
    {
      "anonymous": false,
      "inputs": [
        {
          "indexed": true,
          "internalType": "address",
          "name": "validator",
          "type": "address"
        },
        {
          "indexed": true,
          "internalType": "address",
          "name": "rewardAddr",
          "type": "address"
        }
      ],
      "name": "ValidatorCreated",
      "type": "event"
    },
    {
      "anonymous": false,
      "inputs": [
        {
          "indexed": false,
          "internalType": "address[]",
          "name": "validators",
          "type": "address[]"
        }
      ],
      "name": "ValidatorSetUpdated",
      "type": "event"
    },
    {
      "anonymous": false,
      "inputs": [
        {
          "indexed": true,
          "internalType": "address",
          "name": "validator",
          "type": "address"
        },
        {
          "indexed": false,
          "internalType": "uint256",
          "name": "amount",
          "type": "uint256"
        }
      ],
      "name": "ValidatorSlash",
      "type": "event"
    },
    {
      "anonymous": false,
      "inputs": [
        {
          "indexed": true,
          "internalType": "address",
          "name": "validator",
          "type": "address"
        }
      ],
      "name": "ValidatorUnjailed",
      "type": "event"
    },
    {
      "anonymous": false,
      "inputs": [
        {
          "indexed": true,
          "internalType": "address",
          "name": "validator",
          "type": "address"
        },
        {
          "indexed": true,
          "internalType": "address",
          "name": "rewardAddr",
          "type": "address"
        }
      ],
      "name": "ValidatorUpdated",
      "type": "event"
    },
    {
      "anonymous": false,
      "inputs": [
        {
          "indexed": true,
          "internalType": "address",
          "name": "validator",
          "type": "address"
        },
        {
          "indexed": true,
          "internalType": "address",
          "name": "rewardAddress",
          "type": "address"
        },
        {
          "indexed": false,
          "internalType": "uint256",
          "name": "amount",
          "type": "uint256"
        },
        {
          "indexed": false,
          "internalType": "uint256",
          "name": "nextWithdrawBlock",
          "type": "uint256"
        }
      ],
      "name": "WithdrawRewards",
      "type": "event"
    },
    {
      "anonymous": false,
      "inputs": [
        {
          "indexed": true,
          "internalType": "address",
          "name": "staker",
          "type": "address"
        },
        {
          "indexed": true,
          "internalType": "address",
          "name": "validator",
          "type": "address"
        },
        {
          "indexed": false,
          "internalType": "uint256",
          "name": "amount",
          "type": "uint256"
        }
      ],
      "name": "WithdrawStaking",
      "type": "event"
    },
    {
      "inputs": [],
      "name": "BlockEpoch",
      "outputs": [
        {
          "internalType": "uint256",
          "name": "",
          "type": "uint256"
        }
      ],
      "stateMutability": "view",
      "type": "function"
    },
    {
      "inputs": [],
      "name": "DEFAULT_COMMISSION_RATE",
      "outputs": [
        {
          "internalType": "uint256",
          "name": "",
          "type": "uint256"
        }
      ],
      "stateMutability": "view",
      "type": "function"
    },
    {
      "inputs": [],
      "name": "MAX_COMMISSION_RATE",
      "outputs": [
        {
          "internalType": "uint256",
          "name": "",
          "type": "uint256"
        }
      ],
      "stateMutability": "view",
      "type": "function"
    },
    {
      "inputs": [],
      "name": "MaxValidatorNum",
      "outputs": [
        {
          "internalType": "uint16",
          "name": "",
          "type": "uint16"
        }
      ],
      "stateMutability": "view",
      "type": "function"
    },
    {
      "inputs": [],
      "name": "MinimalOfStaking",
      "outputs": [
        {
          "internalType": "uint256",
          "name": "",
          "type": "uint256"
        }
      ],
      "stateMutability": "view",
      "type": "function"
    },
    {
      "inputs": [],
      "name": "MinimalStakingCoin",
      "outputs": [
        {
          "internalType": "uint256",
          "name": "",
          "type": "uint256"
        }
      ],
      "stateMutability": "view",
      "type": "function"
    },
    {
      "inputs": [],
      "name": "SlashContractAddr",
      "outputs": [
        {
          "internalType": "address",
          "name": "",
          "type": "address"
        }
      ],
      "stateMutability": "view",
      "type": "function"
    },
    {
      "inputs": [],
      "name": "StakingLockPeriod",
      "outputs": [
        {
          "internalType": "uint64",
          "name": "",
          "type": "uint64"
        }
      ],
      "stateMutability": "view",
      "type": "function"
    },
    {
      "inputs": [],
      "name": "ValidatorContractAddr",
      "outputs": [
        {
          "internalType": "address",
          "name": "",
          "type": "address"
        }
      ],
      "stateMutability": "view",
      "type": "function"
    },
    {
      "inputs": [],
      "name": "ValidatorSlashAmount",
      "outputs": [
        {
          "internalType": "uint256",
          "name": "",
          "type": "uint256"
        }
      ],
      "stateMutability": "view",
      "type": "function"
    },
    {
      "inputs": [],
      "name": "WithdrawRewardPeriod",
      "outputs": [
        {
          "internalType": "uint64",
          "name": "",
          "type": "uint64"
        }
      ],
      "stateMutability": "view",
      "type": "function"
    },
    {
      "inputs": [],
      "name": "admin",
      "outputs": [
        {
          "internalType": "address",
          "name": "",
          "type": "address"
        }
      ],
      "stateMutability": "view",
      "type": "function"
    },
    {
      "inputs": [
        {
          "internalType": "address",
          "name": "newAdmin",
          "type": "address"
        }
      ],
      "name": "changeAdmin",
      "outputs": [],
      "stateMutability": "nonpayable",
      "type": "function"
    },
    {
      "inputs": [
        {
          "internalType": "address",
          "name": "validator",
          "type": "address"
        }
      ],
      "name": "claimDelegatorRewards",
      "outputs": [
        {
          "internalType": "bool",
          "name": "",
          "type": "bool"
        }
      ],
      "stateMutability": "nonpayable",
      "type": "function"
    },
    {
      "inputs": [
        {
          "internalType": "address payable",
          "name": "rewardAddr",
          "type": "address"
        },
        {
          "internalType": "string",
          "name": "moniker",
          "type": "string"
        },
        {
          "internalType": "string",
          "name": "website",
          "type": "string"
        },
        {
          "internalType": "string",
          "name": "email",
          "type": "string"
        },
        {
          "internalType": "string",
          "name": "details",
          "type": "string"
        }
      ],
      "name": "create",
      "outputs": [
        {
          "internalType": "bool",
          "name": "",
          "type": "bool"
        }
      ],
      "stateMutability": "payable",
      "type": "function"
    },
    {
      "inputs": [
        {
          "internalType": "address",
          "name": "",
          "type": "address"
        },
        {
          "internalType": "address",
          "name": "",
          "type": "address"
        }
      ],
      "name": "delegatorRewardInfo",
      "outputs": [
        {
          "internalType": "uint256",
          "name": "rewardDebt",
          "type": "uint256"
        },
        {
          "internalType": "uint256",
          "name": "pendingRewards",
          "type": "uint256"
        },
        {
          "internalType": "uint256",
          "name": "lastClaimBlock",
          "type": "uint256"
        }
      ],
      "stateMutability": "view",
      "type": "function"
    },
    {
      "inputs": [],
      "name": "distributeBlockReward",
      "outputs": [],
      "stateMutability": "payable",
      "type": "function"
    },
    {
      "inputs": [
        {
          "internalType": "address payable",
          "name": "rewardAddr",
          "type": "address"
        },
        {
          "internalType": "string",
          "name": "moniker",
          "type": "string"
        },
        {
          "internalType": "string",
          "name": "website",
          "type": "string"
        },
        {
          "internalType": "string",
          "name": "email",
          "type": "string"
        },
        {
          "internalType": "string",
          "name": "details",
          "type": "string"
        }
      ],
      "name": "edit",
      "outputs": [
        {
          "internalType": "bool",
          "name": "",
          "type": "bool"
        }
      ],
      "stateMutability": "nonpayable",
      "type": "function"
    },
    {
      "inputs": [],
      "name": "getActivatedValidators",
      "outputs": [
        {
          "internalType": "address[]",
          "name": "",
          "type": "address[]"
        }
      ],
      "stateMutability": "view",
      "type": "function"
    },
    {
      "inputs": [
        {
          "internalType": "address",
          "name": "delegator",
          "type": "address"
        },
        {
          "internalType": "address",
          "name": "validator",
          "type": "address"
        }
      ],
      "name": "getPendingDelegatorRewards",
      "outputs": [
        {
          "internalType": "uint256",
          "name": "",
          "type": "uint256"
        }
      ],
      "stateMutability": "view",
      "type": "function"
    },
    {
      "inputs": [
        {
          "internalType": "address",
          "name": "staker",
          "type": "address"
        },
        {
          "internalType": "address",
          "name": "validator",
          "type": "address"
        }
      ],
      "name": "getStakingInfo",
      "outputs": [
        {
          "internalType": "uint256",
          "name": "",
          "type": "uint256"
        },
        {
          "internalType": "uint256",
          "name": "",
          "type": "uint256"
        },
        {
          "internalType": "uint256",
          "name": "",
          "type": "uint256"
        }
      ],
      "stateMutability": "view",
      "type": "function"
    },
    {
      "inputs": [],
      "name": "getValidatorCandidate",
      "outputs": [
        {
          "internalType": "address[]",
          "name": "",
          "type": "address[]"
        },
        {
          "internalType": "uint256[]",
          "name": "",
          "type": "uint256[]"
        },
        {
          "internalType": "uint256",
          "name": "",
          "type": "uint256"
        }
      ],
      "stateMutability": "view",
      "type": "function"
    },
    {
      "inputs": [
        {
          "internalType": "address",
          "name": "validator",
          "type": "address"
        }
      ],
      "name": "getValidatorDescription",
      "outputs": [
        {
          "internalType": "string",
          "name": "",
          "type": "string"
        },
        {
          "internalType": "string",
          "name": "",
          "type": "string"
        },
        {
          "internalType": "string",
          "name": "",
          "type": "string"
        },
        {
          "internalType": "string",
          "name": "",
          "type": "string"
        }
      ],
      "stateMutability": "view",
      "type": "function"
    },
    {
      "inputs": [
        {
          "internalType": "address",
          "name": "validator",
          "type": "address"
        }
      ],
      "name": "getValidatorInfo",
      "outputs": [
        {
          "internalType": "address payable",
          "name": "",
          "type": "address"
        },
        {
          "internalType": "enum Validators.Status",
          "name": "",
          "type": "uint8"
        },
        {
          "internalType": "uint256",
          "name": "",
          "type": "uint256"
        },
        {
          "internalType": "uint256",
          "name": "",
          "type": "uint256"
        },
        {
          "internalType": "uint256",
          "name": "",
          "type": "uint256"
        },
        {
          "internalType": "uint256",
          "name": "",
          "type": "uint256"
        },
        {
          "internalType": "address[]",
          "name": "",
          "type": "address[]"
        }
      ],
      "stateMutability": "view",
      "type": "function"
    },
    {
      "inputs": [
        {
          "internalType": "address[]",
          "name": "validators",
          "type": "address[]"
        }
      ],
      "name": "initialize",
      "outputs": [],
      "stateMutability": "nonpayable",
      "type": "function"
    },
    {
      "inputs": [],
      "name": "initialized",
      "outputs": [
        {
          "internalType": "bool",
          "name": "",
          "type": "bool"
        }
      ],
      "stateMutability": "view",
      "type": "function"
    },
    {
      "inputs": [
        {
          "internalType": "address",
          "name": "validator",
          "type": "address"
        }
      ],
      "name": "isJailed",
      "outputs": [
        {
          "internalType": "bool",
          "name": "",
          "type": "bool"
        }
      ],
      "stateMutability": "view",
      "type": "function"
    },
    {
      "inputs": [
        {
          "internalType": "address",
          "name": "validator",
          "type": "address"
        }
      ],
      "name": "isValidatorActivated",
      "outputs": [
        {
          "internalType": "bool",
          "name": "",
          "type": "bool"
        }
      ],
      "stateMutability": "view",
      "type": "function"
    },
    {
      "inputs": [
        {
          "internalType": "address",
          "name": "who",
          "type": "address"
        }
      ],
      "name": "isValidatorCandidate",
      "outputs": [
        {
          "internalType": "bool",
          "name": "",
          "type": "bool"
        }
      ],
      "stateMutability": "view",
      "type": "function"
    },
    {
      "inputs": [],
      "name": "pause",
      "outputs": [],
      "stateMutability": "nonpayable",
      "type": "function"
    },
    {
      "inputs": [],
      "name": "paused",
      "outputs": [
        {
          "internalType": "bool",
          "name": "",
          "type": "bool"
        }
      ],
      "stateMutability": "view",
      "type": "function"
    },
    {
      "inputs": [
        {
          "internalType": "address",
          "name": "validator",
          "type": "address"
        }
      ],
      "name": "slashValidator",
      "outputs": [],
      "stateMutability": "nonpayable",
      "type": "function"
    },
    {
      "inputs": [
        {
          "internalType": "address",
          "name": "validator",
          "type": "address"
        }
      ],
      "name": "stake",
      "outputs": [
        {
          "internalType": "bool",
          "name": "",
          "type": "bool"
        }
      ],
      "stateMutability": "payable",
      "type": "function"
    },
    {
      "inputs": [
        {
          "internalType": "address",
          "name": "",
          "type": "address"
        },
        {
          "internalType": "address",
          "name": "",
          "type": "address"
        }
      ],
      "name": "stakerInfo",
      "outputs": [
        {
          "internalType": "uint256",
          "name": "amount",
          "type": "uint256"
        },
        {
          "internalType": "uint256",
          "name": "unstakeBlock",
          "type": "uint256"
        },
        {
          "internalType": "uint256",
          "name": "index",
          "type": "uint256"
        }
      ],
      "stateMutability": "view",
      "type": "function"
    },
    {
      "inputs": [],
      "name": "totalStaking",
      "outputs": [
        {
          "internalType": "uint256",
          "name": "",
          "type": "uint256"
        }
      ],
      "stateMutability": "view",
      "type": "function"
    },
    {
      "inputs": [],
      "name": "unjailed",
      "outputs": [
        {
          "internalType": "bool",
          "name": "",
          "type": "bool"
        }
      ],
      "stateMutability": "nonpayable",
      "type": "function"
    },
    {
      "inputs": [],
      "name": "unpause",
      "outputs": [],
      "stateMutability": "nonpayable",
      "type": "function"
    },
    {
      "inputs": [
        {
          "internalType": "address",
          "name": "validator",
          "type": "address"
        }
      ],
      "name": "unstake",
      "outputs": [
        {
          "internalType": "bool",
          "name": "",
          "type": "bool"
        }
      ],
      "stateMutability": "nonpayable",
      "type": "function"
    },
    {
      "inputs": [],
      "name": "updateActivatedValidators",
      "outputs": [
        {
          "internalType": "address[]",
          "name": "",
          "type": "address[]"
        }
      ],
      "stateMutability": "nonpayable",
      "type": "function"
    },
    {
      "inputs": [
        {
          "internalType": "string",
          "name": "moniker",
          "type": "string"
        },
        {
          "internalType": "string",
          "name": "website",
          "type": "string"
        },
        {
          "internalType": "string",
          "name": "email",
          "type": "string"
        },
        {
          "internalType": "string",
          "name": "details",
          "type": "string"
        }
      ],
      "name": "validateDescription",
      "outputs": [
        {
          "internalType": "bool",
          "name": "",
          "type": "bool"
        }
      ],
      "stateMutability": "pure",
      "type": "function"
    },
    {
      "inputs": [
        {
          "internalType": "uint256",
          "name": "",
          "type": "uint256"
        }
      ],
      "name": "validatorCandidateSet",
      "outputs": [
        {
          "internalType": "address",
          "name": "",
          "type": "address"
        }
      ],
      "stateMutability": "view",
      "type": "function"
    },
    {
      "inputs": [
        {
          "internalType": "address",
          "name": "",
          "type": "address"
        }
      ],
      "name": "validatorInfo",
      "outputs": [
        {
          "internalType": "address payable",
          "name": "rewardAddr",
          "type": "address"
        },
        {
          "internalType": "enum Validators.Status",
          "name": "status",
          "type": "uint8"
        },
        {
          "internalType": "uint256",
          "name": "stakingAmount",
          "type": "uint256"
        },
        {
          "components": [
            {
              "internalType": "string",
              "name": "moniker",
              "type": "string"
            },
            {
              "internalType": "string",
              "name": "website",
              "type": "string"
            },
            {
              "internalType": "string",
              "name": "email",
              "type": "string"
            },
            {
              "internalType": "string",
              "name": "details",
              "type": "string"
            }
          ],
          "internalType": "struct Validators.Description",
          "name": "description",
          "type": "tuple"
        },
        {
          "internalType": "uint256",
          "name": "rewardAmount",
          "type": "uint256"
        },
        {
          "internalType": "uint256",
          "name": "slashAmount",
          "type": "uint256"
        },
        {
          "internalType": "uint256",
          "name": "lastWithdrawRewardBlock",
          "type": "uint256"
        },
        {
          "internalType": "uint256",
          "name": "commissionRate",
          "type": "uint256"
        },
        {
          "internalType": "uint256",
          "name": "delegatorRewardPool",
          "type": "uint256"
        },
        {
          "internalType": "uint256",
          "name": "accRewardPerStake",
          "type": "uint256"
        },
        {
          "internalType": "uint256",
          "name": "accSlashPerStake",
          "type": "uint256"
        }
      ],
      "stateMutability": "view",
      "type": "function"
    },
    {
      "inputs": [
        {
          "internalType": "uint256",
          "name": "",
          "type": "uint256"
        }
      ],
      "name": "validatorSet",
      "outputs": [
        {
          "internalType": "address",
          "name": "",
          "type": "address"
        }
      ],
      "stateMutability": "view",
      "type": "function"
    },
    {
      "inputs": [
        {
          "internalType": "address",
          "name": "validator",
          "type": "address"
        }
      ],
      "name": "withdrawRewards",
      "outputs": [
        {
          "internalType": "bool",
          "name": "",
          "type": "bool"
        }
      ],
      "stateMutability": "nonpayable",
      "type": "function"
    },
    {
      "inputs": [
        {
          "internalType": "address",
          "name": "validator",
          "type": "address"
        }
      ],
      "name": "withdrawStaking",
      "outputs": [
        {
          "internalType": "bool",
          "name": "",
          "type": "bool"
        }
      ],
      "stateMutability": "nonpayable",
      "type": "function"
    },
    {
      "stateMutability": "payable",
      "type": "receive"
    }
  ],
  "bytecode": "0x608060405234801561001057600080fd5b50615546806100206000396000f3fe6080604052600436106102365760003560e01c80638cab587d1161012f578063b8db983e116100b1578063b8db983e146106f9578063be6456921461070f578063c6b6d9ec1461072d578063d59070c21461074d578063d6056e6714610775578063d6c0edad14610792578063db78dd281461079a578063db7d5ace146107c9578063e64808f3146107df578063e8a3298b146107ff578063f2888dbb14610814578063f851a4401461083457600080fd5b80638cab587d146105625780638f283970146105755780638f67e6bb1461059557806393e71c5f146105d85780639b7fb063146105ed578063a0c3f2d21461060d578063a224cee71461062d578063a43569b31461064d578063a4473f121461067d578063b7d02ce2146106c4578063b7dc5c40146106e457600080fd5b80633f4ba83a116101b85780633f4ba83a1461039e57806342d86693146103b5578063445db4a1146103d55780634711f586146103f95780634f1811dd146104195780635c975abb1461045057806367239a041461046f5780637f4f95fa146104855780638456cb59146104f85780638a11d7c91461050d5780638af0a8691461054057600080fd5b806314bfb52714610242578063158ef93e14610277578063165defa4146102915780631a8d57bc146102b55780631c8b8a3d146102d5578063207239c0146102f5578063222d3b051461030b578063264762041461032b5780632bccecfd1461033e57806338a92c761461035b5780633a061bd31461038857600080fd5b3661023d57005b600080fd5b34801561024e57600080fd5b5061026261025d366004614b31565b61085a565b60405190151581526020015b60405180910390f35b34801561028357600080fd5b506000546102629060ff1681565b34801561029d57600080fd5b506102a760055481565b60405190815260200161026e565b3480156102c157600080fd5b506102626102d0366004614b31565b610899565b3480156102e157600080fd5b506102626102f0366004614b31565b6109f5565b34801561030157600080fd5b506102a76103e881565b34801561031757600080fd5b50610262610326366004614b31565b610a5e565b610262610339366004614b31565b610c15565b34801561034a57600080fd5b506102a7681b1ae4d6e2ef50000081565b34801561036757600080fd5b5061037b610376366004614b55565b610c75565b60405161026e9190614b6e565b34801561039457600080fd5b5061037b61100081565b3480156103aa57600080fd5b506103b3610c9f565b005b3480156103c157600080fd5b506102626103d0366004614b31565b610d47565b3480156103e157600080fd5b506103ea610f81565b60405161026e93929190614bc6565b34801561040557600080fd5b506103b3610414366004614b31565b611175565b34801561042557600080fd5b50610439610434366004614b31565b61136b565b60405161026e9b9a99989796959493929190614ca4565b34801561045c57600080fd5b5060005461026290610100900460ff1681565b34801561047b57600080fd5b5061037b61100181565b34801561049157600080fd5b506104dd6104a0366004614d80565b6001600160a01b03918216600090815260026020818152604080842094909516835292909252919091208054600182015491909201549192909190565b6040805193845260208401929092529082015260600161026e565b34801561050457600080fd5b506103b3611622565b34801561051957600080fd5b5061052d610528366004614b31565b6116d3565b60405161026e9796959493929190614db9565b34801561054c57600080fd5b50610555611a93565b60405161026e9190614e00565b610262610570366004614e5b565b611c66565b34801561058157600080fd5b506103b3610590366004614b31565b611da7565b3480156105a157600080fd5b506104dd6105b0366004614d80565b6002602081815260009384526040808520909152918352912080546001820154919092015483565b3480156105e457600080fd5b50610262611e8e565b3480156105f957600080fd5b50610262610608366004614e5b565b6120c0565b34801561061957600080fd5b50610262610628366004614b31565b6121b7565b34801561063957600080fd5b506103b3610648366004614f33565b612217565b34801561065957600080fd5b5061066d610668366004614b31565b6126e4565b60405161026e9493929190614fa7565b34801561068957600080fd5b506104dd610698366004614d80565b600a60209081526000928352604080842090915290825290208054600182015460029092015490919083565b3480156106d057600080fd5b506102626106df3660046150a1565b612a96565b3480156106f057600080fd5b50610555612ba4565b34801561070557600080fd5b506102a76101f481565b34801561071b57600080fd5b506102a769021e19e0c9bab240000081565b34801561073957600080fd5b506102a7610748366004614d80565b612c06565b34801561075957600080fd5b50610762606581565b60405161ffff909116815260200161026e565b34801561078157600080fd5b506102a7683635c9adc5dea0000081565b6103b361309f565b3480156107a657600080fd5b506107b16201518081565b6040516001600160401b03909116815260200161026e565b3480156107d557600080fd5b506107b161708081565b3480156107eb57600080fd5b5061037b6107fa366004614b55565b613165565b34801561080b57600080fd5b506102a760c881565b34801561082057600080fd5b5061026261082f366004614b31565b613175565b34801561084057600080fd5b5060005461037b906201000090046001600160a01b031681565b600060046001600160a01b038316600090815260016020526040902054600160a01b900460ff16600481111561089257610892614c26565b1492915050565b6000336108a6818461356d565b6001600160a01b038082166000908152600a6020908152604080832093871683529290522060018101548061090f5760405162461bcd60e51b815260206004820152600a6024820152694e6f207265776172647360b01b60448201526064015b60405180910390fd5b600060018084018290554360028501556001600160a01b038716825260205260409020600b8101548211610957578181600b015461094d9190615163565b600b820155610965565b600b81018054600090915591505b6040516001600160a01b0385169083156108fc029084906000818181858888f1935050505015801561099b573d6000803e3d6000fd5b50856001600160a01b0316846001600160a01b03167fd6372d5dcef6fdc00333adeb055e218bfc8aafecdc567f58874ee83017bfd0bd846040516109e191815260200190565b60405180910390a350600195945050505050565b6000805b600454811015610a5557826001600160a01b031660048281548110610a2057610a20615176565b6000918252602090912001546001600160a01b031603610a435750600192915050565b80610a4d8161518c565b9150506109f9565b50600092915050565b3360008181526002602090815260408083206001600160a01b0386168452825280832060019092528220549192918390600160a01b900460ff166004811115610aa957610aa9614c26565b03610ac65760405162461bcd60e51b8152600401610906906151a5565b8060010154600003610b0a5760405162461bcd60e51b815260206004820152600d60248201526c155b9cdd185ad948199a5c9cdd609a1b6044820152606401610906565b60018101544390610b1f9062015180906151c8565b1115610b5c5760405162461bcd60e51b815260206004820152600c60248201526b14dd1a5b1b081b1bd8dad95960a21b6044820152606401610906565b8054610b7a5760405162461bcd60e51b8152600401610906906151db565b80546000808355600183018190556040516001600160a01b0385169183156108fc02918491818181858888f19350505050158015610bbc573d6000803e3d6000fd5b50846001600160a01b0316836001600160a01b03167f3ca927248eb3fe77ad85f6de5853a874833484b0985cdb49c8ceaa326162456b83604051610c0291815260200190565b60405180910390a3506001949350505050565b6000805460ff16610c385760405162461bcd60e51b8152600401610906906151fd565b600054610100900460ff1615610c605760405162461bcd60e51b815260040161090690615230565b3334610c6d82858361363e565b949350505050565b60038181548110610c8557600080fd5b6000918252602090912001546001600160a01b0316905081565b6000546201000090046001600160a01b03163314610ccf5760405162461bcd60e51b81526004016109069061525c565b600054610100900460ff16610d135760405162461bcd60e51b815260206004820152600a602482015269139bdd081c185d5cd95960b21b6044820152606401610906565b6000805461ff00191681556040517fa45f47fdea8a1efdd9029a5691c7f759c32b7c698632b563573e155625d169339190a1565b600033816001600160a01b038416600090815260016020526040902054600160a01b900460ff166004811115610d7f57610d7f614c26565b03610d9c5760405162461bcd60e51b8152600401610906906151a5565b6001600160a01b03838116600090815260016020526040902054811690821614610df75760405162461bcd60e51b815260206004820152600c60248201526b2737ba103932b1b2b4bb32b960a11b6044820152606401610906565b6001600160a01b0383166000908152600160205260409020600801544390610e2290617080906151c8565b1115610e5e5760405162461bcd60e51b815260206004820152600b60248201526a15d85a5d081c195c9a5bd960aa1b6044820152606401610906565b6001600160a01b03831660009081526001602052604090206006015480610eb35760405162461bcd60e51b8152602060048201526009602482015268139bc81c995dd85c9960ba1b6044820152606401610906565b6001600160a01b03841660009081526001602052604081206006810191909155436008909101558015610f18576040516001600160a01b0383169082156108fc029083906000818181858888f19350505050158015610f16573d6000803e3d6000fd5b505b6000610f26617080436151c8565b610f319060016151c8565b9050826001600160a01b0316856001600160a01b03167ff4e9e956ba4b65051e84982c3ade043c89890cdbc452e9e446afe09cd4db40c88484604051610c02929190918252602082015260400190565b6060806000806003805490506001600160401b03811115610fa457610fa4614fff565b604051908082528060200260200182016040528015610fcd578160200160208202803683370190505b506003549091506000906001600160401b03811115610fee57610fee614fff565b604051908082528060200260200182016040528015611017578160200160208202803683370190505b5090506000805b600354811015611168576002600160006003848154811061104157611041615176565b60009182526020808320909101546001600160a01b0316835282019290925260400190205460ff600160a01b90910416600481111561108257611082614c26565b03611156576003818154811061109a5761109a615176565b9060005260206000200160009054906101000a90046001600160a01b03168483815181106110ca576110ca615176565b60200260200101906001600160a01b031690816001600160a01b031681525050600160006003838154811061110157611101615176565b60009182526020808320909101546001600160a01b03168352820192909252604001902060010154835184908490811061113d5761113d615176565b6020908102919091010152816111528161518c565b9250505b806111608161518c565b91505061101e565b5091959094509092509050565b33611001146111d85760405162461bcd60e51b815260206004820152602960248201527f746865206d6573736167652073656e646572206d75737420626520736c6173686044820152680818dbdb9d1c9858dd60ba1b6064820152608401610906565b6111e1816109f5565b15611368576001600160a01b0381166000908152600160208190526040909120805460ff60a01b1916600160a21b1781559081015461121f836139fb565b61122883613b25565b8060000361123557505050565b6000805b60098401548110156112ec5760006002600086600901848154811061126057611260615176565b60009182526020808320909101546001600160a01b0390811684528382019490945260409283018220938a168252929092528120805490925085906112af90681b1ae4d6e2ef5000009061529d565b6112b991906152ca565b82549091506112c9908290615163565b82556112d581856151c8565b9350505080806112e49061518c565b915050611239565b508083600101546112fd9190615163565b600184015560078301546113129082906151c8565b60078401556113218185613cbc565b836001600160a01b03167fdd028864d7fcafbeb3bfb9802b23966c52cef5d2e4066d3c76ca2e8e4c19ebd08260405161135c91815260200190565b60405180910390a25050505b50565b6001602081905260009182526040918290208054918101548351608081019094526002820180546001600160a01b03851695600160a01b90950460ff16949293929190829082906113bb906152de565b80601f01602080910402602001604051908101604052809291908181526020018280546113e7906152de565b80156114345780601f1061140957610100808354040283529160200191611434565b820191906000526020600020905b81548152906001019060200180831161141757829003601f168201915b5050505050815260200160018201805461144d906152de565b80601f0160208091040260200160405190810160405280929190818152602001828054611479906152de565b80156114c65780601f1061149b576101008083540402835291602001916114c6565b820191906000526020600020905b8154815290600101906020018083116114a957829003601f168201915b505050505081526020016002820180546114df906152de565b80601f016020809104026020016040519081016040528092919081815260200182805461150b906152de565b80156115585780601f1061152d57610100808354040283529160200191611558565b820191906000526020600020905b81548152906001019060200180831161153b57829003601f168201915b50505050508152602001600382018054611571906152de565b80601f016020809104026020016040519081016040528092919081815260200182805461159d906152de565b80156115ea5780601f106115bf576101008083540402835291602001916115ea565b820191906000526020600020905b8154815290600101906020018083116115cd57829003601f168201915b5050505050815250509080600601549080600701549080600801549080600a01549080600b01549080600c01549080600d015490508b565b6000546201000090046001600160a01b031633146116525760405162461bcd60e51b81526004016109069061525c565b600054610100900460ff161561169b5760405162461bcd60e51b815260206004820152600e60248201526d105b1c9958591e481c185d5cd95960921b6044820152606401610906565b6000805461ff0019166101001781556040517f9e87fac88ff661f02d44f95383c817fece4bce600a3dab7a54406878b965e7529190a1565b6001600160a01b038181166000908152600160209081526040808320815161018081019092528054948516825292938493849384938493849360609385939290830190600160a01b900460ff16600481111561173157611731614c26565b600481111561174257611742614c26565b81526020016001820154815260200160028201604051806080016040529081600082018054611770906152de565b80601f016020809104026020016040519081016040528092919081815260200182805461179c906152de565b80156117e95780601f106117be576101008083540402835291602001916117e9565b820191906000526020600020905b8154815290600101906020018083116117cc57829003601f168201915b50505050508152602001600182018054611802906152de565b80601f016020809104026020016040519081016040528092919081815260200182805461182e906152de565b801561187b5780601f106118505761010080835404028352916020019161187b565b820191906000526020600020905b81548152906001019060200180831161185e57829003601f168201915b50505050508152602001600282018054611894906152de565b80601f01602080910402602001604051908101604052809291908181526020018280546118c0906152de565b801561190d5780601f106118e25761010080835404028352916020019161190d565b820191906000526020600020905b8154815290600101906020018083116118f057829003601f168201915b50505050508152602001600382018054611926906152de565b80601f0160208091040260200160405190810160405280929190818152602001828054611952906152de565b801561199f5780601f106119745761010080835404028352916020019161199f565b820191906000526020600020905b81548152906001019060200180831161198257829003601f168201915b505050505081525050815260200160068201548152602001600782015481526020016008820154815260200160098201805480602002602001604051908101604052809291908181526020018280548015611a2357602002820191906000526020600020905b81546001600160a01b03168152600190910190602001808311611a05575b50505050508152602001600a8201548152602001600b8201548152602001600c8201548152602001600d82015481525050905080600001518160200151826040015183608001518460a001518560c001518660e00151975097509750975097509750975050919395979092949650565b6060334114611ab45760405162461bcd60e51b815260040161090690615318565b6008544311611af75760405162461bcd60e51b815260206004820152600f60248201526e105b1c9958591e481d5c19185d1959608a1b6044820152606401610906565b60005460ff16611b195760405162461bcd60e51b8152600401610906906151fd565b611b2460c843615365565b15611b415760405162461bcd60e51b815260040161090690615379565b600354611b7c5760405162461bcd60e51b8152602060048201526009602482015268195b5c1d1e481cd95d60ba1b6044820152606401610906565b60035460651015611bb95760405162461bcd60e51b81526020600482015260076024820152666d61782031303160c81b6044820152606401610906565b60038054611bc991600491614ab7565b507f6120448f3d4245c1ff708d970c34e1b6484ee22a794ede0bfca2317a97aa8ced6004604051611bfa91906153a3565b60405180910390a16004805480602002602001604051908101604052809291908181526020018280548015611c5857602002820191906000526020600020905b81546001600160a01b03168152600190910190602001808311611c3a575b505050505090504360085590565b6000805460ff16611c895760405162461bcd60e51b8152600401610906906151fd565b600054610100900460ff1615611cb15760405162461bcd60e51b815260040161090690615230565b33600081815260016020526040812054600160a01b900460ff166004811115611cdc57611cdc614c26565b14611d195760405162461bcd60e51b815260206004820152600d60248201526c105b1c9958591e48195e1a5cdd609a1b6044820152606401610906565b34611d2c828d8d8d8d8d8d8d8d8d614462565b506001600160a01b038083166000818152600160205260408082206101f4600a9091015551928f16927f22d10a5eb7a0f38ef7d1b508532e80fc470342c7ffafcc24fc98b5d20b2cc0ea9190a38015611d9357611d8a82838361363e565b92505050611d9a565b6001925050505b9998505050505050505050565b6000546201000090046001600160a01b03163314611dd75760405162461bcd60e51b81526004016109069061525c565b6001600160a01b038116611e255760405162461bcd60e51b8152602060048201526015602482015274496e76616c69642061646d696e206164647265737360581b6044820152606401610906565b600080546040516001600160a01b03808516936201000090930416917f7e644d79422f17c01e4894b5f4f588d331ebfa28653d42ae832dc59e38c9798f91a3600080546001600160a01b03909216620100000262010000600160b01b0319909216919091179055565b6000805460ff16611eb15760405162461bcd60e51b8152600401610906906151fd565b600054610100900460ff1615611ed95760405162461bcd60e51b815260040161090690615230565b33600081815260016020526040902054600490600160a01b900460ff1681811115611f0657611f06614c26565b14611f405760405162461bcd60e51b815260206004820152600a602482015269139bdd081a985a5b195960b21b6044820152606401610906565b60065460405163169b262360e01b81526001600160a01b039091169063169b262390611f70908490600401614b6e565b6020604051808303816000875af1158015611f8f573d6000803e3d6000fd5b505050506040513d601f19601f82011682018060405250810190611fb391906153f3565b611fee5760405162461bcd60e51b815260206004820152600c60248201526b10db19585b8819985a5b195960a21b6044820152606401610906565b6001600160a01b0381166000908152600160208190526040909120015469021e19e0c9bab24000001161205a576001600160a01b0381166000908152600160208190526040909120805460ff60a01b1916600160a11b17815501546120549082906147c7565b50612084565b6001600160a01b0381166000908152600160205260409020805460ff60a01b1916600360a01b1790555b6040516001600160a01b038216907f9390b453426557da5ebdc31f19a37753ca04addf656d32f35232211bb2af3f1990600090a2600191505090565b6000805460ff166120e35760405162461bcd60e51b8152600401610906906151fd565b600054610100900460ff161561210b5760405162461bcd60e51b815260040161090690615230565b33600081815260016020526040812054600160a01b900460ff16600481111561213657612136614c26565b036121535760405162461bcd60e51b8152600401610906906151a5565b612165818c8c8c8c8c8c8c8c8c614462565b508a6001600160a01b0316816001600160a01b03167fcfac5dc75b8d9a7e074162f59d9adcd33da59f0fe8dfb21580db298fc0fdad0d60405160405180910390a35060019a9950505050505050505050565b6000805b600354811015610a5557826001600160a01b0316600382815481106121e2576121e2615176565b6000918252602090912001546001600160a01b0316036122055750600192915050565b8061220f8161518c565b9150506121bb565b60005460ff161561226a5760405162461bcd60e51b815260206004820181905260248201527f74686520636f6e747261637420616c726561647920696e697469616c697a65646044820152606401610906565b600680546001600160a01b0319166110011790556000805462010000330262010000600160b01b03199091161781555b818110156126d25760008383838181106122b6576122b6615176565b90506020020160208101906122cb9190614b31565b6001600160a01b0316036123105760405162461bcd60e51b815260206004820152600c60248201526b24b73b30b634b21030b2323960a11b6044820152606401610906565b61233a83838381811061232557612325615176565b90506020020160208101906106289190614b31565b6123ef57600383838381811061235257612352615176565b90506020020160208101906123679190614b31565b81546001808201845560009384526020842090910180546001600160a01b0319166001600160a01b039390931692909217909155906009908585858181106123b1576123b1615176565b90506020020160208101906123c69190614b31565b6001600160a01b031681526020810191909152604001600020805460ff19169115159190911790555b61241983838381811061240457612404615176565b90506020020160208101906102f09190614b31565b61247957600483838381811061243157612431615176565b90506020020160208101906124469190614b31565b81546001810183556000928352602090922090910180546001600160a01b0319166001600160a01b039092169190911790555b600060018185858581811061249057612490615176565b90506020020160208101906124a59190614b31565b6001600160a01b039081168252602082019290925260400160002054160361254b578282828181106124d9576124d9615176565b90506020020160208101906124ee9190614b31565b6001600085858581811061250457612504615176565b90506020020160208101906125199190614b31565b6001600160a01b039081168252602082019290925260400160002080546001600160a01b031916929091169190911790555b60006001600085858581811061256357612563615176565b90506020020160208101906125789190614b31565b6001600160a01b03168152602081019190915260400160002054600160a01b900460ff1660048111156125ad576125ad614c26565b0361261e576002600160008585858181106125ca576125ca615176565b90506020020160208101906125df9190614b31565b6001600160a01b031681526020810191909152604001600020805460ff60a01b1916600160a01b83600481111561261857612618614c26565b02179055505b6001600084848481811061263457612634615176565b90506020020160208101906126499190614b31565b6001600160a01b03166001600160a01b03168152602001908152602001600020600a01546000036126c0576101f46001600085858581811061268d5761268d615176565b90506020020160208101906126a29190614b31565b6001600160a01b031681526020810191909152604001600020600a01555b806126ca8161518c565b91505061229a565b50506000805460ff1916600117905550565b6001600160a01b03818116600090815260016020908152604080832081516101808101909252805494851682526060948594859485949193919290830190600160a01b900460ff16600481111561273d5761273d614c26565b600481111561274e5761274e614c26565b8152602001600182015481526020016002820160405180608001604052908160008201805461277c906152de565b80601f01602080910402602001604051908101604052809291908181526020018280546127a8906152de565b80156127f55780601f106127ca576101008083540402835291602001916127f5565b820191906000526020600020905b8154815290600101906020018083116127d857829003601f168201915b5050505050815260200160018201805461280e906152de565b80601f016020809104026020016040519081016040528092919081815260200182805461283a906152de565b80156128875780601f1061285c57610100808354040283529160200191612887565b820191906000526020600020905b81548152906001019060200180831161286a57829003601f168201915b505050505081526020016002820180546128a0906152de565b80601f01602080910402602001604051908101604052809291908181526020018280546128cc906152de565b80156129195780601f106128ee57610100808354040283529160200191612919565b820191906000526020600020905b8154815290600101906020018083116128fc57829003601f168201915b50505050508152602001600382018054612932906152de565b80601f016020809104026020016040519081016040528092919081815260200182805461295e906152de565b80156129ab5780601f10612980576101008083540402835291602001916129ab565b820191906000526020600020905b81548152906001019060200180831161298e57829003601f168201915b505050505081525050815260200160068201548152602001600782015481526020016008820154815260200160098201805480602002602001604051908101604052809291908181526020018280548015612a2f57602002820191906000526020600020905b81546001600160a01b03168152600190910190602001808311612a11575b50505050508152602001600a8201548152602001600b8201548152602001600c8201548152602001600d8201548152505090508060600151600001518160600151602001518260600151604001518360600151606001519450945094509450509193509193565b6000608085511115612ad85760405162461bcd60e51b815260206004820152600b60248201526a36b7b734b5b2b9103632b760a91b6044820152606401610906565b61010084511115612b195760405162461bcd60e51b815260206004820152600b60248201526a3bb2b139b4ba32903632b760a91b6044820152606401610906565b61010083511115612b585760405162461bcd60e51b815260206004820152600960248201526832b6b0b4b6103632b760b91b6044820152606401610906565b61040082511115612b995760405162461bcd60e51b815260206004820152600b60248201526a3232ba30b4b639903632b760a91b6044820152606401610906565b506001949350505050565b60606004805480602002602001604051908101604052809291908181526020018280548015612bfc57602002820191906000526020600020905b81546001600160a01b03168152600190910190602001808311612bde575b5050505050905090565b6001600160a01b03828116600090815260026020818152604080842086861680865290835281852082516060810184528154815260018083015482870152919095015485840152908552825280842081516101808101909252805495861682529394929385939192909190830190600160a01b900460ff166004811115612c8f57612c8f614c26565b6004811115612ca057612ca0614c26565b81526020016001820154815260200160028201604051806080016040529081600082018054612cce906152de565b80601f0160208091040260200160405190810160405280929190818152602001828054612cfa906152de565b8015612d475780601f10612d1c57610100808354040283529160200191612d47565b820191906000526020600020905b815481529060010190602001808311612d2a57829003601f168201915b50505050508152602001600182018054612d60906152de565b80601f0160208091040260200160405190810160405280929190818152602001828054612d8c906152de565b8015612dd95780601f10612dae57610100808354040283529160200191612dd9565b820191906000526020600020905b815481529060010190602001808311612dbc57829003601f168201915b50505050508152602001600282018054612df2906152de565b80601f0160208091040260200160405190810160405280929190818152602001828054612e1e906152de565b8015612e6b5780601f10612e4057610100808354040283529160200191612e6b565b820191906000526020600020905b815481529060010190602001808311612e4e57829003601f168201915b50505050508152602001600382018054612e84906152de565b80601f0160208091040260200160405190810160405280929190818152602001828054612eb0906152de565b8015612efd5780601f10612ed257610100808354040283529160200191612efd565b820191906000526020600020905b815481529060010190602001808311612ee057829003601f168201915b505050505081525050815260200160068201548152602001600782015481526020016008820154815260200160098201805480602002602001604051908101604052809291908181526020018280548015612f8157602002820191906000526020600020905b81546001600160a01b03168152600190910190602001808311612f63575b50505050508152602001600a8201548152602001600b8201548152602001600c8201548152602001600d8201548152505090506000600a6000876001600160a01b03166001600160a01b031681526020019081526020016000206000866001600160a01b03166001600160a01b0316815260200190815260200160002060405180606001604052908160008201548152602001600182015481526020016002820154815250509050826000015160000361304357602001519250613099915050565b6000670de0b6b3a76400008361014001518560000151613063919061529d565b61306d91906152ca565b825190915060009061307f9083615163565b905080836020015161309191906151c8565b955050505050505b92915050565b3341146130be5760405162461bcd60e51b815260040161090690615318565b60075443116131025760405162461bcd60e51b815260206004820152601060248201526f105b1c9958591e481c995dd85c99195960821b6044820152606401610906565b60005460ff166131245760405162461bcd60e51b8152600401610906906151fd565b61312f60c843615365565b1561314c5760405162461bcd60e51b815260040161090690615379565b34801561315e5761315e816000613cbc565b5043600755565b60048181548110610c8557600080fd5b6000805460ff166131985760405162461bcd60e51b8152600401610906906151fd565b600054610100900460ff16156131c05760405162461bcd60e51b815260040161090690615230565b3360006001600160a01b038416600090815260016020526040902054600160a01b900460ff1660048111156131f7576131f7614c26565b036132145760405162461bcd60e51b8152600401610906906151a5565b61321e818461356d565b6001600160a01b038082166000908152600260209081526040808320938716835292815282822060019182905292909120825491830154909190156132995760405162461bcd60e51b8152602060048201526011602482015270416c726561647920756e7374616b696e6760781b6044820152606401610906565b600081116132b95760405162461bcd60e51b8152600401610906906151db565b60045460011480156132cf57506132cf866109f5565b80156132f3575069021e19e0c9bab24000008183600101546132f19190615163565b105b156133315760405162461bcd60e51b815260206004820152600e60248201526d2630b9ba103b30b634b230ba37b960911b6044820152606401610906565b600982015461334290600190615163565b83600201541461342e5760098201805461335e90600190615163565b8154811061336e5761336e615176565b9060005260206000200160009054906101000a90046001600160a01b0316826009018460020154815481106133a5576133a5615176565b9060005260206000200160006101000a8154816001600160a01b0302191690836001600160a01b03160217905550826002015460026000846009018660020154815481106133f5576133f5615176565b60009182526020808320909101546001600160a01b0390811684528382019490945260409283018220938b168252929092529020600201555b8160090180548061344157613441615415565b600082815260209020810160001990810180546001600160a01b03191690550190556001820154613473908290615163565b600180840191909155439084015560006002840155600554613496908290615163565b600555600182015469021e19e0c9bab240000011156134c157815460ff60a01b1916600360a01b1782555b60006134d062015180436151c8565b6134db9060016151c8565b9050866001600160a01b0316856001600160a01b03167f18edd09e80386cd99df397e2e0d87d2bb259423eae08645e776321a36fe680ef848460405161352b929190918252602082015260400190565b60405180910390a360028354600160a01b900460ff16600481111561355257613552614c26565b146135605761356087613b25565b5060019695505050505050565b6001600160a01b03808316600081815260026020908152604080832094861680845294825280832060018352818420948452600a8352818420958452949091529020825415613612576000670de0b6b3a764000083600c015485600001546135d5919061529d565b6135df91906152ca565b82549091506000906135f19083615163565b9050801561360f5780836001015461360991906151c8565b60018401555b50505b600c8201548354670de0b6b3a76400009161362c9161529d565b61363691906152ca565b905550505050565b6000806001600160a01b038416600090815260016020526040902054600160a01b900460ff16600481111561367557613675614c26565b036136925760405162461bcd60e51b8152600401610906906151a5565b6001600160a01b03808516600090815260026020908152604080832093871683529290522060010154156136f45760405162461bcd60e51b8152602060048201526009602482015268556e7374616b696e6760b81b6044820152606401610906565b683635c9adc5dea0000082101561373c5760405162461bcd60e51b815260206004820152600c60248201526b135a5b880c4c0c0c0813d61560a21b6044820152606401610906565b6001600160a01b03831660009081526001602081905260409091209081015469021e19e0c9bab2400000906137729085906151c8565b10156137b05760405162461bcd60e51b815260206004820152600d60248201526c135a5b880c4c0c0c0c0813d615609a1b6044820152606401610906565b6137ba858561356d565b6001600160a01b0380861660009081526002602090815260408083209388168352929052908120549003613837576009810180546001600160a01b038088166000818152600260208181526040808420958c1684529481529382200184905560018401855593845292200180546001600160a01b03191690911790555b82816001015461384791906151c8565b600182015560028154600160a01b900460ff16600481111561386b5761386b614c26565b14158015613896575060048154600160a01b900460ff16600481111561389357613893614c26565b14155b156138ad57805460ff60a01b1916600160a11b1781555b6001600160a01b038086166000908152600260209081526040808320938816835292905220546138de9084906151c8565b6001600160a01b038087166000908152600260209081526040808320938916835292905220556005546139129084906151c8565b600555600c8101546001600160a01b03808716600090815260026020908152604080832093891683529290522054670de0b6b3a7640000916139539161529d565b61395d91906152ca565b6001600160a01b038681166000818152600a60209081526040808320948a16808452948252918290209490945551868152919290917f795c91e2fef542f2e8bccd08552a8961ecb158d0f47be08f5c44b349993b07a9910160405180910390a360028154600160a01b900460ff1660048111156139dc576139dc614c26565b03612b99576139ef8482600101546147c7565b50506001949350505050565b60005b60045481108015613a1157506004546001105b15613b215760048181548110613a2957613a29615176565b6000918252602090912001546001600160a01b0390811690831603613b0f57600454613a5790600190615163565b8114613ad85760048054613a6d90600190615163565b81548110613a7d57613a7d615176565b600091825260209091200154600480546001600160a01b039092169183908110613aa957613aa9615176565b9060005260206000200160006101000a8154816001600160a01b0302191690836001600160a01b031602179055505b6004805480613ae957613ae9615415565b600082815260209020810160001990810180546001600160a01b03191690550190555050565b80613b198161518c565b9150506139fe565b5050565b6001600160a01b03811660009081526009602052604090205460ff16613b485750565b60005b60035481108015613b5e57506003546001105b15613b2157816001600160a01b031660038281548110613b8057613b80615176565b6000918252602090912001546001600160a01b031603613caa57600354613ba990600190615163565b8114613c2a5760038054613bbf90600190615163565b81548110613bcf57613bcf615176565b600091825260209091200154600380546001600160a01b039092169183908110613bfb57613bfb615176565b9060005260206000200160006101000a8154816001600160a01b0302191690836001600160a01b031602179055505b6003805480613c3b57613c3b615415565b60008281526020808220830160001990810180546001600160a01b03191690559092019092556001600160a01b03841680835260099091526040808320805460ff191690555190917f4fc54cda221fafc19baae2a4c79ae99dd0916c88b67ab97d3122a5afe333fc1d91a25050565b80613cb48161518c565b915050613b4b565b81600003613cc8575050565b60008060005b600454811015613de05760046001600060048481548110613cf157613cf1615176565b60009182526020808320909101546001600160a01b0316835282019290925260400190205460ff600160a01b909104166004811115613d3257613d32614c26565b14158015613d705750836001600160a01b031660048281548110613d5857613d58615176565b6000918252602090912001546001600160a01b031614155b15613dce576001600060048381548110613d8c57613d8c615176565b60009182526020808320909101546001600160a01b03168352820192909252604001902060010154613dbe90846151c8565b925081613dca8161518c565b9250505b80613dd88161518c565b915050613cce565b5080600003613def5750505050565b6000816001600160401b03811115613e0957613e09614fff565b604051908082528060200260200182016040528015613e32578160200160208202803683370190505b5090506000826001600160401b03811115613e4f57613e4f614fff565b604051908082528060200260200182016040528015613e78578160200160208202803683370190505b50905060008060005b6004548110156143045760046001600060048481548110613ea457613ea4615176565b60009182526020808320909101546001600160a01b0316835282019290925260400190205460ff600160a01b909104166004811115613ee557613ee5614c26565b14158015613f235750876001600160a01b031660048281548110613f0b57613f0b615176565b6000918252602090912001546001600160a01b031614155b156142f257600087600003613f4357613f3c878b6152ca565b9050613f9a565b876001600060048581548110613f5b57613f5b615176565b60009182526020808320909101546001600160a01b03168352820192909252604001902060010154613f8d908c61529d565b613f9791906152ca565b90505b60006127106001600060048681548110613fb657613fb6615176565b60009182526020808320909101546001600160a01b031683528201929092526040019020600a0154613fe8908461529d565b613ff291906152ca565b905060006140008284615163565b905081600160006004878154811061401a5761401a615176565b60009182526020808320909101546001600160a01b0316835282019290925260400190206006015461404c91906151c8565b600160006004878154811061406357614063615176565b60009182526020808320909101546001600160a01b03168352820192909252604001812060060191909155600480546001918391889081106140a7576140a7615176565b60009182526020808320909101546001600160a01b031683528201929092526040019020600101541180156140dc5750600081115b15614253578060016000600487815481106140f9576140f9615176565b60009182526020808320909101546001600160a01b031683528201929092526040019020600b015461412b91906151c8565b600160006004878154811061414257614142615176565b60009182526020808320909101546001600160a01b031683528201929092526040018120600b01919091556004805460019291908790811061418657614186615176565b60009182526020808320909101546001600160a01b031683528201929092526040019020600101546141c0670de0b6b3a76400008361529d565b6141ca91906152ca565b60016000600487815481106141e1576141e1615176565b60009182526020808320909101546001600160a01b031683528201929092526040019020600c015461421391906151c8565b600160006004878154811061422a5761422a615176565b60009182526020808320909101546001600160a01b031683528201929092526040019020600c01555b6004848154811061426657614266615176565b9060005260206000200160009054906101000a90046001600160a01b031688878151811061429657614296615176565b60200260200101906001600160a01b031690816001600160a01b031681525050828787815181106142c9576142c9615176565b6020908102919091010152856142de8161518c565b96506142ec905083866151c8565b94505050505b806142fc8161518c565b915050613e81565b506000614311828a615163565b90506000811180156143235750600083115b1561441c578060016000876143388388615163565b8151811061434857614348615176565b60200260200101516001600160a01b03166001600160a01b031681526020019081526020016000206006015461437e91906151c8565b600160008761438d8388615163565b8151811061439d5761439d615176565b6020908102919091018101516001600160a01b031682528101919091526040016000206006015580846143d1600186615163565b815181106143e1576143e1615176565b60200260200101516143f391906151c8565b846143ff600186615163565b8151811061440f5761440f615176565b6020026020010181815250505b7f762312188fa57bea7344b027aa7fe37066e66085ddedd6dbec6190a107668dd685858560405161444f93929190614bc6565b60405180910390a1505050505050505050565b60006001600160a01b038a166144b05760405162461bcd60e51b815260206004820152601360248201527224b73b30b634b2103932bbb0b9321030b2323960691b6044820152606401610906565b61458b89898080601f01602080910402602001604051908101604052809392919081815260200183838082843760009201919091525050604080516020601f8d018190048102820181019092528b815292508b91508a908190840183828082843760009201919091525050604080516020601f8c018190048102820181019092528a815292508a915089908190840183828082843760009201919091525050604080516020601f8b018190048102820181019092528981529250899150889081908401838280828437600092019190915250612a9692505050565b6145c65760405162461bcd60e51b815260206004820152600c60248201526b496e76616c6964206465736360a01b6044820152606401610906565b60006001600160a01b038c16600090815260016020526040902054600160a01b900460ff1660048111156145fc576145fc614c26565b0361462b576001600160a01b038b166000908152600160205260409020805460ff60a01b1916600160a01b1790555b6001600160a01b038b811660009081526001602090815260409182902080546001600160a01b031916938e16939093179092558051601f8b01839004909202820160a0908101909152608082018a815282918c908c9081908501838280828437600092019190915250505090825250604080516020601f8b0181900481028201810190925289815291810191908a908a9081908401838280828437600092019190915250505090825250604080516020601f890181900481028201810190925287815291810191908890889081908401838280828437600092019190915250505090825250604080516020601f87018190048102820181019092528581529181019190869086908190840183828082843760009201829052509390945250506001600160a01b038e1681526001602052604090208251600290910191508190614774908261547a565b5060208201516001820190614789908261547a565b506040820151600282019061479e908261547a565b50606082015160038201906147b3908261547a565b5060019d9c50505050505050505050505050565b6001600160a01b03821660009081526009602052604081205460ff16156147f057506001613099565b6003546065111561488f576003805460018082019092557fc2575a0e9e593c00f959f8c92f12db2869c3395a3b0502d05e2516446f71f85b0180546001600160a01b0319166001600160a01b038616908117909155600081815260096020526040808220805460ff1916909417909355915190917f3200b283524ec389117b5f97a240b03a9a72a036996087fd6e65404e5ec52fd391a2506001613099565b60006001600060036000815481106148a9576148a9615176565b60009182526020808320909101546001600160a01b03168352820192909252604001812060019081015492505b60035481101561497d578260016000600384815481106148f8576148f8615176565b60009182526020808320909101546001600160a01b03168352820192909252604001902060010154101561496b57600160006003838154811061493d5761493d615176565b60009182526020808320909101546001600160a01b0316835282019290925260400190206001015492509050805b806149758161518c565b9150506148d6565b5081841161499057600092505050613099565b600381815481106149a3576149a3615176565b60009182526020822001546040516001600160a01b03909116917f4fc54cda221fafc19baae2a4c79ae99dd0916c88b67ab97d3122a5afe333fc1d91a2600060096000600384815481106149f9576149f9615176565b6000918252602080832091909101546001600160a01b031683528201929092526040019020805460ff19169115159190911790556003805486919083908110614a4457614a44615176565b600091825260208083209190910180546001600160a01b0319166001600160a01b0394851617905591871680825260099092526040808220805460ff19166001179055517f3200b283524ec389117b5f97a240b03a9a72a036996087fd6e65404e5ec52fd39190a2506001949350505050565b828054828255906000526020600020908101928215614af75760005260206000209182015b82811115614af7578254825591600101919060010190614adc565b50614b03929150614b07565b5090565b5b80821115614b035760008155600101614b08565b6001600160a01b038116811461136857600080fd5b600060208284031215614b4357600080fd5b8135614b4e81614b1c565b9392505050565b600060208284031215614b6757600080fd5b5035919050565b6001600160a01b0391909116815260200190565b600081518084526020808501945080840160005b83811015614bbb5781516001600160a01b031687529582019590820190600101614b96565b509495945050505050565b606081526000614bd96060830186614b82565b82810360208481019190915285518083528682019282019060005b81811015614c1057845183529383019391830191600101614bf4565b5050809350505050826040830152949350505050565b634e487b7160e01b600052602160045260246000fd5b60058110614c5a57634e487b7160e01b600052602160045260246000fd5b9052565b6000815180845260005b81811015614c8457602081850181015186830182015201614c68565b506000602082860101526020601f19601f83011685010191505092915050565b6001600160a01b038c1681526000610160614cc2602084018e614c3c565b8b60408401528060608401528a51608082850152614ce46101e0850182614c5e565b91505060208b015161015f198085840301610180860152614d058383614c5e565b925060408d0151915080858403016101a0860152614d238383614c5e565b925060608d0151915080858403016101c086015250614d428282614c5e565b608085019b909b5250505060a081019690965260c086019490945260e085019290925261010084015261012083015261014090910152949350505050565b60008060408385031215614d9357600080fd5b8235614d9e81614b1c565b91506020830135614dae81614b1c565b809150509250929050565b6001600160a01b0388168152614dd26020820188614c3c565b8560408201528460608201528360808201528260a082015260e060c08201526000611d9a60e0830184614b82565b602081526000614b4e6020830184614b82565b60008083601f840112614e2557600080fd5b5081356001600160401b03811115614e3c57600080fd5b602083019150836020828501011115614e5457600080fd5b9250929050565b600080600080600080600080600060a08a8c031215614e7957600080fd5b8935614e8481614b1c565b985060208a01356001600160401b0380821115614ea057600080fd5b614eac8d838e01614e13565b909a50985060408c0135915080821115614ec557600080fd5b614ed18d838e01614e13565b909850965060608c0135915080821115614eea57600080fd5b614ef68d838e01614e13565b909650945060808c0135915080821115614f0f57600080fd5b50614f1c8c828d01614e13565b915080935050809150509295985092959850929598565b60008060208385031215614f4657600080fd5b82356001600160401b0380821115614f5d57600080fd5b818501915085601f830112614f7157600080fd5b813581811115614f8057600080fd5b8660208260051b8501011115614f9557600080fd5b60209290920196919550909350505050565b608081526000614fba6080830187614c5e565b8281036020840152614fcc8187614c5e565b90508281036040840152614fe08186614c5e565b90508281036060840152614ff48185614c5e565b979650505050505050565b634e487b7160e01b600052604160045260246000fd5b600082601f83011261502657600080fd5b81356001600160401b038082111561504057615040614fff565b604051601f8301601f19908116603f0116810190828211818310171561506857615068614fff565b8160405283815286602085880101111561508157600080fd5b836020870160208301376000602085830101528094505050505092915050565b600080600080608085870312156150b757600080fd5b84356001600160401b03808211156150ce57600080fd5b6150da88838901615015565b955060208701359150808211156150f057600080fd5b6150fc88838901615015565b9450604087013591508082111561511257600080fd5b61511e88838901615015565b9350606087013591508082111561513457600080fd5b5061514187828801615015565b91505092959194509250565b634e487b7160e01b600052601160045260246000fd5b818103818111156130995761309961514d565b634e487b7160e01b600052603260045260246000fd5b60006001820161519e5761519e61514d565b5060010190565b602080825260099082015268139bdd08195e1a5cdd60ba1b604082015260600190565b808201808211156130995761309961514d565b6020808252600890820152674e6f207374616b6560c01b604082015260600190565b6020808252601990820152781d1a194818dbdb9d1c9858dd081b9bdd081a5b9a5d081e595d603a1b604082015260600190565b60208082526012908201527110dbdb9d1c9858dd081a5cc81c185d5cd95960721b604082015260600190565b60208082526021908201527f4f6e6c792061646d696e2063616e2063616c6c20746869732066756e6374696f6040820152603760f91b606082015260800190565b80820281158282048414176130995761309961514d565b634e487b7160e01b600052601260045260246000fd5b6000826152d9576152d96152b4565b500490565b600181811c908216806152f257607f821691505b60208210810361531257634e487b7160e01b600052602260045260246000fd5b50919050565b6020808252602d908201527f746865206d6573736167652073656e646572206d75737420626520746865206260408201526c3637b1b590383937b23ab1b2b960991b606082015260800190565b600082615374576153746152b4565b500690565b60208082526010908201526f426c6f636b2065706f6368206f6e6c7960801b604082015260600190565b6020808252825482820181905260008481528281209092916040850190845b818110156153e75783546001600160a01b0316835260019384019392850192016153c2565b50909695505050505050565b60006020828403121561540557600080fd5b81518015158114614b4e57600080fd5b634e487b7160e01b600052603160045260246000fd5b601f82111561547557600081815260208120601f850160051c810160208610156154525750805b601f850160051c820191505b818110156154715782815560010161545e565b5050505b505050565b81516001600160401b0381111561549357615493614fff565b6154a7816154a184546152de565b8461542b565b602080601f8311600181146154dc57600084156154c45750858301515b600019600386901b1c1916600185901b178555615471565b600085815260208120601f198616915b8281101561550b578886015182559484019460019091019084016154ec565b50858210156155295787850151600019600388901b60f8161c191681555b5050505050600190811b0190555056fea164736f6c6343000813000a",
  "linkReferences": {},
  "deployedLinkReferences": {}
}