{
  "_format": "hh-sol-artifact-1",
  "contractName": "Validators",
  "sourceName": "contracts/Validators.sol",
  "abi": [
    {
      "anonymous": false,
      "inputs": [
        {
          "indexed": true,
          "internalType": "address",
          "name": "validator",
          "type": "address"
        },
        {
          "indexed": false,
          "internalType": "uint256",
          "name": "totalStake",
          "type": "uint256"
        }
      ],
      "name": "AddToValidatorCandidate",
      "type": "event"
    },
    {
      "anonymous": false,
      "inputs": [
        {
          "indexed": true,
          "internalType": "address",
          "name": "previousAdmin",
          "type": "address"
        },
        {
          "indexed": true,
          "internalType": "address",
          "name": "newAdmin",
          "type": "address"
        }
      ],
      "name": "AdminChanged",
      "type": "event"
    },
    {
      "anonymous": false,
      "inputs": [
        {
          "indexed": true,
          "internalType": "address",
          "name": "delegator",
          "type": "address"
        },
        {
          "indexed": true,
          "internalType": "address",
          "name": "validator",
          "type": "address"
        },
        {
          "indexed": false,
          "internalType": "uint256",
          "name": "amount",
          "type": "uint256"
        }
      ],
      "name": "ClaimDelegatorRewards",
      "type": "event"
    },
    {
      "anonymous": false,
      "inputs": [
        {
          "indexed": true,
          "internalType": "address",
          "name": "validator",
          "type": "address"
        },
        {
          "indexed": false,
          "internalType": "uint256",
          "name": "oldRate",
          "type": "uint256"
        },
        {
          "indexed": false,
          "internalType": "uint256",
          "name": "newRate",
          "type": "uint256"
        }
      ],
      "name": "CommissionRateUpdated",
      "type": "event"
    },
    {
      "anonymous": false,
      "inputs": [
        {
          "indexed": false,
          "internalType": "bool",
          "name": "paused",
          "type": "bool"
        },
        {
          "indexed": false,
          "internalType": "address",
          "name": "admin",
          "type": "address"
        }
      ],
      "name": "EmergencyPauseToggled",
      "type": "event"
    },
    {
      "anonymous": false,
      "inputs": [],
      "name": "Paused",
      "type": "event"
    },
    {
      "anonymous": false,
      "inputs": [
        {
          "indexed": true,
          "internalType": "address",
          "name": "validator",
          "type": "address"
        }
      ],
      "name": "RemoveFromValidatorCandidate",
      "type": "event"
    },
    {
      "anonymous": false,
      "inputs": [
        {
          "indexed": false,
          "internalType": "address[]",
          "name": "validators",
          "type": "address[]"
        },
        {
          "indexed": false,
          "internalType": "uint256[]",
          "name": "rewards",
          "type": "uint256[]"
        },
        {
          "indexed": false,
          "internalType": "uint256",
          "name": "totalAmount",
          "type": "uint256"
        },
        {
          "indexed": false,
          "internalType": "uint256",
          "name": "remainder",
          "type": "uint256"
        }
      ],
      "name": "RewardDistributed",
      "type": "event"
    },
    {
      "anonymous": false,
      "inputs": [
        {
          "indexed": true,
          "internalType": "address",
          "name": "staker",
          "type": "address"
        },
        {
          "indexed": true,
          "internalType": "address",
          "name": "validator",
          "type": "address"
        },
        {
          "indexed": false,
          "internalType": "uint256",
          "name": "amount",
          "type": "uint256"
        }
      ],
      "name": "Staking",
      "type": "event"
    },
    {
      "anonymous": false,
      "inputs": [],
      "name": "Unpaused",
      "type": "event"
    },
    {
      "anonymous": false,
      "inputs": [
        {
          "indexed": true,
          "internalType": "address",
          "name": "staker",
          "type": "address"
        },
        {
          "indexed": true,
          "internalType": "address",
          "name": "validator",
          "type": "address"
        },
        {
          "indexed": false,
          "internalType": "uint256",
          "name": "amount",
          "type": "uint256"
        },
        {
          "indexed": false,
          "internalType": "uint256",
          "name": "unlockTimestamp",
          "type": "uint256"
        }
      ],
      "name": "Unstake",
      "type": "event"
    },
    {
      "anonymous": false,
      "inputs": [
        {
          "indexed": true,
          "internalType": "address",
          "name": "validator",
          "type": "address"
        },
        {
          "indexed": true,
          "internalType": "address",
          "name": "rewardAddr",
          "type": "address"
        },
        {
          "indexed": false,
          "internalType": "uint256",
          "name": "commissionRate",
          "type": "uint256"
        }
      ],
      "name": "ValidatorCreated",
      "type": "event"
    },
    {
      "anonymous": false,
      "inputs": [
        {
          "indexed": false,
          "internalType": "address[]",
          "name": "validators",
          "type": "address[]"
        },
        {
          "indexed": false,
          "internalType": "uint256",
          "name": "blockNumber",
          "type": "uint256"
        }
      ],
      "name": "ValidatorSetUpdated",
      "type": "event"
    },
    {
      "anonymous": false,
      "inputs": [
        {
          "indexed": true,
          "internalType": "address",
          "name": "validator",
          "type": "address"
        },
        {
          "indexed": false,
          "internalType": "uint256",
          "name": "amount",
          "type": "uint256"
        },
        {
          "indexed": false,
          "internalType": "uint256",
          "name": "newTotalStake",
          "type": "uint256"
        }
      ],
      "name": "ValidatorSlash",
      "type": "event"
    },
    {
      "anonymous": false,
      "inputs": [
        {
          "indexed": true,
          "internalType": "address",
          "name": "validator",
          "type": "address"
        }
      ],
      "name": "ValidatorUnjailed",
      "type": "event"
    },
    {
      "anonymous": false,
      "inputs": [
        {
          "indexed": true,
          "internalType": "address",
          "name": "validator",
          "type": "address"
        },
        {
          "indexed": true,
          "internalType": "address",
          "name": "rewardAddr",
          "type": "address"
        }
      ],
      "name": "ValidatorUpdated",
      "type": "event"
    },
    {
      "anonymous": false,
      "inputs": [
        {
          "indexed": true,
          "internalType": "address",
          "name": "validator",
          "type": "address"
        },
        {
          "indexed": true,
          "internalType": "address",
          "name": "rewardAddress",
          "type": "address"
        },
        {
          "indexed": false,
          "internalType": "uint256",
          "name": "amount",
          "type": "uint256"
        },
        {
          "indexed": false,
          "internalType": "uint256",
          "name": "nextWithdrawTimestamp",
          "type": "uint256"
        }
      ],
      "name": "WithdrawRewards",
      "type": "event"
    },
    {
      "anonymous": false,
      "inputs": [
        {
          "indexed": true,
          "internalType": "address",
          "name": "staker",
          "type": "address"
        },
        {
          "indexed": true,
          "internalType": "address",
          "name": "validator",
          "type": "address"
        },
        {
          "indexed": false,
          "internalType": "uint256",
          "name": "amount",
          "type": "uint256"
        }
      ],
      "name": "WithdrawStaking",
      "type": "event"
    },
    {
      "inputs": [],
      "name": "BlockEpoch",
      "outputs": [
        {
          "internalType": "uint256",
          "name": "",
          "type": "uint256"
        }
      ],
      "stateMutability": "view",
      "type": "function"
    },
    {
      "inputs": [],
      "name": "DEFAULT_COMMISSION_RATE",
      "outputs": [
        {
          "internalType": "uint256",
          "name": "",
          "type": "uint256"
        }
      ],
      "stateMutability": "view",
      "type": "function"
    },
    {
      "inputs": [],
      "name": "MAX_COMMISSION_RATE",
      "outputs": [
        {
          "internalType": "uint256",
          "name": "",
          "type": "uint256"
        }
      ],
      "stateMutability": "view",
      "type": "function"
    },
    {
      "inputs": [],
      "name": "MAX_VALIDATOR_NUM",
      "outputs": [
        {
          "internalType": "uint16",
          "name": "",
          "type": "uint16"
        }
      ],
      "stateMutability": "view",
      "type": "function"
    },
    {
      "inputs": [],
      "name": "MIN_DELEGATOR_STAKE",
      "outputs": [
        {
          "internalType": "uint256",
          "name": "",
          "type": "uint256"
        }
      ],
      "stateMutability": "view",
      "type": "function"
    },
    {
      "inputs": [],
      "name": "MIN_VALIDATOR_TOTAL_STAKE",
      "outputs": [
        {
          "internalType": "uint256",
          "name": "",
          "type": "uint256"
        }
      ],
      "stateMutability": "view",
      "type": "function"
    },
    {
      "inputs": [],
      "name": "STAKING_LOCK_PERIOD",
      "outputs": [
        {
          "internalType": "uint256",
          "name": "",
          "type": "uint256"
        }
      ],
      "stateMutability": "view",
      "type": "function"
    },
    {
      "inputs": [],
      "name": "SlashContractAddr",
      "outputs": [
        {
          "internalType": "address",
          "name": "",
          "type": "address"
        }
      ],
      "stateMutability": "view",
      "type": "function"
    },
    {
      "inputs": [],
      "name": "VALIDATOR_SLASH_PENALTY",
      "outputs": [
        {
          "internalType": "uint256",
          "name": "",
          "type": "uint256"
        }
      ],
      "stateMutability": "view",
      "type": "function"
    },
    {
      "inputs": [],
      "name": "ValidatorContractAddr",
      "outputs": [
        {
          "internalType": "address",
          "name": "",
          "type": "address"
        }
      ],
      "stateMutability": "view",
      "type": "function"
    },
    {
      "inputs": [],
      "name": "WITHDRAW_REWARD_PERIOD",
      "outputs": [
        {
          "internalType": "uint256",
          "name": "",
          "type": "uint256"
        }
      ],
      "stateMutability": "view",
      "type": "function"
    },
    {
      "inputs": [],
      "name": "admin",
      "outputs": [
        {
          "internalType": "address",
          "name": "",
          "type": "address"
        }
      ],
      "stateMutability": "view",
      "type": "function"
    },
    {
      "inputs": [
        {
          "internalType": "address",
          "name": "newAdmin",
          "type": "address"
        }
      ],
      "name": "changeAdmin",
      "outputs": [],
      "stateMutability": "nonpayable",
      "type": "function"
    },
    {
      "inputs": [
        {
          "internalType": "address",
          "name": "validator",
          "type": "address"
        }
      ],
      "name": "claimDelegatorRewards",
      "outputs": [
        {
          "internalType": "bool",
          "name": "",
          "type": "bool"
        }
      ],
      "stateMutability": "nonpayable",
      "type": "function"
    },
    {
      "inputs": [
        {
          "internalType": "address payable",
          "name": "rewardAddr",
          "type": "address"
        },
        {
          "internalType": "string",
          "name": "moniker",
          "type": "string"
        },
        {
          "internalType": "string",
          "name": "website",
          "type": "string"
        },
        {
          "internalType": "string",
          "name": "email",
          "type": "string"
        },
        {
          "internalType": "string",
          "name": "details",
          "type": "string"
        }
      ],
      "name": "create",
      "outputs": [
        {
          "internalType": "bool",
          "name": "",
          "type": "bool"
        }
      ],
      "stateMutability": "payable",
      "type": "function"
    },
    {
      "inputs": [
        {
          "internalType": "address payable",
          "name": "rewardAddr",
          "type": "address"
        },
        {
          "internalType": "string",
          "name": "moniker",
          "type": "string"
        },
        {
          "internalType": "string",
          "name": "website",
          "type": "string"
        },
        {
          "internalType": "string",
          "name": "email",
          "type": "string"
        },
        {
          "internalType": "string",
          "name": "details",
          "type": "string"
        },
        {
          "internalType": "uint256",
          "name": "commissionRate",
          "type": "uint256"
        }
      ],
      "name": "createWithCommission",
      "outputs": [
        {
          "internalType": "bool",
          "name": "",
          "type": "bool"
        }
      ],
      "stateMutability": "payable",
      "type": "function"
    },
    {
      "inputs": [],
      "name": "distributeBlockReward",
      "outputs": [],
      "stateMutability": "payable",
      "type": "function"
    },
    {
      "inputs": [
        {
          "internalType": "address payable",
          "name": "rewardAddr",
          "type": "address"
        },
        {
          "internalType": "string",
          "name": "moniker",
          "type": "string"
        },
        {
          "internalType": "string",
          "name": "website",
          "type": "string"
        },
        {
          "internalType": "string",
          "name": "email",
          "type": "string"
        },
        {
          "internalType": "string",
          "name": "details",
          "type": "string"
        }
      ],
      "name": "edit",
      "outputs": [
        {
          "internalType": "bool",
          "name": "",
          "type": "bool"
        }
      ],
      "stateMutability": "nonpayable",
      "type": "function"
    },
    {
      "inputs": [],
      "name": "emergencyAdmin",
      "outputs": [
        {
          "internalType": "address",
          "name": "",
          "type": "address"
        }
      ],
      "stateMutability": "view",
      "type": "function"
    },
    {
      "inputs": [],
      "name": "emergencyPaused",
      "outputs": [
        {
          "internalType": "bool",
          "name": "",
          "type": "bool"
        }
      ],
      "stateMutability": "view",
      "type": "function"
    },
    {
      "inputs": [],
      "name": "getActivatedValidators",
      "outputs": [
        {
          "internalType": "address[]",
          "name": "",
          "type": "address[]"
        }
      ],
      "stateMutability": "view",
      "type": "function"
    },
    {
      "inputs": [
        {
          "internalType": "address",
          "name": "staker",
          "type": "address"
        },
        {
          "internalType": "address",
          "name": "validator",
          "type": "address"
        }
      ],
      "name": "getPendingRewards",
      "outputs": [
        {
          "internalType": "uint256",
          "name": "",
          "type": "uint256"
        }
      ],
      "stateMutability": "view",
      "type": "function"
    },
    {
      "inputs": [],
      "name": "getTotalNetworkStaked",
      "outputs": [
        {
          "internalType": "uint256",
          "name": "",
          "type": "uint256"
        }
      ],
      "stateMutability": "view",
      "type": "function"
    },
    {
      "inputs": [
        {
          "internalType": "address",
          "name": "validator",
          "type": "address"
        }
      ],
      "name": "getValidatorInfo",
      "outputs": [
        {
          "internalType": "address",
          "name": "rewardAddr",
          "type": "address"
        },
        {
          "internalType": "string",
          "name": "status",
          "type": "string"
        },
        {
          "internalType": "uint256",
          "name": "totalStaked",
          "type": "uint256"
        },
        {
          "internalType": "uint256",
          "name": "rewardAmount",
          "type": "uint256"
        },
        {
          "internalType": "uint256",
          "name": "slashAmount",
          "type": "uint256"
        },
        {
          "internalType": "uint256",
          "name": "commissionRate",
          "type": "uint256"
        }
      ],
      "stateMutability": "view",
      "type": "function"
    },
    {
      "inputs": [
        {
          "internalType": "address[]",
          "name": "validators",
          "type": "address[]"
        }
      ],
      "name": "initialize",
      "outputs": [],
      "stateMutability": "nonpayable",
      "type": "function"
    },
    {
      "inputs": [],
      "name": "initialized",
      "outputs": [
        {
          "internalType": "bool",
          "name": "",
          "type": "bool"
        }
      ],
      "stateMutability": "view",
      "type": "function"
    },
    {
      "inputs": [
        {
          "internalType": "address",
          "name": "validator",
          "type": "address"
        }
      ],
      "name": "isJailed",
      "outputs": [
        {
          "internalType": "bool",
          "name": "",
          "type": "bool"
        }
      ],
      "stateMutability": "view",
      "type": "function"
    },
    {
      "inputs": [
        {
          "internalType": "address",
          "name": "validator",
          "type": "address"
        }
      ],
      "name": "isValidatorActivated",
      "outputs": [
        {
          "internalType": "bool",
          "name": "",
          "type": "bool"
        }
      ],
      "stateMutability": "view",
      "type": "function"
    },
    {
      "inputs": [
        {
          "internalType": "address",
          "name": "validator",
          "type": "address"
        }
      ],
      "name": "isValidatorCandidate",
      "outputs": [
        {
          "internalType": "bool",
          "name": "",
          "type": "bool"
        }
      ],
      "stateMutability": "view",
      "type": "function"
    },
    {
      "inputs": [],
      "name": "pause",
      "outputs": [],
      "stateMutability": "nonpayable",
      "type": "function"
    },
    {
      "inputs": [],
      "name": "paused",
      "outputs": [
        {
          "internalType": "bool",
          "name": "",
          "type": "bool"
        }
      ],
      "stateMutability": "view",
      "type": "function"
    },
    {
      "inputs": [
        {
          "internalType": "address",
          "name": "validator",
          "type": "address"
        }
      ],
      "name": "slashValidator",
      "outputs": [],
      "stateMutability": "nonpayable",
      "type": "function"
    },
    {
      "inputs": [
        {
          "internalType": "address",
          "name": "validator",
          "type": "address"
        }
      ],
      "name": "stake",
      "outputs": [
        {
          "internalType": "bool",
          "name": "",
          "type": "bool"
        }
      ],
      "stateMutability": "payable",
      "type": "function"
    },
    {
      "inputs": [],
      "name": "toggleEmergencyPause",
      "outputs": [],
      "stateMutability": "nonpayable",
      "type": "function"
    },
    {
      "inputs": [],
      "name": "unjailValidator",
      "outputs": [
        {
          "internalType": "bool",
          "name": "",
          "type": "bool"
        }
      ],
      "stateMutability": "nonpayable",
      "type": "function"
    },
    {
      "inputs": [],
      "name": "unpause",
      "outputs": [],
      "stateMutability": "nonpayable",
      "type": "function"
    },
    {
      "inputs": [
        {
          "internalType": "address",
          "name": "validator",
          "type": "address"
        }
      ],
      "name": "unstake",
      "outputs": [
        {
          "internalType": "bool",
          "name": "",
          "type": "bool"
        }
      ],
      "stateMutability": "nonpayable",
      "type": "function"
    },
    {
      "inputs": [],
      "name": "updateActivatedValidators",
      "outputs": [
        {
          "internalType": "address[]",
          "name": "",
          "type": "address[]"
        }
      ],
      "stateMutability": "nonpayable",
      "type": "function"
    },
    {
      "inputs": [
        {
          "internalType": "uint256",
          "name": "newRate",
          "type": "uint256"
        }
      ],
      "name": "updateCommissionRate",
      "outputs": [
        {
          "internalType": "bool",
          "name": "",
          "type": "bool"
        }
      ],
      "stateMutability": "nonpayable",
      "type": "function"
    },
    {
      "inputs": [
        {
          "internalType": "address",
          "name": "newAdmin",
          "type": "address"
        }
      ],
      "name": "updateEmergencyAdmin",
      "outputs": [],
      "stateMutability": "nonpayable",
      "type": "function"
    },
    {
      "inputs": [
        {
          "internalType": "string",
          "name": "moniker",
          "type": "string"
        },
        {
          "internalType": "string",
          "name": "website",
          "type": "string"
        },
        {
          "internalType": "string",
          "name": "email",
          "type": "string"
        },
        {
          "internalType": "string",
          "name": "details",
          "type": "string"
        }
      ],
      "name": "validateDescription",
      "outputs": [
        {
          "internalType": "bool",
          "name": "",
          "type": "bool"
        }
      ],
      "stateMutability": "pure",
      "type": "function"
    },
    {
      "inputs": [
        {
          "internalType": "address",
          "name": "validator",
          "type": "address"
        }
      ],
      "name": "withdrawRewards",
      "outputs": [
        {
          "internalType": "bool",
          "name": "",
          "type": "bool"
        }
      ],
      "stateMutability": "nonpayable",
      "type": "function"
    },
    {
      "inputs": [
        {
          "internalType": "address",
          "name": "validator",
          "type": "address"
        }
      ],
      "name": "withdrawStaking",
      "outputs": [
        {
          "internalType": "bool",
          "name": "",
          "type": "bool"
        }
      ],
      "stateMutability": "nonpayable",
      "type": "function"
    },
    {
      "stateMutability": "payable",
      "type": "receive"
    }
  ],
  "bytecode": "0x608060405234801561001057600080fd5b506157a780620000216000396000f3fe60806040526004361061025f5760003560e01c806367239a0411610144578063a224cee7116100b6578063d2f01a9b1161007a578063d2f01a9b146106cb578063d6c0edad146106e2578063e8a3298b146106ea578063f2888dbb146106ff578063f851a4401461071f578063fd4facde1461074557600080fd5b8063a224cee71461064b578063b7d02ce21461066b578063b7dc5c401461068b578063b8db983e146106a0578063ce5cf377146106b657600080fd5b80638af0a869116101085780638af0a869146105885780638cab587d146105aa5780638f283970146105bd5780639b7fb063146105dd578063a0774743146105fd578063a0c3f2d21461061257600080fd5b806367239a04146104e657806370905dce146104fc5780637a27db57146105215780638456cb59146105415780638a11d7c91461055657600080fd5b8063207239c0116101dd5780632b599c0d116101a15780632b599c0d146104315780633a061bd31461044f5780633f4ba83a1461047257806342d86693146104875780634711f586146104a75780635c975abb146104c757600080fd5b8063207239c0146103b157806321974455146103c7578063222d3b05146103e4578063264762041461040457806327c830a91461041757600080fd5b806314bfb5271161022457806314bfb5271461031757806314c57e9314610337578063158ef93e146103575780631a8d57bc146103715780631c8b8a3d1461039157600080fd5b8062fa3d501461026b5780630b3a2323146102a15780630f952573146102c3578063142d13c9146102ed578063147e291f1461030057600080fd5b3661026657005b600080fd5b34801561027757600080fd5b5061028b6102863660046140fa565b61075b565b604051610298919061412d565b60405180910390f35b3480156102ad57600080fd5b506102b6606581565b6040516102989190614145565b3480156102cf57600080fd5b506102e0683635c9adc5dea0000081565b6040516102989190614159565b61028b6102fb3660046141dd565b610876565b34801561030c57600080fd5b50610315610905565b005b34801561032357600080fd5b5061028b6103323660046142e2565b610985565b34801561034357600080fd5b506103156103523660046142e2565b6109c4565b34801561036357600080fd5b5060005461028b9060ff1681565b34801561037d57600080fd5b5061028b61038c3660046142e2565b610a43565b34801561039d57600080fd5b5061028b6103ac3660046142e2565b610c50565b3480156103bd57600080fd5b506102e06103e881565b3480156103d357600080fd5b506102e0681b1ae4d6e2ef50000081565b3480156103f057600080fd5b5061028b6103ff3660046142e2565b610cb9565b61028b6104123660046142e2565b610e92565b34801561042357600080fd5b50600a5461028b9060ff1681565b34801561043d57600080fd5b506102e069021e19e0c9bab240000081565b34801561045b57600080fd5b5061046561100081565b604051610298919061430c565b34801561047e57600080fd5b50610315610f13565b34801561049357600080fd5b5061028b6104a23660046142e2565b610f9e565b3480156104b357600080fd5b506103156104c23660046142e2565b611140565b3480156104d357600080fd5b5060005461028b90610100900460ff1681565b3480156104f257600080fd5b5061046561100181565b34801561050857600080fd5b50600a546104659061010090046001600160a01b031681565b34801561052d57600080fd5b506102e061053c36600461431a565b6112e3565b34801561054d57600080fd5b5061031561137f565b34801561056257600080fd5b506105766105713660046142e2565b61140f565b604051610298969594939291906143ad565b34801561059457600080fd5b5061059d61191b565b604051610298919061446c565b61028b6105b836600461447d565b611a98565b3480156105c957600080fd5b506103156105d83660046142e2565b611b28565b3480156105e957600080fd5b5061028b6105f836600461447d565b611be7565b34801561060957600080fd5b506005546102e0565b34801561061e57600080fd5b5061028b61062d3660046142e2565b6001600160a01b031660009081526009602052604090205460ff1690565b34801561065757600080fd5b506103156106663660046145b8565b611f60565b34801561067757600080fd5b5061028b6106863660046146f3565b61205e565b34801561069757600080fd5b5061059d6120f6565b3480156106ac57600080fd5b506102e06101f481565b3480156106c257600080fd5b5061028b612158565b3480156106d757600080fd5b506102e06201518081565b61031561231c565b3480156106f657600080fd5b506102e060c881565b34801561070b57600080fd5b5061028b61071a3660046142e2565b6123bd565b34801561072b57600080fd5b50600054610465906201000090046001600160a01b031681565b34801561075157600080fd5b506102e061708081565b6000805460ff166107875760405162461bcd60e51b815260040161077e906147f0565b60405180910390fd5b600a5460ff16156107aa5760405162461bcd60e51b815260040161077e90614832565b33600081815260016020526040812054600160a01b900460ff1660048111156107d5576107d5614842565b036107f25760405162461bcd60e51b815260040161077e9061488a565b6103e88311156108145760405162461bcd60e51b815260040161077e906148cc565b3360008181526001602052604090819020600a01805490869055905182907f973d9fdad653ba8759dd3d5c02c1880b8663ab2ba904f94010dc32b69c47c9a59061086190849089906148dc565b60405180910390a26001935050505b50919050565b6000805460ff166108995760405162461bcd60e51b815260040161077e906147f0565b600054610100900460ff16156108c15760405162461bcd60e51b815260040161077e9061491e565b600a5460ff16156108e45760405162461bcd60e51b815260040161077e90614832565b6108f68b8b8b8b8b8b8b8b8b8b6124ec565b9b9a5050505050505050505050565b600a5461010090046001600160a01b031633146109345760405162461bcd60e51b815260040161077e90614957565b600a805460ff19811660ff918216159081179092556040517f81fb10540499dac6157b25576349c719be885b5774e4a0dda606c2f33947d51f9261097b9216903390614967565b60405180910390a1565b600060046001600160a01b038316600090815260016020526040902054600160a01b900460ff1660048111156109bd576109bd614842565b1492915050565b600a5461010090046001600160a01b031633146109f35760405162461bcd60e51b815260040161077e90614957565b806001600160a01b038116610a1a5760405162461bcd60e51b815260040161077e906149a6565b50600a80546001600160a01b0390921661010002610100600160a81b0319909216919091179055565b600c54600090600203610a685760405162461bcd60e51b815260040161077e906149e8565b6002600c55600a5460ff1615610a905760405162461bcd60e51b815260040161077e90614832565b8160006001600160a01b038216600090815260016020526040902054600160a01b900460ff166004811115610ac757610ac7614842565b03610ae45760405162461bcd60e51b815260040161077e9061488a565b3360008181526002602090815260408083206001600160a01b038816845290915290208054610b255760405162461bcd60e51b815260040161077e90614a2a565b610b2f82866125c0565b600481015480610b515760405162461bcd60e51b815260040161077e90614a62565b60006004830181905582546001600160a01b038816825260016020526040909120600c0154670de0b6b3a764000091610b8991614a88565b610b939190614ab5565b60038301554360068301556001600160a01b0386166000908152600160205260409020600b8101548211610be0578181600b016000828254610bd59190614ac9565b90915550610be89050565b6000600b8201555b610bf28483612662565b866001600160a01b0316846001600160a01b03167fff939e4e10b7a7d5b84525f6fad2034ade34c1a43c8d4c314aff33eaed41b45984604051610c359190614159565b60405180910390a36001955050505050506001600c55919050565b6000805b600454811015610cb057826001600160a01b031660048281548110610c7b57610c7b614adc565b6000918252602090912001546001600160a01b031603610c9e5750600192915050565b80610ca881614af2565b915050610c54565b50600092915050565b600c54600090600203610cde5760405162461bcd60e51b815260040161077e906149e8565b6002600c55600054610100900460ff1615610d0b5760405162461bcd60e51b815260040161077e9061491e565b600a5460ff1615610d2e5760405162461bcd60e51b815260040161077e90614832565b8160006001600160a01b038216600090815260016020526040902054600160a01b900460ff166004811115610d6557610d65614842565b03610d825760405162461bcd60e51b815260040161077e9061488a565b3360008181526002602090815260408083206001600160a01b038816845290915281206001810154909103610dc95760405162461bcd60e51b815260040161077e90614b32565b620151808160010154610ddc9190614b42565b421015610dfb5760405162461bcd60e51b815260040161077e90614b7d565b8054610e195760405162461bcd60e51b815260040161077e90614bb7565b805460008083556001830155436006830155610e358382612662565b856001600160a01b0316836001600160a01b03167f3ca927248eb3fe77ad85f6de5853a874833484b0985cdb49c8ceaa326162456b83604051610e789190614159565b60405180910390a360019450505050506001600c55919050565b6000805460ff16610eb55760405162461bcd60e51b815260040161077e906147f0565b600054610100900460ff1615610edd5760405162461bcd60e51b815260040161077e9061491e565b600a5460ff1615610f005760405162461bcd60e51b815260040161077e90614832565b610f0b33833461272c565b90505b919050565b6000546201000090046001600160a01b03163314610f435760405162461bcd60e51b815260040161077e90614c05565b600054610100900460ff16610f6a5760405162461bcd60e51b815260040161077e90614c34565b6000805461ff00191681556040517fa45f47fdea8a1efdd9029a5691c7f759c32b7c698632b563573e155625d169339190a1565b600c54600090600203610fc35760405162461bcd60e51b815260040161077e906149e8565b6002600c55600a5460ff1615610feb5760405162461bcd60e51b815260040161077e90614832565b8160006001600160a01b038216600090815260016020526040902054600160a01b900460ff16600481111561102257611022614842565b0361103f5760405162461bcd60e51b815260040161077e9061488a565b6001600160a01b0380841660009081526001602052604090208054339216821461107b5760405162461bcd60e51b815260040161077e90614c6d565b617080816008015461108d9190614b42565b4210156110ac5760405162461bcd60e51b815260040161077e90614cad565b60008160060154116110d05760405162461bcd60e51b815260040161077e90614ce8565b60068101805460009091554260088301556110eb8382612662565b60006110f961708042614b42565b9050836001600160a01b0316876001600160a01b03167ff4e9e956ba4b65051e84982c3ade043c89890cdbc452e9e446afe09cd4db40c88484604051610c359291906148dc565b33611001146111615760405162461bcd60e51b815260040161077e90614d3c565b806001600160a01b0381166111885760405162461bcd60e51b815260040161077e906149a6565b61119182610c50565b156112df576001600160a01b0382166000908152600160205260409020805460ff60a01b1916600160a21b1781556111c88361286e565b6111d183612994565b80600101546000036111e257505050565b6001810154681b1ae4d6e2ef50000090811115611200575060018101545b600182015480611218670de0b6b3a764000084614a88565b6112229190614ab5565b83600d0160008282546112359190614b42565b92505081905550818360010160008282546112509190614ac9565b9250508190555081600560008282546112699190614ac9565b92505081905550818360070160008282546112849190614b42565b9091555061129490508286612b2b565b846001600160a01b03167fa13f594c0411bd8ff8ba5c217cb05fe18c41f44e8176479aa2b084f3a74037b78385600101546040516112d39291906148dc565b60405180910390a25050505b5050565b6001600160a01b03808316600090815260026020908152604080832093851683529281528282206001909152918120825491929183036113295750600401549050611379565b60008260030154670de0b6b3a764000083600c0154856000015461134d9190614a88565b6113579190614ab5565b6113619190614ac9565b90508083600401546113739190614b42565b93505050505b92915050565b6000546201000090046001600160a01b031633146113af5760405162461bcd60e51b815260040161077e90614c05565b600054610100900460ff16156113d75760405162461bcd60e51b815260040161077e90614d6f565b6000805461ff0019166101001781556040517f9e87fac88ff661f02d44f95383c817fece4bce600a3dab7a54406878b965e7529190a1565b6001600160a01b03818116600090815260016020908152604080832081516101a0810190925280549485168252929360609385938493849384938493909190830190600160a01b900460ff16600481111561146c5761146c614842565b600481111561147d5761147d614842565b815260200160018201548152602001600282016040518060800160405290816000820180546114ab90614d95565b80601f01602080910402602001604051908101604052809291908181526020018280546114d790614d95565b80156115245780601f106114f957610100808354040283529160200191611524565b820191906000526020600020905b81548152906001019060200180831161150757829003601f168201915b5050505050815260200160018201805461153d90614d95565b80601f016020809104026020016040519081016040528092919081815260200182805461156990614d95565b80156115b65780601f1061158b576101008083540402835291602001916115b6565b820191906000526020600020905b81548152906001019060200180831161159957829003601f168201915b505050505081526020016002820180546115cf90614d95565b80601f01602080910402602001604051908101604052809291908181526020018280546115fb90614d95565b80156116485780601f1061161d57610100808354040283529160200191611648565b820191906000526020600020905b81548152906001019060200180831161162b57829003601f168201915b5050505050815260200160038201805461166190614d95565b80601f016020809104026020016040519081016040528092919081815260200182805461168d90614d95565b80156116da5780601f106116af576101008083540402835291602001916116da565b820191906000526020600020905b8154815290600101906020018083116116bd57829003601f168201915b50505050508152505081526020016006820154815260200160078201548152602001600882015481526020016009820180548060200260200160405190810160405280929190818152602001828054801561175e57602002820191906000526020600020905b81546001600160a01b03168152600190910190602001808311611740575b50505050508152602001600a8201548152602001600b8201548152602001600c8201548152602001600d8201548152602001600e8201548152505090506060600060048111156117b0576117b0614842565b826020015160048111156117c6576117c6614842565b036117f05750604080518082019091526008815267139bdd115e1a5cdd60c21b60208201526118ee565b60018260200151600481111561180857611808614842565b03611831575060408051808201909152600781526610dc99585d195960ca1b60208201526118ee565b60028260200151600481111561184957611849614842565b03611871575060408051808201909152600681526514dd185ad95960d21b60208201526118ee565b60038260200151600481111561188957611889614842565b036118b25750604080518082019091526007815266556e7374616b6560c81b60208201526118ee565b6004826020015160048111156118ca576118ca614842565b036118ee575060408051808201909152600681526512985a5b195960d21b60208201525b81516040830151608084015160a085015161010090950151929c939b509099509750919550909350915050565b606033411461193c5760405162461bcd60e51b815260040161077e90614e03565b600854431161195d5760405162461bcd60e51b815260040161077e90614e45565b60005460ff1661197f5760405162461bcd60e51b815260040161077e906147f0565b61198a60c843614e55565b156119a75760405162461bcd60e51b815260040161077e90614e8e565b6003546119c65760405162461bcd60e51b815260040161077e90614ec6565b600354606510156119e95760405162461bcd60e51b815260040161077e90614efe565b600380546119f99160049161407a565b507f1eb323543b198ba3bfd5228d5a306101a17cd1b64db20c53d442aa8c11c8b4a3600443604051611a2c929190614f60565b60405180910390a16004805480602002602001604051908101604052809291908181526020018280548015611a8a57602002820191906000526020600020905b81546001600160a01b03168152600190910190602001808311611a6c575b505050505090504360085590565b6000805460ff16611abb5760405162461bcd60e51b815260040161077e906147f0565b600054610100900460ff1615611ae35760405162461bcd60e51b815260040161077e9061491e565b600a5460ff1615611b065760405162461bcd60e51b815260040161077e90614832565b611b1a8a8a8a8a8a8a8a8a8a6101f46124ec565b9a9950505050505050505050565b6000546201000090046001600160a01b03163314611b585760405162461bcd60e51b815260040161077e90614c05565b6001600160a01b038116611b7e5760405162461bcd60e51b815260040161077e90614faa565b600080546040516001600160a01b03808516936201000090930416917f7e644d79422f17c01e4894b5f4f588d331ebfa28653d42ae832dc59e38c9798f91a3600080546001600160a01b03909216620100000262010000600160b01b0319909216919091179055565b6000805460ff16611c0a5760405162461bcd60e51b815260040161077e906147f0565b600a5460ff1615611c2d5760405162461bcd60e51b815260040161077e90614832565b33600081815260016020526040812054600160a01b900460ff166004811115611c5857611c58614842565b03611c755760405162461bcd60e51b815260040161077e9061488a565b6000339050611d558b8b8080601f01602080910402602001604051908101604052809392919081815260200183838082843760009201919091525050604080516020601f8f018190048102820181019092528d815292508d91508c908190840183828082843760009201919091525050604080516020601f8e018190048102820181019092528c815292508c91508b908190840183828082843760009201919091525050604080516020601f8d018190048102820181019092528b815292508b91508a908190840183828082843760009201919091525061205e92505050565b611d715760405162461bcd60e51b815260040161077e90614fe2565b600060016000836001600160a01b03166001600160a01b0316815260200190815260200160002090508c8160000160006101000a8154816001600160a01b0302191690836001600160a01b0316021790555060405180608001604052808d8d8080601f016020809104026020016040519081016040528093929190818152602001838380828437600092019190915250505090825250604080516020601f8e018190048102820181019092528c815291810191908d908d9081908401838280828437600092019190915250505090825250604080516020601f8c018190048102820181019092528a815291810191908b908b9081908401838280828437600092019190915250505090825250604080516020601f8a01819004810282018101909252888152918101919089908990819084018382808284376000920191909152505050915250805160028301908190611eca9082615086565b5060208201516001820190611edf9082615086565b5060408201516002820190611ef49082615086565b5060608201516003820190611f099082615086565b509050508c6001600160a01b0316826001600160a01b03167fcfac5dc75b8d9a7e074162f59d9adcd33da59f0fe8dfb21580db298fc0fdad0d60405160405180910390a35060019c9b505050505050505050505050565b60005460ff1615611f835760405162461bcd60e51b815260040161077e90615175565b8015801590611f93575060658111155b611faf5760405162461bcd60e51b815260040161077e906151b7565b600680546110016001600160a01b03199091161790556000805462010000600160b01b03191633620100008102919091178255600a8054610100600160a81b0319166101009092029190911790556001600c555b8181101561204c5761203a83838381811061202057612020614adc565b905060200201602081019061203591906142e2565b612c1b565b8061204481614af2565b915050612003565b50506000805460ff1916600117905550565b60006080855111156120825760405162461bcd60e51b815260040161077e906151ec565b610100845111156120a55760405162461bcd60e51b815260040161077e90615221565b610100835111156120c85760405162461bcd60e51b815260040161077e90615254565b610400825111156120eb5760405162461bcd60e51b815260040161077e90615289565b506001949350505050565b6060600480548060200260200160405190810160405280929190818152602001828054801561214e57602002820191906000526020600020905b81546001600160a01b03168152600190910190602001808311612130575b5050505050905090565b6000805460ff1661217b5760405162461bcd60e51b815260040161077e906147f0565b600a5460ff161561219e5760405162461bcd60e51b815260040161077e90614832565b33600081815260016020526040902054600490600160a01b900460ff16818111156121cb576121cb614842565b146121e85760405162461bcd60e51b815260040161077e906152c2565b60065460405163169b262360e01b81526001600160a01b039091169063169b26239061221890849060040161430c565b6020604051808303816000875af1158015612237573d6000803e3d6000fd5b505050506040513d601f19601f8201168201806040525081019061225b91906152e5565b6122775760405162461bcd60e51b815260040161077e90615338565b6001600160a01b03811660009081526001602081905260409091209081015469021e19e0c9bab2400000116122cd57805460ff60a01b1916600160a11b17815560018101546122c7908390612da8565b506122df565b805460ff60a01b1916600360a01b1781555b6040516001600160a01b038316907f9390b453426557da5ebdc31f19a37753ca04addf656d32f35232211bb2af3f1990600090a260019250505090565b33411461233b5760405162461bcd60e51b815260040161077e90614e03565b600754431161235c5760405162461bcd60e51b815260040161077e90615373565b60005460ff1661237e5760405162461bcd60e51b815260040161077e906147f0565b61238960c843614e55565b156123a65760405162461bcd60e51b815260040161077e90614e8e565b34156123b7576123b7346000612b2b565b43600755565b6000805460ff166123e05760405162461bcd60e51b815260040161077e906147f0565b600054610100900460ff16156124085760405162461bcd60e51b815260040161077e9061491e565b600a5460ff161561242b5760405162461bcd60e51b815260040161077e90614832565b8160006001600160a01b038216600090815260016020526040902054600160a01b900460ff16600481111561246257612462614842565b0361247f5760405162461bcd60e51b815260040161077e9061488a565b3360008181526002602090815260408083206001600160a01b038816845290915290206001810154156124c45760405162461bcd60e51b815260040161077e906153a9565b80546124e25760405162461bcd60e51b815260040161077e906153e1565b6120eb8286613066565b60008a6001600160a01b0381166125155760405162461bcd60e51b815260040161077e906149a6565b33600081815260016020526040812054600160a01b900460ff16600481111561254057612540614842565b1461255d5760405162461bcd60e51b815260040161077e90615423565b6103e884111561257f5760405162461bcd60e51b815260040161077e906148cc565b612592818e8e8e8e8e8e8e8e8e8e61320a565b34156125ab576125a381823461272c565b9250506125b1565b60019250505b509a9950505050505050505050565b6125ca82826134de565b6001600160a01b0380831660009081526002602090815260408083209385168352928152828220600190915291902081541561265c5760008260030154670de0b6b3a764000083600c015485600001546126249190614a88565b61262e9190614ab5565b6126389190614ac9565b9050801561265a57808360040160008282546126549190614b42565b90915550505b505b50505050565b8060000361266e575050565b6001600160a01b0382166126945760405162461bcd60e51b815260040161077e90615465565b804710156126b45760405162461bcd60e51b815260040161077e9061549e565b6000826001600160a01b03168260405160006040518083038185875af1925050503d8060008114612701576040519150601f19603f3d011682016040523d82523d6000602084013e612706565b606091505b50509050806127275760405162461bcd60e51b815260040161077e906154d2565b505050565b60006001600160a01b0384161580159061274e57506001600160a01b03831615155b61276a5760405162461bcd60e51b815260040161077e906149a6565b6000821161278a5760405162461bcd60e51b815260040161077e90615514565b60006001600160a01b038416600090815260016020526040902054600160a01b900460ff1660048111156127c0576127c0614842565b036127dd5760405162461bcd60e51b815260040161077e9061488a565b6001600160a01b0380851660009081526002602090815260408083209387168352929052206001810154156128245760405162461bcd60e51b815260040161077e90615556565b805460000361285657683635c9adc5dea000008310156128565760405162461bcd60e51b815260040161077e90615598565b61286185858561365c565b60019150505b9392505050565b60005b6004548110801561288457506004546001105b156112df576004818154811061289c5761289c614adc565b6000918252602090912001546001600160a01b0390811690831603612982576004546128ca90600190614ac9565b811461294b57600480546128e090600190614ac9565b815481106128f0576128f0614adc565b600091825260209091200154600480546001600160a01b03909216918390811061291c5761291c614adc565b9060005260206000200160006101000a8154816001600160a01b0302191690836001600160a01b031602179055505b600480548061295c5761295c6155a8565b600082815260209020810160001990810180546001600160a01b03191690550190555050565b8061298c81614af2565b915050612871565b6001600160a01b03811660009081526009602052604090205460ff166129b75750565b60005b600354811080156129cd57506003546001105b156112df57816001600160a01b0316600382815481106129ef576129ef614adc565b6000918252602090912001546001600160a01b031603612b1957600354612a1890600190614ac9565b8114612a995760038054612a2e90600190614ac9565b81548110612a3e57612a3e614adc565b600091825260209091200154600380546001600160a01b039092169183908110612a6a57612a6a614adc565b9060005260206000200160006101000a8154816001600160a01b0302191690836001600160a01b031602179055505b6003805480612aaa57612aaa6155a8565b60008281526020808220830160001990810180546001600160a01b03191690559092019092556001600160a01b03841680835260099091526040808320805460ff191690555190917f4fc54cda221fafc19baae2a4c79ae99dd0916c88b67ab97d3122a5afe333fc1d91a25050565b80612b2381614af2565b9150506129ba565b81600003612b37575050565b6000805b600454811015612c025760046001600060048481548110612b5e57612b5e614adc565b60009182526020808320909101546001600160a01b0316835282019290925260400190205460ff600160a01b909104166004811115612b9f57612b9f614842565b14158015612bdd5750826001600160a01b031660048281548110612bc557612bc5614adc565b6000918252602090912001546001600160a01b031614155b15612bf05781612bec81614af2565b9250505b80612bfa81614af2565b915050612b3b565b5080600003612c1057505050565b612727838383613825565b6001600160a01b038116612c415760405162461bcd60e51b815260040161077e906155f0565b6001600160a01b03811660009081526009602052604090205460ff16612cc5576003805460018082019092557fc2575a0e9e593c00f959f8c92f12db2869c3395a3b0502d05e2516446f71f85b0180546001600160a01b0319166001600160a01b0384169081179091556000908152600960205260409020805460ff191690911790555b612cce81610c50565b612d1e57600480546001810182556000919091527f8a35acfbc15ff81a39ae7d344fd709f28e8600b4aa8c65c6b64bfe7fe36bd19b0180546001600160a01b0319166001600160a01b0383161790555b6001600160a01b0380821660009081526001602052604090208054909116612d5a5780546001600160a01b0319166001600160a01b0383161781555b60008154600160a01b900460ff166004811115612d7957612d79614842565b03612d9057805460ff60a01b1916600160a11b1781555b80600a01546000036112df576101f4600a8201555050565b6001600160a01b03821660009081526009602052604081205460ff1615612dd157506001611379565b60035460651115612e81576003805460018082019092557fc2575a0e9e593c00f959f8c92f12db2869c3395a3b0502d05e2516446f71f85b0180546001600160a01b0319166001600160a01b03861690811790915560008181526009602052604090819020805460ff191690931790925590517faa45e8a267cc523c778ebbbd8e3ecb5bf7627c28a8d043af282593529ea367ce90612e71908590614159565b60405180910390a2506001611379565b6000600160006003600081548110612e9b57612e9b614adc565b60009182526020808320909101546001600160a01b03168352820192909252604001812060019081015492505b600354811015612f375760006001600060038481548110612eeb57612eeb614adc565b60009182526020808320909101546001600160a01b03168352820192909252604001902060010154905083811015612f24578093508192505b5080612f2f81614af2565b915050612ec8565b50818411612f4a57600092505050611379565b600060038281548110612f5f57612f5f614adc565b60009182526020822001546040516001600160a01b03909116925082917f4fc54cda221fafc19baae2a4c79ae99dd0916c88b67ab97d3122a5afe333fc1d91a2856001600160a01b03167faa45e8a267cc523c778ebbbd8e3ecb5bf7627c28a8d043af282593529ea367ce86604051612fd89190614159565b60405180910390a26001600160a01b0381166000908152600960205260409020805460ff19169055600380548791908490811061301757613017614adc565b600091825260208083209190910180546001600160a01b0319166001600160a01b03948516179055979091168152600990965250506040909320805460ff191660019081179091559392505050565b6001600160a01b0380831660009081526002602090815260408083209385168352928152828220600191829052929091208254600454919290911480156130b157506130b184610c50565b80156130d5575069021e19e0c9bab24000008183600101546130d39190614ac9565b105b156130f25760405162461bcd60e51b815260040161077e90615647565b6130fc85856125c0565b61310685856134de565b6131108585613b73565b808260010160008282546131249190614ac9565b90915550504260018401554360068401556005805482919060009061314a908490614ac9565b9091555050600182015469021e19e0c9bab2400000111561317757815460ff60a01b1916600360a01b1782555b60006131866201518042614b42565b9050846001600160a01b0316866001600160a01b03167f18edd09e80386cd99df397e2e0d87d2bb259423eae08645e776321a36fe680ef84846040516131cd9291906148dc565b60405180910390a360028354600160a01b900460ff1660048111156131f4576131f4614842565b146132025761320285612994565b505050505050565b6132e589898080601f01602080910402602001604051908101604052809392919081815260200183838082843760009201919091525050604080516020601f8d018190048102820181019092528b815292508b91508a908190840183828082843760009201919091525050604080516020601f8c018190048102820181019092528a815292508a915089908190840183828082843760009201919091525050604080516020601f8b01819004810282018101909252898152925089915088908190840183828082843760009201919091525061205e92505050565b6133015760405162461bcd60e51b815260040161077e90614fe2565b6001600160a01b038b81166000908152600160209081526040918290208054938e166001600160a81b031990941693909317600160a01b178355815160a0601f8d0183900490920281018201909252608082018b815282918d908d9081908501838280828437600092019190915250505090825250604080516020601f8c018190048102820181019092528a815291810191908b908b9081908401838280828437600092019190915250505090825250604080516020601f8a0181900481028201810190925288815291810191908990899081908401838280828437600092019190915250505090825250604080516020601f88018190048102820181019092528681529181019190879087908190840183828082843760009201919091525050509152508051600283019081906134399082615086565b506020820151600182019061344e9082615086565b50604082015160028201906134639082615086565b50606082015160038201906134789082615086565b509050508181600a01819055508a6001600160a01b03168c6001600160a01b03167f91ba9e4ee44dd0a1764da83d050d0e9b503df39488e5fa49093d6e7cf8fd92ca846040516134c89190614159565b60405180910390a3505050505050505050505050565b6001600160a01b03808316600090815260026020908152604080832093851683529281528282206001909152918120825490910361352457600d01546005909101555050565b816005015481600d0154116135395750505050565b6000826005015482600d015461354f9190614ac9565b90506000670de0b6b3a764000082856000015461356c9190614a88565b6135769190614ab5565b905080600003613590575050600d01546005909101555050565b835481106135d5578354600580546000906135ac908490614ac9565b909155505083546001840180546000906135c7908490614ac9565b909155505060008455613623565b808460000160008282546135e99190614ac9565b9250508190555080600560008282546136029190614ac9565b925050819055508083600101600082825461361d9190614ac9565b90915550505b8354600c840154670de0b6b3a76400009161363d91614a88565b6136479190614ab5565b60038501555050600d01546005909101555050565b6001600160a01b0380831660008181526001602081815260408084209589168452600282528084209484529390529190209082015469021e19e0c9bab2400000906136a8908590614b42565b10156136c65760405162461bcd60e51b815260040161077e90615695565b6136d085856134de565b80546000036136e9576136e4858585613d2d565b6136f4565b6136f4858585613dc4565b828260010160008282546137089190614b42565b9091555050805483908290600090613721908490614b42565b909155505043600682015560058054849190600090613741908490614b42565b90915550600290508254600160a01b900460ff16600481111561376657613766614842565b14158015613791575060048254600160a01b900460ff16600481111561378e5761378e614842565b14155b156137a857815460ff60a01b1916600160a11b1782555b836001600160a01b0316856001600160a01b03167f795c91e2fef542f2e8bccd08552a8961ecb158d0f47be08f5c44b349993b07a9856040516137eb9190614159565b60405180910390a360028254600160a01b900460ff16600481111561381257613812614842565b0361265a57613202848360010154612da8565b6000816001600160401b0381111561383f5761383f6145ff565b604051908082528060200260200182016040528015613868578160200160208202803683370190505b5090506000826001600160401b03811115613885576138856145ff565b6040519080825280602002602001820160405280156138ae578160200160208202803683370190505b50905060008060005b600454811015613a2c57600460016000600484815481106138da576138da614adc565b60009182526020808320909101546001600160a01b0316835282019290925260400190205460ff600160a01b90910416600481111561391b5761391b614842565b141580156139595750866001600160a01b03166004828154811061394157613941614adc565b6000918252602090912001546001600160a01b031614155b15613a1a576004818154811061397157613971614adc565b9060005260206000200160009054906101000a90046001600160a01b03168583815181106139a1576139a1614adc565b60200260200101906001600160a01b031690816001600160a01b03168152505060016000600483815481106139d8576139d8614adc565b60009182526020808320909101546001600160a01b03168352820192909252604001902060010154613a0a9084614b42565b925081613a1681614af2565b9250505b80613a2481614af2565b9150506138b7565b506000805b86811015613b0e5760008415613aa0578460016000898581518110613a5857613a58614adc565b60200260200101516001600160a01b03166001600160a01b03168152602001908152602001600020600101548b613a8f9190614a88565b613a999190614ab5565b9050613aad565b613aaa888b614ab5565b90505b613ad0878381518110613ac257613ac2614adc565b602002602001015182613e8e565b80868381518110613ae357613ae3614adc565b6020908102919091010152613af88184614b42565b9250508080613b0690614af2565b915050613a31565b50613b23613b1c828a614ac9565b8686613f73565b7fd71bb710cd55fd674b86b6d8349571d9467f07c45170642bf524ba287653d83785858a613b518582614ac9565b604051613b6194939291906156ec565b60405180910390a15050505050505050565b6001600160a01b038083166000908152600260209081526040808320938516835292815282822060019091529190206009810154613bc35760405162461bcd60e51b815260040161077e90615758565b6009810154600283015410613bea5760405162461bcd60e51b815260040161077e9061578a565b6009810154613bfb90600190614ac9565b826002015414613ce757600981018054613c1790600190614ac9565b81548110613c2757613c27614adc565b9060005260206000200160009054906101000a90046001600160a01b031681600901836002015481548110613c5e57613c5e614adc565b9060005260206000200160006101000a8154816001600160a01b0302191690836001600160a01b0316021790555081600201546002600083600901856002015481548110613cae57613cae614adc565b60009182526020808320909101546001600160a01b03908116845283820194909452604092830182209388168252929092529020600201555b80600901805480613cfa57613cfa6155a8565b600082815260209020810160001990810180546001600160a01b0319169055908101909155600290920191909155505050565b6001600160a01b03808316600081815260016020818152604080842095891680855260028084528286209686529583529084206009870180549682018790559386018455928452922090920180546001600160a01b0319169091179055600c820154670de0b6b3a764000090613da4908590614a88565b613dae9190614ab5565b6003820155600d90910154600590910155505050565b6001600160a01b03808316600081815260016020818152604080842095891684526002808352818520958552949091529091209182015401613e385760098201805460028301819055600181018255600091825260209091200180546001600160a01b0319166001600160a01b0387161790555b613e4285856125c0565b670de0b6b3a76400008383600c0154613e5b9190614a88565b613e659190614ab5565b816003016000828254613e789190614b42565b9091555050600d90910154600590910155505050565b80600003613e9a575050565b6001600160a01b0382166000908152600160205260408120600a81015490919061271090613ec89085614a88565b613ed29190614ab5565b90506000613ee08285614ac9565b905081836006016000828254613ef69190614b42565b9091555050600183015415801590613f0e5750600081115b15613f66578083600b016000828254613f279190614b42565b90915550506001830154613f43670de0b6b3a764000083614a88565b613f4d9190614ab5565b83600c016000828254613f609190614b42565b90915550505b505043600e909101555050565b600083118015613f84575060008251115b156127275782600b6000828254613f9b9190614b42565b9091555050600b5466038d7ea4c68000111580613fc05750613fbe606443614e55565b155b1561272757600b80546000918290558351909190613fde9083614ab5565b90506000845182613fef9190614a88565b613ff99084614ac9565b905060005b85518110156140715782600082900361401e5761401b8382614b42565b90505b614033878381518110613ac257613ac2614adc565b8086838151811061404657614046614adc565b6020026020010181815161405a9190614b42565b90525081905061406981614af2565b915050613ffe565b50505050505050565b8280548282559060005260206000209081019282156140ba5760005260206000209182015b828111156140ba57825482559160010191906001019061409f565b506140c69291506140ca565b5090565b5b808211156140c657600081556001016140cb565b805b81146140ec57600080fd5b50565b8035611379816140df565b60006020828403121561410f5761410f600080fd5b600061411b84846140ef565b949350505050565b8015155b82525050565b602081016113798284614123565b61ffff8116614127565b60208101611379828461413b565b80614127565b602081016113798284614153565b60006001600160a01b038216610f0b565b6140e181614167565b803561137981614178565b60008083601f8401126141a1576141a1600080fd5b5081356001600160401b038111156141bb576141bb600080fd5b6020830191508360018202830111156141d6576141d6600080fd5b9250929050565b60008060008060008060008060008060c08b8d0312156141ff576141ff600080fd5b600061420b8d8d614181565b9a505060208b01356001600160401b0381111561422a5761422a600080fd5b6142368d828e0161418c565b995099505060408b01356001600160401b0381111561425757614257600080fd5b6142638d828e0161418c565b975097505060608b01356001600160401b0381111561428457614284600080fd5b6142908d828e0161418c565b955095505060808b01356001600160401b038111156142b1576142b1600080fd5b6142bd8d828e0161418c565b935093505060a06142d08d828e016140ef565b9150509295989b9194979a5092959850565b6000602082840312156142f7576142f7600080fd5b600061411b8484614181565b61412781614167565b602081016113798284614303565b6000806040838503121561433057614330600080fd5b600061433c8585614181565b925050602061434d85828601614181565b9150509250929050565b60005b8381101561437257818101518382015260200161435a565b50506000910152565b6000614385825190565b80845260208401935061439c818560208601614357565b601f01601f19169290920192915050565b60c081016143bb8289614303565b81810360208301526143cd818861437b565b90506143dc6040830187614153565b6143e96060830186614153565b6143f66080830185614153565b61440360a0830184614153565b979650505050505050565b6144188282614303565b5060200190565b60200190565b600061442f825190565b808452602093840193830160005b82811015614462578151614451878261440e565b96505060208201915060010161443d565b5093949350505050565b602080825281016128678184614425565b600080600080600080600080600060a08a8c03121561449e5761449e600080fd5b60006144aa8c8c614181565b99505060208a01356001600160401b038111156144c9576144c9600080fd5b6144d58c828d0161418c565b985098505060408a01356001600160401b038111156144f6576144f6600080fd5b6145028c828d0161418c565b965096505060608a01356001600160401b0381111561452357614523600080fd5b61452f8c828d0161418c565b945094505060808a01356001600160401b0381111561455057614550600080fd5b61455c8c828d0161418c565b92509250509295985092959850929598565b60008083601f84011261458357614583600080fd5b5081356001600160401b0381111561459d5761459d600080fd5b6020830191508360208202830111156141d6576141d6600080fd5b600080602083850312156145ce576145ce600080fd5b82356001600160401b038111156145e7576145e7600080fd5b6145f38582860161456e565b92509250509250929050565b634e487b7160e01b600052604160045260246000fd5b601f19601f83011681018181106001600160401b038211171561463a5761463a6145ff565b6040525050565b600061464c60405190565b9050610f0e8282614615565b60006001600160401b03821115614671576146716145ff565b601f19601f83011660200192915050565b82818337506000910152565b60006146a161469c84614658565b614641565b9050828152602081018484840111156146bc576146bc600080fd5b6146c7848285614682565b509392505050565b600082601f8301126146e3576146e3600080fd5b813561411b84826020860161468e565b6000806000806080858703121561470c5761470c600080fd5b84356001600160401b0381111561472557614725600080fd5b614731878288016146cf565b94505060208501356001600160401b0381111561475057614750600080fd5b61475c878288016146cf565b93505060408501356001600160401b0381111561477b5761477b600080fd5b614787878288016146cf565b92505060608501356001600160401b038111156147a6576147a6600080fd5b6147b2878288016146cf565b91505092959194509250565b60198152602081017f74686520636f6e7472616374206e6f7420696e697420796574000000000000008152905061441f565b60208082528101610f0b816147be565b60198152602081017f436f6e747261637420656d657267656e637920706175736564000000000000008152905061441f565b60208082528101610f0b81614800565b634e487b7160e01b600052602160045260246000fd5b60188152602081017f56616c696461746f7220646f6573206e6f7420657869737400000000000000008152905061441f565b60208082528101610f0b81614858565b60188152602081017f436f6d6d697373696f6e207261746520746f6f206869676800000000000000008152905061441f565b60208082528101610f0b8161489a565b604081016148ea8285614153565b6128676020830184614153565b60128152602081017110dbdb9d1c9858dd081a5cc81c185d5cd95960721b8152905061441f565b60208082528101610f0b816148f7565b60148152602081017327b7363c9032b6b2b933b2b731bc9030b236b4b760611b8152905061441f565b60208082528101610f0b8161492e565b604081016149758285614123565b6128676020830184614303565b600f8152602081016e496e76616c6964206164647265737360881b8152905061441f565b60208082528101610f0b81614982565b601f8152602081017f5265656e7472616e637947756172643a207265656e7472616e742063616c6c008152905061441f565b60208082528101610f0b816149b6565b60178152602081017f4e6f207374616b6520776974682076616c696461746f720000000000000000008152905061441f565b60208082528101610f0b816149f8565b6013815260208101724e6f207265776172647320746f20636c61696d60681b8152905061441f565b60208082528101610f0b81614a3a565b634e487b7160e01b600052601160045260246000fd5b818102811582820484141761137957611379614a72565b634e487b7160e01b600052601260045260246000fd5b600082614ac457614ac4614a9f565b500490565b8181038181111561137957611379614a72565b634e487b7160e01b600052603260045260246000fd5b600060018201614b0457614b04614a72565b5060010190565b601281526020810171135d5cdd081d5b9cdd185ad948199a5c9cdd60721b8152905061441f565b60208082528101610f0b81614b0b565b8082018082111561137957611379614a72565b601381526020810172151bdad95b9cc81cdd1a5b1b081b1bd8dad959606a1b8152905061441f565b60208082528101610f0b81614b55565b6015815260208101744e6f20746f6b656e7320746f20776974686472617760581b8152905061441f565b60208082528101610f0b81614b8d565b60218152602081017f4f6e6c792061646d696e2063616e2063616c6c20746869732066756e6374696f8152603760f91b602082015290505b60400190565b60208082528101610f0b81614bc7565b600a81526020810169139bdd081c185d5cd95960b21b8152905061441f565b60208082528101610f0b81614c15565b601481526020810173139bdd081c995dd85c99081c9958da5c1a595b9d60621b8152905061441f565b60208082528101610f0b81614c44565b60208082527f4d7573742077616974206265666f7265206e657874207769746864726177616c910190815261441f565b60208082528101610f0b81614c7d565b6016815260208101754e6f207265776172647320746f20776974686472617760501b8152905061441f565b60208082528101610f0b81614cbd565b60298152602081017f746865206d6573736167652073656e646572206d75737420626520736c6173688152680818dbdb9d1c9858dd60ba1b60208201529050614bff565b60208082528101610f0b81614cf8565b600e8152602081016d105b1c9958591e481c185d5cd95960921b8152905061441f565b60208082528101610f0b81614d4c565b634e487b7160e01b600052602260045260246000fd5b600281046001821680614da957607f821691505b60208210810361087057610870614d7f565b602d8152602081017f746865206d6573736167652073656e646572206d75737420626520746865206281526c3637b1b590383937b23ab1b2b960991b60208201529050614bff565b60208082528101610f0b81614dbb565b601a8152602081017f56616c696461746f727320616c726561647920757064617465640000000000008152905061441f565b60208082528101610f0b81614e13565b600082614e6457614e64614a9f565b500690565b60108152602081016f426c6f636b2065706f6368206f6e6c7960801b8152905061441f565b60208082528101610f0b81614e69565b601381526020810172115b5c1d1e4818d85b991a59185d19481cd95d606a1b8152905061441f565b60208082528101610f0b81614e9e565b601381526020810172546f6f206d616e792063616e6469646174657360681b8152905061441f565b60208082528101610f0b81614ed6565b6000610f0b8254614167565b6000614f24825490565b80845260008381526020808220950194905b8281101561446257614f4782614f0e565b614f51878261440e565b96505060019182019101614f36565b60408082528101614f718185614f1a565b90506128676020830184614153565b601581526020810174496e76616c69642061646d696e206164647265737360581b8152905061441f565b60208082528101610f0b81614f80565b60138152602081017224b73b30b634b2103232b9b1b934b83a34b7b760691b8152905061441f565b60208082528101610f0b81614fba565b6000610f0b614ffe8381565b90565b61500a83614ff2565b815460001960089490940293841b1916921b91909117905550565b6000612727818484615001565b818110156112df57615045600082615025565b600101615032565b601f821115612727576000818152602090206020601f850104810160208510156150745750805b61265a6020601f860104830182615032565b81516001600160401b0381111561509f5761509f6145ff565b6150a98254614d95565b6150b482828561504d565b506020601f8211600181146150e957600083156150d15750848201515b600019600885021c198116600285021785555061265a565b600084815260208120601f198516915b8281101561511957878501518255602094850194600190920191016150f9565b50848210156151365783870151600019601f87166008021c191681555b50505050600202600101905550565b60208082527f74686520636f6e747261637420616c726561647920696e697469616c697a6564910190815261441f565b60208082528101610f0b81615145565b60178152602081017f496e76616c69642076616c696461746f7220636f756e740000000000000000008152905061441f565b60208082528101610f0b81615185565b60108152602081016f4d6f6e696b657220746f6f206c6f6e6760801b8152905061441f565b60208082528101610f0b816151c7565b60108152602081016f5765627369746520746f6f206c6f6e6760801b8152905061441f565b60208082528101610f0b816151fc565b600e8152602081016d456d61696c20746f6f206c6f6e6760901b8152905061441f565b60208082528101610f0b81615231565b60108152602081016f44657461696c7320746f6f206c6f6e6760801b8152905061441f565b60208082528101610f0b81615264565b60148152602081017315985b1a59185d1bdc881b9bdd081a985a5b195960621b8152905061441f565b60208082528101610f0b81615299565b8015156140e1565b8051611379816152d2565b6000602082840312156152fa576152fa600080fd5b600061411b84846152da565b601c8152602081017f4661696c656420746f20636c65616e20736c617368207265636f7264000000008152905061441f565b60208082528101610f0b81615306565b601681526020810175109b1bd8dac8185b1c9958591e481c995dd85c99195960521b8152905061441f565b60208082528101610f0b81615348565b601181526020810170416c726561647920756e7374616b696e6760781b8152905061441f565b60208082528101610f0b81615383565b6013815260208101724e6f207374616b6520746f20756e7374616b6560681b8152905061441f565b60208082528101610f0b816153b9565b60188152602081017f56616c696461746f7220616c72656164792065786973747300000000000000008152905061441f565b60208082528101610f0b816153f1565b60188152602081017f5472616e7366657220746f207a65726f206164647265737300000000000000008152905061441f565b60208082528101610f0b81615433565b601481526020810173496e73756666696369656e742062616c616e636560601b8152905061441f565b60208082528101610f0b81615475565b600f8152602081016e151c985b9cd9995c8819985a5b1959608a1b8152905061441f565b60208082528101610f0b816154ae565b601d8152602081017f416d6f756e74206d7573742062652067726561746572207468616e20300000008152905061441f565b60208082528101610f0b816154e2565b601c8152602081017f43616e6e6f74207374616b65207768696c6520756e7374616b696e67000000008152905061441f565b60208082528101610f0b81615524565b601b8152602081017f496e697469616c207374616b652062656c6f77206d696e696d756d00000000008152905061441f565b60208082528101610f0b81615566565b634e487b7160e01b600052603160045260246000fd5b60198152602081017f496e76616c69642076616c696461746f722061646472657373000000000000008152905061441f565b60208082528101610f0b816155be565b602c8152602081017f43616e6e6f7420756e7374616b653a20776f756c642064697361626c65206c6181526b39ba103b30b634b230ba37b960a11b60208201529050614bff565b60208082528101610f0b81615600565b60238152602081017f546f74616c207374616b652062656c6f77206d696e696d756d207468726573688152621bdb1960ea1b60208201529050614bff565b60208082528101610f0b81615657565b6144188282614153565b60006156b9825190565b808452602093840193830160005b828110156144625781516156db87826156a5565b9650506020820191506001016156c7565b608080825281016156fd8187614425565b9050818103602083015261571181866156af565b90506157206040830185614153565b61572d6060830184614153565b95945050505050565b600d8152602081016c4e6f2064656c656761746f727360981b8152905061441f565b60208082528101610f0b81615736565b600d8152602081016c092dcecc2d8d2c840d2dcc8caf609b1b8152905061441f565b60208082528101610f0b8161576856fea164736f6c6343000813000a",
  "linkReferences": {},
  "deployedLinkReferences": {}
}