{
  "_format": "hh-sol-artifact-1",
  "contractName": "Slash",
  "sourceName": "contracts/Slash.sol",
  "abi": [
    {
      "anonymous": false,
      "inputs": [
        {
          "indexed": true,
          "internalType": "address",
          "name": "previousAdmin",
          "type": "address"
        },
        {
          "indexed": true,
          "internalType": "address",
          "name": "newAdmin",
          "type": "address"
        }
      ],
      "name": "AdminChanged",
      "type": "event"
    },
    {
      "anonymous": false,
      "inputs": [],
      "name": "Paused",
      "type": "event"
    },
    {
      "anonymous": false,
      "inputs": [
        {
          "indexed": false,
          "internalType": "uint256",
          "name": "newThreshold",
          "type": "uint256"
        },
        {
          "indexed": false,
          "internalType": "uint256",
          "name": "newDecreaseRate",
          "type": "uint256"
        }
      ],
      "name": "SlashParametersUpdated",
      "type": "event"
    },
    {
      "anonymous": false,
      "inputs": [
        {
          "indexed": true,
          "internalType": "address",
          "name": "validator",
          "type": "address"
        }
      ],
      "name": "SlashRecordCleared",
      "type": "event"
    },
    {
      "anonymous": false,
      "inputs": [],
      "name": "Unpaused",
      "type": "event"
    },
    {
      "anonymous": false,
      "inputs": [
        {
          "indexed": false,
          "internalType": "address[]",
          "name": "validators",
          "type": "address[]"
        },
        {
          "indexed": false,
          "internalType": "uint256[]",
          "name": "missedBlockCounters",
          "type": "uint256[]"
        },
        {
          "indexed": false,
          "internalType": "uint256",
          "name": "decreasedCount",
          "type": "uint256"
        }
      ],
      "name": "ValidatorDecreasedMissedBlockCounter",
      "type": "event"
    },
    {
      "anonymous": false,
      "inputs": [
        {
          "indexed": true,
          "internalType": "address",
          "name": "validator",
          "type": "address"
        },
        {
          "indexed": false,
          "internalType": "uint256",
          "name": "missedCount",
          "type": "uint256"
        }
      ],
      "name": "ValidatorMissedBlock",
      "type": "event"
    },
    {
      "anonymous": false,
      "inputs": [
        {
          "indexed": true,
          "internalType": "address",
          "name": "validator",
          "type": "address"
        },
        {
          "indexed": false,
          "internalType": "uint256",
          "name": "missedBlocksCounter",
          "type": "uint256"
        }
      ],
      "name": "ValidatorSlashed",
      "type": "event"
    },
    {
      "inputs": [],
      "name": "BlockEpoch",
      "outputs": [
        {
          "internalType": "uint256",
          "name": "",
          "type": "uint256"
        }
      ],
      "stateMutability": "view",
      "type": "function"
    },
    {
      "inputs": [],
      "name": "DEFAULT_DECREASE_RATE",
      "outputs": [
        {
          "internalType": "uint256",
          "name": "",
          "type": "uint256"
        }
      ],
      "stateMutability": "view",
      "type": "function"
    },
    {
      "inputs": [],
      "name": "DEFAULT_SLASH_THRESHOLD",
      "outputs": [
        {
          "internalType": "uint256",
          "name": "",
          "type": "uint256"
        }
      ],
      "stateMutability": "view",
      "type": "function"
    },
    {
      "inputs": [],
      "name": "SlashContractAddr",
      "outputs": [
        {
          "internalType": "address",
          "name": "",
          "type": "address"
        }
      ],
      "stateMutability": "view",
      "type": "function"
    },
    {
      "inputs": [],
      "name": "ValidatorContractAddr",
      "outputs": [
        {
          "internalType": "address",
          "name": "",
          "type": "address"
        }
      ],
      "stateMutability": "view",
      "type": "function"
    },
    {
      "inputs": [],
      "name": "admin",
      "outputs": [
        {
          "internalType": "address",
          "name": "",
          "type": "address"
        }
      ],
      "stateMutability": "view",
      "type": "function"
    },
    {
      "inputs": [
        {
          "internalType": "address",
          "name": "validator",
          "type": "address"
        }
      ],
      "name": "blocksUntilSlash",
      "outputs": [
        {
          "internalType": "uint256",
          "name": "",
          "type": "uint256"
        }
      ],
      "stateMutability": "view",
      "type": "function"
    },
    {
      "inputs": [
        {
          "internalType": "address",
          "name": "newAdmin",
          "type": "address"
        }
      ],
      "name": "changeAdmin",
      "outputs": [],
      "stateMutability": "nonpayable",
      "type": "function"
    },
    {
      "inputs": [
        {
          "internalType": "address",
          "name": "validator",
          "type": "address"
        }
      ],
      "name": "clean",
      "outputs": [
        {
          "internalType": "bool",
          "name": "",
          "type": "bool"
        }
      ],
      "stateMutability": "nonpayable",
      "type": "function"
    },
    {
      "inputs": [],
      "name": "decreaseMissedBlocksCounter",
      "outputs": [],
      "stateMutability": "nonpayable",
      "type": "function"
    },
    {
      "inputs": [],
      "name": "decreaseRate",
      "outputs": [
        {
          "internalType": "uint256",
          "name": "",
          "type": "uint256"
        }
      ],
      "stateMutability": "view",
      "type": "function"
    },
    {
      "inputs": [],
      "name": "getAllSlashValidators",
      "outputs": [
        {
          "internalType": "address[]",
          "name": "",
          "type": "address[]"
        }
      ],
      "stateMutability": "view",
      "type": "function"
    },
    {
      "inputs": [
        {
          "internalType": "address",
          "name": "validator",
          "type": "address"
        }
      ],
      "name": "getSlashRecord",
      "outputs": [
        {
          "internalType": "uint256",
          "name": "",
          "type": "uint256"
        }
      ],
      "stateMutability": "view",
      "type": "function"
    },
    {
      "inputs": [],
      "name": "getSlashValidatorsLen",
      "outputs": [
        {
          "internalType": "uint256",
          "name": "",
          "type": "uint256"
        }
      ],
      "stateMutability": "view",
      "type": "function"
    },
    {
      "inputs": [],
      "name": "initialize",
      "outputs": [],
      "stateMutability": "nonpayable",
      "type": "function"
    },
    {
      "inputs": [],
      "name": "initialized",
      "outputs": [
        {
          "internalType": "bool",
          "name": "",
          "type": "bool"
        }
      ],
      "stateMutability": "view",
      "type": "function"
    },
    {
      "inputs": [],
      "name": "pause",
      "outputs": [],
      "stateMutability": "nonpayable",
      "type": "function"
    },
    {
      "inputs": [],
      "name": "paused",
      "outputs": [
        {
          "internalType": "bool",
          "name": "",
          "type": "bool"
        }
      ],
      "stateMutability": "view",
      "type": "function"
    },
    {
      "inputs": [
        {
          "internalType": "address",
          "name": "validator",
          "type": "address"
        }
      ],
      "name": "slash",
      "outputs": [],
      "stateMutability": "nonpayable",
      "type": "function"
    },
    {
      "inputs": [
        {
          "internalType": "address",
          "name": "validator",
          "type": "address"
        }
      ],
      "name": "slashRecordExists",
      "outputs": [
        {
          "internalType": "bool",
          "name": "",
          "type": "bool"
        }
      ],
      "stateMutability": "view",
      "type": "function"
    },
    {
      "inputs": [
        {
          "internalType": "address",
          "name": "",
          "type": "address"
        }
      ],
      "name": "slashRecords",
      "outputs": [
        {
          "internalType": "uint256",
          "name": "missedBlocksCounter",
          "type": "uint256"
        },
        {
          "internalType": "uint256",
          "name": "index",
          "type": "uint256"
        },
        {
          "internalType": "uint256",
          "name": "decreasePrevNumber",
          "type": "uint256"
        },
        {
          "internalType": "bool",
          "name": "exist",
          "type": "bool"
        }
      ],
      "stateMutability": "view",
      "type": "function"
    },
    {
      "inputs": [],
      "name": "slashThreshold",
      "outputs": [
        {
          "internalType": "uint256",
          "name": "",
          "type": "uint256"
        }
      ],
      "stateMutability": "view",
      "type": "function"
    },
    {
      "inputs": [
        {
          "internalType": "uint256",
          "name": "",
          "type": "uint256"
        }
      ],
      "name": "slashValidators",
      "outputs": [
        {
          "internalType": "address",
          "name": "",
          "type": "address"
        }
      ],
      "stateMutability": "view",
      "type": "function"
    },
    {
      "inputs": [],
      "name": "unpause",
      "outputs": [],
      "stateMutability": "nonpayable",
      "type": "function"
    },
    {
      "inputs": [
        {
          "internalType": "uint256",
          "name": "newThreshold",
          "type": "uint256"
        },
        {
          "internalType": "uint256",
          "name": "newDecreaseRate",
          "type": "uint256"
        }
      ],
      "name": "updateSlashParameters",
      "outputs": [],
      "stateMutability": "nonpayable",
      "type": "function"
    },
    {
      "inputs": [],
      "name": "validatorContract",
      "outputs": [
        {
          "internalType": "contract IValidators",
          "name": "",
          "type": "address"
        }
      ],
      "stateMutability": "view",
      "type": "function"
    }
  ],
  "bytecode": "0x608060405234801561001057600080fd5b50611702806100206000396000f3fe608060405234801561001057600080fd5b506004361061018e5760003560e01c80638456cb59116100de578063d112194711610097578063ee29063211610071578063ee2906321461031c578063f186b49e14610345578063f851a44014610374578063fc99d7a51461038d57600080fd5b8063d1121947146102f7578063e8a3298b1461030c578063ea29ba5f1461031457600080fd5b80638456cb59146102965780638f2839701461029e57806399439089146102b1578063b11b7e28146101bc578063c96be4cb146102d1578063cda2db1b146102e457600080fd5b80633f4ba83a1161014b5780635df415d9116101255780635df415d9146102745780635e81f1f81461027d57806367239a04146102855780638129fc1c1461028e57600080fd5b80633f4ba83a146102105780635b691dc61461021a5780635c975abb1461026257600080fd5b8063014667ba14610193578063123bb007146101bc578063158ef93e146101c4578063169b2623146101de5780632897183d146101f15780633a061bd3146101fa575b600080fd5b6101a66101a1366004610fa6565b6103a0565b6040516101b39190610fd7565b60405180910390f35b6101a6603081565b6000546101d19060ff1681565b6040516101b39190610fed565b6101d16101ec366004610fa6565b6103e0565b6101a660025481565b61020361100081565b6040516101b39190611004565b6102186105f3565b005b610252610228366004610fa6565b60046020526000908152604090208054600182015460028301546003909301549192909160ff1684565b6040516101b39493929190611012565b6000546101d190610100900460ff1681565b6101a660015481565b61021861067e565b61020361100181565b610218610746565b6102186107ad565b6102186102ac366004610fa6565b61083d565b6003546102c4906001600160a01b031681565b6040516101b39190611080565b6102186102df366004610fa6565b6108fc565b6102036102f236600461109f565b610a34565b6102ff610a5e565b6040516101b3919061111e565b6101a660c881565b6005546101a6565b6101a661032a366004610fa6565b6001600160a01b031660009081526004602052604090205490565b6101d1610353366004610fa6565b6001600160a01b031660009081526004602052604090206003015460ff1690565b600054610203906201000090046001600160a01b031681565b61021861039b36600461112f565b610ac0565b6001600160a01b03811660009081526004602052604081205460015481106103cb5750600092915050565b806001546103d99190611182565b9392505050565b6000805460ff1661040c5760405162461bcd60e51b8152600401610403906111c7565b60405180910390fd5b336110001461042d5760405162461bcd60e51b815260040161040390611221565b816001600160a01b0381166104545760405162461bcd60e51b815260040161040390611255565b6001600160a01b0383166000908152600460205260409020600381015460ff1680156104805750805415155b1561048a57600081555b600381015460ff16801561049f575060055415155b156105e9576005546104b390600190611182565b8160010154146105585760058054600091906104d190600190611182565b815481106104e1576104e1611265565b9060005260206000200160009054906101000a90046001600160a01b0316905080600583600101548154811061051957610519611265565b600091825260208083209190910180546001600160a01b0319166001600160a01b03948516179055600185810154949093168252600490526040902001555b60058054806105695761056961127b565b60008281526020808220830160001990810180546001600160a01b03191690559092019092556001600160a01b038616808352600490915260408083208381556001810184905560028101849055600301805460ff191690555190917f77eb05716cd087199d0dc3aef8de0da5d7bd3dca2a076f0f57807027f919c3db91a25b5060019392505050565b6000546201000090046001600160a01b031633146106235760405162461bcd60e51b8152600401610403906112cd565b600054610100900460ff1661064a5760405162461bcd60e51b8152600401610403906112fc565b6000805461ff00191681556040517fa45f47fdea8a1efdd9029a5691c7f759c32b7c698632b563573e155625d169339190a1565b33411461069d5760405162461bcd60e51b815260040161040390611354565b60075443116106be5760405162461bcd60e51b815260040161040390611396565b60005460ff166106e05760405162461bcd60e51b8152600401610403906111c7565b6106eb60c8436113bc565b156107085760405162461bcd60e51b8152600401610403906113f5565b600054610100900460ff16156107305760405162461bcd60e51b81526004016104039061142c565b6005541561074057610740610bda565b43600755565b60005460ff16156107695760405162461bcd60e51b81526004016104039061146c565b600380546001600160a01b031916611000179055603060018181556002919091556000805460ff196201000033021661ff01600160b01b0319909116179091179055565b6000546201000090046001600160a01b031633146107dd5760405162461bcd60e51b8152600401610403906112cd565b600054610100900460ff16156108055760405162461bcd60e51b81526004016104039061149f565b6000805461ff0019166101001781556040517f9e87fac88ff661f02d44f95383c817fece4bce600a3dab7a54406878b965e7529190a1565b6000546201000090046001600160a01b0316331461086d5760405162461bcd60e51b8152600401610403906112cd565b6001600160a01b0381166108935760405162461bcd60e51b8152600401610403906114d9565b600080546040516001600160a01b03808516936201000090930416917f7e644d79422f17c01e4894b5f4f588d331ebfa28653d42ae832dc59e38c9798f91a3600080546001600160a01b03909216620100000262010000600160b01b0319909216919091179055565b33411461091b5760405162461bcd60e51b815260040161040390611354565b60005460ff1661093d5760405162461bcd60e51b8152600401610403906111c7565b600654431161095e5760405162461bcd60e51b81526004016104039061151b565b600054610100900460ff16156109865760405162461bcd60e51b81526004016104039061142c565b806001600160a01b0381166109ad5760405162461bcd60e51b815260040161040390611255565b600354604051631c8b8a3d60e01b81526001600160a01b0390911690631c8b8a3d906109dd908590600401611004565b602060405180830381865afa1580156109fa573d6000803e3d6000fd5b505050506040513d601f19601f82011682018060405250810190610a1e919061153e565b15610a2c57610a2c82610dd9565b505043600655565b60058181548110610a4457600080fd5b6000918252602090912001546001600160a01b0316905081565b60606005805480602002602001604051908101604052809291908181526020018280548015610ab657602002820191906000526020600020905b81546001600160a01b03168152600190910190602001808311610a98575b5050505050905090565b6000546201000090046001600160a01b03163314610af05760405162461bcd60e51b8152600401610403906112cd565b600054610100900460ff1615610b185760405162461bcd60e51b81526004016104039061142c565b600082118015610b29575060648211155b610b455760405162461bcd60e51b815260040161040390611585565b600081118015610b56575060648111155b610b725760405162461bcd60e51b8152600401610403906115bf565b80821015610b925760405162461bcd60e51b81526004016104039061160c565b600182905560028190556040517ff6223ecd911e56a4b0cbe2de2af36e99a4edce1b98e459ae9282aee3c222752690610bce908490849061161c565b60405180910390a15050565b60055460008167ffffffffffffffff811115610bf857610bf8611637565b604051908082528060200260200182016040528015610c21578160200160208202803683370190505b50905060008267ffffffffffffffff811115610c3f57610c3f611637565b604051908082528060200260200182016040528015610c68578160200160208202803683370190505b509050600080600254600154610c7e919061164d565b905060005b85811015610d8f57600060058281548110610ca057610ca0611265565b60009182526020808320909101546001600160a01b03168083526004909152604090912060038101549192509060ff168015610cdf5750438160020154105b15610d7a574360028201558054841015610d125783816000016000828254610d079190611182565b90915550610d179050565b600081555b81878681518110610d2a57610d2a611265565b60200260200101906001600160a01b031690816001600160a01b0316815250508060000154868681518110610d6157610d61611265565b602090810291909101015284610d7681611661565b9550505b50508080610d8790611661565b915050610c83565b508115610dd2577f3e4ebe048d2e0b45269f37ccbfa8ef90af31aea2941cbc91615c150bbe2713f7848484604051610dc9939291906116c1565b60405180910390a15b5050505050565b6001600160a01b0381166000908152600460205260409020600381015460ff16610e5f5760058054600183810182905580820183556000929092527f036b6384b5eca791c62761152d0c79bb0604c104a5fb6f4eb0703f3154bb3db00180546001600160a01b0319166001600160a01b03851617905560038201805460ff191690911790555b8054816000610e6d83611661565b9190505550816001600160a01b03167faa05ad8bd5a439383515a4c1d513394bdc65d7afd3b2ce09f405b53efc6784ae8260000154604051610eaf9190610fd7565b60405180910390a2600154815410610f6d57600354604051632388fac360e11b81526001600160a01b0390911690634711f58690610ef1908590600401611004565b600060405180830381600087803b158015610f0b57600080fd5b505af1158015610f1f573d6000803e3d6000fd5b50505050816001600160a01b03167f17bddadfd7ec8898c3b9eadd0cf5ae77ba8d5df3a50e96ab86ec2dd711aa8fbb8260000154604051610f609190610fd7565b60405180910390a2600081555b5050565b60006001600160a01b0382165b92915050565b610f8d81610f71565b8114610f9857600080fd5b50565b8035610f7e81610f84565b600060208284031215610fbb57610fbb600080fd5b6000610fc78484610f9b565b949350505050565b805b82525050565b60208101610f7e8284610fcf565b801515610fd1565b60208101610f7e8284610fe5565b610fd181610f71565b60208101610f7e8284610ffb565b608081016110208287610fcf565b61102d6020830186610fcf565b61103a6040830185610fcf565b6110476060830184610fe5565b95945050505050565b60006001600160a01b038216610f7e565b6000610f7e82611050565b6000610f7e82611061565b610fd18161106c565b60208101610f7e8284611077565b80610f8d565b8035610f7e8161108e565b6000602082840312156110b4576110b4600080fd5b6000610fc78484611094565b6110ca8282610ffb565b5060200190565b60200190565b60006110e1825190565b808452602093840193830160005b8281101561111457815161110387826110c0565b9650506020820191506001016110ef565b5093949350505050565b602080825281016103d981846110d7565b6000806040838503121561114557611145600080fd5b60006111518585611094565b925050602061116285828601611094565b9150509250929050565b634e487b7160e01b600052601160045260246000fd5b81810381811115610f7e57610f7e61116c565b60198152602081017f74686520636f6e7472616374206e6f7420696e69742079657400000000000000815290506110d1565b60208082528101610f7e81611195565b602d8152602081017f746865206d6573736167652073656e646572206d7573742062652076616c696481526c185d1bdc8818dbdb9d1c9858dd609a1b602082015290505b60400190565b60208082528101610f7e816111d7565b600f8152602081016e496e76616c6964206164647265737360881b815290506110d1565b60208082528101610f7e81611231565b634e487b7160e01b600052603260045260246000fd5b634e487b7160e01b600052603160045260246000fd5b60218152602081017f4f6e6c792061646d696e2063616e2063616c6c20746869732066756e6374696f8152603760f91b6020820152905061121b565b60208082528101610f7e81611291565b600a81526020810169139bdd081c185d5cd95960b21b815290506110d1565b60208082528101610f7e816112dd565b602d8152602081017f746865206d6573736167652073656e646572206d75737420626520746865206281526c3637b1b590383937b23ab1b2b960991b6020820152905061121b565b60208082528101610f7e8161130c565b601f8152602081017f416c72656164792064656372656173656420696e207468697320626c6f636b00815290506110d1565b60208082528101610f7e81611364565b634e487b7160e01b600052601260045260246000fd5b6000826113cb576113cb6113a6565b500690565b60108152602081016f426c6f636b2065706f6368206f6e6c7960801b815290506110d1565b60208082528101610f7e816113d0565b60128152602081017110dbdb9d1c9858dd081a5cc81c185d5cd95960721b815290506110d1565b60208082528101610f7e81611405565b60208082527f74686520636f6e747261637420616c726561647920696e697469616c697a656491019081526110d1565b60208082528101610f7e8161143c565b600e8152602081016d105b1c9958591e481c185d5cd95960921b815290506110d1565b60208082528101610f7e8161147c565b601581526020810174496e76616c69642061646d696e206164647265737360581b815290506110d1565b60208082528101610f7e816114af565b601d8152602081017f416c726561647920736c617368656420696e207468697320626c6f636b000000815290506110d1565b60208082528101610f7e816114e9565b801515610f8d565b8051610f7e8161152b565b60006020828403121561155357611553600080fd5b6000610fc78484611533565b601181526020810170125b9d985b1a59081d1a1c995cda1bdb19607a1b815290506110d1565b60208082528101610f7e8161155f565b601581526020810174496e76616c6964206465637265617365207261746560581b815290506110d1565b60208082528101610f7e81611595565b60228152602081017f5468726573686f6c64206d757374206265203e3d206465637265617365207261815261746560f01b6020820152905061121b565b60208082528101610f7e816115cf565b6040810161162a8285610fcf565b6103d96020830184610fcf565b634e487b7160e01b600052604160045260246000fd5b60008261165c5761165c6113a6565b500490565b6000600182016116735761167361116c565b5060010190565b6110ca8282610fcf565b600061168e825190565b808452602093840193830160005b828110156111145781516116b0878261167a565b96505060208201915060010161169c565b606080825281016116d281866110d7565b905081810360208301526116e68185611684565b9050610fc76040830184610fcf56fea164736f6c6343000813000a",
  "linkReferences": {},
  "deployedLinkReferences": {}
}